{
	"data": {
		"bytecode": {
			"linkReferences": {},
			"object": "608060405234801562000010575f80fd5b506040518060400160405280601e81526020017f68747470733a2f2f697066732e696f2f697066732f7b69647d2e6a736f6e000081525062000058816200005f60201b60201c565b50620003bc565b8060029081620000709190620002d8565b5050565b5f81519050919050565b7f4e487b71000000000000000000000000000000000000000000000000000000005f52604160045260245ffd5b7f4e487b71000000000000000000000000000000000000000000000000000000005f52602260045260245ffd5b5f6002820490506001821680620000f057607f821691505b602082108103620001065762000105620000ab565b5b50919050565b5f819050815f5260205f209050919050565b5f6020601f8301049050919050565b5f82821b905092915050565b5f600883026200016a7fffffffffffffffffffffffffffffffffffffffffffffffffffffffffffffffff826200012d565b6200017686836200012d565b95508019841693508086168417925050509392505050565b5f819050919050565b5f819050919050565b5f620001c0620001ba620001b4846200018e565b62000197565b6200018e565b9050919050565b5f819050919050565b620001db83620001a0565b620001f3620001ea82620001c7565b84845462000139565b825550505050565b5f90565b62000209620001fb565b62000216818484620001d0565b505050565b5b818110156200023d57620002315f82620001ff565b6001810190506200021c565b5050565b601f8211156200028c5762000256816200010c565b62000261846200011e565b8101602085101562000271578190505b6200028962000280856200011e565b8301826200021b565b50505b505050565b5f82821c905092915050565b5f620002ae5f198460080262000291565b1980831691505092915050565b5f620002c883836200029d565b9150826002028217905092915050565b620002e38262000074565b67ffffffffffffffff811115620002ff57620002fe6200007e565b5b6200030b8254620000d8565b6200031882828562000241565b5f60209050601f8311600181146200034e575f841562000339578287015190505b620003458582620002bb565b865550620003b4565b601f1984166200035e866200010c565b5f5b82811015620003875784890151825560018201915060208501945060208101905062000360565b86831015620003a75784890151620003a3601f8916826200029d565b8355505b6001600288020188555050505b505050505050565b6124af80620003ca5f395ff3fe608060405234801561000f575f80fd5b506004361061009b575f3560e01c80634e1273f4116100645780634e1273f41461017b57806358ea82e6146101ab578063a22cb465146101c7578063e985e9c5146101e3578063f242432a146102135761009b565b8062fdd58e1461009f57806301ffc9a7146100cf57806307805a6b146100ff5780630e89341c1461012f5780632eb2c2d61461015f575b5f80fd5b6100b960048036038101906100b491906114d2565b61022f565b6040516100c6919061151f565b60405180910390f35b6100e960048036038101906100e4919061158d565b610284565b6040516100f691906115d2565b60405180910390f35b61011960048036038101906101149190611727565b610365565b604051610126919061151f565b60405180910390f35b61014960048036038101906101449190611781565b6103ac565b6040516101569190611826565b60405180910390f35b610179600480360381019061017491906119a8565b6103ef565b005b61019560048036038101906101909190611b33565b610496565b6040516101a29190611c60565b60405180910390f35b6101c560048036038101906101c09190611c80565b61059d565b005b6101e160048036038101906101dc9190611cfa565b6105bc565b005b6101fd60048036038101906101f89190611d38565b6105d2565b60405161020a91906115d2565b60405180910390f35b61022d60048036038101906102289190611d76565b610660565b005b5f805f8381526020019081526020015f205f8473ffffffffffffffffffffffffffffffffffffffff1673ffffffffffffffffffffffffffffffffffffffff1681526020019081526020015f2054905092915050565b5f7fd9b67a26000000000000000000000000000000000000000000000000000000007bffffffffffffffffffffffffffffffffffffffffffffffffffffffff1916827bffffffffffffffffffffffffffffffffffffffffffffffffffffffff1916148061034e57507f0e89341c000000000000000000000000000000000000000000000000000000007bffffffffffffffffffffffffffffffffffffffffffffffffffffffff1916827bffffffffffffffffffffffffffffffffffffffffffffffffffffffff1916145b8061035e575061035d82610707565b5b9050919050565b5f6103706003610770565b5f61037b6003610784565b90506103988482600160405180602001604052805f815250610790565b6103a28184610825565b8091505092915050565b60606103b782610848565b60045f8481526020019081526020015f206040516020016103d9929190611f32565b6040516020818303038152906040529050919050565b5f6103f86108da565b90508073ffffffffffffffffffffffffffffffffffffffff168673ffffffffffffffffffffffffffffffffffffffff161415801561043d575061043b86826105d2565b155b156104815780866040517fe237d922000000000000000000000000000000000000000000000000000000008152600401610478929190611f64565b60405180910390fd5b61048e86868686866108e1565b505050505050565b606081518351146104e257815183516040517f5b0599910000000000000000000000000000000000000000000000000000000081526004016104d9929190611f8b565b60405180910390fd5b5f835167ffffffffffffffff8111156104fe576104fd611603565b5b60405190808252806020026020018201604052801561052c5781602001602082028036833780820191505090505b5090505f5b84518110156105925761056861055082876109d590919063ffffffff16565b61056383876109e890919063ffffffff16565b61022f565b82828151811061057b5761057a611fb2565b5b602002602001018181525050806001019050610531565b508091505092915050565b6105b783838360405180602001604052805f815250610790565b505050565b6105ce6105c76108da565b83836109fb565b5050565b5f60015f8473ffffffffffffffffffffffffffffffffffffffff1673ffffffffffffffffffffffffffffffffffffffff1681526020019081526020015f205f8373ffffffffffffffffffffffffffffffffffffffff1673ffffffffffffffffffffffffffffffffffffffff1681526020019081526020015f205f9054906101000a900460ff16905092915050565b5f6106696108da565b90508073ffffffffffffffffffffffffffffffffffffffff168673ffffffffffffffffffffffffffffffffffffffff16141580156106ae57506106ac86826105d2565b155b156106f25780866040517fe237d9220000000000000000000000000000000000000000000000000000000081526004016106e9929190611f64565b60405180910390fd5b6106ff8686868686610b64565b505050505050565b5f7f01ffc9a7000000000000000000000000000000000000000000000000000000007bffffffffffffffffffffffffffffffffffffffffffffffffffffffff1916827bffffffffffffffffffffffffffffffffffffffffffffffffffffffff1916149050919050565b6001815f015f828254019250508190555050565b5f815f01549050919050565b5f73ffffffffffffffffffffffffffffffffffffffff168473ffffffffffffffffffffffffffffffffffffffff1603610800575f6040517f57f447ce0000000000000000000000000000000000000000000000000000000081526004016107f79190611fdf565b60405180910390fd5b5f8061080c8585610c6a565b9150915061081d5f87848487610c9a565b505050505050565b8060045f8481526020019081526020015f2090816108439190612183565b505050565b60606002805461085790611e70565b80601f016020809104026020016040519081016040528092919081815260200182805461088390611e70565b80156108ce5780601f106108a5576101008083540402835291602001916108ce565b820191905f5260205f20905b8154815290600101906020018083116108b157829003601f168201915b50505050509050919050565b5f33905090565b5f73ffffffffffffffffffffffffffffffffffffffff168473ffffffffffffffffffffffffffffffffffffffff1603610951575f6040517f57f447ce0000000000000000000000000000000000000000000000000000000081526004016109489190611fdf565b60405180910390fd5b5f73ffffffffffffffffffffffffffffffffffffffff168573ffffffffffffffffffffffffffffffffffffffff16036109c1575f6040517f01a835140000000000000000000000000000000000000000000000000000000081526004016109b89190611fdf565b60405180910390fd5b6109ce8585858585610c9a565b5050505050565b5f60208202602084010151905092915050565b5f60208202602084010151905092915050565b5f73ffffffffffffffffffffffffffffffffffffffff168273ffffffffffffffffffffffffffffffffffffffff1603610a6b575f6040517fced3e100000000000000000000000000000000000000000000000000000000008152600401610a629190611fdf565b60405180910390fd5b8060015f8573ffffffffffffffffffffffffffffffffffffffff1673ffffffffffffffffffffffffffffffffffffffff1681526020019081526020015f205f8473ffffffffffffffffffffffffffffffffffffffff1673ffffffffffffffffffffffffffffffffffffffff1681526020019081526020015f205f6101000a81548160ff0219169083151502179055508173ffffffffffffffffffffffffffffffffffffffff168373ffffffffffffffffffffffffffffffffffffffff167f17307eab39ab6107e8899845ad3d59bd9653f200f220920489ca2b5937696c3183604051610b5791906115d2565b60405180910390a3505050565b5f73ffffffffffffffffffffffffffffffffffffffff168473ffffffffffffffffffffffffffffffffffffffff1603610bd4575f6040517f57f447ce000000000000000000000000000000000000000000000000000000008152600401610bcb9190611fdf565b60405180910390fd5b5f73ffffffffffffffffffffffffffffffffffffffff168573ffffffffffffffffffffffffffffffffffffffff1603610c44575f6040517f01a83514000000000000000000000000000000000000000000000000000000008152600401610c3b9190611fdf565b60405180910390fd5b5f80610c508585610c6a565b91509150610c618787848487610c9a565b50505050505050565b60608060405191506001825283602083015260408201905060018152826020820152604081016040529250929050565b610ca685858585610d46565b5f73ffffffffffffffffffffffffffffffffffffffff168473ffffffffffffffffffffffffffffffffffffffff1614610d3f575f610ce26108da565b90506001845103610d2e575f610d015f866109e890919063ffffffff16565b90505f610d175f866109e890919063ffffffff16565b9050610d278389898585896110d6565b5050610d3d565b610d3c818787878787611285565b5b505b5050505050565b8051825114610d9057815181516040517f5b059991000000000000000000000000000000000000000000000000000000008152600401610d87929190611f8b565b60405180910390fd5b5f610d996108da565b90505f5b8351811015610f95575f610dba82866109e890919063ffffffff16565b90505f610dd083866109e890919063ffffffff16565b90505f73ffffffffffffffffffffffffffffffffffffffff168873ffffffffffffffffffffffffffffffffffffffff1614610ef3575f805f8481526020019081526020015f205f8a73ffffffffffffffffffffffffffffffffffffffff1673ffffffffffffffffffffffffffffffffffffffff1681526020019081526020015f2054905081811015610e9f57888183856040517f03dee4c5000000000000000000000000000000000000000000000000000000008152600401610e969493929190612252565b60405180910390fd5b8181035f808581526020019081526020015f205f8b73ffffffffffffffffffffffffffffffffffffffff1673ffffffffffffffffffffffffffffffffffffffff1681526020019081526020015f2081905550505b5f73ffffffffffffffffffffffffffffffffffffffff168773ffffffffffffffffffffffffffffffffffffffff1614610f8857805f808481526020019081526020015f205f8973ffffffffffffffffffffffffffffffffffffffff1673ffffffffffffffffffffffffffffffffffffffff1681526020019081526020015f205f828254610f8091906122c2565b925050819055505b5050806001019050610d9d565b506001835103611050575f610fb35f856109e890919063ffffffff16565b90505f610fc95f856109e890919063ffffffff16565b90508573ffffffffffffffffffffffffffffffffffffffff168773ffffffffffffffffffffffffffffffffffffffff168473ffffffffffffffffffffffffffffffffffffffff167fc3d58168c5ae7397731d063d5bbf3d657854427343f4c083240f7aacaa2d0f628585604051611041929190611f8b565b60405180910390a450506110cf565b8373ffffffffffffffffffffffffffffffffffffffff168573ffffffffffffffffffffffffffffffffffffffff168273ffffffffffffffffffffffffffffffffffffffff167f4a39dc06d4c0dbc64b70af90fd698a233a518aa5d07e595d983b8c0526c8f7fb86866040516110c69291906122f5565b60405180910390a45b5050505050565b5f8473ffffffffffffffffffffffffffffffffffffffff163b111561127d578373ffffffffffffffffffffffffffffffffffffffff1663f23a6e6187878686866040518663ffffffff1660e01b815260040161113695949392919061237c565b6020604051808303815f875af192505050801561117157506040513d601f19601f8201168201806040525081019061116e91906123e8565b60015b6111f2573d805f811461119f576040519150601f19603f3d011682016040523d82523d5f602084013e6111a4565b606091505b505f8151036111ea57846040517f57f447ce0000000000000000000000000000000000000000000000000000000081526004016111e19190611fdf565b60405180910390fd5b805181602001fd5b63f23a6e6160e01b7bffffffffffffffffffffffffffffffffffffffffffffffffffffffff1916817bffffffffffffffffffffffffffffffffffffffffffffffffffffffff19161461127b57846040517f57f447ce0000000000000000000000000000000000000000000000000000000081526004016112729190611fdf565b60405180910390fd5b505b505050505050565b5f8473ffffffffffffffffffffffffffffffffffffffff163b111561142c578373ffffffffffffffffffffffffffffffffffffffff1663bc197c8187878686866040518663ffffffff1660e01b81526004016112e5959493929190612413565b6020604051808303815f875af192505050801561132057506040513d601f19601f8201168201806040525081019061131d91906123e8565b60015b6113a1573d805f811461134e576040519150601f19603f3d011682016040523d82523d5f602084013e611353565b606091505b505f81510361139957846040517f57f447ce0000000000000000000000000000000000000000000000000000000081526004016113909190611fdf565b60405180910390fd5b805181602001fd5b63bc197c8160e01b7bffffffffffffffffffffffffffffffffffffffffffffffffffffffff1916817bffffffffffffffffffffffffffffffffffffffffffffffffffffffff19161461142a57846040517f57f447ce0000000000000000000000000000000000000000000000000000000081526004016114219190611fdf565b60405180910390fd5b505b505050505050565b5f604051905090565b5f80fd5b5f80fd5b5f73ffffffffffffffffffffffffffffffffffffffff82169050919050565b5f61146e82611445565b9050919050565b61147e81611464565b8114611488575f80fd5b50565b5f8135905061149981611475565b92915050565b5f819050919050565b6114b18161149f565b81146114bb575f80fd5b50565b5f813590506114cc816114a8565b92915050565b5f80604083850312156114e8576114e761143d565b5b5f6114f58582860161148b565b9250506020611506858286016114be565b9150509250929050565b6115198161149f565b82525050565b5f6020820190506115325f830184611510565b92915050565b5f7fffffffff0000000000000000000000000000000000000000000000000000000082169050919050565b61156c81611538565b8114611576575f80fd5b50565b5f8135905061158781611563565b92915050565b5f602082840312156115a2576115a161143d565b5b5f6115af84828501611579565b91505092915050565b5f8115159050919050565b6115cc816115b8565b82525050565b5f6020820190506115e55f8301846115c3565b92915050565b5f80fd5b5f80fd5b5f601f19601f8301169050919050565b7f4e487b71000000000000000000000000000000000000000000000000000000005f52604160045260245ffd5b611639826115f3565b810181811067ffffffffffffffff8211171561165857611657611603565b5b80604052505050565b5f61166a611434565b90506116768282611630565b919050565b5f67ffffffffffffffff82111561169557611694611603565b5b61169e826115f3565b9050602081019050919050565b828183375f83830152505050565b5f6116cb6116c68461167b565b611661565b9050828152602081018484840111156116e7576116e66115ef565b5b6116f28482856116ab565b509392505050565b5f82601f83011261170e5761170d6115eb565b5b813561171e8482602086016116b9565b91505092915050565b5f806040838503121561173d5761173c61143d565b5b5f61174a8582860161148b565b925050602083013567ffffffffffffffff81111561176b5761176a611441565b5b611777858286016116fa565b9150509250929050565b5f602082840312156117965761179561143d565b5b5f6117a3848285016114be565b91505092915050565b5f81519050919050565b5f82825260208201905092915050565b5f5b838110156117e35780820151818401526020810190506117c8565b5f8484015250505050565b5f6117f8826117ac565b61180281856117b6565b93506118128185602086016117c6565b61181b816115f3565b840191505092915050565b5f6020820190508181035f83015261183e81846117ee565b905092915050565b5f67ffffffffffffffff8211156118605761185f611603565b5b602082029050602081019050919050565b5f80fd5b5f61188761188284611846565b611661565b905080838252602082019050602084028301858111156118aa576118a9611871565b5b835b818110156118d357806118bf88826114be565b8452602084019350506020810190506118ac565b5050509392505050565b5f82601f8301126118f1576118f06115eb565b5b8135611901848260208601611875565b91505092915050565b5f67ffffffffffffffff82111561192457611923611603565b5b61192d826115f3565b9050602081019050919050565b5f61194c6119478461190a565b611661565b905082815260208101848484011115611968576119676115ef565b5b6119738482856116ab565b509392505050565b5f82601f83011261198f5761198e6115eb565b5b813561199f84826020860161193a565b91505092915050565b5f805f805f60a086880312156119c1576119c061143d565b5b5f6119ce8882890161148b565b95505060206119df8882890161148b565b945050604086013567ffffffffffffffff811115611a00576119ff611441565b5b611a0c888289016118dd565b935050606086013567ffffffffffffffff811115611a2d57611a2c611441565b5b611a39888289016118dd565b925050608086013567ffffffffffffffff811115611a5a57611a59611441565b5b611a668882890161197b565b9150509295509295909350565b5f67ffffffffffffffff821115611a8d57611a8c611603565b5b602082029050602081019050919050565b5f611ab0611aab84611a73565b611661565b90508083825260208201905060208402830185811115611ad357611ad2611871565b5b835b81811015611afc5780611ae8888261148b565b845260208401935050602081019050611ad5565b5050509392505050565b5f82601f830112611b1a57611b196115eb565b5b8135611b2a848260208601611a9e565b91505092915050565b5f8060408385031215611b4957611b4861143d565b5b5f83013567ffffffffffffffff811115611b6657611b65611441565b5b611b7285828601611b06565b925050602083013567ffffffffffffffff811115611b9357611b92611441565b5b611b9f858286016118dd565b9150509250929050565b5f81519050919050565b5f82825260208201905092915050565b5f819050602082019050919050565b611bdb8161149f565b82525050565b5f611bec8383611bd2565b60208301905092915050565b5f602082019050919050565b5f611c0e82611ba9565b611c188185611bb3565b9350611c2383611bc3565b805f5b83811015611c53578151611c3a8882611be1565b9750611c4583611bf8565b925050600181019050611c26565b5085935050505092915050565b5f6020820190508181035f830152611c788184611c04565b905092915050565b5f805f60608486031215611c9757611c9661143d565b5b5f611ca48682870161148b565b9350506020611cb5868287016114be565b9250506040611cc6868287016114be565b9150509250925092565b611cd9816115b8565b8114611ce3575f80fd5b50565b5f81359050611cf481611cd0565b92915050565b5f8060408385031215611d1057611d0f61143d565b5b5f611d1d8582860161148b565b9250506020611d2e85828601611ce6565b9150509250929050565b5f8060408385031215611d4e57611d4d61143d565b5b5f611d5b8582860161148b565b9250506020611d6c8582860161148b565b9150509250929050565b5f805f805f60a08688031215611d8f57611d8e61143d565b5b5f611d9c8882890161148b565b9550506020611dad8882890161148b565b9450506040611dbe888289016114be565b9350506060611dcf888289016114be565b925050608086013567ffffffffffffffff811115611df057611def611441565b5b611dfc8882890161197b565b9150509295509295909350565b5f81905092915050565b5f611e1d826117ac565b611e278185611e09565b9350611e378185602086016117c6565b80840191505092915050565b7f4e487b71000000000000000000000000000000000000000000000000000000005f52602260045260245ffd5b5f6002820490506001821680611e8757607f821691505b602082108103611e9a57611e99611e43565b5b50919050565b5f819050815f5260205f209050919050565b5f8154611ebe81611e70565b611ec88186611e09565b9450600182165f8114611ee25760018114611ef757611f29565b60ff1983168652811515820286019350611f29565b611f0085611ea0565b5f5b83811015611f2157815481890152600182019150602081019050611f02565b838801955050505b50505092915050565b5f611f3d8285611e13565b9150611f498284611eb2565b91508190509392505050565b611f5e81611464565b82525050565b5f604082019050611f775f830185611f55565b611f846020830184611f55565b9392505050565b5f604082019050611f9e5f830185611510565b611fab6020830184611510565b9392505050565b7f4e487b71000000000000000000000000000000000000000000000000000000005f52603260045260245ffd5b5f602082019050611ff25f830184611f55565b92915050565b5f6020601f8301049050919050565b5f82821b905092915050565b5f600883026120427fffffffffffffffffffffffffffffffffffffffffffffffffffffffffffffffff82612007565b61204c8683612007565b95508019841693508086168417925050509392505050565b5f819050919050565b5f61208761208261207d8461149f565b612064565b61149f565b9050919050565b5f819050919050565b6120a08361206d565b6120b46120ac8261208e565b848454612013565b825550505050565b5f90565b6120c86120bc565b6120d3818484612097565b505050565b5b818110156120f6576120eb5f826120c0565b6001810190506120d9565b5050565b601f82111561213b5761210c81611ea0565b61211584611ff8565b81016020851015612124578190505b61213861213085611ff8565b8301826120d8565b50505b505050565b5f82821c905092915050565b5f61215b5f1984600802612140565b1980831691505092915050565b5f612173838361214c565b9150826002028217905092915050565b61218c826117ac565b67ffffffffffffffff8111156121a5576121a4611603565b5b6121af8254611e70565b6121ba8282856120fa565b5f60209050601f8311600181146121eb575f84156121d9578287015190505b6121e38582612168565b86555061224a565b601f1984166121f986611ea0565b5f5b82811015612220578489015182556001820191506020850194506020810190506121fb565b8683101561223d5784890151612239601f89168261214c565b8355505b6001600288020188555050505b505050505050565b5f6080820190506122655f830187611f55565b6122726020830186611510565b61227f6040830185611510565b61228c6060830184611510565b95945050505050565b7f4e487b71000000000000000000000000000000000000000000000000000000005f52601160045260245ffd5b5f6122cc8261149f565b91506122d78361149f565b92508282019050808211156122ef576122ee612295565b5b92915050565b5f6040820190508181035f83015261230d8185611c04565b905081810360208301526123218184611c04565b90509392505050565b5f81519050919050565b5f82825260208201905092915050565b5f61234e8261232a565b6123588185612334565b93506123688185602086016117c6565b612371816115f3565b840191505092915050565b5f60a08201905061238f5f830188611f55565b61239c6020830187611f55565b6123a96040830186611510565b6123b66060830185611510565b81810360808301526123c88184612344565b90509695505050505050565b5f815190506123e281611563565b92915050565b5f602082840312156123fd576123fc61143d565b5b5f61240a848285016123d4565b91505092915050565b5f60a0820190506124265f830188611f55565b6124336020830187611f55565b81810360408301526124458186611c04565b905081810360608301526124598185611c04565b9050818103608083015261246d8184612344565b9050969550505050505056fea264697066735822122017b8a8423b9774f6429be3d8d1a2429f036fcde274bdee8c77bf45d123666c2d64736f6c63430008160033",
			"opcodes": "PUSH1 0x80 PUSH1 0x40 MSTORE CALLVALUE DUP1 ISZERO PUSH3 0x10 JUMPI PUSH0 DUP1 REVERT JUMPDEST POP PUSH1 0x40 MLOAD DUP1 PUSH1 0x40 ADD PUSH1 0x40 MSTORE DUP1 PUSH1 0x1E DUP2 MSTORE PUSH1 0x20 ADD PUSH32 0x68747470733A2F2F697066732E696F2F697066732F7B69647D2E6A736F6E0000 DUP2 MSTORE POP PUSH3 0x58 DUP2 PUSH3 0x5F PUSH1 0x20 SHL PUSH1 0x20 SHR JUMP JUMPDEST POP PUSH3 0x3BC JUMP JUMPDEST DUP1 PUSH1 0x2 SWAP1 DUP2 PUSH3 0x70 SWAP2 SWAP1 PUSH3 0x2D8 JUMP JUMPDEST POP POP JUMP JUMPDEST PUSH0 DUP2 MLOAD SWAP1 POP SWAP2 SWAP1 POP JUMP JUMPDEST PUSH32 0x4E487B7100000000000000000000000000000000000000000000000000000000 PUSH0 MSTORE PUSH1 0x41 PUSH1 0x4 MSTORE PUSH1 0x24 PUSH0 REVERT JUMPDEST PUSH32 0x4E487B7100000000000000000000000000000000000000000000000000000000 PUSH0 MSTORE PUSH1 0x22 PUSH1 0x4 MSTORE PUSH1 0x24 PUSH0 REVERT JUMPDEST PUSH0 PUSH1 0x2 DUP3 DIV SWAP1 POP PUSH1 0x1 DUP3 AND DUP1 PUSH3 0xF0 JUMPI PUSH1 0x7F DUP3 AND SWAP2 POP JUMPDEST PUSH1 0x20 DUP3 LT DUP2 SUB PUSH3 0x106 JUMPI PUSH3 0x105 PUSH3 0xAB JUMP JUMPDEST JUMPDEST POP SWAP2 SWAP1 POP JUMP JUMPDEST PUSH0 DUP2 SWAP1 POP DUP2 PUSH0 MSTORE PUSH1 0x20 PUSH0 KECCAK256 SWAP1 POP SWAP2 SWAP1 POP JUMP JUMPDEST PUSH0 PUSH1 0x20 PUSH1 0x1F DUP4 ADD DIV SWAP1 POP SWAP2 SWAP1 POP JUMP JUMPDEST PUSH0 DUP3 DUP3 SHL SWAP1 POP SWAP3 SWAP2 POP POP JUMP JUMPDEST PUSH0 PUSH1 0x8 DUP4 MUL PUSH3 0x16A PUSH32 0xFFFFFFFFFFFFFFFFFFFFFFFFFFFFFFFFFFFFFFFFFFFFFFFFFFFFFFFFFFFFFFFF DUP3 PUSH3 0x12D JUMP JUMPDEST PUSH3 0x176 DUP7 DUP4 PUSH3 0x12D JUMP JUMPDEST SWAP6 POP DUP1 NOT DUP5 AND SWAP4 POP DUP1 DUP7 AND DUP5 OR SWAP3 POP POP POP SWAP4 SWAP3 POP POP POP JUMP JUMPDEST PUSH0 DUP2 SWAP1 POP SWAP2 SWAP1 POP JUMP JUMPDEST PUSH0 DUP2 SWAP1 POP SWAP2 SWAP1 POP JUMP JUMPDEST PUSH0 PUSH3 0x1C0 PUSH3 0x1BA PUSH3 0x1B4 DUP5 PUSH3 0x18E JUMP JUMPDEST PUSH3 0x197 JUMP JUMPDEST PUSH3 0x18E JUMP JUMPDEST SWAP1 POP SWAP2 SWAP1 POP JUMP JUMPDEST PUSH0 DUP2 SWAP1 POP SWAP2 SWAP1 POP JUMP JUMPDEST PUSH3 0x1DB DUP4 PUSH3 0x1A0 JUMP JUMPDEST PUSH3 0x1F3 PUSH3 0x1EA DUP3 PUSH3 0x1C7 JUMP JUMPDEST DUP5 DUP5 SLOAD PUSH3 0x139 JUMP JUMPDEST DUP3 SSTORE POP POP POP POP JUMP JUMPDEST PUSH0 SWAP1 JUMP JUMPDEST PUSH3 0x209 PUSH3 0x1FB JUMP JUMPDEST PUSH3 0x216 DUP2 DUP5 DUP5 PUSH3 0x1D0 JUMP JUMPDEST POP POP POP JUMP JUMPDEST JUMPDEST DUP2 DUP2 LT ISZERO PUSH3 0x23D JUMPI PUSH3 0x231 PUSH0 DUP3 PUSH3 0x1FF JUMP JUMPDEST PUSH1 0x1 DUP2 ADD SWAP1 POP PUSH3 0x21C JUMP JUMPDEST POP POP JUMP JUMPDEST PUSH1 0x1F DUP3 GT ISZERO PUSH3 0x28C JUMPI PUSH3 0x256 DUP2 PUSH3 0x10C JUMP JUMPDEST PUSH3 0x261 DUP5 PUSH3 0x11E JUMP JUMPDEST DUP2 ADD PUSH1 0x20 DUP6 LT ISZERO PUSH3 0x271 JUMPI DUP2 SWAP1 POP JUMPDEST PUSH3 0x289 PUSH3 0x280 DUP6 PUSH3 0x11E JUMP JUMPDEST DUP4 ADD DUP3 PUSH3 0x21B JUMP JUMPDEST POP POP JUMPDEST POP POP POP JUMP JUMPDEST PUSH0 DUP3 DUP3 SHR SWAP1 POP SWAP3 SWAP2 POP POP JUMP JUMPDEST PUSH0 PUSH3 0x2AE PUSH0 NOT DUP5 PUSH1 0x8 MUL PUSH3 0x291 JUMP JUMPDEST NOT DUP1 DUP4 AND SWAP2 POP POP SWAP3 SWAP2 POP POP JUMP JUMPDEST PUSH0 PUSH3 0x2C8 DUP4 DUP4 PUSH3 0x29D JUMP JUMPDEST SWAP2 POP DUP3 PUSH1 0x2 MUL DUP3 OR SWAP1 POP SWAP3 SWAP2 POP POP JUMP JUMPDEST PUSH3 0x2E3 DUP3 PUSH3 0x74 JUMP JUMPDEST PUSH8 0xFFFFFFFFFFFFFFFF DUP2 GT ISZERO PUSH3 0x2FF JUMPI PUSH3 0x2FE PUSH3 0x7E JUMP JUMPDEST JUMPDEST PUSH3 0x30B DUP3 SLOAD PUSH3 0xD8 JUMP JUMPDEST PUSH3 0x318 DUP3 DUP3 DUP6 PUSH3 0x241 JUMP JUMPDEST PUSH0 PUSH1 0x20 SWAP1 POP PUSH1 0x1F DUP4 GT PUSH1 0x1 DUP2 EQ PUSH3 0x34E JUMPI PUSH0 DUP5 ISZERO PUSH3 0x339 JUMPI DUP3 DUP8 ADD MLOAD SWAP1 POP JUMPDEST PUSH3 0x345 DUP6 DUP3 PUSH3 0x2BB JUMP JUMPDEST DUP7 SSTORE POP PUSH3 0x3B4 JUMP JUMPDEST PUSH1 0x1F NOT DUP5 AND PUSH3 0x35E DUP7 PUSH3 0x10C JUMP JUMPDEST PUSH0 JUMPDEST DUP3 DUP2 LT ISZERO PUSH3 0x387 JUMPI DUP5 DUP10 ADD MLOAD DUP3 SSTORE PUSH1 0x1 DUP3 ADD SWAP2 POP PUSH1 0x20 DUP6 ADD SWAP5 POP PUSH1 0x20 DUP2 ADD SWAP1 POP PUSH3 0x360 JUMP JUMPDEST DUP7 DUP4 LT ISZERO PUSH3 0x3A7 JUMPI DUP5 DUP10 ADD MLOAD PUSH3 0x3A3 PUSH1 0x1F DUP10 AND DUP3 PUSH3 0x29D JUMP JUMPDEST DUP4 SSTORE POP JUMPDEST PUSH1 0x1 PUSH1 0x2 DUP9 MUL ADD DUP9 SSTORE POP POP POP JUMPDEST POP POP POP POP POP POP JUMP JUMPDEST PUSH2 0x24AF DUP1 PUSH3 0x3CA PUSH0 CODECOPY PUSH0 RETURN INVALID PUSH1 0x80 PUSH1 0x40 MSTORE CALLVALUE DUP1 ISZERO PUSH2 0xF JUMPI PUSH0 DUP1 REVERT JUMPDEST POP PUSH1 0x4 CALLDATASIZE LT PUSH2 0x9B JUMPI PUSH0 CALLDATALOAD PUSH1 0xE0 SHR DUP1 PUSH4 0x4E1273F4 GT PUSH2 0x64 JUMPI DUP1 PUSH4 0x4E1273F4 EQ PUSH2 0x17B JUMPI DUP1 PUSH4 0x58EA82E6 EQ PUSH2 0x1AB JUMPI DUP1 PUSH4 0xA22CB465 EQ PUSH2 0x1C7 JUMPI DUP1 PUSH4 0xE985E9C5 EQ PUSH2 0x1E3 JUMPI DUP1 PUSH4 0xF242432A EQ PUSH2 0x213 JUMPI PUSH2 0x9B JUMP JUMPDEST DUP1 PUSH3 0xFDD58E EQ PUSH2 0x9F JUMPI DUP1 PUSH4 0x1FFC9A7 EQ PUSH2 0xCF JUMPI DUP1 PUSH4 0x7805A6B EQ PUSH2 0xFF JUMPI DUP1 PUSH4 0xE89341C EQ PUSH2 0x12F JUMPI DUP1 PUSH4 0x2EB2C2D6 EQ PUSH2 0x15F JUMPI JUMPDEST PUSH0 DUP1 REVERT JUMPDEST PUSH2 0xB9 PUSH1 0x4 DUP1 CALLDATASIZE SUB DUP2 ADD SWAP1 PUSH2 0xB4 SWAP2 SWAP1 PUSH2 0x14D2 JUMP JUMPDEST PUSH2 0x22F JUMP JUMPDEST PUSH1 0x40 MLOAD PUSH2 0xC6 SWAP2 SWAP1 PUSH2 0x151F JUMP JUMPDEST PUSH1 0x40 MLOAD DUP1 SWAP2 SUB SWAP1 RETURN JUMPDEST PUSH2 0xE9 PUSH1 0x4 DUP1 CALLDATASIZE SUB DUP2 ADD SWAP1 PUSH2 0xE4 SWAP2 SWAP1 PUSH2 0x158D JUMP JUMPDEST PUSH2 0x284 JUMP JUMPDEST PUSH1 0x40 MLOAD PUSH2 0xF6 SWAP2 SWAP1 PUSH2 0x15D2 JUMP JUMPDEST PUSH1 0x40 MLOAD DUP1 SWAP2 SUB SWAP1 RETURN JUMPDEST PUSH2 0x119 PUSH1 0x4 DUP1 CALLDATASIZE SUB DUP2 ADD SWAP1 PUSH2 0x114 SWAP2 SWAP1 PUSH2 0x1727 JUMP JUMPDEST PUSH2 0x365 JUMP JUMPDEST PUSH1 0x40 MLOAD PUSH2 0x126 SWAP2 SWAP1 PUSH2 0x151F JUMP JUMPDEST PUSH1 0x40 MLOAD DUP1 SWAP2 SUB SWAP1 RETURN JUMPDEST PUSH2 0x149 PUSH1 0x4 DUP1 CALLDATASIZE SUB DUP2 ADD SWAP1 PUSH2 0x144 SWAP2 SWAP1 PUSH2 0x1781 JUMP JUMPDEST PUSH2 0x3AC JUMP JUMPDEST PUSH1 0x40 MLOAD PUSH2 0x156 SWAP2 SWAP1 PUSH2 0x1826 JUMP JUMPDEST PUSH1 0x40 MLOAD DUP1 SWAP2 SUB SWAP1 RETURN JUMPDEST PUSH2 0x179 PUSH1 0x4 DUP1 CALLDATASIZE SUB DUP2 ADD SWAP1 PUSH2 0x174 SWAP2 SWAP1 PUSH2 0x19A8 JUMP JUMPDEST PUSH2 0x3EF JUMP JUMPDEST STOP JUMPDEST PUSH2 0x195 PUSH1 0x4 DUP1 CALLDATASIZE SUB DUP2 ADD SWAP1 PUSH2 0x190 SWAP2 SWAP1 PUSH2 0x1B33 JUMP JUMPDEST PUSH2 0x496 JUMP JUMPDEST PUSH1 0x40 MLOAD PUSH2 0x1A2 SWAP2 SWAP1 PUSH2 0x1C60 JUMP JUMPDEST PUSH1 0x40 MLOAD DUP1 SWAP2 SUB SWAP1 RETURN JUMPDEST PUSH2 0x1C5 PUSH1 0x4 DUP1 CALLDATASIZE SUB DUP2 ADD SWAP1 PUSH2 0x1C0 SWAP2 SWAP1 PUSH2 0x1C80 JUMP JUMPDEST PUSH2 0x59D JUMP JUMPDEST STOP JUMPDEST PUSH2 0x1E1 PUSH1 0x4 DUP1 CALLDATASIZE SUB DUP2 ADD SWAP1 PUSH2 0x1DC SWAP2 SWAP1 PUSH2 0x1CFA JUMP JUMPDEST PUSH2 0x5BC JUMP JUMPDEST STOP JUMPDEST PUSH2 0x1FD PUSH1 0x4 DUP1 CALLDATASIZE SUB DUP2 ADD SWAP1 PUSH2 0x1F8 SWAP2 SWAP1 PUSH2 0x1D38 JUMP JUMPDEST PUSH2 0x5D2 JUMP JUMPDEST PUSH1 0x40 MLOAD PUSH2 0x20A SWAP2 SWAP1 PUSH2 0x15D2 JUMP JUMPDEST PUSH1 0x40 MLOAD DUP1 SWAP2 SUB SWAP1 RETURN JUMPDEST PUSH2 0x22D PUSH1 0x4 DUP1 CALLDATASIZE SUB DUP2 ADD SWAP1 PUSH2 0x228 SWAP2 SWAP1 PUSH2 0x1D76 JUMP JUMPDEST PUSH2 0x660 JUMP JUMPDEST STOP JUMPDEST PUSH0 DUP1 PUSH0 DUP4 DUP2 MSTORE PUSH1 0x20 ADD SWAP1 DUP2 MSTORE PUSH1 0x20 ADD PUSH0 KECCAK256 PUSH0 DUP5 PUSH20 0xFFFFFFFFFFFFFFFFFFFFFFFFFFFFFFFFFFFFFFFF AND PUSH20 0xFFFFFFFFFFFFFFFFFFFFFFFFFFFFFFFFFFFFFFFF AND DUP2 MSTORE PUSH1 0x20 ADD SWAP1 DUP2 MSTORE PUSH1 0x20 ADD PUSH0 KECCAK256 SLOAD SWAP1 POP SWAP3 SWAP2 POP POP JUMP JUMPDEST PUSH0 PUSH32 0xD9B67A2600000000000000000000000000000000000000000000000000000000 PUSH28 0xFFFFFFFFFFFFFFFFFFFFFFFFFFFFFFFFFFFFFFFFFFFFFFFFFFFFFFFF NOT AND DUP3 PUSH28 0xFFFFFFFFFFFFFFFFFFFFFFFFFFFFFFFFFFFFFFFFFFFFFFFFFFFFFFFF NOT AND EQ DUP1 PUSH2 0x34E JUMPI POP PUSH32 0xE89341C00000000000000000000000000000000000000000000000000000000 PUSH28 0xFFFFFFFFFFFFFFFFFFFFFFFFFFFFFFFFFFFFFFFFFFFFFFFFFFFFFFFF NOT AND DUP3 PUSH28 0xFFFFFFFFFFFFFFFFFFFFFFFFFFFFFFFFFFFFFFFFFFFFFFFFFFFFFFFF NOT AND EQ JUMPDEST DUP1 PUSH2 0x35E JUMPI POP PUSH2 0x35D DUP3 PUSH2 0x707 JUMP JUMPDEST JUMPDEST SWAP1 POP SWAP2 SWAP1 POP JUMP JUMPDEST PUSH0 PUSH2 0x370 PUSH1 0x3 PUSH2 0x770 JUMP JUMPDEST PUSH0 PUSH2 0x37B PUSH1 0x3 PUSH2 0x784 JUMP JUMPDEST SWAP1 POP PUSH2 0x398 DUP5 DUP3 PUSH1 0x1 PUSH1 0x40 MLOAD DUP1 PUSH1 0x20 ADD PUSH1 0x40 MSTORE DUP1 PUSH0 DUP2 MSTORE POP PUSH2 0x790 JUMP JUMPDEST PUSH2 0x3A2 DUP2 DUP5 PUSH2 0x825 JUMP JUMPDEST DUP1 SWAP2 POP POP SWAP3 SWAP2 POP POP JUMP JUMPDEST PUSH1 0x60 PUSH2 0x3B7 DUP3 PUSH2 0x848 JUMP JUMPDEST PUSH1 0x4 PUSH0 DUP5 DUP2 MSTORE PUSH1 0x20 ADD SWAP1 DUP2 MSTORE PUSH1 0x20 ADD PUSH0 KECCAK256 PUSH1 0x40 MLOAD PUSH1 0x20 ADD PUSH2 0x3D9 SWAP3 SWAP2 SWAP1 PUSH2 0x1F32 JUMP JUMPDEST PUSH1 0x40 MLOAD PUSH1 0x20 DUP2 DUP4 SUB SUB DUP2 MSTORE SWAP1 PUSH1 0x40 MSTORE SWAP1 POP SWAP2 SWAP1 POP JUMP JUMPDEST PUSH0 PUSH2 0x3F8 PUSH2 0x8DA JUMP JUMPDEST SWAP1 POP DUP1 PUSH20 0xFFFFFFFFFFFFFFFFFFFFFFFFFFFFFFFFFFFFFFFF AND DUP7 PUSH20 0xFFFFFFFFFFFFFFFFFFFFFFFFFFFFFFFFFFFFFFFF AND EQ ISZERO DUP1 ISZERO PUSH2 0x43D JUMPI POP PUSH2 0x43B DUP7 DUP3 PUSH2 0x5D2 JUMP JUMPDEST ISZERO JUMPDEST ISZERO PUSH2 0x481 JUMPI DUP1 DUP7 PUSH1 0x40 MLOAD PUSH32 0xE237D92200000000000000000000000000000000000000000000000000000000 DUP2 MSTORE PUSH1 0x4 ADD PUSH2 0x478 SWAP3 SWAP2 SWAP1 PUSH2 0x1F64 JUMP JUMPDEST PUSH1 0x40 MLOAD DUP1 SWAP2 SUB SWAP1 REVERT JUMPDEST PUSH2 0x48E DUP7 DUP7 DUP7 DUP7 DUP7 PUSH2 0x8E1 JUMP JUMPDEST POP POP POP POP POP POP JUMP JUMPDEST PUSH1 0x60 DUP2 MLOAD DUP4 MLOAD EQ PUSH2 0x4E2 JUMPI DUP2 MLOAD DUP4 MLOAD PUSH1 0x40 MLOAD PUSH32 0x5B05999100000000000000000000000000000000000000000000000000000000 DUP2 MSTORE PUSH1 0x4 ADD PUSH2 0x4D9 SWAP3 SWAP2 SWAP1 PUSH2 0x1F8B JUMP JUMPDEST PUSH1 0x40 MLOAD DUP1 SWAP2 SUB SWAP1 REVERT JUMPDEST PUSH0 DUP4 MLOAD PUSH8 0xFFFFFFFFFFFFFFFF DUP2 GT ISZERO PUSH2 0x4FE JUMPI PUSH2 0x4FD PUSH2 0x1603 JUMP JUMPDEST JUMPDEST PUSH1 0x40 MLOAD SWAP1 DUP1 DUP3 MSTORE DUP1 PUSH1 0x20 MUL PUSH1 0x20 ADD DUP3 ADD PUSH1 0x40 MSTORE DUP1 ISZERO PUSH2 0x52C JUMPI DUP2 PUSH1 0x20 ADD PUSH1 0x20 DUP3 MUL DUP1 CALLDATASIZE DUP4 CALLDATACOPY DUP1 DUP3 ADD SWAP2 POP POP SWAP1 POP JUMPDEST POP SWAP1 POP PUSH0 JUMPDEST DUP5 MLOAD DUP2 LT ISZERO PUSH2 0x592 JUMPI PUSH2 0x568 PUSH2 0x550 DUP3 DUP8 PUSH2 0x9D5 SWAP1 SWAP2 SWAP1 PUSH4 0xFFFFFFFF AND JUMP JUMPDEST PUSH2 0x563 DUP4 DUP8 PUSH2 0x9E8 SWAP1 SWAP2 SWAP1 PUSH4 0xFFFFFFFF AND JUMP JUMPDEST PUSH2 0x22F JUMP JUMPDEST DUP3 DUP3 DUP2 MLOAD DUP2 LT PUSH2 0x57B JUMPI PUSH2 0x57A PUSH2 0x1FB2 JUMP JUMPDEST JUMPDEST PUSH1 0x20 MUL PUSH1 0x20 ADD ADD DUP2 DUP2 MSTORE POP POP DUP1 PUSH1 0x1 ADD SWAP1 POP PUSH2 0x531 JUMP JUMPDEST POP DUP1 SWAP2 POP POP SWAP3 SWAP2 POP POP JUMP JUMPDEST PUSH2 0x5B7 DUP4 DUP4 DUP4 PUSH1 0x40 MLOAD DUP1 PUSH1 0x20 ADD PUSH1 0x40 MSTORE DUP1 PUSH0 DUP2 MSTORE POP PUSH2 0x790 JUMP JUMPDEST POP POP POP JUMP JUMPDEST PUSH2 0x5CE PUSH2 0x5C7 PUSH2 0x8DA JUMP JUMPDEST DUP4 DUP4 PUSH2 0x9FB JUMP JUMPDEST POP POP JUMP JUMPDEST PUSH0 PUSH1 0x1 PUSH0 DUP5 PUSH20 0xFFFFFFFFFFFFFFFFFFFFFFFFFFFFFFFFFFFFFFFF AND PUSH20 0xFFFFFFFFFFFFFFFFFFFFFFFFFFFFFFFFFFFFFFFF AND DUP2 MSTORE PUSH1 0x20 ADD SWAP1 DUP2 MSTORE PUSH1 0x20 ADD PUSH0 KECCAK256 PUSH0 DUP4 PUSH20 0xFFFFFFFFFFFFFFFFFFFFFFFFFFFFFFFFFFFFFFFF AND PUSH20 0xFFFFFFFFFFFFFFFFFFFFFFFFFFFFFFFFFFFFFFFF AND DUP2 MSTORE PUSH1 0x20 ADD SWAP1 DUP2 MSTORE PUSH1 0x20 ADD PUSH0 KECCAK256 PUSH0 SWAP1 SLOAD SWAP1 PUSH2 0x100 EXP SWAP1 DIV PUSH1 0xFF AND SWAP1 POP SWAP3 SWAP2 POP POP JUMP JUMPDEST PUSH0 PUSH2 0x669 PUSH2 0x8DA JUMP JUMPDEST SWAP1 POP DUP1 PUSH20 0xFFFFFFFFFFFFFFFFFFFFFFFFFFFFFFFFFFFFFFFF AND DUP7 PUSH20 0xFFFFFFFFFFFFFFFFFFFFFFFFFFFFFFFFFFFFFFFF AND EQ ISZERO DUP1 ISZERO PUSH2 0x6AE JUMPI POP PUSH2 0x6AC DUP7 DUP3 PUSH2 0x5D2 JUMP JUMPDEST ISZERO JUMPDEST ISZERO PUSH2 0x6F2 JUMPI DUP1 DUP7 PUSH1 0x40 MLOAD PUSH32 0xE237D92200000000000000000000000000000000000000000000000000000000 DUP2 MSTORE PUSH1 0x4 ADD PUSH2 0x6E9 SWAP3 SWAP2 SWAP1 PUSH2 0x1F64 JUMP JUMPDEST PUSH1 0x40 MLOAD DUP1 SWAP2 SUB SWAP1 REVERT JUMPDEST PUSH2 0x6FF DUP7 DUP7 DUP7 DUP7 DUP7 PUSH2 0xB64 JUMP JUMPDEST POP POP POP POP POP POP JUMP JUMPDEST PUSH0 PUSH32 0x1FFC9A700000000000000000000000000000000000000000000000000000000 PUSH28 0xFFFFFFFFFFFFFFFFFFFFFFFFFFFFFFFFFFFFFFFFFFFFFFFFFFFFFFFF NOT AND DUP3 PUSH28 0xFFFFFFFFFFFFFFFFFFFFFFFFFFFFFFFFFFFFFFFFFFFFFFFFFFFFFFFF NOT AND EQ SWAP1 POP SWAP2 SWAP1 POP JUMP JUMPDEST PUSH1 0x1 DUP2 PUSH0 ADD PUSH0 DUP3 DUP3 SLOAD ADD SWAP3 POP POP DUP2 SWAP1 SSTORE POP POP JUMP JUMPDEST PUSH0 DUP2 PUSH0 ADD SLOAD SWAP1 POP SWAP2 SWAP1 POP JUMP JUMPDEST PUSH0 PUSH20 0xFFFFFFFFFFFFFFFFFFFFFFFFFFFFFFFFFFFFFFFF AND DUP5 PUSH20 0xFFFFFFFFFFFFFFFFFFFFFFFFFFFFFFFFFFFFFFFF AND SUB PUSH2 0x800 JUMPI PUSH0 PUSH1 0x40 MLOAD PUSH32 0x57F447CE00000000000000000000000000000000000000000000000000000000 DUP2 MSTORE PUSH1 0x4 ADD PUSH2 0x7F7 SWAP2 SWAP1 PUSH2 0x1FDF JUMP JUMPDEST PUSH1 0x40 MLOAD DUP1 SWAP2 SUB SWAP1 REVERT JUMPDEST PUSH0 DUP1 PUSH2 0x80C DUP6 DUP6 PUSH2 0xC6A JUMP JUMPDEST SWAP2 POP SWAP2 POP PUSH2 0x81D PUSH0 DUP8 DUP5 DUP5 DUP8 PUSH2 0xC9A JUMP JUMPDEST POP POP POP POP POP POP JUMP JUMPDEST DUP1 PUSH1 0x4 PUSH0 DUP5 DUP2 MSTORE PUSH1 0x20 ADD SWAP1 DUP2 MSTORE PUSH1 0x20 ADD PUSH0 KECCAK256 SWAP1 DUP2 PUSH2 0x843 SWAP2 SWAP1 PUSH2 0x2183 JUMP JUMPDEST POP POP POP JUMP JUMPDEST PUSH1 0x60 PUSH1 0x2 DUP1 SLOAD PUSH2 0x857 SWAP1 PUSH2 0x1E70 JUMP JUMPDEST DUP1 PUSH1 0x1F ADD PUSH1 0x20 DUP1 SWAP2 DIV MUL PUSH1 0x20 ADD PUSH1 0x40 MLOAD SWAP1 DUP2 ADD PUSH1 0x40 MSTORE DUP1 SWAP3 SWAP2 SWAP1 DUP2 DUP2 MSTORE PUSH1 0x20 ADD DUP3 DUP1 SLOAD PUSH2 0x883 SWAP1 PUSH2 0x1E70 JUMP JUMPDEST DUP1 ISZERO PUSH2 0x8CE JUMPI DUP1 PUSH1 0x1F LT PUSH2 0x8A5 JUMPI PUSH2 0x100 DUP1 DUP4 SLOAD DIV MUL DUP4 MSTORE SWAP2 PUSH1 0x20 ADD SWAP2 PUSH2 0x8CE JUMP JUMPDEST DUP3 ADD SWAP2 SWAP1 PUSH0 MSTORE PUSH1 0x20 PUSH0 KECCAK256 SWAP1 JUMPDEST DUP2 SLOAD DUP2 MSTORE SWAP1 PUSH1 0x1 ADD SWAP1 PUSH1 0x20 ADD DUP1 DUP4 GT PUSH2 0x8B1 JUMPI DUP3 SWAP1 SUB PUSH1 0x1F AND DUP3 ADD SWAP2 JUMPDEST POP POP POP POP POP SWAP1 POP SWAP2 SWAP1 POP JUMP JUMPDEST PUSH0 CALLER SWAP1 POP SWAP1 JUMP JUMPDEST PUSH0 PUSH20 0xFFFFFFFFFFFFFFFFFFFFFFFFFFFFFFFFFFFFFFFF AND DUP5 PUSH20 0xFFFFFFFFFFFFFFFFFFFFFFFFFFFFFFFFFFFFFFFF AND SUB PUSH2 0x951 JUMPI PUSH0 PUSH1 0x40 MLOAD PUSH32 0x57F447CE00000000000000000000000000000000000000000000000000000000 DUP2 MSTORE PUSH1 0x4 ADD PUSH2 0x948 SWAP2 SWAP1 PUSH2 0x1FDF JUMP JUMPDEST PUSH1 0x40 MLOAD DUP1 SWAP2 SUB SWAP1 REVERT JUMPDEST PUSH0 PUSH20 0xFFFFFFFFFFFFFFFFFFFFFFFFFFFFFFFFFFFFFFFF AND DUP6 PUSH20 0xFFFFFFFFFFFFFFFFFFFFFFFFFFFFFFFFFFFFFFFF AND SUB PUSH2 0x9C1 JUMPI PUSH0 PUSH1 0x40 MLOAD PUSH32 0x1A8351400000000000000000000000000000000000000000000000000000000 DUP2 MSTORE PUSH1 0x4 ADD PUSH2 0x9B8 SWAP2 SWAP1 PUSH2 0x1FDF JUMP JUMPDEST PUSH1 0x40 MLOAD DUP1 SWAP2 SUB SWAP1 REVERT JUMPDEST PUSH2 0x9CE DUP6 DUP6 DUP6 DUP6 DUP6 PUSH2 0xC9A JUMP JUMPDEST POP POP POP POP POP JUMP JUMPDEST PUSH0 PUSH1 0x20 DUP3 MUL PUSH1 0x20 DUP5 ADD ADD MLOAD SWAP1 POP SWAP3 SWAP2 POP POP JUMP JUMPDEST PUSH0 PUSH1 0x20 DUP3 MUL PUSH1 0x20 DUP5 ADD ADD MLOAD SWAP1 POP SWAP3 SWAP2 POP POP JUMP JUMPDEST PUSH0 PUSH20 0xFFFFFFFFFFFFFFFFFFFFFFFFFFFFFFFFFFFFFFFF AND DUP3 PUSH20 0xFFFFFFFFFFFFFFFFFFFFFFFFFFFFFFFFFFFFFFFF AND SUB PUSH2 0xA6B JUMPI PUSH0 PUSH1 0x40 MLOAD PUSH32 0xCED3E10000000000000000000000000000000000000000000000000000000000 DUP2 MSTORE PUSH1 0x4 ADD PUSH2 0xA62 SWAP2 SWAP1 PUSH2 0x1FDF JUMP JUMPDEST PUSH1 0x40 MLOAD DUP1 SWAP2 SUB SWAP1 REVERT JUMPDEST DUP1 PUSH1 0x1 PUSH0 DUP6 PUSH20 0xFFFFFFFFFFFFFFFFFFFFFFFFFFFFFFFFFFFFFFFF AND PUSH20 0xFFFFFFFFFFFFFFFFFFFFFFFFFFFFFFFFFFFFFFFF AND DUP2 MSTORE PUSH1 0x20 ADD SWAP1 DUP2 MSTORE PUSH1 0x20 ADD PUSH0 KECCAK256 PUSH0 DUP5 PUSH20 0xFFFFFFFFFFFFFFFFFFFFFFFFFFFFFFFFFFFFFFFF AND PUSH20 0xFFFFFFFFFFFFFFFFFFFFFFFFFFFFFFFFFFFFFFFF AND DUP2 MSTORE PUSH1 0x20 ADD SWAP1 DUP2 MSTORE PUSH1 0x20 ADD PUSH0 KECCAK256 PUSH0 PUSH2 0x100 EXP DUP2 SLOAD DUP2 PUSH1 0xFF MUL NOT AND SWAP1 DUP4 ISZERO ISZERO MUL OR SWAP1 SSTORE POP DUP2 PUSH20 0xFFFFFFFFFFFFFFFFFFFFFFFFFFFFFFFFFFFFFFFF AND DUP4 PUSH20 0xFFFFFFFFFFFFFFFFFFFFFFFFFFFFFFFFFFFFFFFF AND PUSH32 0x17307EAB39AB6107E8899845AD3D59BD9653F200F220920489CA2B5937696C31 DUP4 PUSH1 0x40 MLOAD PUSH2 0xB57 SWAP2 SWAP1 PUSH2 0x15D2 JUMP JUMPDEST PUSH1 0x40 MLOAD DUP1 SWAP2 SUB SWAP1 LOG3 POP POP POP JUMP JUMPDEST PUSH0 PUSH20 0xFFFFFFFFFFFFFFFFFFFFFFFFFFFFFFFFFFFFFFFF AND DUP5 PUSH20 0xFFFFFFFFFFFFFFFFFFFFFFFFFFFFFFFFFFFFFFFF AND SUB PUSH2 0xBD4 JUMPI PUSH0 PUSH1 0x40 MLOAD PUSH32 0x57F447CE00000000000000000000000000000000000000000000000000000000 DUP2 MSTORE PUSH1 0x4 ADD PUSH2 0xBCB SWAP2 SWAP1 PUSH2 0x1FDF JUMP JUMPDEST PUSH1 0x40 MLOAD DUP1 SWAP2 SUB SWAP1 REVERT JUMPDEST PUSH0 PUSH20 0xFFFFFFFFFFFFFFFFFFFFFFFFFFFFFFFFFFFFFFFF AND DUP6 PUSH20 0xFFFFFFFFFFFFFFFFFFFFFFFFFFFFFFFFFFFFFFFF AND SUB PUSH2 0xC44 JUMPI PUSH0 PUSH1 0x40 MLOAD PUSH32 0x1A8351400000000000000000000000000000000000000000000000000000000 DUP2 MSTORE PUSH1 0x4 ADD PUSH2 0xC3B SWAP2 SWAP1 PUSH2 0x1FDF JUMP JUMPDEST PUSH1 0x40 MLOAD DUP1 SWAP2 SUB SWAP1 REVERT JUMPDEST PUSH0 DUP1 PUSH2 0xC50 DUP6 DUP6 PUSH2 0xC6A JUMP JUMPDEST SWAP2 POP SWAP2 POP PUSH2 0xC61 DUP8 DUP8 DUP5 DUP5 DUP8 PUSH2 0xC9A JUMP JUMPDEST POP POP POP POP POP POP POP JUMP JUMPDEST PUSH1 0x60 DUP1 PUSH1 0x40 MLOAD SWAP2 POP PUSH1 0x1 DUP3 MSTORE DUP4 PUSH1 0x20 DUP4 ADD MSTORE PUSH1 0x40 DUP3 ADD SWAP1 POP PUSH1 0x1 DUP2 MSTORE DUP3 PUSH1 0x20 DUP3 ADD MSTORE PUSH1 0x40 DUP2 ADD PUSH1 0x40 MSTORE SWAP3 POP SWAP3 SWAP1 POP JUMP JUMPDEST PUSH2 0xCA6 DUP6 DUP6 DUP6 DUP6 PUSH2 0xD46 JUMP JUMPDEST PUSH0 PUSH20 0xFFFFFFFFFFFFFFFFFFFFFFFFFFFFFFFFFFFFFFFF AND DUP5 PUSH20 0xFFFFFFFFFFFFFFFFFFFFFFFFFFFFFFFFFFFFFFFF AND EQ PUSH2 0xD3F JUMPI PUSH0 PUSH2 0xCE2 PUSH2 0x8DA JUMP JUMPDEST SWAP1 POP PUSH1 0x1 DUP5 MLOAD SUB PUSH2 0xD2E JUMPI PUSH0 PUSH2 0xD01 PUSH0 DUP7 PUSH2 0x9E8 SWAP1 SWAP2 SWAP1 PUSH4 0xFFFFFFFF AND JUMP JUMPDEST SWAP1 POP PUSH0 PUSH2 0xD17 PUSH0 DUP7 PUSH2 0x9E8 SWAP1 SWAP2 SWAP1 PUSH4 0xFFFFFFFF AND JUMP JUMPDEST SWAP1 POP PUSH2 0xD27 DUP4 DUP10 DUP10 DUP6 DUP6 DUP10 PUSH2 0x10D6 JUMP JUMPDEST POP POP PUSH2 0xD3D JUMP JUMPDEST PUSH2 0xD3C DUP2 DUP8 DUP8 DUP8 DUP8 DUP8 PUSH2 0x1285 JUMP JUMPDEST JUMPDEST POP JUMPDEST POP POP POP POP POP JUMP JUMPDEST DUP1 MLOAD DUP3 MLOAD EQ PUSH2 0xD90 JUMPI DUP2 MLOAD DUP2 MLOAD PUSH1 0x40 MLOAD PUSH32 0x5B05999100000000000000000000000000000000000000000000000000000000 DUP2 MSTORE PUSH1 0x4 ADD PUSH2 0xD87 SWAP3 SWAP2 SWAP1 PUSH2 0x1F8B JUMP JUMPDEST PUSH1 0x40 MLOAD DUP1 SWAP2 SUB SWAP1 REVERT JUMPDEST PUSH0 PUSH2 0xD99 PUSH2 0x8DA JUMP JUMPDEST SWAP1 POP PUSH0 JUMPDEST DUP4 MLOAD DUP2 LT ISZERO PUSH2 0xF95 JUMPI PUSH0 PUSH2 0xDBA DUP3 DUP7 PUSH2 0x9E8 SWAP1 SWAP2 SWAP1 PUSH4 0xFFFFFFFF AND JUMP JUMPDEST SWAP1 POP PUSH0 PUSH2 0xDD0 DUP4 DUP7 PUSH2 0x9E8 SWAP1 SWAP2 SWAP1 PUSH4 0xFFFFFFFF AND JUMP JUMPDEST SWAP1 POP PUSH0 PUSH20 0xFFFFFFFFFFFFFFFFFFFFFFFFFFFFFFFFFFFFFFFF AND DUP9 PUSH20 0xFFFFFFFFFFFFFFFFFFFFFFFFFFFFFFFFFFFFFFFF AND EQ PUSH2 0xEF3 JUMPI PUSH0 DUP1 PUSH0 DUP5 DUP2 MSTORE PUSH1 0x20 ADD SWAP1 DUP2 MSTORE PUSH1 0x20 ADD PUSH0 KECCAK256 PUSH0 DUP11 PUSH20 0xFFFFFFFFFFFFFFFFFFFFFFFFFFFFFFFFFFFFFFFF AND PUSH20 0xFFFFFFFFFFFFFFFFFFFFFFFFFFFFFFFFFFFFFFFF AND DUP2 MSTORE PUSH1 0x20 ADD SWAP1 DUP2 MSTORE PUSH1 0x20 ADD PUSH0 KECCAK256 SLOAD SWAP1 POP DUP2 DUP2 LT ISZERO PUSH2 0xE9F JUMPI DUP9 DUP2 DUP4 DUP6 PUSH1 0x40 MLOAD PUSH32 0x3DEE4C500000000000000000000000000000000000000000000000000000000 DUP2 MSTORE PUSH1 0x4 ADD PUSH2 0xE96 SWAP5 SWAP4 SWAP3 SWAP2 SWAP1 PUSH2 0x2252 JUMP JUMPDEST PUSH1 0x40 MLOAD DUP1 SWAP2 SUB SWAP1 REVERT JUMPDEST DUP2 DUP2 SUB PUSH0 DUP1 DUP6 DUP2 MSTORE PUSH1 0x20 ADD SWAP1 DUP2 MSTORE PUSH1 0x20 ADD PUSH0 KECCAK256 PUSH0 DUP12 PUSH20 0xFFFFFFFFFFFFFFFFFFFFFFFFFFFFFFFFFFFFFFFF AND PUSH20 0xFFFFFFFFFFFFFFFFFFFFFFFFFFFFFFFFFFFFFFFF AND DUP2 MSTORE PUSH1 0x20 ADD SWAP1 DUP2 MSTORE PUSH1 0x20 ADD PUSH0 KECCAK256 DUP2 SWAP1 SSTORE POP POP JUMPDEST PUSH0 PUSH20 0xFFFFFFFFFFFFFFFFFFFFFFFFFFFFFFFFFFFFFFFF AND DUP8 PUSH20 0xFFFFFFFFFFFFFFFFFFFFFFFFFFFFFFFFFFFFFFFF AND EQ PUSH2 0xF88 JUMPI DUP1 PUSH0 DUP1 DUP5 DUP2 MSTORE PUSH1 0x20 ADD SWAP1 DUP2 MSTORE PUSH1 0x20 ADD PUSH0 KECCAK256 PUSH0 DUP10 PUSH20 0xFFFFFFFFFFFFFFFFFFFFFFFFFFFFFFFFFFFFFFFF AND PUSH20 0xFFFFFFFFFFFFFFFFFFFFFFFFFFFFFFFFFFFFFFFF AND DUP2 MSTORE PUSH1 0x20 ADD SWAP1 DUP2 MSTORE PUSH1 0x20 ADD PUSH0 KECCAK256 PUSH0 DUP3 DUP3 SLOAD PUSH2 0xF80 SWAP2 SWAP1 PUSH2 0x22C2 JUMP JUMPDEST SWAP3 POP POP DUP2 SWAP1 SSTORE POP JUMPDEST POP POP DUP1 PUSH1 0x1 ADD SWAP1 POP PUSH2 0xD9D JUMP JUMPDEST POP PUSH1 0x1 DUP4 MLOAD SUB PUSH2 0x1050 JUMPI PUSH0 PUSH2 0xFB3 PUSH0 DUP6 PUSH2 0x9E8 SWAP1 SWAP2 SWAP1 PUSH4 0xFFFFFFFF AND JUMP JUMPDEST SWAP1 POP PUSH0 PUSH2 0xFC9 PUSH0 DUP6 PUSH2 0x9E8 SWAP1 SWAP2 SWAP1 PUSH4 0xFFFFFFFF AND JUMP JUMPDEST SWAP1 POP DUP6 PUSH20 0xFFFFFFFFFFFFFFFFFFFFFFFFFFFFFFFFFFFFFFFF AND DUP8 PUSH20 0xFFFFFFFFFFFFFFFFFFFFFFFFFFFFFFFFFFFFFFFF AND DUP5 PUSH20 0xFFFFFFFFFFFFFFFFFFFFFFFFFFFFFFFFFFFFFFFF AND PUSH32 0xC3D58168C5AE7397731D063D5BBF3D657854427343F4C083240F7AACAA2D0F62 DUP6 DUP6 PUSH1 0x40 MLOAD PUSH2 0x1041 SWAP3 SWAP2 SWAP1 PUSH2 0x1F8B JUMP JUMPDEST PUSH1 0x40 MLOAD DUP1 SWAP2 SUB SWAP1 LOG4 POP POP PUSH2 0x10CF JUMP JUMPDEST DUP4 PUSH20 0xFFFFFFFFFFFFFFFFFFFFFFFFFFFFFFFFFFFFFFFF AND DUP6 PUSH20 0xFFFFFFFFFFFFFFFFFFFFFFFFFFFFFFFFFFFFFFFF AND DUP3 PUSH20 0xFFFFFFFFFFFFFFFFFFFFFFFFFFFFFFFFFFFFFFFF AND PUSH32 0x4A39DC06D4C0DBC64B70AF90FD698A233A518AA5D07E595D983B8C0526C8F7FB DUP7 DUP7 PUSH1 0x40 MLOAD PUSH2 0x10C6 SWAP3 SWAP2 SWAP1 PUSH2 0x22F5 JUMP JUMPDEST PUSH1 0x40 MLOAD DUP1 SWAP2 SUB SWAP1 LOG4 JUMPDEST POP POP POP POP POP JUMP JUMPDEST PUSH0 DUP5 PUSH20 0xFFFFFFFFFFFFFFFFFFFFFFFFFFFFFFFFFFFFFFFF AND EXTCODESIZE GT ISZERO PUSH2 0x127D JUMPI DUP4 PUSH20 0xFFFFFFFFFFFFFFFFFFFFFFFFFFFFFFFFFFFFFFFF AND PUSH4 0xF23A6E61 DUP8 DUP8 DUP7 DUP7 DUP7 PUSH1 0x40 MLOAD DUP7 PUSH4 0xFFFFFFFF AND PUSH1 0xE0 SHL DUP2 MSTORE PUSH1 0x4 ADD PUSH2 0x1136 SWAP6 SWAP5 SWAP4 SWAP3 SWAP2 SWAP1 PUSH2 0x237C JUMP JUMPDEST PUSH1 0x20 PUSH1 0x40 MLOAD DUP1 DUP4 SUB DUP2 PUSH0 DUP8 GAS CALL SWAP3 POP POP POP DUP1 ISZERO PUSH2 0x1171 JUMPI POP PUSH1 0x40 MLOAD RETURNDATASIZE PUSH1 0x1F NOT PUSH1 0x1F DUP3 ADD AND DUP3 ADD DUP1 PUSH1 0x40 MSTORE POP DUP2 ADD SWAP1 PUSH2 0x116E SWAP2 SWAP1 PUSH2 0x23E8 JUMP JUMPDEST PUSH1 0x1 JUMPDEST PUSH2 0x11F2 JUMPI RETURNDATASIZE DUP1 PUSH0 DUP2 EQ PUSH2 0x119F JUMPI PUSH1 0x40 MLOAD SWAP2 POP PUSH1 0x1F NOT PUSH1 0x3F RETURNDATASIZE ADD AND DUP3 ADD PUSH1 0x40 MSTORE RETURNDATASIZE DUP3 MSTORE RETURNDATASIZE PUSH0 PUSH1 0x20 DUP5 ADD RETURNDATACOPY PUSH2 0x11A4 JUMP JUMPDEST PUSH1 0x60 SWAP2 POP JUMPDEST POP PUSH0 DUP2 MLOAD SUB PUSH2 0x11EA JUMPI DUP5 PUSH1 0x40 MLOAD PUSH32 0x57F447CE00000000000000000000000000000000000000000000000000000000 DUP2 MSTORE PUSH1 0x4 ADD PUSH2 0x11E1 SWAP2 SWAP1 PUSH2 0x1FDF JUMP JUMPDEST PUSH1 0x40 MLOAD DUP1 SWAP2 SUB SWAP1 REVERT JUMPDEST DUP1 MLOAD DUP2 PUSH1 0x20 ADD REVERT JUMPDEST PUSH4 0xF23A6E61 PUSH1 0xE0 SHL PUSH28 0xFFFFFFFFFFFFFFFFFFFFFFFFFFFFFFFFFFFFFFFFFFFFFFFFFFFFFFFF NOT AND DUP2 PUSH28 0xFFFFFFFFFFFFFFFFFFFFFFFFFFFFFFFFFFFFFFFFFFFFFFFFFFFFFFFF NOT AND EQ PUSH2 0x127B JUMPI DUP5 PUSH1 0x40 MLOAD PUSH32 0x57F447CE00000000000000000000000000000000000000000000000000000000 DUP2 MSTORE PUSH1 0x4 ADD PUSH2 0x1272 SWAP2 SWAP1 PUSH2 0x1FDF JUMP JUMPDEST PUSH1 0x40 MLOAD DUP1 SWAP2 SUB SWAP1 REVERT JUMPDEST POP JUMPDEST POP POP POP POP POP POP JUMP JUMPDEST PUSH0 DUP5 PUSH20 0xFFFFFFFFFFFFFFFFFFFFFFFFFFFFFFFFFFFFFFFF AND EXTCODESIZE GT ISZERO PUSH2 0x142C JUMPI DUP4 PUSH20 0xFFFFFFFFFFFFFFFFFFFFFFFFFFFFFFFFFFFFFFFF AND PUSH4 0xBC197C81 DUP8 DUP8 DUP7 DUP7 DUP7 PUSH1 0x40 MLOAD DUP7 PUSH4 0xFFFFFFFF AND PUSH1 0xE0 SHL DUP2 MSTORE PUSH1 0x4 ADD PUSH2 0x12E5 SWAP6 SWAP5 SWAP4 SWAP3 SWAP2 SWAP1 PUSH2 0x2413 JUMP JUMPDEST PUSH1 0x20 PUSH1 0x40 MLOAD DUP1 DUP4 SUB DUP2 PUSH0 DUP8 GAS CALL SWAP3 POP POP POP DUP1 ISZERO PUSH2 0x1320 JUMPI POP PUSH1 0x40 MLOAD RETURNDATASIZE PUSH1 0x1F NOT PUSH1 0x1F DUP3 ADD AND DUP3 ADD DUP1 PUSH1 0x40 MSTORE POP DUP2 ADD SWAP1 PUSH2 0x131D SWAP2 SWAP1 PUSH2 0x23E8 JUMP JUMPDEST PUSH1 0x1 JUMPDEST PUSH2 0x13A1 JUMPI RETURNDATASIZE DUP1 PUSH0 DUP2 EQ PUSH2 0x134E JUMPI PUSH1 0x40 MLOAD SWAP2 POP PUSH1 0x1F NOT PUSH1 0x3F RETURNDATASIZE ADD AND DUP3 ADD PUSH1 0x40 MSTORE RETURNDATASIZE DUP3 MSTORE RETURNDATASIZE PUSH0 PUSH1 0x20 DUP5 ADD RETURNDATACOPY PUSH2 0x1353 JUMP JUMPDEST PUSH1 0x60 SWAP2 POP JUMPDEST POP PUSH0 DUP2 MLOAD SUB PUSH2 0x1399 JUMPI DUP5 PUSH1 0x40 MLOAD PUSH32 0x57F447CE00000000000000000000000000000000000000000000000000000000 DUP2 MSTORE PUSH1 0x4 ADD PUSH2 0x1390 SWAP2 SWAP1 PUSH2 0x1FDF JUMP JUMPDEST PUSH1 0x40 MLOAD DUP1 SWAP2 SUB SWAP1 REVERT JUMPDEST DUP1 MLOAD DUP2 PUSH1 0x20 ADD REVERT JUMPDEST PUSH4 0xBC197C81 PUSH1 0xE0 SHL PUSH28 0xFFFFFFFFFFFFFFFFFFFFFFFFFFFFFFFFFFFFFFFFFFFFFFFFFFFFFFFF NOT AND DUP2 PUSH28 0xFFFFFFFFFFFFFFFFFFFFFFFFFFFFFFFFFFFFFFFFFFFFFFFFFFFFFFFF NOT AND EQ PUSH2 0x142A JUMPI DUP5 PUSH1 0x40 MLOAD PUSH32 0x57F447CE00000000000000000000000000000000000000000000000000000000 DUP2 MSTORE PUSH1 0x4 ADD PUSH2 0x1421 SWAP2 SWAP1 PUSH2 0x1FDF JUMP JUMPDEST PUSH1 0x40 MLOAD DUP1 SWAP2 SUB SWAP1 REVERT JUMPDEST POP JUMPDEST POP POP POP POP POP POP JUMP JUMPDEST PUSH0 PUSH1 0x40 MLOAD SWAP1 POP SWAP1 JUMP JUMPDEST PUSH0 DUP1 REVERT JUMPDEST PUSH0 DUP1 REVERT JUMPDEST PUSH0 PUSH20 0xFFFFFFFFFFFFFFFFFFFFFFFFFFFFFFFFFFFFFFFF DUP3 AND SWAP1 POP SWAP2 SWAP1 POP JUMP JUMPDEST PUSH0 PUSH2 0x146E DUP3 PUSH2 0x1445 JUMP JUMPDEST SWAP1 POP SWAP2 SWAP1 POP JUMP JUMPDEST PUSH2 0x147E DUP2 PUSH2 0x1464 JUMP JUMPDEST DUP2 EQ PUSH2 0x1488 JUMPI PUSH0 DUP1 REVERT JUMPDEST POP JUMP JUMPDEST PUSH0 DUP2 CALLDATALOAD SWAP1 POP PUSH2 0x1499 DUP2 PUSH2 0x1475 JUMP JUMPDEST SWAP3 SWAP2 POP POP JUMP JUMPDEST PUSH0 DUP2 SWAP1 POP SWAP2 SWAP1 POP JUMP JUMPDEST PUSH2 0x14B1 DUP2 PUSH2 0x149F JUMP JUMPDEST DUP2 EQ PUSH2 0x14BB JUMPI PUSH0 DUP1 REVERT JUMPDEST POP JUMP JUMPDEST PUSH0 DUP2 CALLDATALOAD SWAP1 POP PUSH2 0x14CC DUP2 PUSH2 0x14A8 JUMP JUMPDEST SWAP3 SWAP2 POP POP JUMP JUMPDEST PUSH0 DUP1 PUSH1 0x40 DUP4 DUP6 SUB SLT ISZERO PUSH2 0x14E8 JUMPI PUSH2 0x14E7 PUSH2 0x143D JUMP JUMPDEST JUMPDEST PUSH0 PUSH2 0x14F5 DUP6 DUP3 DUP7 ADD PUSH2 0x148B JUMP JUMPDEST SWAP3 POP POP PUSH1 0x20 PUSH2 0x1506 DUP6 DUP3 DUP7 ADD PUSH2 0x14BE JUMP JUMPDEST SWAP2 POP POP SWAP3 POP SWAP3 SWAP1 POP JUMP JUMPDEST PUSH2 0x1519 DUP2 PUSH2 0x149F JUMP JUMPDEST DUP3 MSTORE POP POP JUMP JUMPDEST PUSH0 PUSH1 0x20 DUP3 ADD SWAP1 POP PUSH2 0x1532 PUSH0 DUP4 ADD DUP5 PUSH2 0x1510 JUMP JUMPDEST SWAP3 SWAP2 POP POP JUMP JUMPDEST PUSH0 PUSH32 0xFFFFFFFF00000000000000000000000000000000000000000000000000000000 DUP3 AND SWAP1 POP SWAP2 SWAP1 POP JUMP JUMPDEST PUSH2 0x156C DUP2 PUSH2 0x1538 JUMP JUMPDEST DUP2 EQ PUSH2 0x1576 JUMPI PUSH0 DUP1 REVERT JUMPDEST POP JUMP JUMPDEST PUSH0 DUP2 CALLDATALOAD SWAP1 POP PUSH2 0x1587 DUP2 PUSH2 0x1563 JUMP JUMPDEST SWAP3 SWAP2 POP POP JUMP JUMPDEST PUSH0 PUSH1 0x20 DUP3 DUP5 SUB SLT ISZERO PUSH2 0x15A2 JUMPI PUSH2 0x15A1 PUSH2 0x143D JUMP JUMPDEST JUMPDEST PUSH0 PUSH2 0x15AF DUP5 DUP3 DUP6 ADD PUSH2 0x1579 JUMP JUMPDEST SWAP2 POP POP SWAP3 SWAP2 POP POP JUMP JUMPDEST PUSH0 DUP2 ISZERO ISZERO SWAP1 POP SWAP2 SWAP1 POP JUMP JUMPDEST PUSH2 0x15CC DUP2 PUSH2 0x15B8 JUMP JUMPDEST DUP3 MSTORE POP POP JUMP JUMPDEST PUSH0 PUSH1 0x20 DUP3 ADD SWAP1 POP PUSH2 0x15E5 PUSH0 DUP4 ADD DUP5 PUSH2 0x15C3 JUMP JUMPDEST SWAP3 SWAP2 POP POP JUMP JUMPDEST PUSH0 DUP1 REVERT JUMPDEST PUSH0 DUP1 REVERT JUMPDEST PUSH0 PUSH1 0x1F NOT PUSH1 0x1F DUP4 ADD AND SWAP1 POP SWAP2 SWAP1 POP JUMP JUMPDEST PUSH32 0x4E487B7100000000000000000000000000000000000000000000000000000000 PUSH0 MSTORE PUSH1 0x41 PUSH1 0x4 MSTORE PUSH1 0x24 PUSH0 REVERT JUMPDEST PUSH2 0x1639 DUP3 PUSH2 0x15F3 JUMP JUMPDEST DUP2 ADD DUP2 DUP2 LT PUSH8 0xFFFFFFFFFFFFFFFF DUP3 GT OR ISZERO PUSH2 0x1658 JUMPI PUSH2 0x1657 PUSH2 0x1603 JUMP JUMPDEST JUMPDEST DUP1 PUSH1 0x40 MSTORE POP POP POP JUMP JUMPDEST PUSH0 PUSH2 0x166A PUSH2 0x1434 JUMP JUMPDEST SWAP1 POP PUSH2 0x1676 DUP3 DUP3 PUSH2 0x1630 JUMP JUMPDEST SWAP2 SWAP1 POP JUMP JUMPDEST PUSH0 PUSH8 0xFFFFFFFFFFFFFFFF DUP3 GT ISZERO PUSH2 0x1695 JUMPI PUSH2 0x1694 PUSH2 0x1603 JUMP JUMPDEST JUMPDEST PUSH2 0x169E DUP3 PUSH2 0x15F3 JUMP JUMPDEST SWAP1 POP PUSH1 0x20 DUP2 ADD SWAP1 POP SWAP2 SWAP1 POP JUMP JUMPDEST DUP3 DUP2 DUP4 CALLDATACOPY PUSH0 DUP4 DUP4 ADD MSTORE POP POP POP JUMP JUMPDEST PUSH0 PUSH2 0x16CB PUSH2 0x16C6 DUP5 PUSH2 0x167B JUMP JUMPDEST PUSH2 0x1661 JUMP JUMPDEST SWAP1 POP DUP3 DUP2 MSTORE PUSH1 0x20 DUP2 ADD DUP5 DUP5 DUP5 ADD GT ISZERO PUSH2 0x16E7 JUMPI PUSH2 0x16E6 PUSH2 0x15EF JUMP JUMPDEST JUMPDEST PUSH2 0x16F2 DUP5 DUP3 DUP6 PUSH2 0x16AB JUMP JUMPDEST POP SWAP4 SWAP3 POP POP POP JUMP JUMPDEST PUSH0 DUP3 PUSH1 0x1F DUP4 ADD SLT PUSH2 0x170E JUMPI PUSH2 0x170D PUSH2 0x15EB JUMP JUMPDEST JUMPDEST DUP2 CALLDATALOAD PUSH2 0x171E DUP5 DUP3 PUSH1 0x20 DUP7 ADD PUSH2 0x16B9 JUMP JUMPDEST SWAP2 POP POP SWAP3 SWAP2 POP POP JUMP JUMPDEST PUSH0 DUP1 PUSH1 0x40 DUP4 DUP6 SUB SLT ISZERO PUSH2 0x173D JUMPI PUSH2 0x173C PUSH2 0x143D JUMP JUMPDEST JUMPDEST PUSH0 PUSH2 0x174A DUP6 DUP3 DUP7 ADD PUSH2 0x148B JUMP JUMPDEST SWAP3 POP POP PUSH1 0x20 DUP4 ADD CALLDATALOAD PUSH8 0xFFFFFFFFFFFFFFFF DUP2 GT ISZERO PUSH2 0x176B JUMPI PUSH2 0x176A PUSH2 0x1441 JUMP JUMPDEST JUMPDEST PUSH2 0x1777 DUP6 DUP3 DUP7 ADD PUSH2 0x16FA JUMP JUMPDEST SWAP2 POP POP SWAP3 POP SWAP3 SWAP1 POP JUMP JUMPDEST PUSH0 PUSH1 0x20 DUP3 DUP5 SUB SLT ISZERO PUSH2 0x1796 JUMPI PUSH2 0x1795 PUSH2 0x143D JUMP JUMPDEST JUMPDEST PUSH0 PUSH2 0x17A3 DUP5 DUP3 DUP6 ADD PUSH2 0x14BE JUMP JUMPDEST SWAP2 POP POP SWAP3 SWAP2 POP POP JUMP JUMPDEST PUSH0 DUP2 MLOAD SWAP1 POP SWAP2 SWAP1 POP JUMP JUMPDEST PUSH0 DUP3 DUP3 MSTORE PUSH1 0x20 DUP3 ADD SWAP1 POP SWAP3 SWAP2 POP POP JUMP JUMPDEST PUSH0 JUMPDEST DUP4 DUP2 LT ISZERO PUSH2 0x17E3 JUMPI DUP1 DUP3 ADD MLOAD DUP2 DUP5 ADD MSTORE PUSH1 0x20 DUP2 ADD SWAP1 POP PUSH2 0x17C8 JUMP JUMPDEST PUSH0 DUP5 DUP5 ADD MSTORE POP POP POP POP JUMP JUMPDEST PUSH0 PUSH2 0x17F8 DUP3 PUSH2 0x17AC JUMP JUMPDEST PUSH2 0x1802 DUP2 DUP6 PUSH2 0x17B6 JUMP JUMPDEST SWAP4 POP PUSH2 0x1812 DUP2 DUP6 PUSH1 0x20 DUP7 ADD PUSH2 0x17C6 JUMP JUMPDEST PUSH2 0x181B DUP2 PUSH2 0x15F3 JUMP JUMPDEST DUP5 ADD SWAP2 POP POP SWAP3 SWAP2 POP POP JUMP JUMPDEST PUSH0 PUSH1 0x20 DUP3 ADD SWAP1 POP DUP2 DUP2 SUB PUSH0 DUP4 ADD MSTORE PUSH2 0x183E DUP2 DUP5 PUSH2 0x17EE JUMP JUMPDEST SWAP1 POP SWAP3 SWAP2 POP POP JUMP JUMPDEST PUSH0 PUSH8 0xFFFFFFFFFFFFFFFF DUP3 GT ISZERO PUSH2 0x1860 JUMPI PUSH2 0x185F PUSH2 0x1603 JUMP JUMPDEST JUMPDEST PUSH1 0x20 DUP3 MUL SWAP1 POP PUSH1 0x20 DUP2 ADD SWAP1 POP SWAP2 SWAP1 POP JUMP JUMPDEST PUSH0 DUP1 REVERT JUMPDEST PUSH0 PUSH2 0x1887 PUSH2 0x1882 DUP5 PUSH2 0x1846 JUMP JUMPDEST PUSH2 0x1661 JUMP JUMPDEST SWAP1 POP DUP1 DUP4 DUP3 MSTORE PUSH1 0x20 DUP3 ADD SWAP1 POP PUSH1 0x20 DUP5 MUL DUP4 ADD DUP6 DUP2 GT ISZERO PUSH2 0x18AA JUMPI PUSH2 0x18A9 PUSH2 0x1871 JUMP JUMPDEST JUMPDEST DUP4 JUMPDEST DUP2 DUP2 LT ISZERO PUSH2 0x18D3 JUMPI DUP1 PUSH2 0x18BF DUP9 DUP3 PUSH2 0x14BE JUMP JUMPDEST DUP5 MSTORE PUSH1 0x20 DUP5 ADD SWAP4 POP POP PUSH1 0x20 DUP2 ADD SWAP1 POP PUSH2 0x18AC JUMP JUMPDEST POP POP POP SWAP4 SWAP3 POP POP POP JUMP JUMPDEST PUSH0 DUP3 PUSH1 0x1F DUP4 ADD SLT PUSH2 0x18F1 JUMPI PUSH2 0x18F0 PUSH2 0x15EB JUMP JUMPDEST JUMPDEST DUP2 CALLDATALOAD PUSH2 0x1901 DUP5 DUP3 PUSH1 0x20 DUP7 ADD PUSH2 0x1875 JUMP JUMPDEST SWAP2 POP POP SWAP3 SWAP2 POP POP JUMP JUMPDEST PUSH0 PUSH8 0xFFFFFFFFFFFFFFFF DUP3 GT ISZERO PUSH2 0x1924 JUMPI PUSH2 0x1923 PUSH2 0x1603 JUMP JUMPDEST JUMPDEST PUSH2 0x192D DUP3 PUSH2 0x15F3 JUMP JUMPDEST SWAP1 POP PUSH1 0x20 DUP2 ADD SWAP1 POP SWAP2 SWAP1 POP JUMP JUMPDEST PUSH0 PUSH2 0x194C PUSH2 0x1947 DUP5 PUSH2 0x190A JUMP JUMPDEST PUSH2 0x1661 JUMP JUMPDEST SWAP1 POP DUP3 DUP2 MSTORE PUSH1 0x20 DUP2 ADD DUP5 DUP5 DUP5 ADD GT ISZERO PUSH2 0x1968 JUMPI PUSH2 0x1967 PUSH2 0x15EF JUMP JUMPDEST JUMPDEST PUSH2 0x1973 DUP5 DUP3 DUP6 PUSH2 0x16AB JUMP JUMPDEST POP SWAP4 SWAP3 POP POP POP JUMP JUMPDEST PUSH0 DUP3 PUSH1 0x1F DUP4 ADD SLT PUSH2 0x198F JUMPI PUSH2 0x198E PUSH2 0x15EB JUMP JUMPDEST JUMPDEST DUP2 CALLDATALOAD PUSH2 0x199F DUP5 DUP3 PUSH1 0x20 DUP7 ADD PUSH2 0x193A JUMP JUMPDEST SWAP2 POP POP SWAP3 SWAP2 POP POP JUMP JUMPDEST PUSH0 DUP1 PUSH0 DUP1 PUSH0 PUSH1 0xA0 DUP7 DUP9 SUB SLT ISZERO PUSH2 0x19C1 JUMPI PUSH2 0x19C0 PUSH2 0x143D JUMP JUMPDEST JUMPDEST PUSH0 PUSH2 0x19CE DUP9 DUP3 DUP10 ADD PUSH2 0x148B JUMP JUMPDEST SWAP6 POP POP PUSH1 0x20 PUSH2 0x19DF DUP9 DUP3 DUP10 ADD PUSH2 0x148B JUMP JUMPDEST SWAP5 POP POP PUSH1 0x40 DUP7 ADD CALLDATALOAD PUSH8 0xFFFFFFFFFFFFFFFF DUP2 GT ISZERO PUSH2 0x1A00 JUMPI PUSH2 0x19FF PUSH2 0x1441 JUMP JUMPDEST JUMPDEST PUSH2 0x1A0C DUP9 DUP3 DUP10 ADD PUSH2 0x18DD JUMP JUMPDEST SWAP4 POP POP PUSH1 0x60 DUP7 ADD CALLDATALOAD PUSH8 0xFFFFFFFFFFFFFFFF DUP2 GT ISZERO PUSH2 0x1A2D JUMPI PUSH2 0x1A2C PUSH2 0x1441 JUMP JUMPDEST JUMPDEST PUSH2 0x1A39 DUP9 DUP3 DUP10 ADD PUSH2 0x18DD JUMP JUMPDEST SWAP3 POP POP PUSH1 0x80 DUP7 ADD CALLDATALOAD PUSH8 0xFFFFFFFFFFFFFFFF DUP2 GT ISZERO PUSH2 0x1A5A JUMPI PUSH2 0x1A59 PUSH2 0x1441 JUMP JUMPDEST JUMPDEST PUSH2 0x1A66 DUP9 DUP3 DUP10 ADD PUSH2 0x197B JUMP JUMPDEST SWAP2 POP POP SWAP3 SWAP6 POP SWAP3 SWAP6 SWAP1 SWAP4 POP JUMP JUMPDEST PUSH0 PUSH8 0xFFFFFFFFFFFFFFFF DUP3 GT ISZERO PUSH2 0x1A8D JUMPI PUSH2 0x1A8C PUSH2 0x1603 JUMP JUMPDEST JUMPDEST PUSH1 0x20 DUP3 MUL SWAP1 POP PUSH1 0x20 DUP2 ADD SWAP1 POP SWAP2 SWAP1 POP JUMP JUMPDEST PUSH0 PUSH2 0x1AB0 PUSH2 0x1AAB DUP5 PUSH2 0x1A73 JUMP JUMPDEST PUSH2 0x1661 JUMP JUMPDEST SWAP1 POP DUP1 DUP4 DUP3 MSTORE PUSH1 0x20 DUP3 ADD SWAP1 POP PUSH1 0x20 DUP5 MUL DUP4 ADD DUP6 DUP2 GT ISZERO PUSH2 0x1AD3 JUMPI PUSH2 0x1AD2 PUSH2 0x1871 JUMP JUMPDEST JUMPDEST DUP4 JUMPDEST DUP2 DUP2 LT ISZERO PUSH2 0x1AFC JUMPI DUP1 PUSH2 0x1AE8 DUP9 DUP3 PUSH2 0x148B JUMP JUMPDEST DUP5 MSTORE PUSH1 0x20 DUP5 ADD SWAP4 POP POP PUSH1 0x20 DUP2 ADD SWAP1 POP PUSH2 0x1AD5 JUMP JUMPDEST POP POP POP SWAP4 SWAP3 POP POP POP JUMP JUMPDEST PUSH0 DUP3 PUSH1 0x1F DUP4 ADD SLT PUSH2 0x1B1A JUMPI PUSH2 0x1B19 PUSH2 0x15EB JUMP JUMPDEST JUMPDEST DUP2 CALLDATALOAD PUSH2 0x1B2A DUP5 DUP3 PUSH1 0x20 DUP7 ADD PUSH2 0x1A9E JUMP JUMPDEST SWAP2 POP POP SWAP3 SWAP2 POP POP JUMP JUMPDEST PUSH0 DUP1 PUSH1 0x40 DUP4 DUP6 SUB SLT ISZERO PUSH2 0x1B49 JUMPI PUSH2 0x1B48 PUSH2 0x143D JUMP JUMPDEST JUMPDEST PUSH0 DUP4 ADD CALLDATALOAD PUSH8 0xFFFFFFFFFFFFFFFF DUP2 GT ISZERO PUSH2 0x1B66 JUMPI PUSH2 0x1B65 PUSH2 0x1441 JUMP JUMPDEST JUMPDEST PUSH2 0x1B72 DUP6 DUP3 DUP7 ADD PUSH2 0x1B06 JUMP JUMPDEST SWAP3 POP POP PUSH1 0x20 DUP4 ADD CALLDATALOAD PUSH8 0xFFFFFFFFFFFFFFFF DUP2 GT ISZERO PUSH2 0x1B93 JUMPI PUSH2 0x1B92 PUSH2 0x1441 JUMP JUMPDEST JUMPDEST PUSH2 0x1B9F DUP6 DUP3 DUP7 ADD PUSH2 0x18DD JUMP JUMPDEST SWAP2 POP POP SWAP3 POP SWAP3 SWAP1 POP JUMP JUMPDEST PUSH0 DUP2 MLOAD SWAP1 POP SWAP2 SWAP1 POP JUMP JUMPDEST PUSH0 DUP3 DUP3 MSTORE PUSH1 0x20 DUP3 ADD SWAP1 POP SWAP3 SWAP2 POP POP JUMP JUMPDEST PUSH0 DUP2 SWAP1 POP PUSH1 0x20 DUP3 ADD SWAP1 POP SWAP2 SWAP1 POP JUMP JUMPDEST PUSH2 0x1BDB DUP2 PUSH2 0x149F JUMP JUMPDEST DUP3 MSTORE POP POP JUMP JUMPDEST PUSH0 PUSH2 0x1BEC DUP4 DUP4 PUSH2 0x1BD2 JUMP JUMPDEST PUSH1 0x20 DUP4 ADD SWAP1 POP SWAP3 SWAP2 POP POP JUMP JUMPDEST PUSH0 PUSH1 0x20 DUP3 ADD SWAP1 POP SWAP2 SWAP1 POP JUMP JUMPDEST PUSH0 PUSH2 0x1C0E DUP3 PUSH2 0x1BA9 JUMP JUMPDEST PUSH2 0x1C18 DUP2 DUP6 PUSH2 0x1BB3 JUMP JUMPDEST SWAP4 POP PUSH2 0x1C23 DUP4 PUSH2 0x1BC3 JUMP JUMPDEST DUP1 PUSH0 JUMPDEST DUP4 DUP2 LT ISZERO PUSH2 0x1C53 JUMPI DUP2 MLOAD PUSH2 0x1C3A DUP9 DUP3 PUSH2 0x1BE1 JUMP JUMPDEST SWAP8 POP PUSH2 0x1C45 DUP4 PUSH2 0x1BF8 JUMP JUMPDEST SWAP3 POP POP PUSH1 0x1 DUP2 ADD SWAP1 POP PUSH2 0x1C26 JUMP JUMPDEST POP DUP6 SWAP4 POP POP POP POP SWAP3 SWAP2 POP POP JUMP JUMPDEST PUSH0 PUSH1 0x20 DUP3 ADD SWAP1 POP DUP2 DUP2 SUB PUSH0 DUP4 ADD MSTORE PUSH2 0x1C78 DUP2 DUP5 PUSH2 0x1C04 JUMP JUMPDEST SWAP1 POP SWAP3 SWAP2 POP POP JUMP JUMPDEST PUSH0 DUP1 PUSH0 PUSH1 0x60 DUP5 DUP7 SUB SLT ISZERO PUSH2 0x1C97 JUMPI PUSH2 0x1C96 PUSH2 0x143D JUMP JUMPDEST JUMPDEST PUSH0 PUSH2 0x1CA4 DUP7 DUP3 DUP8 ADD PUSH2 0x148B JUMP JUMPDEST SWAP4 POP POP PUSH1 0x20 PUSH2 0x1CB5 DUP7 DUP3 DUP8 ADD PUSH2 0x14BE JUMP JUMPDEST SWAP3 POP POP PUSH1 0x40 PUSH2 0x1CC6 DUP7 DUP3 DUP8 ADD PUSH2 0x14BE JUMP JUMPDEST SWAP2 POP POP SWAP3 POP SWAP3 POP SWAP3 JUMP JUMPDEST PUSH2 0x1CD9 DUP2 PUSH2 0x15B8 JUMP JUMPDEST DUP2 EQ PUSH2 0x1CE3 JUMPI PUSH0 DUP1 REVERT JUMPDEST POP JUMP JUMPDEST PUSH0 DUP2 CALLDATALOAD SWAP1 POP PUSH2 0x1CF4 DUP2 PUSH2 0x1CD0 JUMP JUMPDEST SWAP3 SWAP2 POP POP JUMP JUMPDEST PUSH0 DUP1 PUSH1 0x40 DUP4 DUP6 SUB SLT ISZERO PUSH2 0x1D10 JUMPI PUSH2 0x1D0F PUSH2 0x143D JUMP JUMPDEST JUMPDEST PUSH0 PUSH2 0x1D1D DUP6 DUP3 DUP7 ADD PUSH2 0x148B JUMP JUMPDEST SWAP3 POP POP PUSH1 0x20 PUSH2 0x1D2E DUP6 DUP3 DUP7 ADD PUSH2 0x1CE6 JUMP JUMPDEST SWAP2 POP POP SWAP3 POP SWAP3 SWAP1 POP JUMP JUMPDEST PUSH0 DUP1 PUSH1 0x40 DUP4 DUP6 SUB SLT ISZERO PUSH2 0x1D4E JUMPI PUSH2 0x1D4D PUSH2 0x143D JUMP JUMPDEST JUMPDEST PUSH0 PUSH2 0x1D5B DUP6 DUP3 DUP7 ADD PUSH2 0x148B JUMP JUMPDEST SWAP3 POP POP PUSH1 0x20 PUSH2 0x1D6C DUP6 DUP3 DUP7 ADD PUSH2 0x148B JUMP JUMPDEST SWAP2 POP POP SWAP3 POP SWAP3 SWAP1 POP JUMP JUMPDEST PUSH0 DUP1 PUSH0 DUP1 PUSH0 PUSH1 0xA0 DUP7 DUP9 SUB SLT ISZERO PUSH2 0x1D8F JUMPI PUSH2 0x1D8E PUSH2 0x143D JUMP JUMPDEST JUMPDEST PUSH0 PUSH2 0x1D9C DUP9 DUP3 DUP10 ADD PUSH2 0x148B JUMP JUMPDEST SWAP6 POP POP PUSH1 0x20 PUSH2 0x1DAD DUP9 DUP3 DUP10 ADD PUSH2 0x148B JUMP JUMPDEST SWAP5 POP POP PUSH1 0x40 PUSH2 0x1DBE DUP9 DUP3 DUP10 ADD PUSH2 0x14BE JUMP JUMPDEST SWAP4 POP POP PUSH1 0x60 PUSH2 0x1DCF DUP9 DUP3 DUP10 ADD PUSH2 0x14BE JUMP JUMPDEST SWAP3 POP POP PUSH1 0x80 DUP7 ADD CALLDATALOAD PUSH8 0xFFFFFFFFFFFFFFFF DUP2 GT ISZERO PUSH2 0x1DF0 JUMPI PUSH2 0x1DEF PUSH2 0x1441 JUMP JUMPDEST JUMPDEST PUSH2 0x1DFC DUP9 DUP3 DUP10 ADD PUSH2 0x197B JUMP JUMPDEST SWAP2 POP POP SWAP3 SWAP6 POP SWAP3 SWAP6 SWAP1 SWAP4 POP JUMP JUMPDEST PUSH0 DUP2 SWAP1 POP SWAP3 SWAP2 POP POP JUMP JUMPDEST PUSH0 PUSH2 0x1E1D DUP3 PUSH2 0x17AC JUMP JUMPDEST PUSH2 0x1E27 DUP2 DUP6 PUSH2 0x1E09 JUMP JUMPDEST SWAP4 POP PUSH2 0x1E37 DUP2 DUP6 PUSH1 0x20 DUP7 ADD PUSH2 0x17C6 JUMP JUMPDEST DUP1 DUP5 ADD SWAP2 POP POP SWAP3 SWAP2 POP POP JUMP JUMPDEST PUSH32 0x4E487B7100000000000000000000000000000000000000000000000000000000 PUSH0 MSTORE PUSH1 0x22 PUSH1 0x4 MSTORE PUSH1 0x24 PUSH0 REVERT JUMPDEST PUSH0 PUSH1 0x2 DUP3 DIV SWAP1 POP PUSH1 0x1 DUP3 AND DUP1 PUSH2 0x1E87 JUMPI PUSH1 0x7F DUP3 AND SWAP2 POP JUMPDEST PUSH1 0x20 DUP3 LT DUP2 SUB PUSH2 0x1E9A JUMPI PUSH2 0x1E99 PUSH2 0x1E43 JUMP JUMPDEST JUMPDEST POP SWAP2 SWAP1 POP JUMP JUMPDEST PUSH0 DUP2 SWAP1 POP DUP2 PUSH0 MSTORE PUSH1 0x20 PUSH0 KECCAK256 SWAP1 POP SWAP2 SWAP1 POP JUMP JUMPDEST PUSH0 DUP2 SLOAD PUSH2 0x1EBE DUP2 PUSH2 0x1E70 JUMP JUMPDEST PUSH2 0x1EC8 DUP2 DUP7 PUSH2 0x1E09 JUMP JUMPDEST SWAP5 POP PUSH1 0x1 DUP3 AND PUSH0 DUP2 EQ PUSH2 0x1EE2 JUMPI PUSH1 0x1 DUP2 EQ PUSH2 0x1EF7 JUMPI PUSH2 0x1F29 JUMP JUMPDEST PUSH1 0xFF NOT DUP4 AND DUP7 MSTORE DUP2 ISZERO ISZERO DUP3 MUL DUP7 ADD SWAP4 POP PUSH2 0x1F29 JUMP JUMPDEST PUSH2 0x1F00 DUP6 PUSH2 0x1EA0 JUMP JUMPDEST PUSH0 JUMPDEST DUP4 DUP2 LT ISZERO PUSH2 0x1F21 JUMPI DUP2 SLOAD DUP2 DUP10 ADD MSTORE PUSH1 0x1 DUP3 ADD SWAP2 POP PUSH1 0x20 DUP2 ADD SWAP1 POP PUSH2 0x1F02 JUMP JUMPDEST DUP4 DUP9 ADD SWAP6 POP POP POP JUMPDEST POP POP POP SWAP3 SWAP2 POP POP JUMP JUMPDEST PUSH0 PUSH2 0x1F3D DUP3 DUP6 PUSH2 0x1E13 JUMP JUMPDEST SWAP2 POP PUSH2 0x1F49 DUP3 DUP5 PUSH2 0x1EB2 JUMP JUMPDEST SWAP2 POP DUP2 SWAP1 POP SWAP4 SWAP3 POP POP POP JUMP JUMPDEST PUSH2 0x1F5E DUP2 PUSH2 0x1464 JUMP JUMPDEST DUP3 MSTORE POP POP JUMP JUMPDEST PUSH0 PUSH1 0x40 DUP3 ADD SWAP1 POP PUSH2 0x1F77 PUSH0 DUP4 ADD DUP6 PUSH2 0x1F55 JUMP JUMPDEST PUSH2 0x1F84 PUSH1 0x20 DUP4 ADD DUP5 PUSH2 0x1F55 JUMP JUMPDEST SWAP4 SWAP3 POP POP POP JUMP JUMPDEST PUSH0 PUSH1 0x40 DUP3 ADD SWAP1 POP PUSH2 0x1F9E PUSH0 DUP4 ADD DUP6 PUSH2 0x1510 JUMP JUMPDEST PUSH2 0x1FAB PUSH1 0x20 DUP4 ADD DUP5 PUSH2 0x1510 JUMP JUMPDEST SWAP4 SWAP3 POP POP POP JUMP JUMPDEST PUSH32 0x4E487B7100000000000000000000000000000000000000000000000000000000 PUSH0 MSTORE PUSH1 0x32 PUSH1 0x4 MSTORE PUSH1 0x24 PUSH0 REVERT JUMPDEST PUSH0 PUSH1 0x20 DUP3 ADD SWAP1 POP PUSH2 0x1FF2 PUSH0 DUP4 ADD DUP5 PUSH2 0x1F55 JUMP JUMPDEST SWAP3 SWAP2 POP POP JUMP JUMPDEST PUSH0 PUSH1 0x20 PUSH1 0x1F DUP4 ADD DIV SWAP1 POP SWAP2 SWAP1 POP JUMP JUMPDEST PUSH0 DUP3 DUP3 SHL SWAP1 POP SWAP3 SWAP2 POP POP JUMP JUMPDEST PUSH0 PUSH1 0x8 DUP4 MUL PUSH2 0x2042 PUSH32 0xFFFFFFFFFFFFFFFFFFFFFFFFFFFFFFFFFFFFFFFFFFFFFFFFFFFFFFFFFFFFFFFF DUP3 PUSH2 0x2007 JUMP JUMPDEST PUSH2 0x204C DUP7 DUP4 PUSH2 0x2007 JUMP JUMPDEST SWAP6 POP DUP1 NOT DUP5 AND SWAP4 POP DUP1 DUP7 AND DUP5 OR SWAP3 POP POP POP SWAP4 SWAP3 POP POP POP JUMP JUMPDEST PUSH0 DUP2 SWAP1 POP SWAP2 SWAP1 POP JUMP JUMPDEST PUSH0 PUSH2 0x2087 PUSH2 0x2082 PUSH2 0x207D DUP5 PUSH2 0x149F JUMP JUMPDEST PUSH2 0x2064 JUMP JUMPDEST PUSH2 0x149F JUMP JUMPDEST SWAP1 POP SWAP2 SWAP1 POP JUMP JUMPDEST PUSH0 DUP2 SWAP1 POP SWAP2 SWAP1 POP JUMP JUMPDEST PUSH2 0x20A0 DUP4 PUSH2 0x206D JUMP JUMPDEST PUSH2 0x20B4 PUSH2 0x20AC DUP3 PUSH2 0x208E JUMP JUMPDEST DUP5 DUP5 SLOAD PUSH2 0x2013 JUMP JUMPDEST DUP3 SSTORE POP POP POP POP JUMP JUMPDEST PUSH0 SWAP1 JUMP JUMPDEST PUSH2 0x20C8 PUSH2 0x20BC JUMP JUMPDEST PUSH2 0x20D3 DUP2 DUP5 DUP5 PUSH2 0x2097 JUMP JUMPDEST POP POP POP JUMP JUMPDEST JUMPDEST DUP2 DUP2 LT ISZERO PUSH2 0x20F6 JUMPI PUSH2 0x20EB PUSH0 DUP3 PUSH2 0x20C0 JUMP JUMPDEST PUSH1 0x1 DUP2 ADD SWAP1 POP PUSH2 0x20D9 JUMP JUMPDEST POP POP JUMP JUMPDEST PUSH1 0x1F DUP3 GT ISZERO PUSH2 0x213B JUMPI PUSH2 0x210C DUP2 PUSH2 0x1EA0 JUMP JUMPDEST PUSH2 0x2115 DUP5 PUSH2 0x1FF8 JUMP JUMPDEST DUP2 ADD PUSH1 0x20 DUP6 LT ISZERO PUSH2 0x2124 JUMPI DUP2 SWAP1 POP JUMPDEST PUSH2 0x2138 PUSH2 0x2130 DUP6 PUSH2 0x1FF8 JUMP JUMPDEST DUP4 ADD DUP3 PUSH2 0x20D8 JUMP JUMPDEST POP POP JUMPDEST POP POP POP JUMP JUMPDEST PUSH0 DUP3 DUP3 SHR SWAP1 POP SWAP3 SWAP2 POP POP JUMP JUMPDEST PUSH0 PUSH2 0x215B PUSH0 NOT DUP5 PUSH1 0x8 MUL PUSH2 0x2140 JUMP JUMPDEST NOT DUP1 DUP4 AND SWAP2 POP POP SWAP3 SWAP2 POP POP JUMP JUMPDEST PUSH0 PUSH2 0x2173 DUP4 DUP4 PUSH2 0x214C JUMP JUMPDEST SWAP2 POP DUP3 PUSH1 0x2 MUL DUP3 OR SWAP1 POP SWAP3 SWAP2 POP POP JUMP JUMPDEST PUSH2 0x218C DUP3 PUSH2 0x17AC JUMP JUMPDEST PUSH8 0xFFFFFFFFFFFFFFFF DUP2 GT ISZERO PUSH2 0x21A5 JUMPI PUSH2 0x21A4 PUSH2 0x1603 JUMP JUMPDEST JUMPDEST PUSH2 0x21AF DUP3 SLOAD PUSH2 0x1E70 JUMP JUMPDEST PUSH2 0x21BA DUP3 DUP3 DUP6 PUSH2 0x20FA JUMP JUMPDEST PUSH0 PUSH1 0x20 SWAP1 POP PUSH1 0x1F DUP4 GT PUSH1 0x1 DUP2 EQ PUSH2 0x21EB JUMPI PUSH0 DUP5 ISZERO PUSH2 0x21D9 JUMPI DUP3 DUP8 ADD MLOAD SWAP1 POP JUMPDEST PUSH2 0x21E3 DUP6 DUP3 PUSH2 0x2168 JUMP JUMPDEST DUP7 SSTORE POP PUSH2 0x224A JUMP JUMPDEST PUSH1 0x1F NOT DUP5 AND PUSH2 0x21F9 DUP7 PUSH2 0x1EA0 JUMP JUMPDEST PUSH0 JUMPDEST DUP3 DUP2 LT ISZERO PUSH2 0x2220 JUMPI DUP5 DUP10 ADD MLOAD DUP3 SSTORE PUSH1 0x1 DUP3 ADD SWAP2 POP PUSH1 0x20 DUP6 ADD SWAP5 POP PUSH1 0x20 DUP2 ADD SWAP1 POP PUSH2 0x21FB JUMP JUMPDEST DUP7 DUP4 LT ISZERO PUSH2 0x223D JUMPI DUP5 DUP10 ADD MLOAD PUSH2 0x2239 PUSH1 0x1F DUP10 AND DUP3 PUSH2 0x214C JUMP JUMPDEST DUP4 SSTORE POP JUMPDEST PUSH1 0x1 PUSH1 0x2 DUP9 MUL ADD DUP9 SSTORE POP POP POP JUMPDEST POP POP POP POP POP POP JUMP JUMPDEST PUSH0 PUSH1 0x80 DUP3 ADD SWAP1 POP PUSH2 0x2265 PUSH0 DUP4 ADD DUP8 PUSH2 0x1F55 JUMP JUMPDEST PUSH2 0x2272 PUSH1 0x20 DUP4 ADD DUP7 PUSH2 0x1510 JUMP JUMPDEST PUSH2 0x227F PUSH1 0x40 DUP4 ADD DUP6 PUSH2 0x1510 JUMP JUMPDEST PUSH2 0x228C PUSH1 0x60 DUP4 ADD DUP5 PUSH2 0x1510 JUMP JUMPDEST SWAP6 SWAP5 POP POP POP POP POP JUMP JUMPDEST PUSH32 0x4E487B7100000000000000000000000000000000000000000000000000000000 PUSH0 MSTORE PUSH1 0x11 PUSH1 0x4 MSTORE PUSH1 0x24 PUSH0 REVERT JUMPDEST PUSH0 PUSH2 0x22CC DUP3 PUSH2 0x149F JUMP JUMPDEST SWAP2 POP PUSH2 0x22D7 DUP4 PUSH2 0x149F JUMP JUMPDEST SWAP3 POP DUP3 DUP3 ADD SWAP1 POP DUP1 DUP3 GT ISZERO PUSH2 0x22EF JUMPI PUSH2 0x22EE PUSH2 0x2295 JUMP JUMPDEST JUMPDEST SWAP3 SWAP2 POP POP JUMP JUMPDEST PUSH0 PUSH1 0x40 DUP3 ADD SWAP1 POP DUP2 DUP2 SUB PUSH0 DUP4 ADD MSTORE PUSH2 0x230D DUP2 DUP6 PUSH2 0x1C04 JUMP JUMPDEST SWAP1 POP DUP2 DUP2 SUB PUSH1 0x20 DUP4 ADD MSTORE PUSH2 0x2321 DUP2 DUP5 PUSH2 0x1C04 JUMP JUMPDEST SWAP1 POP SWAP4 SWAP3 POP POP POP JUMP JUMPDEST PUSH0 DUP2 MLOAD SWAP1 POP SWAP2 SWAP1 POP JUMP JUMPDEST PUSH0 DUP3 DUP3 MSTORE PUSH1 0x20 DUP3 ADD SWAP1 POP SWAP3 SWAP2 POP POP JUMP JUMPDEST PUSH0 PUSH2 0x234E DUP3 PUSH2 0x232A JUMP JUMPDEST PUSH2 0x2358 DUP2 DUP6 PUSH2 0x2334 JUMP JUMPDEST SWAP4 POP PUSH2 0x2368 DUP2 DUP6 PUSH1 0x20 DUP7 ADD PUSH2 0x17C6 JUMP JUMPDEST PUSH2 0x2371 DUP2 PUSH2 0x15F3 JUMP JUMPDEST DUP5 ADD SWAP2 POP POP SWAP3 SWAP2 POP POP JUMP JUMPDEST PUSH0 PUSH1 0xA0 DUP3 ADD SWAP1 POP PUSH2 0x238F PUSH0 DUP4 ADD DUP9 PUSH2 0x1F55 JUMP JUMPDEST PUSH2 0x239C PUSH1 0x20 DUP4 ADD DUP8 PUSH2 0x1F55 JUMP JUMPDEST PUSH2 0x23A9 PUSH1 0x40 DUP4 ADD DUP7 PUSH2 0x1510 JUMP JUMPDEST PUSH2 0x23B6 PUSH1 0x60 DUP4 ADD DUP6 PUSH2 0x1510 JUMP JUMPDEST DUP2 DUP2 SUB PUSH1 0x80 DUP4 ADD MSTORE PUSH2 0x23C8 DUP2 DUP5 PUSH2 0x2344 JUMP JUMPDEST SWAP1 POP SWAP7 SWAP6 POP POP POP POP POP POP JUMP JUMPDEST PUSH0 DUP2 MLOAD SWAP1 POP PUSH2 0x23E2 DUP2 PUSH2 0x1563 JUMP JUMPDEST SWAP3 SWAP2 POP POP JUMP JUMPDEST PUSH0 PUSH1 0x20 DUP3 DUP5 SUB SLT ISZERO PUSH2 0x23FD JUMPI PUSH2 0x23FC PUSH2 0x143D JUMP JUMPDEST JUMPDEST PUSH0 PUSH2 0x240A DUP5 DUP3 DUP6 ADD PUSH2 0x23D4 JUMP JUMPDEST SWAP2 POP POP SWAP3 SWAP2 POP POP JUMP JUMPDEST PUSH0 PUSH1 0xA0 DUP3 ADD SWAP1 POP PUSH2 0x2426 PUSH0 DUP4 ADD DUP9 PUSH2 0x1F55 JUMP JUMPDEST PUSH2 0x2433 PUSH1 0x20 DUP4 ADD DUP8 PUSH2 0x1F55 JUMP JUMPDEST DUP2 DUP2 SUB PUSH1 0x40 DUP4 ADD MSTORE PUSH2 0x2445 DUP2 DUP7 PUSH2 0x1C04 JUMP JUMPDEST SWAP1 POP DUP2 DUP2 SUB PUSH1 0x60 DUP4 ADD MSTORE PUSH2 0x2459 DUP2 DUP6 PUSH2 0x1C04 JUMP JUMPDEST SWAP1 POP DUP2 DUP2 SUB PUSH1 0x80 DUP4 ADD MSTORE PUSH2 0x246D DUP2 DUP5 PUSH2 0x2344 JUMP JUMPDEST SWAP1 POP SWAP7 SWAP6 POP POP POP POP POP POP JUMP INVALID LOG2 PUSH5 0x6970667358 0x22 SLT KECCAK256 OR 0xB8 0xA8 TIMESTAMP EXTCODESIZE SWAP8 PUSH21 0xF6429BE3D8D1A2429F036FCDE274BDEE8C77BF45D1 0x23 PUSH7 0x6C2D64736F6C63 NUMBER STOP ADDMOD AND STOP CALLER "
		},
		"gasEstimates": {
			"creation": {
				"codeDepositCost": "1878200",
				"executionCost": "infinite",
				"totalCost": "infinite"
			},
			"external": {
				"balanceOf(address,uint256)": "infinite",
				"balanceOfBatch(address[],uint256[])": "infinite",
				"isApprovedForAll(address,address)": "infinite",
				"mintFungible(address,uint256,uint256)": "infinite",
				"mintNonFungible(address,string)": "infinite",
				"safeBatchTransferFrom(address,address,uint256[],uint256[],bytes)": "infinite",
				"safeTransferFrom(address,address,uint256,uint256,bytes)": "infinite",
				"setApprovalForAll(address,bool)": "infinite",
				"supportsInterface(bytes4)": "786",
				"uri(uint256)": "infinite"
			},
			"internal": {
				"_setTokenURI(uint256,string memory)": "infinite"
			}
		},
		"methodIdentifiers": {
			"balanceOf(address,uint256)": "00fdd58e",
			"balanceOfBatch(address[],uint256[])": "4e1273f4",
			"isApprovedForAll(address,address)": "e985e9c5",
			"mintFungible(address,uint256,uint256)": "58ea82e6",
			"mintNonFungible(address,string)": "07805a6b",
			"safeBatchTransferFrom(address,address,uint256[],uint256[],bytes)": "2eb2c2d6",
			"safeTransferFrom(address,address,uint256,uint256,bytes)": "f242432a",
			"setApprovalForAll(address,bool)": "a22cb465",
			"supportsInterface(bytes4)": "01ffc9a7",
			"uri(uint256)": "0e89341c"
		}
	},
	"abi": [
		{
			"inputs": [],
			"stateMutability": "nonpayable",
			"type": "constructor"
		},
		{
			"inputs": [
				{
					"internalType": "address",
					"name": "sender",
					"type": "address"
				},
				{
					"internalType": "uint256",
					"name": "balance",
					"type": "uint256"
				},
				{
					"internalType": "uint256",
					"name": "needed",
					"type": "uint256"
				},
				{
					"internalType": "uint256",
					"name": "tokenId",
					"type": "uint256"
				}
			],
			"name": "ERC1155InsufficientBalance",
			"type": "error"
		},
		{
			"inputs": [
				{
					"internalType": "address",
					"name": "approver",
					"type": "address"
				}
			],
			"name": "ERC1155InvalidApprover",
			"type": "error"
		},
		{
			"inputs": [
				{
					"internalType": "uint256",
					"name": "idsLength",
					"type": "uint256"
				},
				{
					"internalType": "uint256",
					"name": "valuesLength",
					"type": "uint256"
				}
			],
			"name": "ERC1155InvalidArrayLength",
			"type": "error"
		},
		{
			"inputs": [
				{
					"internalType": "address",
					"name": "operator",
					"type": "address"
				}
			],
			"name": "ERC1155InvalidOperator",
			"type": "error"
		},
		{
			"inputs": [
				{
					"internalType": "address",
					"name": "receiver",
					"type": "address"
				}
			],
			"name": "ERC1155InvalidReceiver",
			"type": "error"
		},
		{
			"inputs": [
				{
					"internalType": "address",
					"name": "sender",
					"type": "address"
				}
			],
			"name": "ERC1155InvalidSender",
			"type": "error"
		},
		{
			"inputs": [
				{
					"internalType": "address",
					"name": "operator",
					"type": "address"
				},
				{
					"internalType": "address",
					"name": "owner",
					"type": "address"
				}
			],
			"name": "ERC1155MissingApprovalForAll",
			"type": "error"
		},
		{
			"anonymous": false,
			"inputs": [
				{
					"indexed": true,
					"internalType": "address",
					"name": "account",
					"type": "address"
				},
				{
					"indexed": true,
					"internalType": "address",
					"name": "operator",
					"type": "address"
				},
				{
					"indexed": false,
					"internalType": "bool",
					"name": "approved",
					"type": "bool"
				}
			],
			"name": "ApprovalForAll",
			"type": "event"
		},
		{
			"anonymous": false,
			"inputs": [
				{
					"indexed": true,
					"internalType": "address",
					"name": "operator",
					"type": "address"
				},
				{
					"indexed": true,
					"internalType": "address",
					"name": "from",
					"type": "address"
				},
				{
					"indexed": true,
					"internalType": "address",
					"name": "to",
					"type": "address"
				},
				{
					"indexed": false,
					"internalType": "uint256[]",
					"name": "ids",
					"type": "uint256[]"
				},
				{
					"indexed": false,
					"internalType": "uint256[]",
					"name": "values",
					"type": "uint256[]"
				}
			],
			"name": "TransferBatch",
			"type": "event"
		},
		{
			"anonymous": false,
			"inputs": [
				{
					"indexed": true,
					"internalType": "address",
					"name": "operator",
					"type": "address"
				},
				{
					"indexed": true,
					"internalType": "address",
					"name": "from",
					"type": "address"
				},
				{
					"indexed": true,
					"internalType": "address",
					"name": "to",
					"type": "address"
				},
				{
					"indexed": false,
					"internalType": "uint256",
					"name": "id",
					"type": "uint256"
				},
				{
					"indexed": false,
					"internalType": "uint256",
					"name": "value",
					"type": "uint256"
				}
			],
			"name": "TransferSingle",
			"type": "event"
		},
		{
			"anonymous": false,
			"inputs": [
				{
					"indexed": false,
					"internalType": "string",
					"name": "value",
					"type": "string"
				},
				{
					"indexed": true,
					"internalType": "uint256",
					"name": "id",
					"type": "uint256"
				}
			],
			"name": "URI",
			"type": "event"
		},
		{
			"inputs": [
				{
					"internalType": "address",
					"name": "account",
					"type": "address"
				},
				{
					"internalType": "uint256",
					"name": "id",
					"type": "uint256"
				}
			],
			"name": "balanceOf",
			"outputs": [
				{
					"internalType": "uint256",
					"name": "",
					"type": "uint256"
				}
			],
			"stateMutability": "view",
			"type": "function"
		},
		{
			"inputs": [
				{
					"internalType": "address[]",
					"name": "accounts",
					"type": "address[]"
				},
				{
					"internalType": "uint256[]",
					"name": "ids",
					"type": "uint256[]"
				}
			],
			"name": "balanceOfBatch",
			"outputs": [
				{
					"internalType": "uint256[]",
					"name": "",
					"type": "uint256[]"
				}
			],
			"stateMutability": "view",
			"type": "function"
		},
		{
			"inputs": [
				{
					"internalType": "address",
					"name": "account",
					"type": "address"
				},
				{
					"internalType": "address",
					"name": "operator",
					"type": "address"
				}
			],
			"name": "isApprovedForAll",
			"outputs": [
				{
					"internalType": "bool",
					"name": "",
					"type": "bool"
				}
			],
			"stateMutability": "view",
			"type": "function"
		},
		{
			"inputs": [
				{
					"internalType": "address",
					"name": "account",
					"type": "address"
				},
				{
					"internalType": "uint256",
					"name": "id",
					"type": "uint256"
				},
				{
					"internalType": "uint256",
					"name": "amount",
					"type": "uint256"
				}
			],
			"name": "mintFungible",
			"outputs": [],
			"stateMutability": "nonpayable",
			"type": "function"
		},
		{
			"inputs": [
				{
					"internalType": "address",
					"name": "account",
					"type": "address"
				},
				{
					"internalType": "string",
					"name": "tokenURI",
					"type": "string"
				}
			],
			"name": "mintNonFungible",
			"outputs": [
				{
					"internalType": "uint256",
					"name": "",
					"type": "uint256"
				}
			],
			"stateMutability": "nonpayable",
			"type": "function"
		},
		{
			"inputs": [
				{
					"internalType": "address",
					"name": "from",
					"type": "address"
				},
				{
					"internalType": "address",
					"name": "to",
					"type": "address"
				},
				{
					"internalType": "uint256[]",
					"name": "ids",
					"type": "uint256[]"
				},
				{
					"internalType": "uint256[]",
					"name": "values",
					"type": "uint256[]"
				},
				{
					"internalType": "bytes",
					"name": "data",
					"type": "bytes"
				}
			],
			"name": "safeBatchTransferFrom",
			"outputs": [],
			"stateMutability": "nonpayable",
			"type": "function"
		},
		{
			"inputs": [
				{
					"internalType": "address",
					"name": "from",
					"type": "address"
				},
				{
					"internalType": "address",
					"name": "to",
					"type": "address"
				},
				{
					"internalType": "uint256",
					"name": "id",
					"type": "uint256"
				},
				{
					"internalType": "uint256",
					"name": "value",
					"type": "uint256"
				},
				{
					"internalType": "bytes",
					"name": "data",
					"type": "bytes"
				}
			],
			"name": "safeTransferFrom",
			"outputs": [],
			"stateMutability": "nonpayable",
			"type": "function"
		},
		{
			"inputs": [
				{
					"internalType": "address",
					"name": "operator",
					"type": "address"
				},
				{
					"internalType": "bool",
					"name": "approved",
					"type": "bool"
				}
			],
			"name": "setApprovalForAll",
			"outputs": [],
			"stateMutability": "nonpayable",
			"type": "function"
		},
		{
			"inputs": [
				{
					"internalType": "bytes4",
					"name": "interfaceId",
					"type": "bytes4"
				}
			],
			"name": "supportsInterface",
			"outputs": [
				{
					"internalType": "bool",
					"name": "",
					"type": "bool"
				}
			],
			"stateMutability": "view",
			"type": "function"
		},
		{
			"inputs": [
				{
					"internalType": "uint256",
					"name": "tokenId",
					"type": "uint256"
				}
			],
			"name": "uri",
			"outputs": [
				{
					"internalType": "string",
					"name": "",
					"type": "string"
				}
			],
			"stateMutability": "view",
			"type": "function"
		}
	]
}