{
	"contracts/task2.sol": {
		"MyERC1155": {
			"abi": [
				{
					"inputs": [],
					"stateMutability": "nonpayable",
					"type": "constructor"
				},
				{
					"inputs": [
						{
							"internalType": "address",
							"name": "sender",
							"type": "address"
						},
						{
							"internalType": "uint256",
							"name": "balance",
							"type": "uint256"
						},
						{
							"internalType": "uint256",
							"name": "needed",
							"type": "uint256"
						},
						{
							"internalType": "uint256",
							"name": "tokenId",
							"type": "uint256"
						}
					],
					"name": "ERC1155InsufficientBalance",
					"type": "error"
				},
				{
					"inputs": [
						{
							"internalType": "address",
							"name": "approver",
							"type": "address"
						}
					],
					"name": "ERC1155InvalidApprover",
					"type": "error"
				},
				{
					"inputs": [
						{
							"internalType": "uint256",
							"name": "idsLength",
							"type": "uint256"
						},
						{
							"internalType": "uint256",
							"name": "valuesLength",
							"type": "uint256"
						}
					],
					"name": "ERC1155InvalidArrayLength",
					"type": "error"
				},
				{
					"inputs": [
						{
							"internalType": "address",
							"name": "operator",
							"type": "address"
						}
					],
					"name": "ERC1155InvalidOperator",
					"type": "error"
				},
				{
					"inputs": [
						{
							"internalType": "address",
							"name": "receiver",
							"type": "address"
						}
					],
					"name": "ERC1155InvalidReceiver",
					"type": "error"
				},
				{
					"inputs": [
						{
							"internalType": "address",
							"name": "sender",
							"type": "address"
						}
					],
					"name": "ERC1155InvalidSender",
					"type": "error"
				},
				{
					"inputs": [
						{
							"internalType": "address",
							"name": "operator",
							"type": "address"
						},
						{
							"internalType": "address",
							"name": "owner",
							"type": "address"
						}
					],
					"name": "ERC1155MissingApprovalForAll",
					"type": "error"
				},
				{
					"anonymous": false,
					"inputs": [
						{
							"indexed": true,
							"internalType": "address",
							"name": "account",
							"type": "address"
						},
						{
							"indexed": true,
							"internalType": "address",
							"name": "operator",
							"type": "address"
						},
						{
							"indexed": false,
							"internalType": "bool",
							"name": "approved",
							"type": "bool"
						}
					],
					"name": "ApprovalForAll",
					"type": "event"
				},
				{
					"anonymous": false,
					"inputs": [
						{
							"indexed": true,
							"internalType": "address",
							"name": "operator",
							"type": "address"
						},
						{
							"indexed": true,
							"internalType": "address",
							"name": "from",
							"type": "address"
						},
						{
							"indexed": true,
							"internalType": "address",
							"name": "to",
							"type": "address"
						},
						{
							"indexed": false,
							"internalType": "uint256[]",
							"name": "ids",
							"type": "uint256[]"
						},
						{
							"indexed": false,
							"internalType": "uint256[]",
							"name": "values",
							"type": "uint256[]"
						}
					],
					"name": "TransferBatch",
					"type": "event"
				},
				{
					"anonymous": false,
					"inputs": [
						{
							"indexed": true,
							"internalType": "address",
							"name": "operator",
							"type": "address"
						},
						{
							"indexed": true,
							"internalType": "address",
							"name": "from",
							"type": "address"
						},
						{
							"indexed": true,
							"internalType": "address",
							"name": "to",
							"type": "address"
						},
						{
							"indexed": false,
							"internalType": "uint256",
							"name": "id",
							"type": "uint256"
						},
						{
							"indexed": false,
							"internalType": "uint256",
							"name": "value",
							"type": "uint256"
						}
					],
					"name": "TransferSingle",
					"type": "event"
				},
				{
					"anonymous": false,
					"inputs": [
						{
							"indexed": false,
							"internalType": "string",
							"name": "value",
							"type": "string"
						},
						{
							"indexed": true,
							"internalType": "uint256",
							"name": "id",
							"type": "uint256"
						}
					],
					"name": "URI",
					"type": "event"
				},
				{
					"inputs": [
						{
							"internalType": "address",
							"name": "account",
							"type": "address"
						},
						{
							"internalType": "uint256",
							"name": "id",
							"type": "uint256"
						}
					],
					"name": "balanceOf",
					"outputs": [
						{
							"internalType": "uint256",
							"name": "",
							"type": "uint256"
						}
					],
					"stateMutability": "view",
					"type": "function"
				},
				{
					"inputs": [
						{
							"internalType": "address[]",
							"name": "accounts",
							"type": "address[]"
						},
						{
							"internalType": "uint256[]",
							"name": "ids",
							"type": "uint256[]"
						}
					],
					"name": "balanceOfBatch",
					"outputs": [
						{
							"internalType": "uint256[]",
							"name": "",
							"type": "uint256[]"
						}
					],
					"stateMutability": "view",
					"type": "function"
				},
				{
					"inputs": [
						{
							"internalType": "address",
							"name": "account",
							"type": "address"
						},
						{
							"internalType": "address",
							"name": "operator",
							"type": "address"
						}
					],
					"name": "isApprovedForAll",
					"outputs": [
						{
							"internalType": "bool",
							"name": "",
							"type": "bool"
						}
					],
					"stateMutability": "view",
					"type": "function"
				},
				{
					"inputs": [
						{
							"internalType": "address",
							"name": "account",
							"type": "address"
						},
						{
							"internalType": "uint256",
							"name": "id",
							"type": "uint256"
						},
						{
							"internalType": "uint256",
							"name": "amount",
							"type": "uint256"
						}
					],
					"name": "mintFungible",
					"outputs": [],
					"stateMutability": "nonpayable",
					"type": "function"
				},
				{
					"inputs": [
						{
							"internalType": "address",
							"name": "account",
							"type": "address"
						},
						{
							"internalType": "string",
							"name": "tokenURI",
							"type": "string"
						}
					],
					"name": "mintNonFungible",
					"outputs": [
						{
							"internalType": "uint256",
							"name": "",
							"type": "uint256"
						}
					],
					"stateMutability": "nonpayable",
					"type": "function"
				},
				{
					"inputs": [
						{
							"internalType": "address",
							"name": "from",
							"type": "address"
						},
						{
							"internalType": "address",
							"name": "to",
							"type": "address"
						},
						{
							"internalType": "uint256[]",
							"name": "ids",
							"type": "uint256[]"
						},
						{
							"internalType": "uint256[]",
							"name": "values",
							"type": "uint256[]"
						},
						{
							"internalType": "bytes",
							"name": "data",
							"type": "bytes"
						}
					],
					"name": "safeBatchTransferFrom",
					"outputs": [],
					"stateMutability": "nonpayable",
					"type": "function"
				},
				{
					"inputs": [
						{
							"internalType": "address",
							"name": "from",
							"type": "address"
						},
						{
							"internalType": "address",
							"name": "to",
							"type": "address"
						},
						{
							"internalType": "uint256",
							"name": "id",
							"type": "uint256"
						},
						{
							"internalType": "uint256",
							"name": "value",
							"type": "uint256"
						},
						{
							"internalType": "bytes",
							"name": "data",
							"type": "bytes"
						}
					],
					"name": "safeTransferFrom",
					"outputs": [],
					"stateMutability": "nonpayable",
					"type": "function"
				},
				{
					"inputs": [
						{
							"internalType": "address",
							"name": "operator",
							"type": "address"
						},
						{
							"internalType": "bool",
							"name": "approved",
							"type": "bool"
						}
					],
					"name": "setApprovalForAll",
					"outputs": [],
					"stateMutability": "nonpayable",
					"type": "function"
				},
				{
					"inputs": [
						{
							"internalType": "bytes4",
							"name": "interfaceId",
							"type": "bytes4"
						}
					],
					"name": "supportsInterface",
					"outputs": [
						{
							"internalType": "bool",
							"name": "",
							"type": "bool"
						}
					],
					"stateMutability": "view",
					"type": "function"
				},
				{
					"inputs": [
						{
							"internalType": "uint256",
							"name": "tokenId",
							"type": "uint256"
						}
					],
					"name": "uri",
					"outputs": [
						{
							"internalType": "string",
							"name": "",
							"type": "string"
						}
					],
					"stateMutability": "view",
					"type": "function"
				}
			],
			"devdoc": {
				"errors": {
					"ERC1155InsufficientBalance(address,uint256,uint256,uint256)": [
						{
							"details": "Indicates an error related to the current `balance` of a `sender`. Used in transfers.",
							"params": {
								"balance": "Current balance for the interacting account.",
								"needed": "Minimum amount required to perform a transfer.",
								"sender": "Address whose tokens are being transferred.",
								"tokenId": "Identifier number of a token."
							}
						}
					],
					"ERC1155InvalidApprover(address)": [
						{
							"details": "Indicates a failure with the `approver` of a token to be approved. Used in approvals.",
							"params": {
								"approver": "Address initiating an approval operation."
							}
						}
					],
					"ERC1155InvalidArrayLength(uint256,uint256)": [
						{
							"details": "Indicates an array length mismatch between ids and values in a safeBatchTransferFrom operation. Used in batch transfers.",
							"params": {
								"idsLength": "Length of the array of token identifiers",
								"valuesLength": "Length of the array of token amounts"
							}
						}
					],
					"ERC1155InvalidOperator(address)": [
						{
							"details": "Indicates a failure with the `operator` to be approved. Used in approvals.",
							"params": {
								"operator": "Address that may be allowed to operate on tokens without being their owner."
							}
						}
					],
					"ERC1155InvalidReceiver(address)": [
						{
							"details": "Indicates a failure with the token `receiver`. Used in transfers.",
							"params": {
								"receiver": "Address to which tokens are being transferred."
							}
						}
					],
					"ERC1155InvalidSender(address)": [
						{
							"details": "Indicates a failure with the token `sender`. Used in transfers.",
							"params": {
								"sender": "Address whose tokens are being transferred."
							}
						}
					],
					"ERC1155MissingApprovalForAll(address,address)": [
						{
							"details": "Indicates a failure with the `operator`’s approval. Used in transfers.",
							"params": {
								"operator": "Address that may be allowed to operate on tokens without being their owner.",
								"owner": "Address of the current owner of a token."
							}
						}
					]
				},
				"events": {
					"ApprovalForAll(address,address,bool)": {
						"details": "Emitted when `account` grants or revokes permission to `operator` to transfer their tokens, according to `approved`."
					},
					"TransferBatch(address,address,address,uint256[],uint256[])": {
						"details": "Equivalent to multiple {TransferSingle} events, where `operator`, `from` and `to` are the same for all transfers."
					},
					"TransferSingle(address,address,address,uint256,uint256)": {
						"details": "Emitted when `value` amount of tokens of type `id` are transferred from `from` to `to` by `operator`."
					},
					"URI(string,uint256)": {
						"details": "Emitted when the URI for token type `id` changes to `value`, if it is a non-programmatic URI. If an {URI} event was emitted for `id`, the standard https://eips.ethereum.org/EIPS/eip-1155#metadata-extensions[guarantees] that `value` will equal the value returned by {IERC1155MetadataURI-uri}."
					}
				},
				"kind": "dev",
				"methods": {
					"balanceOf(address,uint256)": {
						"details": "See {IERC1155-balanceOf}."
					},
					"balanceOfBatch(address[],uint256[])": {
						"details": "See {IERC1155-balanceOfBatch}. Requirements: - `accounts` and `ids` must have the same length."
					},
					"isApprovedForAll(address,address)": {
						"details": "See {IERC1155-isApprovedForAll}."
					},
					"safeBatchTransferFrom(address,address,uint256[],uint256[],bytes)": {
						"details": "See {IERC1155-safeBatchTransferFrom}."
					},
					"safeTransferFrom(address,address,uint256,uint256,bytes)": {
						"details": "See {IERC1155-safeTransferFrom}."
					},
					"setApprovalForAll(address,bool)": {
						"details": "See {IERC1155-setApprovalForAll}."
					},
					"supportsInterface(bytes4)": {
						"details": "See {IERC165-supportsInterface}."
					}
				},
				"version": 1
			},
			"evm": {
				"assembly": "    /* \"contracts/task2.sol\":177:1186  contract MyERC1155 is ERC1155 {... */\n  mstore(0x40, 0x80)\n    /* \"contracts/task2.sol\":364:422  constructor() ERC1155(\"https://ipfs.io/ipfs/{id}.json\") {} */\n  callvalue\n  dup1\n  iszero\n  tag_1\n  jumpi\n  0x00\n  dup1\n  revert\ntag_1:\n  pop\n    /* \"@openzeppelin/contracts/token/ERC1155/ERC1155.sol\":1251:1313  constructor(string memory uri_) {... */\n  mload(0x40)\n  dup1\n  0x40\n  add\n  0x40\n  mstore\n  dup1\n  0x1e\n  dup2\n  mstore\n  0x20\n  add\n  0x68747470733a2f2f697066732e696f2f697066732f7b69647d2e6a736f6e0000\n  dup2\n  mstore\n  pop\n    /* \"@openzeppelin/contracts/token/ERC1155/ERC1155.sol\":1293:1306  _setURI(uri_) */\n  tag_5\n    /* \"@openzeppelin/contracts/token/ERC1155/ERC1155.sol\":1301:1305  uri_ */\n  dup2\n    /* \"@openzeppelin/contracts/token/ERC1155/ERC1155.sol\":1293:1300  _setURI */\n  shl(0x20, tag_6)\n    /* \"@openzeppelin/contracts/token/ERC1155/ERC1155.sol\":1293:1306  _setURI(uri_) */\n  0x20\n  shr\n  jump\t// in\ntag_5:\n    /* \"@openzeppelin/contracts/token/ERC1155/ERC1155.sol\":1251:1313  constructor(string memory uri_) {... */\n  pop\n    /* \"contracts/task2.sol\":177:1186  contract MyERC1155 is ERC1155 {... */\n  jump(tag_8)\n    /* \"@openzeppelin/contracts/token/ERC1155/ERC1155.sol\":10282:10368  function _setURI(string memory newuri) internal virtual {... */\ntag_6:\n    /* \"@openzeppelin/contracts/token/ERC1155/ERC1155.sol\":10355:10361  newuri */\n  dup1\n    /* \"@openzeppelin/contracts/token/ERC1155/ERC1155.sol\":10348:10352  _uri */\n  0x02\n    /* \"@openzeppelin/contracts/token/ERC1155/ERC1155.sol\":10348:10361  _uri = newuri */\n  swap1\n  dup2\n  tag_10\n  swap2\n  swap1\n  tag_11\n  jump\t// in\ntag_10:\n  pop\n    /* \"@openzeppelin/contracts/token/ERC1155/ERC1155.sol\":10282:10368  function _setURI(string memory newuri) internal virtual {... */\n  pop\n  jump\t// out\n    /* \"#utility.yul\":7:106   */\ntag_12:\n    /* \"#utility.yul\":59:65   */\n  0x00\n    /* \"#utility.yul\":93:98   */\n  dup2\n    /* \"#utility.yul\":87:99   */\n  mload\n    /* \"#utility.yul\":77:99   */\n  swap1\n  pop\n    /* \"#utility.yul\":7:106   */\n  swap2\n  swap1\n  pop\n  jump\t// out\n    /* \"#utility.yul\":112:292   */\ntag_13:\n    /* \"#utility.yul\":160:237   */\n  0x4e487b7100000000000000000000000000000000000000000000000000000000\n    /* \"#utility.yul\":157:158   */\n  0x00\n    /* \"#utility.yul\":150:238   */\n  mstore\n    /* \"#utility.yul\":257:261   */\n  0x41\n    /* \"#utility.yul\":254:255   */\n  0x04\n    /* \"#utility.yul\":247:262   */\n  mstore\n    /* \"#utility.yul\":281:285   */\n  0x24\n    /* \"#utility.yul\":278:279   */\n  0x00\n    /* \"#utility.yul\":271:286   */\n  revert\n    /* \"#utility.yul\":298:478   */\ntag_14:\n    /* \"#utility.yul\":346:423   */\n  0x4e487b7100000000000000000000000000000000000000000000000000000000\n    /* \"#utility.yul\":343:344   */\n  0x00\n    /* \"#utility.yul\":336:424   */\n  mstore\n    /* \"#utility.yul\":443:447   */\n  0x22\n    /* \"#utility.yul\":440:441   */\n  0x04\n    /* \"#utility.yul\":433:448   */\n  mstore\n    /* \"#utility.yul\":467:471   */\n  0x24\n    /* \"#utility.yul\":464:465   */\n  0x00\n    /* \"#utility.yul\":457:472   */\n  revert\n    /* \"#utility.yul\":484:804   */\ntag_15:\n    /* \"#utility.yul\":528:534   */\n  0x00\n    /* \"#utility.yul\":565:566   */\n  0x02\n    /* \"#utility.yul\":559:563   */\n  dup3\n    /* \"#utility.yul\":555:567   */\n  div\n    /* \"#utility.yul\":545:567   */\n  swap1\n  pop\n    /* \"#utility.yul\":612:613   */\n  0x01\n    /* \"#utility.yul\":606:610   */\n  dup3\n    /* \"#utility.yul\":602:614   */\n  and\n    /* \"#utility.yul\":633:651   */\n  dup1\n    /* \"#utility.yul\":623:704   */\n  tag_37\n  jumpi\n    /* \"#utility.yul\":689:693   */\n  0x7f\n    /* \"#utility.yul\":681:687   */\n  dup3\n    /* \"#utility.yul\":677:694   */\n  and\n    /* \"#utility.yul\":667:694   */\n  swap2\n  pop\n    /* \"#utility.yul\":623:704   */\ntag_37:\n    /* \"#utility.yul\":751:753   */\n  0x20\n    /* \"#utility.yul\":743:749   */\n  dup3\n    /* \"#utility.yul\":740:754   */\n  lt\n    /* \"#utility.yul\":720:738   */\n  dup2\n    /* \"#utility.yul\":717:755   */\n  sub\n    /* \"#utility.yul\":714:798   */\n  tag_38\n  jumpi\n    /* \"#utility.yul\":770:788   */\n  tag_39\n  tag_14\n  jump\t// in\ntag_39:\n    /* \"#utility.yul\":714:798   */\ntag_38:\n    /* \"#utility.yul\":535:804   */\n  pop\n    /* \"#utility.yul\":484:804   */\n  swap2\n  swap1\n  pop\n  jump\t// out\n    /* \"#utility.yul\":810:951   */\ntag_16:\n    /* \"#utility.yul\":859:863   */\n  0x00\n    /* \"#utility.yul\":882:885   */\n  dup2\n    /* \"#utility.yul\":874:885   */\n  swap1\n  pop\n    /* \"#utility.yul\":905:908   */\n  dup2\n    /* \"#utility.yul\":902:903   */\n  0x00\n    /* \"#utility.yul\":895:909   */\n  mstore\n    /* \"#utility.yul\":939:943   */\n  0x20\n    /* \"#utility.yul\":936:937   */\n  0x00\n    /* \"#utility.yul\":926:944   */\n  keccak256\n    /* \"#utility.yul\":918:944   */\n  swap1\n  pop\n    /* \"#utility.yul\":810:951   */\n  swap2\n  swap1\n  pop\n  jump\t// out\n    /* \"#utility.yul\":957:1050   */\ntag_17:\n    /* \"#utility.yul\":994:1000   */\n  0x00\n    /* \"#utility.yul\":1041:1043   */\n  0x20\n    /* \"#utility.yul\":1036:1038   */\n  0x1f\n    /* \"#utility.yul\":1029:1034   */\n  dup4\n    /* \"#utility.yul\":1025:1039   */\n  add\n    /* \"#utility.yul\":1021:1044   */\n  div\n    /* \"#utility.yul\":1011:1044   */\n  swap1\n  pop\n    /* \"#utility.yul\":957:1050   */\n  swap2\n  swap1\n  pop\n  jump\t// out\n    /* \"#utility.yul\":1056:1163   */\ntag_18:\n    /* \"#utility.yul\":1100:1108   */\n  0x00\n    /* \"#utility.yul\":1150:1155   */\n  dup3\n    /* \"#utility.yul\":1144:1148   */\n  dup3\n    /* \"#utility.yul\":1140:1156   */\n  shl\n    /* \"#utility.yul\":1119:1156   */\n  swap1\n  pop\n    /* \"#utility.yul\":1056:1163   */\n  swap3\n  swap2\n  pop\n  pop\n  jump\t// out\n    /* \"#utility.yul\":1169:1562   */\ntag_19:\n    /* \"#utility.yul\":1238:1244   */\n  0x00\n    /* \"#utility.yul\":1288:1289   */\n  0x08\n    /* \"#utility.yul\":1276:1286   */\n  dup4\n    /* \"#utility.yul\":1272:1290   */\n  mul\n    /* \"#utility.yul\":1311:1408   */\n  tag_44\n    /* \"#utility.yul\":1341:1407   */\n  0xffffffffffffffffffffffffffffffffffffffffffffffffffffffffffffffff\n    /* \"#utility.yul\":1330:1339   */\n  dup3\n    /* \"#utility.yul\":1311:1408   */\n  tag_18\n  jump\t// in\ntag_44:\n    /* \"#utility.yul\":1429:1468   */\n  tag_45\n    /* \"#utility.yul\":1459:1467   */\n  dup7\n    /* \"#utility.yul\":1448:1457   */\n  dup4\n    /* \"#utility.yul\":1429:1468   */\n  tag_18\n  jump\t// in\ntag_45:\n    /* \"#utility.yul\":1417:1468   */\n  swap6\n  pop\n    /* \"#utility.yul\":1501:1505   */\n  dup1\n    /* \"#utility.yul\":1497:1506   */\n  not\n    /* \"#utility.yul\":1490:1495   */\n  dup5\n    /* \"#utility.yul\":1486:1507   */\n  and\n    /* \"#utility.yul\":1477:1507   */\n  swap4\n  pop\n    /* \"#utility.yul\":1550:1554   */\n  dup1\n    /* \"#utility.yul\":1540:1548   */\n  dup7\n    /* \"#utility.yul\":1536:1555   */\n  and\n    /* \"#utility.yul\":1529:1534   */\n  dup5\n    /* \"#utility.yul\":1526:1556   */\n  or\n    /* \"#utility.yul\":1516:1556   */\n  swap3\n  pop\n    /* \"#utility.yul\":1245:1562   */\n  pop\n  pop\n    /* \"#utility.yul\":1169:1562   */\n  swap4\n  swap3\n  pop\n  pop\n  pop\n  jump\t// out\n    /* \"#utility.yul\":1568:1645   */\ntag_20:\n    /* \"#utility.yul\":1605:1612   */\n  0x00\n    /* \"#utility.yul\":1634:1639   */\n  dup2\n    /* \"#utility.yul\":1623:1639   */\n  swap1\n  pop\n    /* \"#utility.yul\":1568:1645   */\n  swap2\n  swap1\n  pop\n  jump\t// out\n    /* \"#utility.yul\":1651:1711   */\ntag_21:\n    /* \"#utility.yul\":1679:1682   */\n  0x00\n    /* \"#utility.yul\":1700:1705   */\n  dup2\n    /* \"#utility.yul\":1693:1705   */\n  swap1\n  pop\n    /* \"#utility.yul\":1651:1711   */\n  swap2\n  swap1\n  pop\n  jump\t// out\n    /* \"#utility.yul\":1717:1859   */\ntag_22:\n    /* \"#utility.yul\":1767:1776   */\n  0x00\n    /* \"#utility.yul\":1800:1853   */\n  tag_49\n    /* \"#utility.yul\":1818:1852   */\n  tag_50\n    /* \"#utility.yul\":1827:1851   */\n  tag_51\n    /* \"#utility.yul\":1845:1850   */\n  dup5\n    /* \"#utility.yul\":1827:1851   */\n  tag_20\n  jump\t// in\ntag_51:\n    /* \"#utility.yul\":1818:1852   */\n  tag_21\n  jump\t// in\ntag_50:\n    /* \"#utility.yul\":1800:1853   */\n  tag_20\n  jump\t// in\ntag_49:\n    /* \"#utility.yul\":1787:1853   */\n  swap1\n  pop\n    /* \"#utility.yul\":1717:1859   */\n  swap2\n  swap1\n  pop\n  jump\t// out\n    /* \"#utility.yul\":1865:1940   */\ntag_23:\n    /* \"#utility.yul\":1908:1911   */\n  0x00\n    /* \"#utility.yul\":1929:1934   */\n  dup2\n    /* \"#utility.yul\":1922:1934   */\n  swap1\n  pop\n    /* \"#utility.yul\":1865:1940   */\n  swap2\n  swap1\n  pop\n  jump\t// out\n    /* \"#utility.yul\":1946:2215   */\ntag_24:\n    /* \"#utility.yul\":2056:2095   */\n  tag_54\n    /* \"#utility.yul\":2087:2094   */\n  dup4\n    /* \"#utility.yul\":2056:2095   */\n  tag_22\n  jump\t// in\ntag_54:\n    /* \"#utility.yul\":2117:2208   */\n  tag_55\n    /* \"#utility.yul\":2166:2207   */\n  tag_56\n    /* \"#utility.yul\":2190:2206   */\n  dup3\n    /* \"#utility.yul\":2166:2207   */\n  tag_23\n  jump\t// in\ntag_56:\n    /* \"#utility.yul\":2158:2164   */\n  dup5\n    /* \"#utility.yul\":2151:2155   */\n  dup5\n    /* \"#utility.yul\":2145:2156   */\n  sload\n    /* \"#utility.yul\":2117:2208   */\n  tag_19\n  jump\t// in\ntag_55:\n    /* \"#utility.yul\":2111:2115   */\n  dup3\n    /* \"#utility.yul\":2104:2209   */\n  sstore\n    /* \"#utility.yul\":2022:2215   */\n  pop\n    /* \"#utility.yul\":1946:2215   */\n  pop\n  pop\n  pop\n  jump\t// out\n    /* \"#utility.yul\":2221:2294   */\ntag_25:\n    /* \"#utility.yul\":2266:2269   */\n  0x00\n    /* \"#utility.yul\":2221:2294   */\n  swap1\n  jump\t// out\n    /* \"#utility.yul\":2300:2489   */\ntag_26:\n    /* \"#utility.yul\":2377:2409   */\n  tag_59\n  tag_25\n  jump\t// in\ntag_59:\n    /* \"#utility.yul\":2418:2483   */\n  tag_60\n    /* \"#utility.yul\":2476:2482   */\n  dup2\n    /* \"#utility.yul\":2468:2474   */\n  dup5\n    /* \"#utility.yul\":2462:2466   */\n  dup5\n    /* \"#utility.yul\":2418:2483   */\n  tag_24\n  jump\t// in\ntag_60:\n    /* \"#utility.yul\":2353:2489   */\n  pop\n    /* \"#utility.yul\":2300:2489   */\n  pop\n  pop\n  jump\t// out\n    /* \"#utility.yul\":2495:2681   */\ntag_27:\n    /* \"#utility.yul\":2555:2675   */\ntag_62:\n    /* \"#utility.yul\":2572:2575   */\n  dup2\n    /* \"#utility.yul\":2565:2570   */\n  dup2\n    /* \"#utility.yul\":2562:2576   */\n  lt\n    /* \"#utility.yul\":2555:2675   */\n  iszero\n  tag_64\n  jumpi\n    /* \"#utility.yul\":2626:2665   */\n  tag_65\n    /* \"#utility.yul\":2663:2664   */\n  0x00\n    /* \"#utility.yul\":2656:2661   */\n  dup3\n    /* \"#utility.yul\":2626:2665   */\n  tag_26\n  jump\t// in\ntag_65:\n    /* \"#utility.yul\":2599:2600   */\n  0x01\n    /* \"#utility.yul\":2592:2597   */\n  dup2\n    /* \"#utility.yul\":2588:2601   */\n  add\n    /* \"#utility.yul\":2579:2601   */\n  swap1\n  pop\n    /* \"#utility.yul\":2555:2675   */\n  jump(tag_62)\ntag_64:\n    /* \"#utility.yul\":2495:2681   */\n  pop\n  pop\n  jump\t// out\n    /* \"#utility.yul\":2687:3230   */\ntag_28:\n    /* \"#utility.yul\":2788:2790   */\n  0x1f\n    /* \"#utility.yul\":2783:2786   */\n  dup3\n    /* \"#utility.yul\":2780:2791   */\n  gt\n    /* \"#utility.yul\":2777:3223   */\n  iszero\n  tag_67\n  jumpi\n    /* \"#utility.yul\":2822:2860   */\n  tag_68\n    /* \"#utility.yul\":2854:2859   */\n  dup2\n    /* \"#utility.yul\":2822:2860   */\n  tag_16\n  jump\t// in\ntag_68:\n    /* \"#utility.yul\":2906:2935   */\n  tag_69\n    /* \"#utility.yul\":2924:2934   */\n  dup5\n    /* \"#utility.yul\":2906:2935   */\n  tag_17\n  jump\t// in\ntag_69:\n    /* \"#utility.yul\":2896:2904   */\n  dup2\n    /* \"#utility.yul\":2892:2936   */\n  add\n    /* \"#utility.yul\":3089:3091   */\n  0x20\n    /* \"#utility.yul\":3077:3087   */\n  dup6\n    /* \"#utility.yul\":3074:3092   */\n  lt\n    /* \"#utility.yul\":3071:3120   */\n  iszero\n  tag_70\n  jumpi\n    /* \"#utility.yul\":3110:3118   */\n  dup2\n    /* \"#utility.yul\":3095:3118   */\n  swap1\n  pop\n    /* \"#utility.yul\":3071:3120   */\ntag_70:\n    /* \"#utility.yul\":3133:3213   */\n  tag_71\n    /* \"#utility.yul\":3189:3211   */\n  tag_72\n    /* \"#utility.yul\":3207:3210   */\n  dup6\n    /* \"#utility.yul\":3189:3211   */\n  tag_17\n  jump\t// in\ntag_72:\n    /* \"#utility.yul\":3179:3187   */\n  dup4\n    /* \"#utility.yul\":3175:3212   */\n  add\n    /* \"#utility.yul\":3162:3173   */\n  dup3\n    /* \"#utility.yul\":3133:3213   */\n  tag_27\n  jump\t// in\ntag_71:\n    /* \"#utility.yul\":2792:3223   */\n  pop\n  pop\n    /* \"#utility.yul\":2777:3223   */\ntag_67:\n    /* \"#utility.yul\":2687:3230   */\n  pop\n  pop\n  pop\n  jump\t// out\n    /* \"#utility.yul\":3236:3353   */\ntag_29:\n    /* \"#utility.yul\":3290:3298   */\n  0x00\n    /* \"#utility.yul\":3340:3345   */\n  dup3\n    /* \"#utility.yul\":3334:3338   */\n  dup3\n    /* \"#utility.yul\":3330:3346   */\n  shr\n    /* \"#utility.yul\":3309:3346   */\n  swap1\n  pop\n    /* \"#utility.yul\":3236:3353   */\n  swap3\n  swap2\n  pop\n  pop\n  jump\t// out\n    /* \"#utility.yul\":3359:3528   */\ntag_30:\n    /* \"#utility.yul\":3403:3409   */\n  0x00\n    /* \"#utility.yul\":3436:3487   */\n  tag_75\n    /* \"#utility.yul\":3484:3485   */\n  0x00\n    /* \"#utility.yul\":3480:3486   */\n  not\n    /* \"#utility.yul\":3472:3477   */\n  dup5\n    /* \"#utility.yul\":3469:3470   */\n  0x08\n    /* \"#utility.yul\":3465:3478   */\n  mul\n    /* \"#utility.yul\":3436:3487   */\n  tag_29\n  jump\t// in\ntag_75:\n    /* \"#utility.yul\":3432:3488   */\n  not\n    /* \"#utility.yul\":3517:3521   */\n  dup1\n    /* \"#utility.yul\":3511:3515   */\n  dup4\n    /* \"#utility.yul\":3507:3522   */\n  and\n    /* \"#utility.yul\":3497:3522   */\n  swap2\n  pop\n    /* \"#utility.yul\":3410:3528   */\n  pop\n    /* \"#utility.yul\":3359:3528   */\n  swap3\n  swap2\n  pop\n  pop\n  jump\t// out\n    /* \"#utility.yul\":3533:3828   */\ntag_31:\n    /* \"#utility.yul\":3609:3613   */\n  0x00\n    /* \"#utility.yul\":3755:3784   */\n  tag_77\n    /* \"#utility.yul\":3780:3783   */\n  dup4\n    /* \"#utility.yul\":3774:3778   */\n  dup4\n    /* \"#utility.yul\":3755:3784   */\n  tag_30\n  jump\t// in\ntag_77:\n    /* \"#utility.yul\":3747:3784   */\n  swap2\n  pop\n    /* \"#utility.yul\":3817:3820   */\n  dup3\n    /* \"#utility.yul\":3814:3815   */\n  0x02\n    /* \"#utility.yul\":3810:3821   */\n  mul\n    /* \"#utility.yul\":3804:3808   */\n  dup3\n    /* \"#utility.yul\":3801:3822   */\n  or\n    /* \"#utility.yul\":3793:3822   */\n  swap1\n  pop\n    /* \"#utility.yul\":3533:3828   */\n  swap3\n  swap2\n  pop\n  pop\n  jump\t// out\n    /* \"#utility.yul\":3833:5228   */\ntag_11:\n    /* \"#utility.yul\":3950:3987   */\n  tag_79\n    /* \"#utility.yul\":3983:3986   */\n  dup3\n    /* \"#utility.yul\":3950:3987   */\n  tag_12\n  jump\t// in\ntag_79:\n    /* \"#utility.yul\":4052:4070   */\n  0xffffffffffffffff\n    /* \"#utility.yul\":4044:4050   */\n  dup2\n    /* \"#utility.yul\":4041:4071   */\n  gt\n    /* \"#utility.yul\":4038:4094   */\n  iszero\n  tag_80\n  jumpi\n    /* \"#utility.yul\":4074:4092   */\n  tag_81\n  tag_13\n  jump\t// in\ntag_81:\n    /* \"#utility.yul\":4038:4094   */\ntag_80:\n    /* \"#utility.yul\":4118:4156   */\n  tag_82\n    /* \"#utility.yul\":4150:4154   */\n  dup3\n    /* \"#utility.yul\":4144:4155   */\n  sload\n    /* \"#utility.yul\":4118:4156   */\n  tag_15\n  jump\t// in\ntag_82:\n    /* \"#utility.yul\":4203:4270   */\n  tag_83\n    /* \"#utility.yul\":4263:4269   */\n  dup3\n    /* \"#utility.yul\":4255:4261   */\n  dup3\n    /* \"#utility.yul\":4249:4253   */\n  dup6\n    /* \"#utility.yul\":4203:4270   */\n  tag_28\n  jump\t// in\ntag_83:\n    /* \"#utility.yul\":4297:4298   */\n  0x00\n    /* \"#utility.yul\":4321:4325   */\n  0x20\n    /* \"#utility.yul\":4308:4325   */\n  swap1\n  pop\n    /* \"#utility.yul\":4353:4355   */\n  0x1f\n    /* \"#utility.yul\":4345:4351   */\n  dup4\n    /* \"#utility.yul\":4342:4356   */\n  gt\n    /* \"#utility.yul\":4370:4371   */\n  0x01\n    /* \"#utility.yul\":4365:4983   */\n  dup2\n  eq\n  tag_85\n  jumpi\n    /* \"#utility.yul\":5027:5028   */\n  0x00\n    /* \"#utility.yul\":5044:5050   */\n  dup5\n    /* \"#utility.yul\":5041:5118   */\n  iszero\n  tag_86\n  jumpi\n    /* \"#utility.yul\":5093:5102   */\n  dup3\n    /* \"#utility.yul\":5088:5091   */\n  dup8\n    /* \"#utility.yul\":5084:5103   */\n  add\n    /* \"#utility.yul\":5078:5104   */\n  mload\n    /* \"#utility.yul\":5069:5104   */\n  swap1\n  pop\n    /* \"#utility.yul\":5041:5118   */\ntag_86:\n    /* \"#utility.yul\":5144:5211   */\n  tag_87\n    /* \"#utility.yul\":5204:5210   */\n  dup6\n    /* \"#utility.yul\":5197:5202   */\n  dup3\n    /* \"#utility.yul\":5144:5211   */\n  tag_31\n  jump\t// in\ntag_87:\n    /* \"#utility.yul\":5138:5142   */\n  dup7\n    /* \"#utility.yul\":5131:5212   */\n  sstore\n    /* \"#utility.yul\":5000:5222   */\n  pop\n    /* \"#utility.yul\":4335:5222   */\n  jump(tag_84)\n    /* \"#utility.yul\":4365:4983   */\ntag_85:\n    /* \"#utility.yul\":4417:4421   */\n  0x1f\n    /* \"#utility.yul\":4413:4422   */\n  not\n    /* \"#utility.yul\":4405:4411   */\n  dup5\n    /* \"#utility.yul\":4401:4423   */\n  and\n    /* \"#utility.yul\":4451:4488   */\n  tag_88\n    /* \"#utility.yul\":4483:4487   */\n  dup7\n    /* \"#utility.yul\":4451:4488   */\n  tag_16\n  jump\t// in\ntag_88:\n    /* \"#utility.yul\":4510:4511   */\n  0x00\n    /* \"#utility.yul\":4524:4732   */\ntag_89:\n    /* \"#utility.yul\":4538:4545   */\n  dup3\n    /* \"#utility.yul\":4535:4536   */\n  dup2\n    /* \"#utility.yul\":4532:4546   */\n  lt\n    /* \"#utility.yul\":4524:4732   */\n  iszero\n  tag_91\n  jumpi\n    /* \"#utility.yul\":4617:4626   */\n  dup5\n    /* \"#utility.yul\":4612:4615   */\n  dup10\n    /* \"#utility.yul\":4608:4627   */\n  add\n    /* \"#utility.yul\":4602:4628   */\n  mload\n    /* \"#utility.yul\":4594:4600   */\n  dup3\n    /* \"#utility.yul\":4587:4629   */\n  sstore\n    /* \"#utility.yul\":4668:4669   */\n  0x01\n    /* \"#utility.yul\":4660:4666   */\n  dup3\n    /* \"#utility.yul\":4656:4670   */\n  add\n    /* \"#utility.yul\":4646:4670   */\n  swap2\n  pop\n    /* \"#utility.yul\":4715:4717   */\n  0x20\n    /* \"#utility.yul\":4704:4713   */\n  dup6\n    /* \"#utility.yul\":4700:4718   */\n  add\n    /* \"#utility.yul\":4687:4718   */\n  swap5\n  pop\n    /* \"#utility.yul\":4561:4565   */\n  0x20\n    /* \"#utility.yul\":4558:4559   */\n  dup2\n    /* \"#utility.yul\":4554:4566   */\n  add\n    /* \"#utility.yul\":4549:4566   */\n  swap1\n  pop\n    /* \"#utility.yul\":4524:4732   */\n  jump(tag_89)\ntag_91:\n    /* \"#utility.yul\":4760:4766   */\n  dup7\n    /* \"#utility.yul\":4751:4758   */\n  dup4\n    /* \"#utility.yul\":4748:4767   */\n  lt\n    /* \"#utility.yul\":4745:4924   */\n  iszero\n  tag_92\n  jumpi\n    /* \"#utility.yul\":4818:4827   */\n  dup5\n    /* \"#utility.yul\":4813:4816   */\n  dup10\n    /* \"#utility.yul\":4809:4828   */\n  add\n    /* \"#utility.yul\":4803:4829   */\n  mload\n    /* \"#utility.yul\":4861:4909   */\n  tag_93\n    /* \"#utility.yul\":4903:4907   */\n  0x1f\n    /* \"#utility.yul\":4895:4901   */\n  dup10\n    /* \"#utility.yul\":4891:4908   */\n  and\n    /* \"#utility.yul\":4880:4889   */\n  dup3\n    /* \"#utility.yul\":4861:4909   */\n  tag_30\n  jump\t// in\ntag_93:\n    /* \"#utility.yul\":4853:4859   */\n  dup4\n    /* \"#utility.yul\":4846:4910   */\n  sstore\n    /* \"#utility.yul\":4768:4924   */\n  pop\n    /* \"#utility.yul\":4745:4924   */\ntag_92:\n    /* \"#utility.yul\":4970:4971   */\n  0x01\n    /* \"#utility.yul\":4966:4967   */\n  0x02\n    /* \"#utility.yul\":4958:4964   */\n  dup9\n    /* \"#utility.yul\":4954:4968   */\n  mul\n    /* \"#utility.yul\":4950:4972   */\n  add\n    /* \"#utility.yul\":4944:4948   */\n  dup9\n    /* \"#utility.yul\":4937:4973   */\n  sstore\n    /* \"#utility.yul\":4372:4983   */\n  pop\n  pop\n  pop\n    /* \"#utility.yul\":4335:5222   */\ntag_84:\n  pop\n    /* \"#utility.yul\":3925:5228   */\n  pop\n  pop\n  pop\n    /* \"#utility.yul\":3833:5228   */\n  pop\n  pop\n  jump\t// out\n    /* \"contracts/task2.sol\":177:1186  contract MyERC1155 is ERC1155 {... */\ntag_8:\n  dataSize(sub_0)\n  dup1\n  dataOffset(sub_0)\n  0x00\n  codecopy\n  0x00\n  return\nstop\n\nsub_0: assembly {\n        /* \"contracts/task2.sol\":177:1186  contract MyERC1155 is ERC1155 {... */\n      mstore(0x40, 0x80)\n      callvalue\n      dup1\n      iszero\n      tag_1\n      jumpi\n      0x00\n      dup1\n      revert\n    tag_1:\n      pop\n      jumpi(tag_2, lt(calldatasize, 0x04))\n      shr(0xe0, calldataload(0x00))\n      dup1\n      0x4e1273f4\n      gt\n      tag_13\n      jumpi\n      dup1\n      0x4e1273f4\n      eq\n      tag_8\n      jumpi\n      dup1\n      0x58ea82e6\n      eq\n      tag_9\n      jumpi\n      dup1\n      0xa22cb465\n      eq\n      tag_10\n      jumpi\n      dup1\n      0xe985e9c5\n      eq\n      tag_11\n      jumpi\n      dup1\n      0xf242432a\n      eq\n      tag_12\n      jumpi\n      jump(tag_2)\n    tag_13:\n      dup1\n      0xfdd58e\n      eq\n      tag_3\n      jumpi\n      dup1\n      0x01ffc9a7\n      eq\n      tag_4\n      jumpi\n      dup1\n      0x07805a6b\n      eq\n      tag_5\n      jumpi\n      dup1\n      0x0e89341c\n      eq\n      tag_6\n      jumpi\n      dup1\n      0x2eb2c2d6\n      eq\n      tag_7\n      jumpi\n    tag_2:\n      0x00\n      dup1\n      revert\n        /* \"@openzeppelin/contracts/token/ERC1155/ERC1155.sol\":2247:2379  function balanceOf(address account, uint256 id) public view virtual returns (uint256) {... */\n    tag_3:\n      tag_14\n      0x04\n      dup1\n      calldatasize\n      sub\n      dup2\n      add\n      swap1\n      tag_15\n      swap2\n      swap1\n      tag_16\n      jump\t// in\n    tag_15:\n      tag_17\n      jump\t// in\n    tag_14:\n      mload(0x40)\n      tag_18\n      swap2\n      swap1\n      tag_19\n      jump\t// in\n    tag_18:\n      mload(0x40)\n      dup1\n      swap2\n      sub\n      swap1\n      return\n        /* \"@openzeppelin/contracts/token/ERC1155/ERC1155.sol\":1380:1685  function supportsInterface(bytes4 interfaceId) public view virtual override(ERC165, IERC165) returns (bool) {... */\n    tag_4:\n      tag_20\n      0x04\n      dup1\n      calldatasize\n      sub\n      dup2\n      add\n      swap1\n      tag_21\n      swap2\n      swap1\n      tag_22\n      jump\t// in\n    tag_21:\n      tag_23\n      jump\t// in\n    tag_20:\n      mload(0x40)\n      tag_24\n      swap2\n      swap1\n      tag_25\n      jump\t// in\n    tag_24:\n      mload(0x40)\n      dup1\n      swap2\n      sub\n      swap1\n      return\n        /* \"contracts/task2.sol\":563:878  function mintNonFungible(address account, string memory tokenURI) external returns (uint256) {... */\n    tag_5:\n      tag_26\n      0x04\n      dup1\n      calldatasize\n      sub\n      dup2\n      add\n      swap1\n      tag_27\n      swap2\n      swap1\n      tag_28\n      jump\t// in\n    tag_27:\n      tag_29\n      jump\t// in\n    tag_26:\n      mload(0x40)\n      tag_30\n      swap2\n      swap1\n      tag_19\n      jump\t// in\n    tag_30:\n      mload(0x40)\n      dup1\n      swap2\n      sub\n      swap1\n      return\n        /* \"contracts/task2.sol\":1017:1183  function uri(uint256 tokenId) public view override returns (string memory) {... */\n    tag_6:\n      tag_31\n      0x04\n      dup1\n      calldatasize\n      sub\n      dup2\n      add\n      swap1\n      tag_32\n      swap2\n      swap1\n      tag_33\n      jump\t// in\n    tag_32:\n      tag_34\n      jump\t// in\n    tag_31:\n      mload(0x40)\n      tag_35\n      swap2\n      swap1\n      tag_36\n      jump\t// in\n    tag_35:\n      mload(0x40)\n      dup1\n      swap2\n      sub\n      swap1\n      return\n        /* \"@openzeppelin/contracts/token/ERC1155/ERC1155.sol\":4014:4443  function safeBatchTransferFrom(... */\n    tag_7:\n      tag_37\n      0x04\n      dup1\n      calldatasize\n      sub\n      dup2\n      add\n      swap1\n      tag_38\n      swap2\n      swap1\n      tag_39\n      jump\t// in\n    tag_38:\n      tag_40\n      jump\t// in\n    tag_37:\n      stop\n        /* \"@openzeppelin/contracts/token/ERC1155/ERC1155.sol\":2536:3088  function balanceOfBatch(... */\n    tag_8:\n      tag_41\n      0x04\n      dup1\n      calldatasize\n      sub\n      dup2\n      add\n      swap1\n      tag_42\n      swap2\n      swap1\n      tag_43\n      jump\t// in\n    tag_42:\n      tag_44\n      jump\t// in\n    tag_41:\n      mload(0x40)\n      tag_45\n      swap2\n      swap1\n      tag_46\n      jump\t// in\n    tag_45:\n      mload(0x40)\n      dup1\n      swap2\n      sub\n      swap1\n      return\n        /* \"contracts/task2.sol\":430:555  function mintFungible(address account, uint256 id, uint256 amount) external {... */\n    tag_9:\n      tag_47\n      0x04\n      dup1\n      calldatasize\n      sub\n      dup2\n      add\n      swap1\n      tag_48\n      swap2\n      swap1\n      tag_49\n      jump\t// in\n    tag_48:\n      tag_50\n      jump\t// in\n    tag_47:\n      stop\n        /* \"@openzeppelin/contracts/token/ERC1155/ERC1155.sol\":3156:3300  function setApprovalForAll(address operator, bool approved) public virtual {... */\n    tag_10:\n      tag_51\n      0x04\n      dup1\n      calldatasize\n      sub\n      dup2\n      add\n      swap1\n      tag_52\n      swap2\n      swap1\n      tag_53\n      jump\t// in\n    tag_52:\n      tag_54\n      jump\t// in\n    tag_51:\n      stop\n        /* \"@openzeppelin/contracts/token/ERC1155/ERC1155.sol\":3367:3524  function isApprovedForAll(address account, address operator) public view virtual returns (bool) {... */\n    tag_11:\n      tag_55\n      0x04\n      dup1\n      calldatasize\n      sub\n      dup2\n      add\n      swap1\n      tag_56\n      swap2\n      swap1\n      tag_57\n      jump\t// in\n    tag_56:\n      tag_58\n      jump\t// in\n    tag_55:\n      mload(0x40)\n      tag_59\n      swap2\n      swap1\n      tag_25\n      jump\t// in\n    tag_59:\n      mload(0x40)\n      dup1\n      swap2\n      sub\n      swap1\n      return\n        /* \"@openzeppelin/contracts/token/ERC1155/ERC1155.sol\":3591:3942  function safeTransferFrom(address from, address to, uint256 id, uint256 value, bytes memory data) public virtual {... */\n    tag_12:\n      tag_60\n      0x04\n      dup1\n      calldatasize\n      sub\n      dup2\n      add\n      swap1\n      tag_61\n      swap2\n      swap1\n      tag_62\n      jump\t// in\n    tag_61:\n      tag_63\n      jump\t// in\n    tag_60:\n      stop\n        /* \"@openzeppelin/contracts/token/ERC1155/ERC1155.sol\":2247:2379  function balanceOf(address account, uint256 id) public view virtual returns (uint256) {... */\n    tag_17:\n        /* \"@openzeppelin/contracts/token/ERC1155/ERC1155.sol\":2324:2331  uint256 */\n      0x00\n        /* \"@openzeppelin/contracts/token/ERC1155/ERC1155.sol\":2350:2359  _balances */\n      dup1\n        /* \"@openzeppelin/contracts/token/ERC1155/ERC1155.sol\":2350:2363  _balances[id] */\n      0x00\n        /* \"@openzeppelin/contracts/token/ERC1155/ERC1155.sol\":2360:2362  id */\n      dup4\n        /* \"@openzeppelin/contracts/token/ERC1155/ERC1155.sol\":2350:2363  _balances[id] */\n      dup2\n      mstore\n      0x20\n      add\n      swap1\n      dup2\n      mstore\n      0x20\n      add\n      0x00\n      keccak256\n        /* \"@openzeppelin/contracts/token/ERC1155/ERC1155.sol\":2350:2372  _balances[id][account] */\n      0x00\n        /* \"@openzeppelin/contracts/token/ERC1155/ERC1155.sol\":2364:2371  account */\n      dup5\n        /* \"@openzeppelin/contracts/token/ERC1155/ERC1155.sol\":2350:2372  _balances[id][account] */\n      0xffffffffffffffffffffffffffffffffffffffff\n      and\n      0xffffffffffffffffffffffffffffffffffffffff\n      and\n      dup2\n      mstore\n      0x20\n      add\n      swap1\n      dup2\n      mstore\n      0x20\n      add\n      0x00\n      keccak256\n      sload\n        /* \"@openzeppelin/contracts/token/ERC1155/ERC1155.sol\":2343:2372  return _balances[id][account] */\n      swap1\n      pop\n        /* \"@openzeppelin/contracts/token/ERC1155/ERC1155.sol\":2247:2379  function balanceOf(address account, uint256 id) public view virtual returns (uint256) {... */\n      swap3\n      swap2\n      pop\n      pop\n      jump\t// out\n        /* \"@openzeppelin/contracts/token/ERC1155/ERC1155.sol\":1380:1685  function supportsInterface(bytes4 interfaceId) public view virtual override(ERC165, IERC165) returns (bool) {... */\n    tag_23:\n        /* \"@openzeppelin/contracts/token/ERC1155/ERC1155.sol\":1482:1486  bool */\n      0x00\n        /* \"@openzeppelin/contracts/token/ERC1155/ERC1155.sol\":1532:1558  type(IERC1155).interfaceId */\n      0xd9b67a2600000000000000000000000000000000000000000000000000000000\n        /* \"@openzeppelin/contracts/token/ERC1155/ERC1155.sol\":1517:1558  interfaceId == type(IERC1155).interfaceId */\n      not(0xffffffffffffffffffffffffffffffffffffffffffffffffffffffff)\n      and\n        /* \"@openzeppelin/contracts/token/ERC1155/ERC1155.sol\":1517:1528  interfaceId */\n      dup3\n        /* \"@openzeppelin/contracts/token/ERC1155/ERC1155.sol\":1517:1558  interfaceId == type(IERC1155).interfaceId */\n      not(0xffffffffffffffffffffffffffffffffffffffffffffffffffffffff)\n      and\n      eq\n        /* \"@openzeppelin/contracts/token/ERC1155/ERC1155.sol\":1517:1626  interfaceId == type(IERC1155).interfaceId ||... */\n      dup1\n      tag_66\n      jumpi\n      pop\n        /* \"@openzeppelin/contracts/token/ERC1155/ERC1155.sol\":1589:1626  type(IERC1155MetadataURI).interfaceId */\n      0x0e89341c00000000000000000000000000000000000000000000000000000000\n        /* \"@openzeppelin/contracts/token/ERC1155/ERC1155.sol\":1574:1626  interfaceId == type(IERC1155MetadataURI).interfaceId */\n      not(0xffffffffffffffffffffffffffffffffffffffffffffffffffffffff)\n      and\n        /* \"@openzeppelin/contracts/token/ERC1155/ERC1155.sol\":1574:1585  interfaceId */\n      dup3\n        /* \"@openzeppelin/contracts/token/ERC1155/ERC1155.sol\":1574:1626  interfaceId == type(IERC1155MetadataURI).interfaceId */\n      not(0xffffffffffffffffffffffffffffffffffffffffffffffffffffffff)\n      and\n      eq\n        /* \"@openzeppelin/contracts/token/ERC1155/ERC1155.sol\":1517:1626  interfaceId == type(IERC1155).interfaceId ||... */\n    tag_66:\n        /* \"@openzeppelin/contracts/token/ERC1155/ERC1155.sol\":1517:1678  interfaceId == type(IERC1155).interfaceId ||... */\n      dup1\n      tag_67\n      jumpi\n      pop\n        /* \"@openzeppelin/contracts/token/ERC1155/ERC1155.sol\":1642:1678  super.supportsInterface(interfaceId) */\n      tag_68\n        /* \"@openzeppelin/contracts/token/ERC1155/ERC1155.sol\":1666:1677  interfaceId */\n      dup3\n        /* \"@openzeppelin/contracts/token/ERC1155/ERC1155.sol\":1642:1665  super.supportsInterface */\n      tag_69\n        /* \"@openzeppelin/contracts/token/ERC1155/ERC1155.sol\":1642:1678  super.supportsInterface(interfaceId) */\n      jump\t// in\n    tag_68:\n        /* \"@openzeppelin/contracts/token/ERC1155/ERC1155.sol\":1517:1678  interfaceId == type(IERC1155).interfaceId ||... */\n    tag_67:\n        /* \"@openzeppelin/contracts/token/ERC1155/ERC1155.sol\":1498:1678  return... */\n      swap1\n      pop\n        /* \"@openzeppelin/contracts/token/ERC1155/ERC1155.sol\":1380:1685  function supportsInterface(bytes4 interfaceId) public view virtual override(ERC165, IERC165) returns (bool) {... */\n      swap2\n      swap1\n      pop\n      jump\t// out\n        /* \"contracts/task2.sol\":563:878  function mintNonFungible(address account, string memory tokenURI) external returns (uint256) {... */\n    tag_29:\n        /* \"contracts/task2.sol\":647:654  uint256 */\n      0x00\n        /* \"contracts/task2.sol\":667:699  _nonFungibleTokenIds.increment() */\n      tag_71\n        /* \"contracts/task2.sol\":667:687  _nonFungibleTokenIds */\n      0x03\n        /* \"contracts/task2.sol\":667:697  _nonFungibleTokenIds.increment */\n      tag_72\n        /* \"contracts/task2.sol\":667:699  _nonFungibleTokenIds.increment() */\n      jump\t// in\n    tag_71:\n        /* \"contracts/task2.sol\":710:723  uint256 newId */\n      0x00\n        /* \"contracts/task2.sol\":726:756  _nonFungibleTokenIds.current() */\n      tag_73\n        /* \"contracts/task2.sol\":726:746  _nonFungibleTokenIds */\n      0x03\n        /* \"contracts/task2.sol\":726:754  _nonFungibleTokenIds.current */\n      tag_74\n        /* \"contracts/task2.sol\":726:756  _nonFungibleTokenIds.current() */\n      jump\t// in\n    tag_73:\n        /* \"contracts/task2.sol\":710:756  uint256 newId = _nonFungibleTokenIds.current() */\n      swap1\n      pop\n        /* \"contracts/task2.sol\":777:805  _mint(account, newId, 1, \"\") */\n      tag_75\n        /* \"contracts/task2.sol\":783:790  account */\n      dup5\n        /* \"contracts/task2.sol\":792:797  newId */\n      dup3\n        /* \"contracts/task2.sol\":799:800  1 */\n      0x01\n        /* \"contracts/task2.sol\":777:805  _mint(account, newId, 1, \"\") */\n      mload(0x40)\n      dup1\n      0x20\n      add\n      0x40\n      mstore\n      dup1\n      0x00\n      dup2\n      mstore\n      pop\n        /* \"contracts/task2.sol\":777:782  _mint */\n      tag_76\n        /* \"contracts/task2.sol\":777:805  _mint(account, newId, 1, \"\") */\n      jump\t// in\n    tag_75:\n        /* \"contracts/task2.sol\":816:845  _setTokenURI(newId, tokenURI) */\n      tag_77\n        /* \"contracts/task2.sol\":829:834  newId */\n      dup2\n        /* \"contracts/task2.sol\":836:844  tokenURI */\n      dup5\n        /* \"contracts/task2.sol\":816:828  _setTokenURI */\n      tag_78\n        /* \"contracts/task2.sol\":816:845  _setTokenURI(newId, tokenURI) */\n      jump\t// in\n    tag_77:\n        /* \"contracts/task2.sol\":865:870  newId */\n      dup1\n        /* \"contracts/task2.sol\":858:870  return newId */\n      swap2\n      pop\n      pop\n        /* \"contracts/task2.sol\":563:878  function mintNonFungible(address account, string memory tokenURI) external returns (uint256) {... */\n      swap3\n      swap2\n      pop\n      pop\n      jump\t// out\n        /* \"contracts/task2.sol\":1017:1183  function uri(uint256 tokenId) public view override returns (string memory) {... */\n    tag_34:\n        /* \"contracts/task2.sol\":1077:1090  string memory */\n      0x60\n        /* \"contracts/task2.sol\":1134:1152  super.uri(tokenId) */\n      tag_80\n        /* \"contracts/task2.sol\":1144:1151  tokenId */\n      dup3\n        /* \"contracts/task2.sol\":1134:1143  super.uri */\n      tag_81\n        /* \"contracts/task2.sol\":1134:1152  super.uri(tokenId) */\n      jump\t// in\n    tag_80:\n        /* \"contracts/task2.sol\":1154:1164  _tokenURIs */\n      0x04\n        /* \"contracts/task2.sol\":1154:1173  _tokenURIs[tokenId] */\n      0x00\n        /* \"contracts/task2.sol\":1165:1172  tokenId */\n      dup5\n        /* \"contracts/task2.sol\":1154:1173  _tokenURIs[tokenId] */\n      dup2\n      mstore\n      0x20\n      add\n      swap1\n      dup2\n      mstore\n      0x20\n      add\n      0x00\n      keccak256\n        /* \"contracts/task2.sol\":1117:1174  abi.encodePacked(super.uri(tokenId), _tokenURIs[tokenId]) */\n      add(0x20, mload(0x40))\n      tag_82\n      swap3\n      swap2\n      swap1\n      tag_83\n      jump\t// in\n    tag_82:\n      mload(0x40)\n      0x20\n      dup2\n      dup4\n      sub\n      sub\n      dup2\n      mstore\n      swap1\n      0x40\n      mstore\n        /* \"contracts/task2.sol\":1103:1175  return string(abi.encodePacked(super.uri(tokenId), _tokenURIs[tokenId])) */\n      swap1\n      pop\n        /* \"contracts/task2.sol\":1017:1183  function uri(uint256 tokenId) public view override returns (string memory) {... */\n      swap2\n      swap1\n      pop\n      jump\t// out\n        /* \"@openzeppelin/contracts/token/ERC1155/ERC1155.sol\":4014:4443  function safeBatchTransferFrom(... */\n    tag_40:\n        /* \"@openzeppelin/contracts/token/ERC1155/ERC1155.sol\":4208:4222  address sender */\n      0x00\n        /* \"@openzeppelin/contracts/token/ERC1155/ERC1155.sol\":4225:4237  _msgSender() */\n      tag_85\n        /* \"@openzeppelin/contracts/token/ERC1155/ERC1155.sol\":4225:4235  _msgSender */\n      tag_86\n        /* \"@openzeppelin/contracts/token/ERC1155/ERC1155.sol\":4225:4237  _msgSender() */\n      jump\t// in\n    tag_85:\n        /* \"@openzeppelin/contracts/token/ERC1155/ERC1155.sol\":4208:4237  address sender = _msgSender() */\n      swap1\n      pop\n        /* \"@openzeppelin/contracts/token/ERC1155/ERC1155.sol\":4259:4265  sender */\n      dup1\n        /* \"@openzeppelin/contracts/token/ERC1155/ERC1155.sol\":4251:4265  from != sender */\n      0xffffffffffffffffffffffffffffffffffffffff\n      and\n        /* \"@openzeppelin/contracts/token/ERC1155/ERC1155.sol\":4251:4255  from */\n      dup7\n        /* \"@openzeppelin/contracts/token/ERC1155/ERC1155.sol\":4251:4265  from != sender */\n      0xffffffffffffffffffffffffffffffffffffffff\n      and\n      eq\n      iszero\n        /* \"@openzeppelin/contracts/token/ERC1155/ERC1155.sol\":4251:4300  from != sender && !isApprovedForAll(from, sender) */\n      dup1\n      iszero\n      tag_87\n      jumpi\n      pop\n        /* \"@openzeppelin/contracts/token/ERC1155/ERC1155.sol\":4270:4300  isApprovedForAll(from, sender) */\n      tag_88\n        /* \"@openzeppelin/contracts/token/ERC1155/ERC1155.sol\":4287:4291  from */\n      dup7\n        /* \"@openzeppelin/contracts/token/ERC1155/ERC1155.sol\":4293:4299  sender */\n      dup3\n        /* \"@openzeppelin/contracts/token/ERC1155/ERC1155.sol\":4270:4286  isApprovedForAll */\n      tag_58\n        /* \"@openzeppelin/contracts/token/ERC1155/ERC1155.sol\":4270:4300  isApprovedForAll(from, sender) */\n      jump\t// in\n    tag_88:\n        /* \"@openzeppelin/contracts/token/ERC1155/ERC1155.sol\":4269:4300  !isApprovedForAll(from, sender) */\n      iszero\n        /* \"@openzeppelin/contracts/token/ERC1155/ERC1155.sol\":4251:4300  from != sender && !isApprovedForAll(from, sender) */\n    tag_87:\n        /* \"@openzeppelin/contracts/token/ERC1155/ERC1155.sol\":4247:4376  if (from != sender && !isApprovedForAll(from, sender)) {... */\n      iszero\n      tag_89\n      jumpi\n        /* \"@openzeppelin/contracts/token/ERC1155/ERC1155.sol\":4352:4358  sender */\n      dup1\n        /* \"@openzeppelin/contracts/token/ERC1155/ERC1155.sol\":4360:4364  from */\n      dup7\n        /* \"@openzeppelin/contracts/token/ERC1155/ERC1155.sol\":4323:4365  ERC1155MissingApprovalForAll(sender, from) */\n      mload(0x40)\n      0xe237d92200000000000000000000000000000000000000000000000000000000\n      dup2\n      mstore\n      0x04\n      add\n      tag_90\n      swap3\n      swap2\n      swap1\n      tag_91\n      jump\t// in\n    tag_90:\n      mload(0x40)\n      dup1\n      swap2\n      sub\n      swap1\n      revert\n        /* \"@openzeppelin/contracts/token/ERC1155/ERC1155.sol\":4247:4376  if (from != sender && !isApprovedForAll(from, sender)) {... */\n    tag_89:\n        /* \"@openzeppelin/contracts/token/ERC1155/ERC1155.sol\":4385:4436  _safeBatchTransferFrom(from, to, ids, values, data) */\n      tag_92\n        /* \"@openzeppelin/contracts/token/ERC1155/ERC1155.sol\":4408:4412  from */\n      dup7\n        /* \"@openzeppelin/contracts/token/ERC1155/ERC1155.sol\":4414:4416  to */\n      dup7\n        /* \"@openzeppelin/contracts/token/ERC1155/ERC1155.sol\":4418:4421  ids */\n      dup7\n        /* \"@openzeppelin/contracts/token/ERC1155/ERC1155.sol\":4423:4429  values */\n      dup7\n        /* \"@openzeppelin/contracts/token/ERC1155/ERC1155.sol\":4431:4435  data */\n      dup7\n        /* \"@openzeppelin/contracts/token/ERC1155/ERC1155.sol\":4385:4407  _safeBatchTransferFrom */\n      tag_93\n        /* \"@openzeppelin/contracts/token/ERC1155/ERC1155.sol\":4385:4436  _safeBatchTransferFrom(from, to, ids, values, data) */\n      jump\t// in\n    tag_92:\n        /* \"@openzeppelin/contracts/token/ERC1155/ERC1155.sol\":4198:4443  {... */\n      pop\n        /* \"@openzeppelin/contracts/token/ERC1155/ERC1155.sol\":4014:4443  function safeBatchTransferFrom(... */\n      pop\n      pop\n      pop\n      pop\n      pop\n      jump\t// out\n        /* \"@openzeppelin/contracts/token/ERC1155/ERC1155.sol\":2536:3088  function balanceOfBatch(... */\n    tag_44:\n        /* \"@openzeppelin/contracts/token/ERC1155/ERC1155.sol\":2660:2676  uint256[] memory */\n      0x60\n        /* \"@openzeppelin/contracts/token/ERC1155/ERC1155.sol\":2711:2714  ids */\n      dup2\n        /* \"@openzeppelin/contracts/token/ERC1155/ERC1155.sol\":2711:2721  ids.length */\n      mload\n        /* \"@openzeppelin/contracts/token/ERC1155/ERC1155.sol\":2692:2700  accounts */\n      dup4\n        /* \"@openzeppelin/contracts/token/ERC1155/ERC1155.sol\":2692:2707  accounts.length */\n      mload\n        /* \"@openzeppelin/contracts/token/ERC1155/ERC1155.sol\":2692:2721  accounts.length != ids.length */\n      eq\n        /* \"@openzeppelin/contracts/token/ERC1155/ERC1155.sol\":2688:2809  if (accounts.length != ids.length) {... */\n      tag_95\n      jumpi\n        /* \"@openzeppelin/contracts/token/ERC1155/ERC1155.sol\":2770:2773  ids */\n      dup2\n        /* \"@openzeppelin/contracts/token/ERC1155/ERC1155.sol\":2770:2780  ids.length */\n      mload\n        /* \"@openzeppelin/contracts/token/ERC1155/ERC1155.sol\":2782:2790  accounts */\n      dup4\n        /* \"@openzeppelin/contracts/token/ERC1155/ERC1155.sol\":2782:2797  accounts.length */\n      mload\n        /* \"@openzeppelin/contracts/token/ERC1155/ERC1155.sol\":2744:2798  ERC1155InvalidArrayLength(ids.length, accounts.length) */\n      mload(0x40)\n      0x5b05999100000000000000000000000000000000000000000000000000000000\n      dup2\n      mstore\n      0x04\n      add\n      tag_96\n      swap3\n      swap2\n      swap1\n      tag_97\n      jump\t// in\n    tag_96:\n      mload(0x40)\n      dup1\n      swap2\n      sub\n      swap1\n      revert\n        /* \"@openzeppelin/contracts/token/ERC1155/ERC1155.sol\":2688:2809  if (accounts.length != ids.length) {... */\n    tag_95:\n        /* \"@openzeppelin/contracts/token/ERC1155/ERC1155.sol\":2819:2849  uint256[] memory batchBalances */\n      0x00\n        /* \"@openzeppelin/contracts/token/ERC1155/ERC1155.sol\":2866:2874  accounts */\n      dup4\n        /* \"@openzeppelin/contracts/token/ERC1155/ERC1155.sol\":2866:2881  accounts.length */\n      mload\n        /* \"@openzeppelin/contracts/token/ERC1155/ERC1155.sol\":2852:2882  new uint256[](accounts.length) */\n      0xffffffffffffffff\n      dup2\n      gt\n      iszero\n      tag_98\n      jumpi\n      tag_99\n      tag_100\n      jump\t// in\n    tag_99:\n    tag_98:\n      mload(0x40)\n      swap1\n      dup1\n      dup3\n      mstore\n      dup1\n      0x20\n      mul\n      0x20\n      add\n      dup3\n      add\n      0x40\n      mstore\n      dup1\n      iszero\n      tag_101\n      jumpi\n      dup2\n      0x20\n      add\n      0x20\n      dup3\n      mul\n      dup1\n      calldatasize\n      dup4\n      calldatacopy\n      dup1\n      dup3\n      add\n      swap2\n      pop\n      pop\n      swap1\n      pop\n    tag_101:\n      pop\n        /* \"@openzeppelin/contracts/token/ERC1155/ERC1155.sol\":2819:2882  uint256[] memory batchBalances = new uint256[](accounts.length) */\n      swap1\n      pop\n        /* \"@openzeppelin/contracts/token/ERC1155/ERC1155.sol\":2898:2907  uint256 i */\n      0x00\n        /* \"@openzeppelin/contracts/token/ERC1155/ERC1155.sol\":2893:3051  for (uint256 i = 0; i < accounts.length; ++i) {... */\n    tag_102:\n        /* \"@openzeppelin/contracts/token/ERC1155/ERC1155.sol\":2917:2925  accounts */\n      dup5\n        /* \"@openzeppelin/contracts/token/ERC1155/ERC1155.sol\":2917:2932  accounts.length */\n      mload\n        /* \"@openzeppelin/contracts/token/ERC1155/ERC1155.sol\":2913:2914  i */\n      dup2\n        /* \"@openzeppelin/contracts/token/ERC1155/ERC1155.sol\":2913:2932  i < accounts.length */\n      lt\n        /* \"@openzeppelin/contracts/token/ERC1155/ERC1155.sol\":2893:3051  for (uint256 i = 0; i < accounts.length; ++i) {... */\n      iszero\n      tag_103\n      jumpi\n        /* \"@openzeppelin/contracts/token/ERC1155/ERC1155.sol\":2972:3040  balanceOf(accounts.unsafeMemoryAccess(i), ids.unsafeMemoryAccess(i)) */\n      tag_105\n        /* \"@openzeppelin/contracts/token/ERC1155/ERC1155.sol\":2982:3012  accounts.unsafeMemoryAccess(i) */\n      tag_106\n        /* \"@openzeppelin/contracts/token/ERC1155/ERC1155.sol\":3010:3011  i */\n      dup3\n        /* \"@openzeppelin/contracts/token/ERC1155/ERC1155.sol\":2982:2990  accounts */\n      dup8\n        /* \"@openzeppelin/contracts/token/ERC1155/ERC1155.sol\":2982:3009  accounts.unsafeMemoryAccess */\n      tag_107\n      swap1\n        /* \"@openzeppelin/contracts/token/ERC1155/ERC1155.sol\":2982:3012  accounts.unsafeMemoryAccess(i) */\n      swap2\n      swap1\n      0xffffffff\n      and\n      jump\t// in\n    tag_106:\n        /* \"@openzeppelin/contracts/token/ERC1155/ERC1155.sol\":3014:3039  ids.unsafeMemoryAccess(i) */\n      tag_108\n        /* \"@openzeppelin/contracts/token/ERC1155/ERC1155.sol\":3037:3038  i */\n      dup4\n        /* \"@openzeppelin/contracts/token/ERC1155/ERC1155.sol\":3014:3017  ids */\n      dup8\n        /* \"@openzeppelin/contracts/token/ERC1155/ERC1155.sol\":3014:3036  ids.unsafeMemoryAccess */\n      tag_109\n      swap1\n        /* \"@openzeppelin/contracts/token/ERC1155/ERC1155.sol\":3014:3039  ids.unsafeMemoryAccess(i) */\n      swap2\n      swap1\n      0xffffffff\n      and\n      jump\t// in\n    tag_108:\n        /* \"@openzeppelin/contracts/token/ERC1155/ERC1155.sol\":2972:2981  balanceOf */\n      tag_17\n        /* \"@openzeppelin/contracts/token/ERC1155/ERC1155.sol\":2972:3040  balanceOf(accounts.unsafeMemoryAccess(i), ids.unsafeMemoryAccess(i)) */\n      jump\t// in\n    tag_105:\n        /* \"@openzeppelin/contracts/token/ERC1155/ERC1155.sol\":2953:2966  batchBalances */\n      dup3\n        /* \"@openzeppelin/contracts/token/ERC1155/ERC1155.sol\":2967:2968  i */\n      dup3\n        /* \"@openzeppelin/contracts/token/ERC1155/ERC1155.sol\":2953:2969  batchBalances[i] */\n      dup2\n      mload\n      dup2\n      lt\n      tag_110\n      jumpi\n      tag_111\n      tag_112\n      jump\t// in\n    tag_111:\n    tag_110:\n      0x20\n      mul\n      0x20\n      add\n      add\n        /* \"@openzeppelin/contracts/token/ERC1155/ERC1155.sol\":2953:3040  batchBalances[i] = balanceOf(accounts.unsafeMemoryAccess(i), ids.unsafeMemoryAccess(i)) */\n      dup2\n      dup2\n      mstore\n      pop\n      pop\n        /* \"@openzeppelin/contracts/token/ERC1155/ERC1155.sol\":2934:2937  ++i */\n      dup1\n      0x01\n      add\n      swap1\n      pop\n        /* \"@openzeppelin/contracts/token/ERC1155/ERC1155.sol\":2893:3051  for (uint256 i = 0; i < accounts.length; ++i) {... */\n      jump(tag_102)\n    tag_103:\n      pop\n        /* \"@openzeppelin/contracts/token/ERC1155/ERC1155.sol\":3068:3081  batchBalances */\n      dup1\n        /* \"@openzeppelin/contracts/token/ERC1155/ERC1155.sol\":3061:3081  return batchBalances */\n      swap2\n      pop\n      pop\n        /* \"@openzeppelin/contracts/token/ERC1155/ERC1155.sol\":2536:3088  function balanceOfBatch(... */\n      swap3\n      swap2\n      pop\n      pop\n      jump\t// out\n        /* \"contracts/task2.sol\":430:555  function mintFungible(address account, uint256 id, uint256 amount) external {... */\n    tag_50:\n        /* \"contracts/task2.sol\":517:547  _mint(account, id, amount, \"\") */\n      tag_114\n        /* \"contracts/task2.sol\":523:530  account */\n      dup4\n        /* \"contracts/task2.sol\":532:534  id */\n      dup4\n        /* \"contracts/task2.sol\":536:542  amount */\n      dup4\n        /* \"contracts/task2.sol\":517:547  _mint(account, id, amount, \"\") */\n      mload(0x40)\n      dup1\n      0x20\n      add\n      0x40\n      mstore\n      dup1\n      0x00\n      dup2\n      mstore\n      pop\n        /* \"contracts/task2.sol\":517:522  _mint */\n      tag_76\n        /* \"contracts/task2.sol\":517:547  _mint(account, id, amount, \"\") */\n      jump\t// in\n    tag_114:\n        /* \"contracts/task2.sol\":430:555  function mintFungible(address account, uint256 id, uint256 amount) external {... */\n      pop\n      pop\n      pop\n      jump\t// out\n        /* \"@openzeppelin/contracts/token/ERC1155/ERC1155.sol\":3156:3300  function setApprovalForAll(address operator, bool approved) public virtual {... */\n    tag_54:\n        /* \"@openzeppelin/contracts/token/ERC1155/ERC1155.sol\":3241:3293  _setApprovalForAll(_msgSender(), operator, approved) */\n      tag_116\n        /* \"@openzeppelin/contracts/token/ERC1155/ERC1155.sol\":3260:3272  _msgSender() */\n      tag_117\n        /* \"@openzeppelin/contracts/token/ERC1155/ERC1155.sol\":3260:3270  _msgSender */\n      tag_86\n        /* \"@openzeppelin/contracts/token/ERC1155/ERC1155.sol\":3260:3272  _msgSender() */\n      jump\t// in\n    tag_117:\n        /* \"@openzeppelin/contracts/token/ERC1155/ERC1155.sol\":3274:3282  operator */\n      dup4\n        /* \"@openzeppelin/contracts/token/ERC1155/ERC1155.sol\":3284:3292  approved */\n      dup4\n        /* \"@openzeppelin/contracts/token/ERC1155/ERC1155.sol\":3241:3259  _setApprovalForAll */\n      tag_118\n        /* \"@openzeppelin/contracts/token/ERC1155/ERC1155.sol\":3241:3293  _setApprovalForAll(_msgSender(), operator, approved) */\n      jump\t// in\n    tag_116:\n        /* \"@openzeppelin/contracts/token/ERC1155/ERC1155.sol\":3156:3300  function setApprovalForAll(address operator, bool approved) public virtual {... */\n      pop\n      pop\n      jump\t// out\n        /* \"@openzeppelin/contracts/token/ERC1155/ERC1155.sol\":3367:3524  function isApprovedForAll(address account, address operator) public view virtual returns (bool) {... */\n    tag_58:\n        /* \"@openzeppelin/contracts/token/ERC1155/ERC1155.sol\":3457:3461  bool */\n      0x00\n        /* \"@openzeppelin/contracts/token/ERC1155/ERC1155.sol\":3480:3498  _operatorApprovals */\n      0x01\n        /* \"@openzeppelin/contracts/token/ERC1155/ERC1155.sol\":3480:3507  _operatorApprovals[account] */\n      0x00\n        /* \"@openzeppelin/contracts/token/ERC1155/ERC1155.sol\":3499:3506  account */\n      dup5\n        /* \"@openzeppelin/contracts/token/ERC1155/ERC1155.sol\":3480:3507  _operatorApprovals[account] */\n      0xffffffffffffffffffffffffffffffffffffffff\n      and\n      0xffffffffffffffffffffffffffffffffffffffff\n      and\n      dup2\n      mstore\n      0x20\n      add\n      swap1\n      dup2\n      mstore\n      0x20\n      add\n      0x00\n      keccak256\n        /* \"@openzeppelin/contracts/token/ERC1155/ERC1155.sol\":3480:3517  _operatorApprovals[account][operator] */\n      0x00\n        /* \"@openzeppelin/contracts/token/ERC1155/ERC1155.sol\":3508:3516  operator */\n      dup4\n        /* \"@openzeppelin/contracts/token/ERC1155/ERC1155.sol\":3480:3517  _operatorApprovals[account][operator] */\n      0xffffffffffffffffffffffffffffffffffffffff\n      and\n      0xffffffffffffffffffffffffffffffffffffffff\n      and\n      dup2\n      mstore\n      0x20\n      add\n      swap1\n      dup2\n      mstore\n      0x20\n      add\n      0x00\n      keccak256\n      0x00\n      swap1\n      sload\n      swap1\n      0x0100\n      exp\n      swap1\n      div\n      0xff\n      and\n        /* \"@openzeppelin/contracts/token/ERC1155/ERC1155.sol\":3473:3517  return _operatorApprovals[account][operator] */\n      swap1\n      pop\n        /* \"@openzeppelin/contracts/token/ERC1155/ERC1155.sol\":3367:3524  function isApprovedForAll(address account, address operator) public view virtual returns (bool) {... */\n      swap3\n      swap2\n      pop\n      pop\n      jump\t// out\n        /* \"@openzeppelin/contracts/token/ERC1155/ERC1155.sol\":3591:3942  function safeTransferFrom(address from, address to, uint256 id, uint256 value, bytes memory data) public virtual {... */\n    tag_63:\n        /* \"@openzeppelin/contracts/token/ERC1155/ERC1155.sol\":3714:3728  address sender */\n      0x00\n        /* \"@openzeppelin/contracts/token/ERC1155/ERC1155.sol\":3731:3743  _msgSender() */\n      tag_121\n        /* \"@openzeppelin/contracts/token/ERC1155/ERC1155.sol\":3731:3741  _msgSender */\n      tag_86\n        /* \"@openzeppelin/contracts/token/ERC1155/ERC1155.sol\":3731:3743  _msgSender() */\n      jump\t// in\n    tag_121:\n        /* \"@openzeppelin/contracts/token/ERC1155/ERC1155.sol\":3714:3743  address sender = _msgSender() */\n      swap1\n      pop\n        /* \"@openzeppelin/contracts/token/ERC1155/ERC1155.sol\":3765:3771  sender */\n      dup1\n        /* \"@openzeppelin/contracts/token/ERC1155/ERC1155.sol\":3757:3771  from != sender */\n      0xffffffffffffffffffffffffffffffffffffffff\n      and\n        /* \"@openzeppelin/contracts/token/ERC1155/ERC1155.sol\":3757:3761  from */\n      dup7\n        /* \"@openzeppelin/contracts/token/ERC1155/ERC1155.sol\":3757:3771  from != sender */\n      0xffffffffffffffffffffffffffffffffffffffff\n      and\n      eq\n      iszero\n        /* \"@openzeppelin/contracts/token/ERC1155/ERC1155.sol\":3757:3806  from != sender && !isApprovedForAll(from, sender) */\n      dup1\n      iszero\n      tag_122\n      jumpi\n      pop\n        /* \"@openzeppelin/contracts/token/ERC1155/ERC1155.sol\":3776:3806  isApprovedForAll(from, sender) */\n      tag_123\n        /* \"@openzeppelin/contracts/token/ERC1155/ERC1155.sol\":3793:3797  from */\n      dup7\n        /* \"@openzeppelin/contracts/token/ERC1155/ERC1155.sol\":3799:3805  sender */\n      dup3\n        /* \"@openzeppelin/contracts/token/ERC1155/ERC1155.sol\":3776:3792  isApprovedForAll */\n      tag_58\n        /* \"@openzeppelin/contracts/token/ERC1155/ERC1155.sol\":3776:3806  isApprovedForAll(from, sender) */\n      jump\t// in\n    tag_123:\n        /* \"@openzeppelin/contracts/token/ERC1155/ERC1155.sol\":3775:3806  !isApprovedForAll(from, sender) */\n      iszero\n        /* \"@openzeppelin/contracts/token/ERC1155/ERC1155.sol\":3757:3806  from != sender && !isApprovedForAll(from, sender) */\n    tag_122:\n        /* \"@openzeppelin/contracts/token/ERC1155/ERC1155.sol\":3753:3882  if (from != sender && !isApprovedForAll(from, sender)) {... */\n      iszero\n      tag_124\n      jumpi\n        /* \"@openzeppelin/contracts/token/ERC1155/ERC1155.sol\":3858:3864  sender */\n      dup1\n        /* \"@openzeppelin/contracts/token/ERC1155/ERC1155.sol\":3866:3870  from */\n      dup7\n        /* \"@openzeppelin/contracts/token/ERC1155/ERC1155.sol\":3829:3871  ERC1155MissingApprovalForAll(sender, from) */\n      mload(0x40)\n      0xe237d92200000000000000000000000000000000000000000000000000000000\n      dup2\n      mstore\n      0x04\n      add\n      tag_125\n      swap3\n      swap2\n      swap1\n      tag_91\n      jump\t// in\n    tag_125:\n      mload(0x40)\n      dup1\n      swap2\n      sub\n      swap1\n      revert\n        /* \"@openzeppelin/contracts/token/ERC1155/ERC1155.sol\":3753:3882  if (from != sender && !isApprovedForAll(from, sender)) {... */\n    tag_124:\n        /* \"@openzeppelin/contracts/token/ERC1155/ERC1155.sol\":3891:3935  _safeTransferFrom(from, to, id, value, data) */\n      tag_126\n        /* \"@openzeppelin/contracts/token/ERC1155/ERC1155.sol\":3909:3913  from */\n      dup7\n        /* \"@openzeppelin/contracts/token/ERC1155/ERC1155.sol\":3915:3917  to */\n      dup7\n        /* \"@openzeppelin/contracts/token/ERC1155/ERC1155.sol\":3919:3921  id */\n      dup7\n        /* \"@openzeppelin/contracts/token/ERC1155/ERC1155.sol\":3923:3928  value */\n      dup7\n        /* \"@openzeppelin/contracts/token/ERC1155/ERC1155.sol\":3930:3934  data */\n      dup7\n        /* \"@openzeppelin/contracts/token/ERC1155/ERC1155.sol\":3891:3908  _safeTransferFrom */\n      tag_127\n        /* \"@openzeppelin/contracts/token/ERC1155/ERC1155.sol\":3891:3935  _safeTransferFrom(from, to, id, value, data) */\n      jump\t// in\n    tag_126:\n        /* \"@openzeppelin/contracts/token/ERC1155/ERC1155.sol\":3704:3942  {... */\n      pop\n        /* \"@openzeppelin/contracts/token/ERC1155/ERC1155.sol\":3591:3942  function safeTransferFrom(address from, address to, uint256 id, uint256 value, bytes memory data) public virtual {... */\n      pop\n      pop\n      pop\n      pop\n      pop\n      jump\t// out\n        /* \"@openzeppelin/contracts/utils/introspection/ERC165.sol\":762:908  function supportsInterface(bytes4 interfaceId) public view virtual returns (bool) {... */\n    tag_69:\n        /* \"@openzeppelin/contracts/utils/introspection/ERC165.sol\":838:842  bool */\n      0x00\n        /* \"@openzeppelin/contracts/utils/introspection/ERC165.sol\":876:901  type(IERC165).interfaceId */\n      0x01ffc9a700000000000000000000000000000000000000000000000000000000\n        /* \"@openzeppelin/contracts/utils/introspection/ERC165.sol\":861:901  interfaceId == type(IERC165).interfaceId */\n      not(0xffffffffffffffffffffffffffffffffffffffffffffffffffffffff)\n      and\n        /* \"@openzeppelin/contracts/utils/introspection/ERC165.sol\":861:872  interfaceId */\n      dup3\n        /* \"@openzeppelin/contracts/utils/introspection/ERC165.sol\":861:901  interfaceId == type(IERC165).interfaceId */\n      not(0xffffffffffffffffffffffffffffffffffffffffffffffffffffffff)\n      and\n      eq\n        /* \"@openzeppelin/contracts/utils/introspection/ERC165.sol\":854:901  return interfaceId == type(IERC165).interfaceId */\n      swap1\n      pop\n        /* \"@openzeppelin/contracts/utils/introspection/ERC165.sol\":762:908  function supportsInterface(bytes4 interfaceId) public view virtual returns (bool) {... */\n      swap2\n      swap1\n      pop\n      jump\t// out\n        /* \"@openzeppelin/contracts/utils/Counters.sol\":945:1068  function increment(Counter storage counter) internal {... */\n    tag_72:\n        /* \"@openzeppelin/contracts/utils/Counters.sol\":1050:1051  1 */\n      0x01\n        /* \"@openzeppelin/contracts/utils/Counters.sol\":1032:1039  counter */\n      dup2\n        /* \"@openzeppelin/contracts/utils/Counters.sol\":1032:1046  counter._value */\n      0x00\n      add\n      0x00\n        /* \"@openzeppelin/contracts/utils/Counters.sol\":1032:1051  counter._value += 1 */\n      dup3\n      dup3\n      sload\n      add\n      swap3\n      pop\n      pop\n      dup2\n      swap1\n      sstore\n      pop\n        /* \"@openzeppelin/contracts/utils/Counters.sol\":945:1068  function increment(Counter storage counter) internal {... */\n      pop\n      jump\t// out\n        /* \"@openzeppelin/contracts/utils/Counters.sol\":827:939  function current(Counter storage counter) internal view returns (uint256) {... */\n    tag_74:\n        /* \"@openzeppelin/contracts/utils/Counters.sol\":892:899  uint256 */\n      0x00\n        /* \"@openzeppelin/contracts/utils/Counters.sol\":918:925  counter */\n      dup2\n        /* \"@openzeppelin/contracts/utils/Counters.sol\":918:932  counter._value */\n      0x00\n      add\n      sload\n        /* \"@openzeppelin/contracts/utils/Counters.sol\":911:932  return counter._value */\n      swap1\n      pop\n        /* \"@openzeppelin/contracts/utils/Counters.sol\":827:939  function current(Counter storage counter) internal view returns (uint256) {... */\n      swap2\n      swap1\n      pop\n      jump\t// out\n        /* \"@openzeppelin/contracts/token/ERC1155/ERC1155.sol\":10746:11092  function _mint(address to, uint256 id, uint256 value, bytes memory data) internal {... */\n    tag_76:\n        /* \"@openzeppelin/contracts/token/ERC1155/ERC1155.sol\":10856:10857  0 */\n      0x00\n        /* \"@openzeppelin/contracts/token/ERC1155/ERC1155.sol\":10842:10858  to == address(0) */\n      0xffffffffffffffffffffffffffffffffffffffff\n      and\n        /* \"@openzeppelin/contracts/token/ERC1155/ERC1155.sol\":10842:10844  to */\n      dup5\n        /* \"@openzeppelin/contracts/token/ERC1155/ERC1155.sol\":10842:10858  to == address(0) */\n      0xffffffffffffffffffffffffffffffffffffffff\n      and\n      sub\n        /* \"@openzeppelin/contracts/token/ERC1155/ERC1155.sol\":10838:10926  if (to == address(0)) {... */\n      tag_132\n      jumpi\n        /* \"@openzeppelin/contracts/token/ERC1155/ERC1155.sol\":10912:10913  0 */\n      0x00\n        /* \"@openzeppelin/contracts/token/ERC1155/ERC1155.sol\":10881:10915  ERC1155InvalidReceiver(address(0)) */\n      mload(0x40)\n      0x57f447ce00000000000000000000000000000000000000000000000000000000\n      dup2\n      mstore\n      0x04\n      add\n      tag_133\n      swap2\n      swap1\n      tag_134\n      jump\t// in\n    tag_133:\n      mload(0x40)\n      dup1\n      swap2\n      sub\n      swap1\n      revert\n        /* \"@openzeppelin/contracts/token/ERC1155/ERC1155.sol\":10838:10926  if (to == address(0)) {... */\n    tag_132:\n        /* \"@openzeppelin/contracts/token/ERC1155/ERC1155.sol\":10936:10956  uint256[] memory ids */\n      0x00\n        /* \"@openzeppelin/contracts/token/ERC1155/ERC1155.sol\":10958:10981  uint256[] memory values */\n      dup1\n        /* \"@openzeppelin/contracts/token/ERC1155/ERC1155.sol\":10985:11014  _asSingletonArrays(id, value) */\n      tag_135\n        /* \"@openzeppelin/contracts/token/ERC1155/ERC1155.sol\":11004:11006  id */\n      dup6\n        /* \"@openzeppelin/contracts/token/ERC1155/ERC1155.sol\":11008:11013  value */\n      dup6\n        /* \"@openzeppelin/contracts/token/ERC1155/ERC1155.sol\":10985:11003  _asSingletonArrays */\n      tag_136\n        /* \"@openzeppelin/contracts/token/ERC1155/ERC1155.sol\":10985:11014  _asSingletonArrays(id, value) */\n      jump\t// in\n    tag_135:\n        /* \"@openzeppelin/contracts/token/ERC1155/ERC1155.sol\":10935:11014  (uint256[] memory ids, uint256[] memory values) = _asSingletonArrays(id, value) */\n      swap2\n      pop\n      swap2\n      pop\n        /* \"@openzeppelin/contracts/token/ERC1155/ERC1155.sol\":11024:11085  _updateWithAcceptanceCheck(address(0), to, ids, values, data) */\n      tag_137\n        /* \"@openzeppelin/contracts/token/ERC1155/ERC1155.sol\":11059:11060  0 */\n      0x00\n        /* \"@openzeppelin/contracts/token/ERC1155/ERC1155.sol\":11063:11065  to */\n      dup8\n        /* \"@openzeppelin/contracts/token/ERC1155/ERC1155.sol\":11067:11070  ids */\n      dup5\n        /* \"@openzeppelin/contracts/token/ERC1155/ERC1155.sol\":11072:11078  values */\n      dup5\n        /* \"@openzeppelin/contracts/token/ERC1155/ERC1155.sol\":11080:11084  data */\n      dup8\n        /* \"@openzeppelin/contracts/token/ERC1155/ERC1155.sol\":11024:11050  _updateWithAcceptanceCheck */\n      tag_138\n        /* \"@openzeppelin/contracts/token/ERC1155/ERC1155.sol\":11024:11085  _updateWithAcceptanceCheck(address(0), to, ids, values, data) */\n      jump\t// in\n    tag_137:\n        /* \"@openzeppelin/contracts/token/ERC1155/ERC1155.sol\":10828:11092  {... */\n      pop\n      pop\n        /* \"@openzeppelin/contracts/token/ERC1155/ERC1155.sol\":10746:11092  function _mint(address to, uint256 id, uint256 value, bytes memory data) internal {... */\n      pop\n      pop\n      pop\n      pop\n      jump\t// out\n        /* \"contracts/task2.sol\":886:1009  function _setTokenURI(uint256 tokenId, string memory _tokenURI) internal {... */\n    tag_78:\n        /* \"contracts/task2.sol\":992:1001  _tokenURI */\n      dup1\n        /* \"contracts/task2.sol\":970:980  _tokenURIs */\n      0x04\n        /* \"contracts/task2.sol\":970:989  _tokenURIs[tokenId] */\n      0x00\n        /* \"contracts/task2.sol\":981:988  tokenId */\n      dup5\n        /* \"contracts/task2.sol\":970:989  _tokenURIs[tokenId] */\n      dup2\n      mstore\n      0x20\n      add\n      swap1\n      dup2\n      mstore\n      0x20\n      add\n      0x00\n      keccak256\n        /* \"contracts/task2.sol\":970:1001  _tokenURIs[tokenId] = _tokenURI */\n      swap1\n      dup2\n      tag_140\n      swap2\n      swap1\n      tag_141\n      jump\t// in\n    tag_140:\n      pop\n        /* \"contracts/task2.sol\":886:1009  function _setTokenURI(uint256 tokenId, string memory _tokenURI) internal {... */\n      pop\n      pop\n      jump\t// out\n        /* \"@openzeppelin/contracts/token/ERC1155/ERC1155.sol\":2084:2187  function uri(uint256 /* id */) public view virtual returns (string memory) {... */\n    tag_81:\n        /* \"@openzeppelin/contracts/token/ERC1155/ERC1155.sol\":2144:2157  string memory */\n      0x60\n        /* \"@openzeppelin/contracts/token/ERC1155/ERC1155.sol\":2176:2180  _uri */\n      0x02\n        /* \"@openzeppelin/contracts/token/ERC1155/ERC1155.sol\":2169:2180  return _uri */\n      dup1\n      sload\n      tag_143\n      swap1\n      tag_144\n      jump\t// in\n    tag_143:\n      dup1\n      0x1f\n      add\n      0x20\n      dup1\n      swap2\n      div\n      mul\n      0x20\n      add\n      mload(0x40)\n      swap1\n      dup2\n      add\n      0x40\n      mstore\n      dup1\n      swap3\n      swap2\n      swap1\n      dup2\n      dup2\n      mstore\n      0x20\n      add\n      dup3\n      dup1\n      sload\n      tag_145\n      swap1\n      tag_144\n      jump\t// in\n    tag_145:\n      dup1\n      iszero\n      tag_146\n      jumpi\n      dup1\n      0x1f\n      lt\n      tag_147\n      jumpi\n      0x0100\n      dup1\n      dup4\n      sload\n      div\n      mul\n      dup4\n      mstore\n      swap2\n      0x20\n      add\n      swap2\n      jump(tag_146)\n    tag_147:\n      dup3\n      add\n      swap2\n      swap1\n      0x00\n      mstore\n      keccak256(0x00, 0x20)\n      swap1\n    tag_148:\n      dup2\n      sload\n      dup2\n      mstore\n      swap1\n      0x01\n      add\n      swap1\n      0x20\n      add\n      dup1\n      dup4\n      gt\n      tag_148\n      jumpi\n      dup3\n      swap1\n      sub\n      0x1f\n      and\n      dup3\n      add\n      swap2\n    tag_146:\n      pop\n      pop\n      pop\n      pop\n      pop\n      swap1\n      pop\n        /* \"@openzeppelin/contracts/token/ERC1155/ERC1155.sol\":2084:2187  function uri(uint256 /* id */) public view virtual returns (string memory) {... */\n      swap2\n      swap1\n      pop\n      jump\t// out\n        /* \"@openzeppelin/contracts/utils/Context.sol\":656:752  function _msgSender() internal view virtual returns (address) {... */\n    tag_86:\n        /* \"@openzeppelin/contracts/utils/Context.sol\":709:716  address */\n      0x00\n        /* \"@openzeppelin/contracts/utils/Context.sol\":735:745  msg.sender */\n      caller\n        /* \"@openzeppelin/contracts/utils/Context.sol\":728:745  return msg.sender */\n      swap1\n      pop\n        /* \"@openzeppelin/contracts/utils/Context.sol\":656:752  function _msgSender() internal view virtual returns (address) {... */\n      swap1\n      jump\t// out\n        /* \"@openzeppelin/contracts/token/ERC1155/ERC1155.sol\":9015:9460  function _safeBatchTransferFrom(... */\n    tag_93:\n        /* \"@openzeppelin/contracts/token/ERC1155/ERC1155.sol\":9222:9223  0 */\n      0x00\n        /* \"@openzeppelin/contracts/token/ERC1155/ERC1155.sol\":9208:9224  to == address(0) */\n      0xffffffffffffffffffffffffffffffffffffffff\n      and\n        /* \"@openzeppelin/contracts/token/ERC1155/ERC1155.sol\":9208:9210  to */\n      dup5\n        /* \"@openzeppelin/contracts/token/ERC1155/ERC1155.sol\":9208:9224  to == address(0) */\n      0xffffffffffffffffffffffffffffffffffffffff\n      and\n      sub\n        /* \"@openzeppelin/contracts/token/ERC1155/ERC1155.sol\":9204:9292  if (to == address(0)) {... */\n      tag_151\n      jumpi\n        /* \"@openzeppelin/contracts/token/ERC1155/ERC1155.sol\":9278:9279  0 */\n      0x00\n        /* \"@openzeppelin/contracts/token/ERC1155/ERC1155.sol\":9247:9281  ERC1155InvalidReceiver(address(0)) */\n      mload(0x40)\n      0x57f447ce00000000000000000000000000000000000000000000000000000000\n      dup2\n      mstore\n      0x04\n      add\n      tag_152\n      swap2\n      swap1\n      tag_134\n      jump\t// in\n    tag_152:\n      mload(0x40)\n      dup1\n      swap2\n      sub\n      swap1\n      revert\n        /* \"@openzeppelin/contracts/token/ERC1155/ERC1155.sol\":9204:9292  if (to == address(0)) {... */\n    tag_151:\n        /* \"@openzeppelin/contracts/token/ERC1155/ERC1155.sol\":9321:9322  0 */\n      0x00\n        /* \"@openzeppelin/contracts/token/ERC1155/ERC1155.sol\":9305:9323  from == address(0) */\n      0xffffffffffffffffffffffffffffffffffffffff\n      and\n        /* \"@openzeppelin/contracts/token/ERC1155/ERC1155.sol\":9305:9309  from */\n      dup6\n        /* \"@openzeppelin/contracts/token/ERC1155/ERC1155.sol\":9305:9323  from == address(0) */\n      0xffffffffffffffffffffffffffffffffffffffff\n      and\n      sub\n        /* \"@openzeppelin/contracts/token/ERC1155/ERC1155.sol\":9301:9389  if (from == address(0)) {... */\n      tag_153\n      jumpi\n        /* \"@openzeppelin/contracts/token/ERC1155/ERC1155.sol\":9375:9376  0 */\n      0x00\n        /* \"@openzeppelin/contracts/token/ERC1155/ERC1155.sol\":9346:9378  ERC1155InvalidSender(address(0)) */\n      mload(0x40)\n      0x01a8351400000000000000000000000000000000000000000000000000000000\n      dup2\n      mstore\n      0x04\n      add\n      tag_154\n      swap2\n      swap1\n      tag_134\n      jump\t// in\n    tag_154:\n      mload(0x40)\n      dup1\n      swap2\n      sub\n      swap1\n      revert\n        /* \"@openzeppelin/contracts/token/ERC1155/ERC1155.sol\":9301:9389  if (from == address(0)) {... */\n    tag_153:\n        /* \"@openzeppelin/contracts/token/ERC1155/ERC1155.sol\":9398:9453  _updateWithAcceptanceCheck(from, to, ids, values, data) */\n      tag_155\n        /* \"@openzeppelin/contracts/token/ERC1155/ERC1155.sol\":9425:9429  from */\n      dup6\n        /* \"@openzeppelin/contracts/token/ERC1155/ERC1155.sol\":9431:9433  to */\n      dup6\n        /* \"@openzeppelin/contracts/token/ERC1155/ERC1155.sol\":9435:9438  ids */\n      dup6\n        /* \"@openzeppelin/contracts/token/ERC1155/ERC1155.sol\":9440:9446  values */\n      dup6\n        /* \"@openzeppelin/contracts/token/ERC1155/ERC1155.sol\":9448:9452  data */\n      dup6\n        /* \"@openzeppelin/contracts/token/ERC1155/ERC1155.sol\":9398:9424  _updateWithAcceptanceCheck */\n      tag_138\n        /* \"@openzeppelin/contracts/token/ERC1155/ERC1155.sol\":9398:9453  _updateWithAcceptanceCheck(from, to, ids, values, data) */\n      jump\t// in\n    tag_155:\n        /* \"@openzeppelin/contracts/token/ERC1155/ERC1155.sol\":9015:9460  function _safeBatchTransferFrom(... */\n      pop\n      pop\n      pop\n      pop\n      pop\n      jump\t// out\n        /* \"@openzeppelin/contracts/utils/Arrays.sol\":4603:4800  function unsafeMemoryAccess(address[] memory arr, uint256 pos) internal pure returns (address res) {... */\n    tag_107:\n        /* \"@openzeppelin/contracts/utils/Arrays.sol\":4689:4700  address res */\n      0x00\n        /* \"@openzeppelin/contracts/utils/Arrays.sol\":4777:4781  0x20 */\n      0x20\n        /* \"@openzeppelin/contracts/utils/Arrays.sol\":4772:4775  pos */\n      dup3\n        /* \"@openzeppelin/contracts/utils/Arrays.sol\":4768:4782  mul(pos, 0x20) */\n      mul\n        /* \"@openzeppelin/contracts/utils/Arrays.sol\":4761:4765  0x20 */\n      0x20\n        /* \"@openzeppelin/contracts/utils/Arrays.sol\":4756:4759  arr */\n      dup5\n        /* \"@openzeppelin/contracts/utils/Arrays.sol\":4752:4766  add(arr, 0x20) */\n      add\n        /* \"@openzeppelin/contracts/utils/Arrays.sol\":4748:4783  add(add(arr, 0x20), mul(pos, 0x20)) */\n      add\n        /* \"@openzeppelin/contracts/utils/Arrays.sol\":4742:4784  mload(add(add(arr, 0x20), mul(pos, 0x20))) */\n      mload\n        /* \"@openzeppelin/contracts/utils/Arrays.sol\":4735:4784  res := mload(add(add(arr, 0x20), mul(pos, 0x20))) */\n      swap1\n      pop\n        /* \"@openzeppelin/contracts/utils/Arrays.sol\":4603:4800  function unsafeMemoryAccess(address[] memory arr, uint256 pos) internal pure returns (address res) {... */\n      swap3\n      swap2\n      pop\n      pop\n      jump\t// out\n        /* \"@openzeppelin/contracts/utils/Arrays.sol\":4204:4401  function unsafeMemoryAccess(uint256[] memory arr, uint256 pos) internal pure returns (uint256 res) {... */\n    tag_109:\n        /* \"@openzeppelin/contracts/utils/Arrays.sol\":4290:4301  uint256 res */\n      0x00\n        /* \"@openzeppelin/contracts/utils/Arrays.sol\":4378:4382  0x20 */\n      0x20\n        /* \"@openzeppelin/contracts/utils/Arrays.sol\":4373:4376  pos */\n      dup3\n        /* \"@openzeppelin/contracts/utils/Arrays.sol\":4369:4383  mul(pos, 0x20) */\n      mul\n        /* \"@openzeppelin/contracts/utils/Arrays.sol\":4362:4366  0x20 */\n      0x20\n        /* \"@openzeppelin/contracts/utils/Arrays.sol\":4357:4360  arr */\n      dup5\n        /* \"@openzeppelin/contracts/utils/Arrays.sol\":4353:4367  add(arr, 0x20) */\n      add\n        /* \"@openzeppelin/contracts/utils/Arrays.sol\":4349:4384  add(add(arr, 0x20), mul(pos, 0x20)) */\n      add\n        /* \"@openzeppelin/contracts/utils/Arrays.sol\":4343:4385  mload(add(add(arr, 0x20), mul(pos, 0x20))) */\n      mload\n        /* \"@openzeppelin/contracts/utils/Arrays.sol\":4336:4385  res := mload(add(add(arr, 0x20), mul(pos, 0x20))) */\n      swap1\n      pop\n        /* \"@openzeppelin/contracts/utils/Arrays.sol\":4204:4401  function unsafeMemoryAccess(uint256[] memory arr, uint256 pos) internal pure returns (uint256 res) {... */\n      swap3\n      swap2\n      pop\n      pop\n      jump\t// out\n        /* \"@openzeppelin/contracts/token/ERC1155/ERC1155.sol\":13268:13583  function _setApprovalForAll(address owner, address operator, bool approved) internal virtual {... */\n    tag_118:\n        /* \"@openzeppelin/contracts/token/ERC1155/ERC1155.sol\":13395:13396  0 */\n      0x00\n        /* \"@openzeppelin/contracts/token/ERC1155/ERC1155.sol\":13375:13397  operator == address(0) */\n      0xffffffffffffffffffffffffffffffffffffffff\n      and\n        /* \"@openzeppelin/contracts/token/ERC1155/ERC1155.sol\":13375:13383  operator */\n      dup3\n        /* \"@openzeppelin/contracts/token/ERC1155/ERC1155.sol\":13375:13397  operator == address(0) */\n      0xffffffffffffffffffffffffffffffffffffffff\n      and\n      sub\n        /* \"@openzeppelin/contracts/token/ERC1155/ERC1155.sol\":13371:13465  if (operator == address(0)) {... */\n      tag_159\n      jumpi\n        /* \"@openzeppelin/contracts/token/ERC1155/ERC1155.sol\":13451:13452  0 */\n      0x00\n        /* \"@openzeppelin/contracts/token/ERC1155/ERC1155.sol\":13420:13454  ERC1155InvalidOperator(address(0)) */\n      mload(0x40)\n      0xced3e10000000000000000000000000000000000000000000000000000000000\n      dup2\n      mstore\n      0x04\n      add\n      tag_160\n      swap2\n      swap1\n      tag_134\n      jump\t// in\n    tag_160:\n      mload(0x40)\n      dup1\n      swap2\n      sub\n      swap1\n      revert\n        /* \"@openzeppelin/contracts/token/ERC1155/ERC1155.sol\":13371:13465  if (operator == address(0)) {... */\n    tag_159:\n        /* \"@openzeppelin/contracts/token/ERC1155/ERC1155.sol\":13512:13520  approved */\n      dup1\n        /* \"@openzeppelin/contracts/token/ERC1155/ERC1155.sol\":13474:13492  _operatorApprovals */\n      0x01\n        /* \"@openzeppelin/contracts/token/ERC1155/ERC1155.sol\":13474:13499  _operatorApprovals[owner] */\n      0x00\n        /* \"@openzeppelin/contracts/token/ERC1155/ERC1155.sol\":13493:13498  owner */\n      dup6\n        /* \"@openzeppelin/contracts/token/ERC1155/ERC1155.sol\":13474:13499  _operatorApprovals[owner] */\n      0xffffffffffffffffffffffffffffffffffffffff\n      and\n      0xffffffffffffffffffffffffffffffffffffffff\n      and\n      dup2\n      mstore\n      0x20\n      add\n      swap1\n      dup2\n      mstore\n      0x20\n      add\n      0x00\n      keccak256\n        /* \"@openzeppelin/contracts/token/ERC1155/ERC1155.sol\":13474:13509  _operatorApprovals[owner][operator] */\n      0x00\n        /* \"@openzeppelin/contracts/token/ERC1155/ERC1155.sol\":13500:13508  operator */\n      dup5\n        /* \"@openzeppelin/contracts/token/ERC1155/ERC1155.sol\":13474:13509  _operatorApprovals[owner][operator] */\n      0xffffffffffffffffffffffffffffffffffffffff\n      and\n      0xffffffffffffffffffffffffffffffffffffffff\n      and\n      dup2\n      mstore\n      0x20\n      add\n      swap1\n      dup2\n      mstore\n      0x20\n      add\n      0x00\n      keccak256\n      0x00\n        /* \"@openzeppelin/contracts/token/ERC1155/ERC1155.sol\":13474:13520  _operatorApprovals[owner][operator] = approved */\n      0x0100\n      exp\n      dup2\n      sload\n      dup2\n      0xff\n      mul\n      not\n      and\n      swap1\n      dup4\n      iszero\n      iszero\n      mul\n      or\n      swap1\n      sstore\n      pop\n        /* \"@openzeppelin/contracts/token/ERC1155/ERC1155.sol\":13557:13565  operator */\n      dup2\n        /* \"@openzeppelin/contracts/token/ERC1155/ERC1155.sol\":13535:13576  ApprovalForAll(owner, operator, approved) */\n      0xffffffffffffffffffffffffffffffffffffffff\n      and\n        /* \"@openzeppelin/contracts/token/ERC1155/ERC1155.sol\":13550:13555  owner */\n      dup4\n        /* \"@openzeppelin/contracts/token/ERC1155/ERC1155.sol\":13535:13576  ApprovalForAll(owner, operator, approved) */\n      0xffffffffffffffffffffffffffffffffffffffff\n      and\n      0x17307eab39ab6107e8899845ad3d59bd9653f200f220920489ca2b5937696c31\n        /* \"@openzeppelin/contracts/token/ERC1155/ERC1155.sol\":13567:13575  approved */\n      dup4\n        /* \"@openzeppelin/contracts/token/ERC1155/ERC1155.sol\":13535:13576  ApprovalForAll(owner, operator, approved) */\n      mload(0x40)\n      tag_161\n      swap2\n      swap1\n      tag_25\n      jump\t// in\n    tag_161:\n      mload(0x40)\n      dup1\n      swap2\n      sub\n      swap1\n      log3\n        /* \"@openzeppelin/contracts/token/ERC1155/ERC1155.sol\":13268:13583  function _setApprovalForAll(address owner, address operator, bool approved) internal virtual {... */\n      pop\n      pop\n      pop\n      jump\t// out\n        /* \"@openzeppelin/contracts/token/ERC1155/ERC1155.sol\":8151:8614  function _safeTransferFrom(address from, address to, uint256 id, uint256 value, bytes memory data) internal {... */\n    tag_127:\n        /* \"@openzeppelin/contracts/token/ERC1155/ERC1155.sol\":8287:8288  0 */\n      0x00\n        /* \"@openzeppelin/contracts/token/ERC1155/ERC1155.sol\":8273:8289  to == address(0) */\n      0xffffffffffffffffffffffffffffffffffffffff\n      and\n        /* \"@openzeppelin/contracts/token/ERC1155/ERC1155.sol\":8273:8275  to */\n      dup5\n        /* \"@openzeppelin/contracts/token/ERC1155/ERC1155.sol\":8273:8289  to == address(0) */\n      0xffffffffffffffffffffffffffffffffffffffff\n      and\n      sub\n        /* \"@openzeppelin/contracts/token/ERC1155/ERC1155.sol\":8269:8357  if (to == address(0)) {... */\n      tag_163\n      jumpi\n        /* \"@openzeppelin/contracts/token/ERC1155/ERC1155.sol\":8343:8344  0 */\n      0x00\n        /* \"@openzeppelin/contracts/token/ERC1155/ERC1155.sol\":8312:8346  ERC1155InvalidReceiver(address(0)) */\n      mload(0x40)\n      0x57f447ce00000000000000000000000000000000000000000000000000000000\n      dup2\n      mstore\n      0x04\n      add\n      tag_164\n      swap2\n      swap1\n      tag_134\n      jump\t// in\n    tag_164:\n      mload(0x40)\n      dup1\n      swap2\n      sub\n      swap1\n      revert\n        /* \"@openzeppelin/contracts/token/ERC1155/ERC1155.sol\":8269:8357  if (to == address(0)) {... */\n    tag_163:\n        /* \"@openzeppelin/contracts/token/ERC1155/ERC1155.sol\":8386:8387  0 */\n      0x00\n        /* \"@openzeppelin/contracts/token/ERC1155/ERC1155.sol\":8370:8388  from == address(0) */\n      0xffffffffffffffffffffffffffffffffffffffff\n      and\n        /* \"@openzeppelin/contracts/token/ERC1155/ERC1155.sol\":8370:8374  from */\n      dup6\n        /* \"@openzeppelin/contracts/token/ERC1155/ERC1155.sol\":8370:8388  from == address(0) */\n      0xffffffffffffffffffffffffffffffffffffffff\n      and\n      sub\n        /* \"@openzeppelin/contracts/token/ERC1155/ERC1155.sol\":8366:8454  if (from == address(0)) {... */\n      tag_165\n      jumpi\n        /* \"@openzeppelin/contracts/token/ERC1155/ERC1155.sol\":8440:8441  0 */\n      0x00\n        /* \"@openzeppelin/contracts/token/ERC1155/ERC1155.sol\":8411:8443  ERC1155InvalidSender(address(0)) */\n      mload(0x40)\n      0x01a8351400000000000000000000000000000000000000000000000000000000\n      dup2\n      mstore\n      0x04\n      add\n      tag_166\n      swap2\n      swap1\n      tag_134\n      jump\t// in\n    tag_166:\n      mload(0x40)\n      dup1\n      swap2\n      sub\n      swap1\n      revert\n        /* \"@openzeppelin/contracts/token/ERC1155/ERC1155.sol\":8366:8454  if (from == address(0)) {... */\n    tag_165:\n        /* \"@openzeppelin/contracts/token/ERC1155/ERC1155.sol\":8464:8484  uint256[] memory ids */\n      0x00\n        /* \"@openzeppelin/contracts/token/ERC1155/ERC1155.sol\":8486:8509  uint256[] memory values */\n      dup1\n        /* \"@openzeppelin/contracts/token/ERC1155/ERC1155.sol\":8513:8542  _asSingletonArrays(id, value) */\n      tag_167\n        /* \"@openzeppelin/contracts/token/ERC1155/ERC1155.sol\":8532:8534  id */\n      dup6\n        /* \"@openzeppelin/contracts/token/ERC1155/ERC1155.sol\":8536:8541  value */\n      dup6\n        /* \"@openzeppelin/contracts/token/ERC1155/ERC1155.sol\":8513:8531  _asSingletonArrays */\n      tag_136\n        /* \"@openzeppelin/contracts/token/ERC1155/ERC1155.sol\":8513:8542  _asSingletonArrays(id, value) */\n      jump\t// in\n    tag_167:\n        /* \"@openzeppelin/contracts/token/ERC1155/ERC1155.sol\":8463:8542  (uint256[] memory ids, uint256[] memory values) = _asSingletonArrays(id, value) */\n      swap2\n      pop\n      swap2\n      pop\n        /* \"@openzeppelin/contracts/token/ERC1155/ERC1155.sol\":8552:8607  _updateWithAcceptanceCheck(from, to, ids, values, data) */\n      tag_168\n        /* \"@openzeppelin/contracts/token/ERC1155/ERC1155.sol\":8579:8583  from */\n      dup8\n        /* \"@openzeppelin/contracts/token/ERC1155/ERC1155.sol\":8585:8587  to */\n      dup8\n        /* \"@openzeppelin/contracts/token/ERC1155/ERC1155.sol\":8589:8592  ids */\n      dup5\n        /* \"@openzeppelin/contracts/token/ERC1155/ERC1155.sol\":8594:8600  values */\n      dup5\n        /* \"@openzeppelin/contracts/token/ERC1155/ERC1155.sol\":8602:8606  data */\n      dup8\n        /* \"@openzeppelin/contracts/token/ERC1155/ERC1155.sol\":8552:8578  _updateWithAcceptanceCheck */\n      tag_138\n        /* \"@openzeppelin/contracts/token/ERC1155/ERC1155.sol\":8552:8607  _updateWithAcceptanceCheck(from, to, ids, values, data) */\n      jump\t// in\n    tag_168:\n        /* \"@openzeppelin/contracts/token/ERC1155/ERC1155.sol\":8259:8614  {... */\n      pop\n      pop\n        /* \"@openzeppelin/contracts/token/ERC1155/ERC1155.sol\":8151:8614  function _safeTransferFrom(address from, address to, uint256 id, uint256 value, bytes memory data) internal {... */\n      pop\n      pop\n      pop\n      pop\n      pop\n      jump\t// out\n        /* \"@openzeppelin/contracts/token/ERC1155/ERC1155.sol\":16080:16929  function _asSingletonArrays(... */\n    tag_136:\n        /* \"@openzeppelin/contracts/token/ERC1155/ERC1155.sol\":16188:16211  uint256[] memory array1 */\n      0x60\n        /* \"@openzeppelin/contracts/token/ERC1155/ERC1155.sol\":16213:16236  uint256[] memory array2 */\n      dup1\n        /* \"@openzeppelin/contracts/token/ERC1155/ERC1155.sol\":16374:16378  0x40 */\n      0x40\n        /* \"@openzeppelin/contracts/token/ERC1155/ERC1155.sol\":16368:16379  mload(0x40) */\n      mload\n        /* \"@openzeppelin/contracts/token/ERC1155/ERC1155.sol\":16358:16379  array1 := mload(0x40) */\n      swap2\n      pop\n        /* \"@openzeppelin/contracts/token/ERC1155/ERC1155.sol\":16444:16445  1 */\n      0x01\n        /* \"@openzeppelin/contracts/token/ERC1155/ERC1155.sol\":16436:16442  array1 */\n      dup3\n        /* \"@openzeppelin/contracts/token/ERC1155/ERC1155.sol\":16429:16446  mstore(array1, 1) */\n      mstore\n        /* \"@openzeppelin/contracts/token/ERC1155/ERC1155.sol\":16582:16590  element1 */\n      dup4\n        /* \"@openzeppelin/contracts/token/ERC1155/ERC1155.sol\":16575:16579  0x20 */\n      0x20\n        /* \"@openzeppelin/contracts/token/ERC1155/ERC1155.sol\":16567:16573  array1 */\n      dup4\n        /* \"@openzeppelin/contracts/token/ERC1155/ERC1155.sol\":16563:16580  add(array1, 0x20) */\n      add\n        /* \"@openzeppelin/contracts/token/ERC1155/ERC1155.sol\":16556:16591  mstore(add(array1, 0x20), element1) */\n      mstore\n        /* \"@openzeppelin/contracts/token/ERC1155/ERC1155.sol\":16704:16708  0x40 */\n      0x40\n        /* \"@openzeppelin/contracts/token/ERC1155/ERC1155.sol\":16696:16702  array1 */\n      dup3\n        /* \"@openzeppelin/contracts/token/ERC1155/ERC1155.sol\":16692:16709  add(array1, 0x40) */\n      add\n        /* \"@openzeppelin/contracts/token/ERC1155/ERC1155.sol\":16682:16709  array2 := add(array1, 0x40) */\n      swap1\n      pop\n        /* \"@openzeppelin/contracts/token/ERC1155/ERC1155.sol\":16737:16738  1 */\n      0x01\n        /* \"@openzeppelin/contracts/token/ERC1155/ERC1155.sol\":16729:16735  array2 */\n      dup2\n        /* \"@openzeppelin/contracts/token/ERC1155/ERC1155.sol\":16722:16739  mstore(array2, 1) */\n      mstore\n        /* \"@openzeppelin/contracts/token/ERC1155/ERC1155.sol\":16778:16786  element2 */\n      dup3\n        /* \"@openzeppelin/contracts/token/ERC1155/ERC1155.sol\":16771:16775  0x20 */\n      0x20\n        /* \"@openzeppelin/contracts/token/ERC1155/ERC1155.sol\":16763:16769  array2 */\n      dup3\n        /* \"@openzeppelin/contracts/token/ERC1155/ERC1155.sol\":16759:16776  add(array2, 0x20) */\n      add\n        /* \"@openzeppelin/contracts/token/ERC1155/ERC1155.sol\":16752:16787  mstore(add(array2, 0x20), element2) */\n      mstore\n        /* \"@openzeppelin/contracts/token/ERC1155/ERC1155.sol\":16907:16911  0x40 */\n      0x40\n        /* \"@openzeppelin/contracts/token/ERC1155/ERC1155.sol\":16899:16905  array2 */\n      dup2\n        /* \"@openzeppelin/contracts/token/ERC1155/ERC1155.sol\":16895:16912  add(array2, 0x40) */\n      add\n        /* \"@openzeppelin/contracts/token/ERC1155/ERC1155.sol\":16889:16893  0x40 */\n      0x40\n        /* \"@openzeppelin/contracts/token/ERC1155/ERC1155.sol\":16882:16913  mstore(0x40, add(array2, 0x40)) */\n      mstore\n        /* \"@openzeppelin/contracts/token/ERC1155/ERC1155.sol\":16080:16929  function _asSingletonArrays(... */\n      swap3\n      pop\n      swap3\n      swap1\n      pop\n      jump\t// out\n        /* \"@openzeppelin/contracts/token/ERC1155/ERC1155.sol\":7004:7694  function _updateWithAcceptanceCheck(... */\n    tag_138:\n        /* \"@openzeppelin/contracts/token/ERC1155/ERC1155.sol\":7205:7235  _update(from, to, ids, values) */\n      tag_171\n        /* \"@openzeppelin/contracts/token/ERC1155/ERC1155.sol\":7213:7217  from */\n      dup6\n        /* \"@openzeppelin/contracts/token/ERC1155/ERC1155.sol\":7219:7221  to */\n      dup6\n        /* \"@openzeppelin/contracts/token/ERC1155/ERC1155.sol\":7223:7226  ids */\n      dup6\n        /* \"@openzeppelin/contracts/token/ERC1155/ERC1155.sol\":7228:7234  values */\n      dup6\n        /* \"@openzeppelin/contracts/token/ERC1155/ERC1155.sol\":7205:7212  _update */\n      tag_172\n        /* \"@openzeppelin/contracts/token/ERC1155/ERC1155.sol\":7205:7235  _update(from, to, ids, values) */\n      jump\t// in\n    tag_171:\n        /* \"@openzeppelin/contracts/token/ERC1155/ERC1155.sol\":7263:7264  0 */\n      0x00\n        /* \"@openzeppelin/contracts/token/ERC1155/ERC1155.sol\":7249:7265  to != address(0) */\n      0xffffffffffffffffffffffffffffffffffffffff\n      and\n        /* \"@openzeppelin/contracts/token/ERC1155/ERC1155.sol\":7249:7251  to */\n      dup5\n        /* \"@openzeppelin/contracts/token/ERC1155/ERC1155.sol\":7249:7265  to != address(0) */\n      0xffffffffffffffffffffffffffffffffffffffff\n      and\n      eq\n        /* \"@openzeppelin/contracts/token/ERC1155/ERC1155.sol\":7245:7688  if (to != address(0)) {... */\n      tag_173\n      jumpi\n        /* \"@openzeppelin/contracts/token/ERC1155/ERC1155.sol\":7281:7297  address operator */\n      0x00\n        /* \"@openzeppelin/contracts/token/ERC1155/ERC1155.sol\":7300:7312  _msgSender() */\n      tag_174\n        /* \"@openzeppelin/contracts/token/ERC1155/ERC1155.sol\":7300:7310  _msgSender */\n      tag_86\n        /* \"@openzeppelin/contracts/token/ERC1155/ERC1155.sol\":7300:7312  _msgSender() */\n      jump\t// in\n    tag_174:\n        /* \"@openzeppelin/contracts/token/ERC1155/ERC1155.sol\":7281:7312  address operator = _msgSender() */\n      swap1\n      pop\n        /* \"@openzeppelin/contracts/token/ERC1155/ERC1155.sol\":7344:7345  1 */\n      0x01\n        /* \"@openzeppelin/contracts/token/ERC1155/ERC1155.sol\":7330:7333  ids */\n      dup5\n        /* \"@openzeppelin/contracts/token/ERC1155/ERC1155.sol\":7330:7340  ids.length */\n      mload\n        /* \"@openzeppelin/contracts/token/ERC1155/ERC1155.sol\":7330:7345  ids.length == 1 */\n      sub\n        /* \"@openzeppelin/contracts/token/ERC1155/ERC1155.sol\":7326:7678  if (ids.length == 1) {... */\n      tag_175\n      jumpi\n        /* \"@openzeppelin/contracts/token/ERC1155/ERC1155.sol\":7365:7375  uint256 id */\n      0x00\n        /* \"@openzeppelin/contracts/token/ERC1155/ERC1155.sol\":7378:7403  ids.unsafeMemoryAccess(0) */\n      tag_176\n        /* \"@openzeppelin/contracts/token/ERC1155/ERC1155.sol\":7401:7402  0 */\n      0x00\n        /* \"@openzeppelin/contracts/token/ERC1155/ERC1155.sol\":7378:7381  ids */\n      dup7\n        /* \"@openzeppelin/contracts/token/ERC1155/ERC1155.sol\":7378:7400  ids.unsafeMemoryAccess */\n      tag_109\n      swap1\n        /* \"@openzeppelin/contracts/token/ERC1155/ERC1155.sol\":7378:7403  ids.unsafeMemoryAccess(0) */\n      swap2\n      swap1\n      0xffffffff\n      and\n      jump\t// in\n    tag_176:\n        /* \"@openzeppelin/contracts/token/ERC1155/ERC1155.sol\":7365:7403  uint256 id = ids.unsafeMemoryAccess(0) */\n      swap1\n      pop\n        /* \"@openzeppelin/contracts/token/ERC1155/ERC1155.sol\":7421:7434  uint256 value */\n      0x00\n        /* \"@openzeppelin/contracts/token/ERC1155/ERC1155.sol\":7437:7465  values.unsafeMemoryAccess(0) */\n      tag_177\n        /* \"@openzeppelin/contracts/token/ERC1155/ERC1155.sol\":7463:7464  0 */\n      0x00\n        /* \"@openzeppelin/contracts/token/ERC1155/ERC1155.sol\":7437:7443  values */\n      dup7\n        /* \"@openzeppelin/contracts/token/ERC1155/ERC1155.sol\":7437:7462  values.unsafeMemoryAccess */\n      tag_109\n      swap1\n        /* \"@openzeppelin/contracts/token/ERC1155/ERC1155.sol\":7437:7465  values.unsafeMemoryAccess(0) */\n      swap2\n      swap1\n      0xffffffff\n      and\n      jump\t// in\n    tag_177:\n        /* \"@openzeppelin/contracts/token/ERC1155/ERC1155.sol\":7421:7465  uint256 value = values.unsafeMemoryAccess(0) */\n      swap1\n      pop\n        /* \"@openzeppelin/contracts/token/ERC1155/ERC1155.sol\":7483:7550  _doSafeTransferAcceptanceCheck(operator, from, to, id, value, data) */\n      tag_178\n        /* \"@openzeppelin/contracts/token/ERC1155/ERC1155.sol\":7514:7522  operator */\n      dup4\n        /* \"@openzeppelin/contracts/token/ERC1155/ERC1155.sol\":7524:7528  from */\n      dup10\n        /* \"@openzeppelin/contracts/token/ERC1155/ERC1155.sol\":7530:7532  to */\n      dup10\n        /* \"@openzeppelin/contracts/token/ERC1155/ERC1155.sol\":7534:7536  id */\n      dup6\n        /* \"@openzeppelin/contracts/token/ERC1155/ERC1155.sol\":7538:7543  value */\n      dup6\n        /* \"@openzeppelin/contracts/token/ERC1155/ERC1155.sol\":7545:7549  data */\n      dup10\n        /* \"@openzeppelin/contracts/token/ERC1155/ERC1155.sol\":7483:7513  _doSafeTransferAcceptanceCheck */\n      tag_179\n        /* \"@openzeppelin/contracts/token/ERC1155/ERC1155.sol\":7483:7550  _doSafeTransferAcceptanceCheck(operator, from, to, id, value, data) */\n      jump\t// in\n    tag_178:\n        /* \"@openzeppelin/contracts/token/ERC1155/ERC1155.sol\":7347:7565  {... */\n      pop\n      pop\n        /* \"@openzeppelin/contracts/token/ERC1155/ERC1155.sol\":7326:7678  if (ids.length == 1) {... */\n      jump(tag_180)\n    tag_175:\n        /* \"@openzeppelin/contracts/token/ERC1155/ERC1155.sol\":7589:7663  _doSafeBatchTransferAcceptanceCheck(operator, from, to, ids, values, data) */\n      tag_181\n        /* \"@openzeppelin/contracts/token/ERC1155/ERC1155.sol\":7625:7633  operator */\n      dup2\n        /* \"@openzeppelin/contracts/token/ERC1155/ERC1155.sol\":7635:7639  from */\n      dup8\n        /* \"@openzeppelin/contracts/token/ERC1155/ERC1155.sol\":7641:7643  to */\n      dup8\n        /* \"@openzeppelin/contracts/token/ERC1155/ERC1155.sol\":7645:7648  ids */\n      dup8\n        /* \"@openzeppelin/contracts/token/ERC1155/ERC1155.sol\":7650:7656  values */\n      dup8\n        /* \"@openzeppelin/contracts/token/ERC1155/ERC1155.sol\":7658:7662  data */\n      dup8\n        /* \"@openzeppelin/contracts/token/ERC1155/ERC1155.sol\":7589:7624  _doSafeBatchTransferAcceptanceCheck */\n      tag_182\n        /* \"@openzeppelin/contracts/token/ERC1155/ERC1155.sol\":7589:7663  _doSafeBatchTransferAcceptanceCheck(operator, from, to, ids, values, data) */\n      jump\t// in\n    tag_181:\n        /* \"@openzeppelin/contracts/token/ERC1155/ERC1155.sol\":7326:7678  if (ids.length == 1) {... */\n    tag_180:\n        /* \"@openzeppelin/contracts/token/ERC1155/ERC1155.sol\":7267:7688  {... */\n      pop\n        /* \"@openzeppelin/contracts/token/ERC1155/ERC1155.sol\":7245:7688  if (to != address(0)) {... */\n    tag_173:\n        /* \"@openzeppelin/contracts/token/ERC1155/ERC1155.sol\":7004:7694  function _updateWithAcceptanceCheck(... */\n      pop\n      pop\n      pop\n      pop\n      pop\n      jump\t// out\n        /* \"@openzeppelin/contracts/token/ERC1155/ERC1155.sol\":5144:6425  function _update(address from, address to, uint256[] memory ids, uint256[] memory values) internal virtual {... */\n    tag_172:\n        /* \"@openzeppelin/contracts/token/ERC1155/ERC1155.sol\":5279:5285  values */\n      dup1\n        /* \"@openzeppelin/contracts/token/ERC1155/ERC1155.sol\":5279:5292  values.length */\n      mload\n        /* \"@openzeppelin/contracts/token/ERC1155/ERC1155.sol\":5265:5268  ids */\n      dup3\n        /* \"@openzeppelin/contracts/token/ERC1155/ERC1155.sol\":5265:5275  ids.length */\n      mload\n        /* \"@openzeppelin/contracts/token/ERC1155/ERC1155.sol\":5265:5292  ids.length != values.length */\n      eq\n        /* \"@openzeppelin/contracts/token/ERC1155/ERC1155.sol\":5261:5378  if (ids.length != values.length) {... */\n      tag_184\n      jumpi\n        /* \"@openzeppelin/contracts/token/ERC1155/ERC1155.sol\":5341:5344  ids */\n      dup2\n        /* \"@openzeppelin/contracts/token/ERC1155/ERC1155.sol\":5341:5351  ids.length */\n      mload\n        /* \"@openzeppelin/contracts/token/ERC1155/ERC1155.sol\":5353:5359  values */\n      dup2\n        /* \"@openzeppelin/contracts/token/ERC1155/ERC1155.sol\":5353:5366  values.length */\n      mload\n        /* \"@openzeppelin/contracts/token/ERC1155/ERC1155.sol\":5315:5367  ERC1155InvalidArrayLength(ids.length, values.length) */\n      mload(0x40)\n      0x5b05999100000000000000000000000000000000000000000000000000000000\n      dup2\n      mstore\n      0x04\n      add\n      tag_185\n      swap3\n      swap2\n      swap1\n      tag_97\n      jump\t// in\n    tag_185:\n      mload(0x40)\n      dup1\n      swap2\n      sub\n      swap1\n      revert\n        /* \"@openzeppelin/contracts/token/ERC1155/ERC1155.sol\":5261:5378  if (ids.length != values.length) {... */\n    tag_184:\n        /* \"@openzeppelin/contracts/token/ERC1155/ERC1155.sol\":5388:5404  address operator */\n      0x00\n        /* \"@openzeppelin/contracts/token/ERC1155/ERC1155.sol\":5407:5419  _msgSender() */\n      tag_186\n        /* \"@openzeppelin/contracts/token/ERC1155/ERC1155.sol\":5407:5417  _msgSender */\n      tag_86\n        /* \"@openzeppelin/contracts/token/ERC1155/ERC1155.sol\":5407:5419  _msgSender() */\n      jump\t// in\n    tag_186:\n        /* \"@openzeppelin/contracts/token/ERC1155/ERC1155.sol\":5388:5419  address operator = _msgSender() */\n      swap1\n      pop\n        /* \"@openzeppelin/contracts/token/ERC1155/ERC1155.sol\":5435:5444  uint256 i */\n      0x00\n        /* \"@openzeppelin/contracts/token/ERC1155/ERC1155.sol\":5430:6121  for (uint256 i = 0; i < ids.length; ++i) {... */\n    tag_187:\n        /* \"@openzeppelin/contracts/token/ERC1155/ERC1155.sol\":5454:5457  ids */\n      dup4\n        /* \"@openzeppelin/contracts/token/ERC1155/ERC1155.sol\":5454:5464  ids.length */\n      mload\n        /* \"@openzeppelin/contracts/token/ERC1155/ERC1155.sol\":5450:5451  i */\n      dup2\n        /* \"@openzeppelin/contracts/token/ERC1155/ERC1155.sol\":5450:5464  i < ids.length */\n      lt\n        /* \"@openzeppelin/contracts/token/ERC1155/ERC1155.sol\":5430:6121  for (uint256 i = 0; i < ids.length; ++i) {... */\n      iszero\n      tag_188\n      jumpi\n        /* \"@openzeppelin/contracts/token/ERC1155/ERC1155.sol\":5485:5495  uint256 id */\n      0x00\n        /* \"@openzeppelin/contracts/token/ERC1155/ERC1155.sol\":5498:5523  ids.unsafeMemoryAccess(i) */\n      tag_190\n        /* \"@openzeppelin/contracts/token/ERC1155/ERC1155.sol\":5521:5522  i */\n      dup3\n        /* \"@openzeppelin/contracts/token/ERC1155/ERC1155.sol\":5498:5501  ids */\n      dup7\n        /* \"@openzeppelin/contracts/token/ERC1155/ERC1155.sol\":5498:5520  ids.unsafeMemoryAccess */\n      tag_109\n      swap1\n        /* \"@openzeppelin/contracts/token/ERC1155/ERC1155.sol\":5498:5523  ids.unsafeMemoryAccess(i) */\n      swap2\n      swap1\n      0xffffffff\n      and\n      jump\t// in\n    tag_190:\n        /* \"@openzeppelin/contracts/token/ERC1155/ERC1155.sol\":5485:5523  uint256 id = ids.unsafeMemoryAccess(i) */\n      swap1\n      pop\n        /* \"@openzeppelin/contracts/token/ERC1155/ERC1155.sol\":5537:5550  uint256 value */\n      0x00\n        /* \"@openzeppelin/contracts/token/ERC1155/ERC1155.sol\":5553:5581  values.unsafeMemoryAccess(i) */\n      tag_191\n        /* \"@openzeppelin/contracts/token/ERC1155/ERC1155.sol\":5579:5580  i */\n      dup4\n        /* \"@openzeppelin/contracts/token/ERC1155/ERC1155.sol\":5553:5559  values */\n      dup7\n        /* \"@openzeppelin/contracts/token/ERC1155/ERC1155.sol\":5553:5578  values.unsafeMemoryAccess */\n      tag_109\n      swap1\n        /* \"@openzeppelin/contracts/token/ERC1155/ERC1155.sol\":5553:5581  values.unsafeMemoryAccess(i) */\n      swap2\n      swap1\n      0xffffffff\n      and\n      jump\t// in\n    tag_191:\n        /* \"@openzeppelin/contracts/token/ERC1155/ERC1155.sol\":5537:5581  uint256 value = values.unsafeMemoryAccess(i) */\n      swap1\n      pop\n        /* \"@openzeppelin/contracts/token/ERC1155/ERC1155.sol\":5616:5617  0 */\n      0x00\n        /* \"@openzeppelin/contracts/token/ERC1155/ERC1155.sol\":5600:5618  from != address(0) */\n      0xffffffffffffffffffffffffffffffffffffffff\n      and\n        /* \"@openzeppelin/contracts/token/ERC1155/ERC1155.sol\":5600:5604  from */\n      dup9\n        /* \"@openzeppelin/contracts/token/ERC1155/ERC1155.sol\":5600:5618  from != address(0) */\n      0xffffffffffffffffffffffffffffffffffffffff\n      and\n      eq\n        /* \"@openzeppelin/contracts/token/ERC1155/ERC1155.sol\":5596:6016  if (from != address(0)) {... */\n      tag_192\n      jumpi\n        /* \"@openzeppelin/contracts/token/ERC1155/ERC1155.sol\":5638:5657  uint256 fromBalance */\n      0x00\n        /* \"@openzeppelin/contracts/token/ERC1155/ERC1155.sol\":5660:5669  _balances */\n      dup1\n        /* \"@openzeppelin/contracts/token/ERC1155/ERC1155.sol\":5660:5673  _balances[id] */\n      0x00\n        /* \"@openzeppelin/contracts/token/ERC1155/ERC1155.sol\":5670:5672  id */\n      dup5\n        /* \"@openzeppelin/contracts/token/ERC1155/ERC1155.sol\":5660:5673  _balances[id] */\n      dup2\n      mstore\n      0x20\n      add\n      swap1\n      dup2\n      mstore\n      0x20\n      add\n      0x00\n      keccak256\n        /* \"@openzeppelin/contracts/token/ERC1155/ERC1155.sol\":5660:5679  _balances[id][from] */\n      0x00\n        /* \"@openzeppelin/contracts/token/ERC1155/ERC1155.sol\":5674:5678  from */\n      dup11\n        /* \"@openzeppelin/contracts/token/ERC1155/ERC1155.sol\":5660:5679  _balances[id][from] */\n      0xffffffffffffffffffffffffffffffffffffffff\n      and\n      0xffffffffffffffffffffffffffffffffffffffff\n      and\n      dup2\n      mstore\n      0x20\n      add\n      swap1\n      dup2\n      mstore\n      0x20\n      add\n      0x00\n      keccak256\n      sload\n        /* \"@openzeppelin/contracts/token/ERC1155/ERC1155.sol\":5638:5679  uint256 fromBalance = _balances[id][from] */\n      swap1\n      pop\n        /* \"@openzeppelin/contracts/token/ERC1155/ERC1155.sol\":5715:5720  value */\n      dup2\n        /* \"@openzeppelin/contracts/token/ERC1155/ERC1155.sol\":5701:5712  fromBalance */\n      dup2\n        /* \"@openzeppelin/contracts/token/ERC1155/ERC1155.sol\":5701:5720  fromBalance < value */\n      lt\n        /* \"@openzeppelin/contracts/token/ERC1155/ERC1155.sol\":5697:5826  if (fromBalance < value) {... */\n      iszero\n      tag_193\n      jumpi\n        /* \"@openzeppelin/contracts/token/ERC1155/ERC1155.sol\":5778:5782  from */\n      dup9\n        /* \"@openzeppelin/contracts/token/ERC1155/ERC1155.sol\":5784:5795  fromBalance */\n      dup2\n        /* \"@openzeppelin/contracts/token/ERC1155/ERC1155.sol\":5797:5802  value */\n      dup4\n        /* \"@openzeppelin/contracts/token/ERC1155/ERC1155.sol\":5804:5806  id */\n      dup6\n        /* \"@openzeppelin/contracts/token/ERC1155/ERC1155.sol\":5751:5807  ERC1155InsufficientBalance(from, fromBalance, value, id) */\n      mload(0x40)\n      0x03dee4c500000000000000000000000000000000000000000000000000000000\n      dup2\n      mstore\n      0x04\n      add\n      tag_194\n      swap5\n      swap4\n      swap3\n      swap2\n      swap1\n      tag_195\n      jump\t// in\n    tag_194:\n      mload(0x40)\n      dup1\n      swap2\n      sub\n      swap1\n      revert\n        /* \"@openzeppelin/contracts/token/ERC1155/ERC1155.sol\":5697:5826  if (fromBalance < value) {... */\n    tag_193:\n        /* \"@openzeppelin/contracts/token/ERC1155/ERC1155.sol\":5978:5983  value */\n      dup2\n        /* \"@openzeppelin/contracts/token/ERC1155/ERC1155.sol\":5964:5975  fromBalance */\n      dup2\n        /* \"@openzeppelin/contracts/token/ERC1155/ERC1155.sol\":5964:5983  fromBalance - value */\n      sub\n        /* \"@openzeppelin/contracts/token/ERC1155/ERC1155.sol\":5942:5951  _balances */\n      0x00\n        /* \"@openzeppelin/contracts/token/ERC1155/ERC1155.sol\":5942:5955  _balances[id] */\n      dup1\n        /* \"@openzeppelin/contracts/token/ERC1155/ERC1155.sol\":5952:5954  id */\n      dup6\n        /* \"@openzeppelin/contracts/token/ERC1155/ERC1155.sol\":5942:5955  _balances[id] */\n      dup2\n      mstore\n      0x20\n      add\n      swap1\n      dup2\n      mstore\n      0x20\n      add\n      0x00\n      keccak256\n        /* \"@openzeppelin/contracts/token/ERC1155/ERC1155.sol\":5942:5961  _balances[id][from] */\n      0x00\n        /* \"@openzeppelin/contracts/token/ERC1155/ERC1155.sol\":5956:5960  from */\n      dup12\n        /* \"@openzeppelin/contracts/token/ERC1155/ERC1155.sol\":5942:5961  _balances[id][from] */\n      0xffffffffffffffffffffffffffffffffffffffff\n      and\n      0xffffffffffffffffffffffffffffffffffffffff\n      and\n      dup2\n      mstore\n      0x20\n      add\n      swap1\n      dup2\n      mstore\n      0x20\n      add\n      0x00\n      keccak256\n        /* \"@openzeppelin/contracts/token/ERC1155/ERC1155.sol\":5942:5983  _balances[id][from] = fromBalance - value */\n      dup2\n      swap1\n      sstore\n      pop\n        /* \"@openzeppelin/contracts/token/ERC1155/ERC1155.sol\":5620:6016  {... */\n      pop\n        /* \"@openzeppelin/contracts/token/ERC1155/ERC1155.sol\":5596:6016  if (from != address(0)) {... */\n    tag_192:\n        /* \"@openzeppelin/contracts/token/ERC1155/ERC1155.sol\":6048:6049  0 */\n      0x00\n        /* \"@openzeppelin/contracts/token/ERC1155/ERC1155.sol\":6034:6050  to != address(0) */\n      0xffffffffffffffffffffffffffffffffffffffff\n      and\n        /* \"@openzeppelin/contracts/token/ERC1155/ERC1155.sol\":6034:6036  to */\n      dup8\n        /* \"@openzeppelin/contracts/token/ERC1155/ERC1155.sol\":6034:6050  to != address(0) */\n      0xffffffffffffffffffffffffffffffffffffffff\n      and\n      eq\n        /* \"@openzeppelin/contracts/token/ERC1155/ERC1155.sol\":6030:6111  if (to != address(0)) {... */\n      tag_196\n      jumpi\n        /* \"@openzeppelin/contracts/token/ERC1155/ERC1155.sol\":6091:6096  value */\n      dup1\n        /* \"@openzeppelin/contracts/token/ERC1155/ERC1155.sol\":6070:6079  _balances */\n      0x00\n        /* \"@openzeppelin/contracts/token/ERC1155/ERC1155.sol\":6070:6083  _balances[id] */\n      dup1\n        /* \"@openzeppelin/contracts/token/ERC1155/ERC1155.sol\":6080:6082  id */\n      dup5\n        /* \"@openzeppelin/contracts/token/ERC1155/ERC1155.sol\":6070:6083  _balances[id] */\n      dup2\n      mstore\n      0x20\n      add\n      swap1\n      dup2\n      mstore\n      0x20\n      add\n      0x00\n      keccak256\n        /* \"@openzeppelin/contracts/token/ERC1155/ERC1155.sol\":6070:6087  _balances[id][to] */\n      0x00\n        /* \"@openzeppelin/contracts/token/ERC1155/ERC1155.sol\":6084:6086  to */\n      dup10\n        /* \"@openzeppelin/contracts/token/ERC1155/ERC1155.sol\":6070:6087  _balances[id][to] */\n      0xffffffffffffffffffffffffffffffffffffffff\n      and\n      0xffffffffffffffffffffffffffffffffffffffff\n      and\n      dup2\n      mstore\n      0x20\n      add\n      swap1\n      dup2\n      mstore\n      0x20\n      add\n      0x00\n      keccak256\n      0x00\n        /* \"@openzeppelin/contracts/token/ERC1155/ERC1155.sol\":6070:6096  _balances[id][to] += value */\n      dup3\n      dup3\n      sload\n      tag_197\n      swap2\n      swap1\n      tag_198\n      jump\t// in\n    tag_197:\n      swap3\n      pop\n      pop\n      dup2\n      swap1\n      sstore\n      pop\n        /* \"@openzeppelin/contracts/token/ERC1155/ERC1155.sol\":6030:6111  if (to != address(0)) {... */\n    tag_196:\n        /* \"@openzeppelin/contracts/token/ERC1155/ERC1155.sol\":5471:6121  {... */\n      pop\n      pop\n        /* \"@openzeppelin/contracts/token/ERC1155/ERC1155.sol\":5466:5469  ++i */\n      dup1\n      0x01\n      add\n      swap1\n      pop\n        /* \"@openzeppelin/contracts/token/ERC1155/ERC1155.sol\":5430:6121  for (uint256 i = 0; i < ids.length; ++i) {... */\n      jump(tag_187)\n    tag_188:\n      pop\n        /* \"@openzeppelin/contracts/token/ERC1155/ERC1155.sol\":6149:6150  1 */\n      0x01\n        /* \"@openzeppelin/contracts/token/ERC1155/ERC1155.sol\":6135:6138  ids */\n      dup4\n        /* \"@openzeppelin/contracts/token/ERC1155/ERC1155.sol\":6135:6145  ids.length */\n      mload\n        /* \"@openzeppelin/contracts/token/ERC1155/ERC1155.sol\":6135:6150  ids.length == 1 */\n      sub\n        /* \"@openzeppelin/contracts/token/ERC1155/ERC1155.sol\":6131:6419  if (ids.length == 1) {... */\n      tag_199\n      jumpi\n        /* \"@openzeppelin/contracts/token/ERC1155/ERC1155.sol\":6166:6176  uint256 id */\n      0x00\n        /* \"@openzeppelin/contracts/token/ERC1155/ERC1155.sol\":6179:6204  ids.unsafeMemoryAccess(0) */\n      tag_200\n        /* \"@openzeppelin/contracts/token/ERC1155/ERC1155.sol\":6202:6203  0 */\n      0x00\n        /* \"@openzeppelin/contracts/token/ERC1155/ERC1155.sol\":6179:6182  ids */\n      dup6\n        /* \"@openzeppelin/contracts/token/ERC1155/ERC1155.sol\":6179:6201  ids.unsafeMemoryAccess */\n      tag_109\n      swap1\n        /* \"@openzeppelin/contracts/token/ERC1155/ERC1155.sol\":6179:6204  ids.unsafeMemoryAccess(0) */\n      swap2\n      swap1\n      0xffffffff\n      and\n      jump\t// in\n    tag_200:\n        /* \"@openzeppelin/contracts/token/ERC1155/ERC1155.sol\":6166:6204  uint256 id = ids.unsafeMemoryAccess(0) */\n      swap1\n      pop\n        /* \"@openzeppelin/contracts/token/ERC1155/ERC1155.sol\":6218:6231  uint256 value */\n      0x00\n        /* \"@openzeppelin/contracts/token/ERC1155/ERC1155.sol\":6234:6262  values.unsafeMemoryAccess(0) */\n      tag_201\n        /* \"@openzeppelin/contracts/token/ERC1155/ERC1155.sol\":6260:6261  0 */\n      0x00\n        /* \"@openzeppelin/contracts/token/ERC1155/ERC1155.sol\":6234:6240  values */\n      dup6\n        /* \"@openzeppelin/contracts/token/ERC1155/ERC1155.sol\":6234:6259  values.unsafeMemoryAccess */\n      tag_109\n      swap1\n        /* \"@openzeppelin/contracts/token/ERC1155/ERC1155.sol\":6234:6262  values.unsafeMemoryAccess(0) */\n      swap2\n      swap1\n      0xffffffff\n      and\n      jump\t// in\n    tag_201:\n        /* \"@openzeppelin/contracts/token/ERC1155/ERC1155.sol\":6218:6262  uint256 value = values.unsafeMemoryAccess(0) */\n      swap1\n      pop\n        /* \"@openzeppelin/contracts/token/ERC1155/ERC1155.sol\":6312:6314  to */\n      dup6\n        /* \"@openzeppelin/contracts/token/ERC1155/ERC1155.sol\":6281:6326  TransferSingle(operator, from, to, id, value) */\n      0xffffffffffffffffffffffffffffffffffffffff\n      and\n        /* \"@openzeppelin/contracts/token/ERC1155/ERC1155.sol\":6306:6310  from */\n      dup8\n        /* \"@openzeppelin/contracts/token/ERC1155/ERC1155.sol\":6281:6326  TransferSingle(operator, from, to, id, value) */\n      0xffffffffffffffffffffffffffffffffffffffff\n      and\n        /* \"@openzeppelin/contracts/token/ERC1155/ERC1155.sol\":6296:6304  operator */\n      dup5\n        /* \"@openzeppelin/contracts/token/ERC1155/ERC1155.sol\":6281:6326  TransferSingle(operator, from, to, id, value) */\n      0xffffffffffffffffffffffffffffffffffffffff\n      and\n      0xc3d58168c5ae7397731d063d5bbf3d657854427343f4c083240f7aacaa2d0f62\n        /* \"@openzeppelin/contracts/token/ERC1155/ERC1155.sol\":6316:6318  id */\n      dup6\n        /* \"@openzeppelin/contracts/token/ERC1155/ERC1155.sol\":6320:6325  value */\n      dup6\n        /* \"@openzeppelin/contracts/token/ERC1155/ERC1155.sol\":6281:6326  TransferSingle(operator, from, to, id, value) */\n      mload(0x40)\n      tag_202\n      swap3\n      swap2\n      swap1\n      tag_97\n      jump\t// in\n    tag_202:\n      mload(0x40)\n      dup1\n      swap2\n      sub\n      swap1\n      log4\n        /* \"@openzeppelin/contracts/token/ERC1155/ERC1155.sol\":6152:6337  {... */\n      pop\n      pop\n        /* \"@openzeppelin/contracts/token/ERC1155/ERC1155.sol\":6131:6419  if (ids.length == 1) {... */\n      jump(tag_203)\n    tag_199:\n        /* \"@openzeppelin/contracts/token/ERC1155/ERC1155.sol\":6392:6394  to */\n      dup4\n        /* \"@openzeppelin/contracts/token/ERC1155/ERC1155.sol\":6362:6408  TransferBatch(operator, from, to, ids, values) */\n      0xffffffffffffffffffffffffffffffffffffffff\n      and\n        /* \"@openzeppelin/contracts/token/ERC1155/ERC1155.sol\":6386:6390  from */\n      dup6\n        /* \"@openzeppelin/contracts/token/ERC1155/ERC1155.sol\":6362:6408  TransferBatch(operator, from, to, ids, values) */\n      0xffffffffffffffffffffffffffffffffffffffff\n      and\n        /* \"@openzeppelin/contracts/token/ERC1155/ERC1155.sol\":6376:6384  operator */\n      dup3\n        /* \"@openzeppelin/contracts/token/ERC1155/ERC1155.sol\":6362:6408  TransferBatch(operator, from, to, ids, values) */\n      0xffffffffffffffffffffffffffffffffffffffff\n      and\n      0x4a39dc06d4c0dbc64b70af90fd698a233a518aa5d07e595d983b8c0526c8f7fb\n        /* \"@openzeppelin/contracts/token/ERC1155/ERC1155.sol\":6396:6399  ids */\n      dup7\n        /* \"@openzeppelin/contracts/token/ERC1155/ERC1155.sol\":6401:6407  values */\n      dup7\n        /* \"@openzeppelin/contracts/token/ERC1155/ERC1155.sol\":6362:6408  TransferBatch(operator, from, to, ids, values) */\n      mload(0x40)\n      tag_204\n      swap3\n      swap2\n      swap1\n      tag_205\n      jump\t// in\n    tag_204:\n      mload(0x40)\n      dup1\n      swap2\n      sub\n      swap1\n      log4\n        /* \"@openzeppelin/contracts/token/ERC1155/ERC1155.sol\":6131:6419  if (ids.length == 1) {... */\n    tag_203:\n        /* \"@openzeppelin/contracts/token/ERC1155/ERC1155.sol\":5251:6425  {... */\n      pop\n        /* \"@openzeppelin/contracts/token/ERC1155/ERC1155.sol\":5144:6425  function _update(address from, address to, uint256[] memory ids, uint256[] memory values) internal virtual {... */\n      pop\n      pop\n      pop\n      pop\n      jump\t// out\n        /* \"@openzeppelin/contracts/token/ERC1155/ERC1155.sol\":13761:14735  function _doSafeTransferAcceptanceCheck(... */\n    tag_179:\n        /* \"@openzeppelin/contracts/token/ERC1155/ERC1155.sol\":13984:13985  0 */\n      0x00\n        /* \"@openzeppelin/contracts/token/ERC1155/ERC1155.sol\":13967:13969  to */\n      dup5\n        /* \"@openzeppelin/contracts/token/ERC1155/ERC1155.sol\":13967:13981  to.code.length */\n      0xffffffffffffffffffffffffffffffffffffffff\n      and\n      extcodesize\n        /* \"@openzeppelin/contracts/token/ERC1155/ERC1155.sol\":13967:13985  to.code.length > 0 */\n      gt\n        /* \"@openzeppelin/contracts/token/ERC1155/ERC1155.sol\":13963:14729  if (to.code.length > 0) {... */\n      iszero\n      tag_207\n      jumpi\n        /* \"@openzeppelin/contracts/token/ERC1155/ERC1155.sol\":14022:14024  to */\n      dup4\n        /* \"@openzeppelin/contracts/token/ERC1155/ERC1155.sol\":14005:14043  IERC1155Receiver(to).onERC1155Received */\n      0xffffffffffffffffffffffffffffffffffffffff\n      and\n      0xf23a6e61\n        /* \"@openzeppelin/contracts/token/ERC1155/ERC1155.sol\":14044:14052  operator */\n      dup8\n        /* \"@openzeppelin/contracts/token/ERC1155/ERC1155.sol\":14054:14058  from */\n      dup8\n        /* \"@openzeppelin/contracts/token/ERC1155/ERC1155.sol\":14060:14062  id */\n      dup7\n        /* \"@openzeppelin/contracts/token/ERC1155/ERC1155.sol\":14064:14069  value */\n      dup7\n        /* \"@openzeppelin/contracts/token/ERC1155/ERC1155.sol\":14071:14075  data */\n      dup7\n        /* \"@openzeppelin/contracts/token/ERC1155/ERC1155.sol\":14005:14076  IERC1155Receiver(to).onERC1155Received(operator, from, id, value, data) */\n      mload(0x40)\n      dup7\n      0xffffffff\n      and\n      0xe0\n      shl\n      dup2\n      mstore\n      0x04\n      add\n      tag_208\n      swap6\n      swap5\n      swap4\n      swap3\n      swap2\n      swap1\n      tag_209\n      jump\t// in\n    tag_208:\n      0x20\n      mload(0x40)\n      dup1\n      dup4\n      sub\n      dup2\n      0x00\n      dup8\n      gas\n      call\n      swap3\n      pop\n      pop\n      pop\n      dup1\n      iszero\n      tag_210\n      jumpi\n      pop\n      mload(0x40)\n      returndatasize\n      not(0x1f)\n      0x1f\n      dup3\n      add\n      and\n      dup3\n      add\n      dup1\n      0x40\n      mstore\n      pop\n      dup2\n      add\n      swap1\n      tag_211\n      swap2\n      swap1\n      tag_212\n      jump\t// in\n    tag_211:\n      0x01\n    tag_210:\n        /* \"@openzeppelin/contracts/token/ERC1155/ERC1155.sol\":14001:14719  try IERC1155Receiver(to).onERC1155Received(operator, from, id, value, data) returns (bytes4 response) {... */\n      tag_213\n      jumpi\n      returndatasize\n      dup1\n      0x00\n      dup2\n      eq\n      tag_218\n      jumpi\n      mload(0x40)\n      swap2\n      pop\n      and(add(returndatasize, 0x3f), not(0x1f))\n      dup3\n      add\n      0x40\n      mstore\n      returndatasize\n      dup3\n      mstore\n      returndatasize\n      0x00\n      0x20\n      dup5\n      add\n      returndatacopy\n      jump(tag_217)\n    tag_218:\n      0x60\n      swap2\n      pop\n    tag_217:\n      pop\n        /* \"@openzeppelin/contracts/token/ERC1155/ERC1155.sol\":14377:14378  0 */\n      0x00\n        /* \"@openzeppelin/contracts/token/ERC1155/ERC1155.sol\":14360:14366  reason */\n      dup2\n        /* \"@openzeppelin/contracts/token/ERC1155/ERC1155.sol\":14360:14373  reason.length */\n      mload\n        /* \"@openzeppelin/contracts/token/ERC1155/ERC1155.sol\":14360:14378  reason.length == 0 */\n      sub\n        /* \"@openzeppelin/contracts/token/ERC1155/ERC1155.sol\":14356:14705  if (reason.length == 0) {... */\n      tag_219\n      jumpi\n        /* \"@openzeppelin/contracts/token/ERC1155/ERC1155.sol\":14487:14489  to */\n      dup5\n        /* \"@openzeppelin/contracts/token/ERC1155/ERC1155.sol\":14464:14490  ERC1155InvalidReceiver(to) */\n      mload(0x40)\n      0x57f447ce00000000000000000000000000000000000000000000000000000000\n      dup2\n      mstore\n      0x04\n      add\n      tag_220\n      swap2\n      swap1\n      tag_134\n      jump\t// in\n    tag_220:\n      mload(0x40)\n      dup1\n      swap2\n      sub\n      swap1\n      revert\n        /* \"@openzeppelin/contracts/token/ERC1155/ERC1155.sol\":14356:14705  if (reason.length == 0) {... */\n    tag_219:\n        /* \"@openzeppelin/contracts/token/ERC1155/ERC1155.sol\":14657:14663  reason */\n      dup1\n        /* \"@openzeppelin/contracts/token/ERC1155/ERC1155.sol\":14651:14664  mload(reason) */\n      mload\n        /* \"@openzeppelin/contracts/token/ERC1155/ERC1155.sol\":14642:14648  reason */\n      dup2\n        /* \"@openzeppelin/contracts/token/ERC1155/ERC1155.sol\":14638:14640  32 */\n      0x20\n        /* \"@openzeppelin/contracts/token/ERC1155/ERC1155.sol\":14634:14649  add(32, reason) */\n      add\n        /* \"@openzeppelin/contracts/token/ERC1155/ERC1155.sol\":14627:14665  revert(add(32, reason), mload(reason)) */\n      revert\n        /* \"@openzeppelin/contracts/token/ERC1155/ERC1155.sol\":14001:14719  try IERC1155Receiver(to).onERC1155Received(operator, from, id, value, data) returns (bytes4 response) {... */\n    tag_213:\n        /* \"@openzeppelin/contracts/token/ERC1155/ERC1155.sol\":14137:14180  IERC1155Receiver.onERC1155Received.selector */\n      shl(0xe0, 0xf23a6e61)\n        /* \"@openzeppelin/contracts/token/ERC1155/ERC1155.sol\":14125:14180  response != IERC1155Receiver.onERC1155Received.selector */\n      not(0xffffffffffffffffffffffffffffffffffffffffffffffffffffffff)\n      and\n        /* \"@openzeppelin/contracts/token/ERC1155/ERC1155.sol\":14125:14133  response */\n      dup2\n        /* \"@openzeppelin/contracts/token/ERC1155/ERC1155.sol\":14125:14180  response != IERC1155Receiver.onERC1155Received.selector */\n      not(0xffffffffffffffffffffffffffffffffffffffffffffffffffffffff)\n      and\n      eq\n        /* \"@openzeppelin/contracts/token/ERC1155/ERC1155.sol\":14121:14295  if (response != IERC1155Receiver.onERC1155Received.selector) {... */\n      tag_223\n      jumpi\n        /* \"@openzeppelin/contracts/token/ERC1155/ERC1155.sol\":14273:14275  to */\n      dup5\n        /* \"@openzeppelin/contracts/token/ERC1155/ERC1155.sol\":14250:14276  ERC1155InvalidReceiver(to) */\n      mload(0x40)\n      0x57f447ce00000000000000000000000000000000000000000000000000000000\n      dup2\n      mstore\n      0x04\n      add\n      tag_224\n      swap2\n      swap1\n      tag_134\n      jump\t// in\n    tag_224:\n      mload(0x40)\n      dup1\n      swap2\n      sub\n      swap1\n      revert\n        /* \"@openzeppelin/contracts/token/ERC1155/ERC1155.sol\":14121:14295  if (response != IERC1155Receiver.onERC1155Received.selector) {... */\n    tag_223:\n        /* \"@openzeppelin/contracts/token/ERC1155/ERC1155.sol\":14077:14309  returns (bytes4 response) {... */\n      pop\n        /* \"@openzeppelin/contracts/token/ERC1155/ERC1155.sol\":13963:14729  if (to.code.length > 0) {... */\n    tag_207:\n        /* \"@openzeppelin/contracts/token/ERC1155/ERC1155.sol\":13761:14735  function _doSafeTransferAcceptanceCheck(... */\n      pop\n      pop\n      pop\n      pop\n      pop\n      pop\n      jump\t// out\n        /* \"@openzeppelin/contracts/token/ERC1155/ERC1155.sol\":14923:15964  function _doSafeBatchTransferAcceptanceCheck(... */\n    tag_182:\n        /* \"@openzeppelin/contracts/token/ERC1155/ERC1155.sol\":15171:15172  0 */\n      0x00\n        /* \"@openzeppelin/contracts/token/ERC1155/ERC1155.sol\":15154:15156  to */\n      dup5\n        /* \"@openzeppelin/contracts/token/ERC1155/ERC1155.sol\":15154:15168  to.code.length */\n      0xffffffffffffffffffffffffffffffffffffffff\n      and\n      extcodesize\n        /* \"@openzeppelin/contracts/token/ERC1155/ERC1155.sol\":15154:15172  to.code.length > 0 */\n      gt\n        /* \"@openzeppelin/contracts/token/ERC1155/ERC1155.sol\":15150:15958  if (to.code.length > 0) {... */\n      iszero\n      tag_226\n      jumpi\n        /* \"@openzeppelin/contracts/token/ERC1155/ERC1155.sol\":15209:15211  to */\n      dup4\n        /* \"@openzeppelin/contracts/token/ERC1155/ERC1155.sol\":15192:15235  IERC1155Receiver(to).onERC1155BatchReceived */\n      0xffffffffffffffffffffffffffffffffffffffff\n      and\n      0xbc197c81\n        /* \"@openzeppelin/contracts/token/ERC1155/ERC1155.sol\":15236:15244  operator */\n      dup8\n        /* \"@openzeppelin/contracts/token/ERC1155/ERC1155.sol\":15246:15250  from */\n      dup8\n        /* \"@openzeppelin/contracts/token/ERC1155/ERC1155.sol\":15252:15255  ids */\n      dup7\n        /* \"@openzeppelin/contracts/token/ERC1155/ERC1155.sol\":15257:15263  values */\n      dup7\n        /* \"@openzeppelin/contracts/token/ERC1155/ERC1155.sol\":15265:15269  data */\n      dup7\n        /* \"@openzeppelin/contracts/token/ERC1155/ERC1155.sol\":15192:15270  IERC1155Receiver(to).onERC1155BatchReceived(operator, from, ids, values, data) */\n      mload(0x40)\n      dup7\n      0xffffffff\n      and\n      0xe0\n      shl\n      dup2\n      mstore\n      0x04\n      add\n      tag_227\n      swap6\n      swap5\n      swap4\n      swap3\n      swap2\n      swap1\n      tag_228\n      jump\t// in\n    tag_227:\n      0x20\n      mload(0x40)\n      dup1\n      dup4\n      sub\n      dup2\n      0x00\n      dup8\n      gas\n      call\n      swap3\n      pop\n      pop\n      pop\n      dup1\n      iszero\n      tag_229\n      jumpi\n      pop\n      mload(0x40)\n      returndatasize\n      not(0x1f)\n      0x1f\n      dup3\n      add\n      and\n      dup3\n      add\n      dup1\n      0x40\n      mstore\n      pop\n      dup2\n      add\n      swap1\n      tag_230\n      swap2\n      swap1\n      tag_212\n      jump\t// in\n    tag_230:\n      0x01\n    tag_229:\n        /* \"@openzeppelin/contracts/token/ERC1155/ERC1155.sol\":15188:15948  try IERC1155Receiver(to).onERC1155BatchReceived(operator, from, ids, values, data) returns (... */\n      tag_231\n      jumpi\n      returndatasize\n      dup1\n      0x00\n      dup2\n      eq\n      tag_236\n      jumpi\n      mload(0x40)\n      swap2\n      pop\n      and(add(returndatasize, 0x3f), not(0x1f))\n      dup3\n      add\n      0x40\n      mstore\n      returndatasize\n      dup3\n      mstore\n      returndatasize\n      0x00\n      0x20\n      dup5\n      add\n      returndatacopy\n      jump(tag_235)\n    tag_236:\n      0x60\n      swap2\n      pop\n    tag_235:\n      pop\n        /* \"@openzeppelin/contracts/token/ERC1155/ERC1155.sol\":15606:15607  0 */\n      0x00\n        /* \"@openzeppelin/contracts/token/ERC1155/ERC1155.sol\":15589:15595  reason */\n      dup2\n        /* \"@openzeppelin/contracts/token/ERC1155/ERC1155.sol\":15589:15602  reason.length */\n      mload\n        /* \"@openzeppelin/contracts/token/ERC1155/ERC1155.sol\":15589:15607  reason.length == 0 */\n      sub\n        /* \"@openzeppelin/contracts/token/ERC1155/ERC1155.sol\":15585:15934  if (reason.length == 0) {... */\n      tag_237\n      jumpi\n        /* \"@openzeppelin/contracts/token/ERC1155/ERC1155.sol\":15716:15718  to */\n      dup5\n        /* \"@openzeppelin/contracts/token/ERC1155/ERC1155.sol\":15693:15719  ERC1155InvalidReceiver(to) */\n      mload(0x40)\n      0x57f447ce00000000000000000000000000000000000000000000000000000000\n      dup2\n      mstore\n      0x04\n      add\n      tag_238\n      swap2\n      swap1\n      tag_134\n      jump\t// in\n    tag_238:\n      mload(0x40)\n      dup1\n      swap2\n      sub\n      swap1\n      revert\n        /* \"@openzeppelin/contracts/token/ERC1155/ERC1155.sol\":15585:15934  if (reason.length == 0) {... */\n    tag_237:\n        /* \"@openzeppelin/contracts/token/ERC1155/ERC1155.sol\":15886:15892  reason */\n      dup1\n        /* \"@openzeppelin/contracts/token/ERC1155/ERC1155.sol\":15880:15893  mload(reason) */\n      mload\n        /* \"@openzeppelin/contracts/token/ERC1155/ERC1155.sol\":15871:15877  reason */\n      dup2\n        /* \"@openzeppelin/contracts/token/ERC1155/ERC1155.sol\":15867:15869  32 */\n      0x20\n        /* \"@openzeppelin/contracts/token/ERC1155/ERC1155.sol\":15863:15878  add(32, reason) */\n      add\n        /* \"@openzeppelin/contracts/token/ERC1155/ERC1155.sol\":15856:15894  revert(add(32, reason), mload(reason)) */\n      revert\n        /* \"@openzeppelin/contracts/token/ERC1155/ERC1155.sol\":15188:15948  try IERC1155Receiver(to).onERC1155BatchReceived(operator, from, ids, values, data) returns (... */\n    tag_231:\n        /* \"@openzeppelin/contracts/token/ERC1155/ERC1155.sol\":15361:15409  IERC1155Receiver.onERC1155BatchReceived.selector */\n      shl(0xe0, 0xbc197c81)\n        /* \"@openzeppelin/contracts/token/ERC1155/ERC1155.sol\":15349:15409  response != IERC1155Receiver.onERC1155BatchReceived.selector */\n      not(0xffffffffffffffffffffffffffffffffffffffffffffffffffffffff)\n      and\n        /* \"@openzeppelin/contracts/token/ERC1155/ERC1155.sol\":15349:15357  response */\n      dup2\n        /* \"@openzeppelin/contracts/token/ERC1155/ERC1155.sol\":15349:15409  response != IERC1155Receiver.onERC1155BatchReceived.selector */\n      not(0xffffffffffffffffffffffffffffffffffffffffffffffffffffffff)\n      and\n      eq\n        /* \"@openzeppelin/contracts/token/ERC1155/ERC1155.sol\":15345:15524  if (response != IERC1155Receiver.onERC1155BatchReceived.selector) {... */\n      tag_241\n      jumpi\n        /* \"@openzeppelin/contracts/token/ERC1155/ERC1155.sol\":15502:15504  to */\n      dup5\n        /* \"@openzeppelin/contracts/token/ERC1155/ERC1155.sol\":15479:15505  ERC1155InvalidReceiver(to) */\n      mload(0x40)\n      0x57f447ce00000000000000000000000000000000000000000000000000000000\n      dup2\n      mstore\n      0x04\n      add\n      tag_242\n      swap2\n      swap1\n      tag_134\n      jump\t// in\n    tag_242:\n      mload(0x40)\n      dup1\n      swap2\n      sub\n      swap1\n      revert\n        /* \"@openzeppelin/contracts/token/ERC1155/ERC1155.sol\":15345:15524  if (response != IERC1155Receiver.onERC1155BatchReceived.selector) {... */\n    tag_241:\n        /* \"@openzeppelin/contracts/token/ERC1155/ERC1155.sol\":15271:15538  returns (... */\n      pop\n        /* \"@openzeppelin/contracts/token/ERC1155/ERC1155.sol\":15150:15958  if (to.code.length > 0) {... */\n    tag_226:\n        /* \"@openzeppelin/contracts/token/ERC1155/ERC1155.sol\":14923:15964  function _doSafeBatchTransferAcceptanceCheck(... */\n      pop\n      pop\n      pop\n      pop\n      pop\n      pop\n      jump\t// out\n        /* \"#utility.yul\":7:82   */\n    tag_243:\n        /* \"#utility.yul\":40:46   */\n      0x00\n        /* \"#utility.yul\":73:75   */\n      0x40\n        /* \"#utility.yul\":67:76   */\n      mload\n        /* \"#utility.yul\":57:76   */\n      swap1\n      pop\n        /* \"#utility.yul\":7:82   */\n      swap1\n      jump\t// out\n        /* \"#utility.yul\":88:205   */\n    tag_244:\n        /* \"#utility.yul\":197:198   */\n      0x00\n        /* \"#utility.yul\":194:195   */\n      dup1\n        /* \"#utility.yul\":187:199   */\n      revert\n        /* \"#utility.yul\":211:328   */\n    tag_245:\n        /* \"#utility.yul\":320:321   */\n      0x00\n        /* \"#utility.yul\":317:318   */\n      dup1\n        /* \"#utility.yul\":310:322   */\n      revert\n        /* \"#utility.yul\":334:460   */\n    tag_246:\n        /* \"#utility.yul\":371:378   */\n      0x00\n        /* \"#utility.yul\":411:453   */\n      0xffffffffffffffffffffffffffffffffffffffff\n        /* \"#utility.yul\":404:409   */\n      dup3\n        /* \"#utility.yul\":400:454   */\n      and\n        /* \"#utility.yul\":389:454   */\n      swap1\n      pop\n        /* \"#utility.yul\":334:460   */\n      swap2\n      swap1\n      pop\n      jump\t// out\n        /* \"#utility.yul\":466:562   */\n    tag_247:\n        /* \"#utility.yul\":503:510   */\n      0x00\n        /* \"#utility.yul\":532:556   */\n      tag_322\n        /* \"#utility.yul\":550:555   */\n      dup3\n        /* \"#utility.yul\":532:556   */\n      tag_246\n      jump\t// in\n    tag_322:\n        /* \"#utility.yul\":521:556   */\n      swap1\n      pop\n        /* \"#utility.yul\":466:562   */\n      swap2\n      swap1\n      pop\n      jump\t// out\n        /* \"#utility.yul\":568:690   */\n    tag_248:\n        /* \"#utility.yul\":641:665   */\n      tag_324\n        /* \"#utility.yul\":659:664   */\n      dup2\n        /* \"#utility.yul\":641:665   */\n      tag_247\n      jump\t// in\n    tag_324:\n        /* \"#utility.yul\":634:639   */\n      dup2\n        /* \"#utility.yul\":631:666   */\n      eq\n        /* \"#utility.yul\":621:684   */\n      tag_325\n      jumpi\n        /* \"#utility.yul\":680:681   */\n      0x00\n        /* \"#utility.yul\":677:678   */\n      dup1\n        /* \"#utility.yul\":670:682   */\n      revert\n        /* \"#utility.yul\":621:684   */\n    tag_325:\n        /* \"#utility.yul\":568:690   */\n      pop\n      jump\t// out\n        /* \"#utility.yul\":696:835   */\n    tag_249:\n        /* \"#utility.yul\":742:747   */\n      0x00\n        /* \"#utility.yul\":780:786   */\n      dup2\n        /* \"#utility.yul\":767:787   */\n      calldataload\n        /* \"#utility.yul\":758:787   */\n      swap1\n      pop\n        /* \"#utility.yul\":796:829   */\n      tag_327\n        /* \"#utility.yul\":823:828   */\n      dup2\n        /* \"#utility.yul\":796:829   */\n      tag_248\n      jump\t// in\n    tag_327:\n        /* \"#utility.yul\":696:835   */\n      swap3\n      swap2\n      pop\n      pop\n      jump\t// out\n        /* \"#utility.yul\":841:918   */\n    tag_250:\n        /* \"#utility.yul\":878:885   */\n      0x00\n        /* \"#utility.yul\":907:912   */\n      dup2\n        /* \"#utility.yul\":896:912   */\n      swap1\n      pop\n        /* \"#utility.yul\":841:918   */\n      swap2\n      swap1\n      pop\n      jump\t// out\n        /* \"#utility.yul\":924:1046   */\n    tag_251:\n        /* \"#utility.yul\":997:1021   */\n      tag_330\n        /* \"#utility.yul\":1015:1020   */\n      dup2\n        /* \"#utility.yul\":997:1021   */\n      tag_250\n      jump\t// in\n    tag_330:\n        /* \"#utility.yul\":990:995   */\n      dup2\n        /* \"#utility.yul\":987:1022   */\n      eq\n        /* \"#utility.yul\":977:1040   */\n      tag_331\n      jumpi\n        /* \"#utility.yul\":1036:1037   */\n      0x00\n        /* \"#utility.yul\":1033:1034   */\n      dup1\n        /* \"#utility.yul\":1026:1038   */\n      revert\n        /* \"#utility.yul\":977:1040   */\n    tag_331:\n        /* \"#utility.yul\":924:1046   */\n      pop\n      jump\t// out\n        /* \"#utility.yul\":1052:1191   */\n    tag_252:\n        /* \"#utility.yul\":1098:1103   */\n      0x00\n        /* \"#utility.yul\":1136:1142   */\n      dup2\n        /* \"#utility.yul\":1123:1143   */\n      calldataload\n        /* \"#utility.yul\":1114:1143   */\n      swap1\n      pop\n        /* \"#utility.yul\":1152:1185   */\n      tag_333\n        /* \"#utility.yul\":1179:1184   */\n      dup2\n        /* \"#utility.yul\":1152:1185   */\n      tag_251\n      jump\t// in\n    tag_333:\n        /* \"#utility.yul\":1052:1191   */\n      swap3\n      swap2\n      pop\n      pop\n      jump\t// out\n        /* \"#utility.yul\":1197:1671   */\n    tag_16:\n        /* \"#utility.yul\":1265:1271   */\n      0x00\n        /* \"#utility.yul\":1273:1279   */\n      dup1\n        /* \"#utility.yul\":1322:1324   */\n      0x40\n        /* \"#utility.yul\":1310:1319   */\n      dup4\n        /* \"#utility.yul\":1301:1308   */\n      dup6\n        /* \"#utility.yul\":1297:1320   */\n      sub\n        /* \"#utility.yul\":1293:1325   */\n      slt\n        /* \"#utility.yul\":1290:1409   */\n      iszero\n      tag_335\n      jumpi\n        /* \"#utility.yul\":1328:1407   */\n      tag_336\n      tag_244\n      jump\t// in\n    tag_336:\n        /* \"#utility.yul\":1290:1409   */\n    tag_335:\n        /* \"#utility.yul\":1448:1449   */\n      0x00\n        /* \"#utility.yul\":1473:1526   */\n      tag_337\n        /* \"#utility.yul\":1518:1525   */\n      dup6\n        /* \"#utility.yul\":1509:1515   */\n      dup3\n        /* \"#utility.yul\":1498:1507   */\n      dup7\n        /* \"#utility.yul\":1494:1516   */\n      add\n        /* \"#utility.yul\":1473:1526   */\n      tag_249\n      jump\t// in\n    tag_337:\n        /* \"#utility.yul\":1463:1526   */\n      swap3\n      pop\n        /* \"#utility.yul\":1419:1536   */\n      pop\n        /* \"#utility.yul\":1575:1577   */\n      0x20\n        /* \"#utility.yul\":1601:1654   */\n      tag_338\n        /* \"#utility.yul\":1646:1653   */\n      dup6\n        /* \"#utility.yul\":1637:1643   */\n      dup3\n        /* \"#utility.yul\":1626:1635   */\n      dup7\n        /* \"#utility.yul\":1622:1644   */\n      add\n        /* \"#utility.yul\":1601:1654   */\n      tag_252\n      jump\t// in\n    tag_338:\n        /* \"#utility.yul\":1591:1654   */\n      swap2\n      pop\n        /* \"#utility.yul\":1546:1664   */\n      pop\n        /* \"#utility.yul\":1197:1671   */\n      swap3\n      pop\n      swap3\n      swap1\n      pop\n      jump\t// out\n        /* \"#utility.yul\":1677:1795   */\n    tag_253:\n        /* \"#utility.yul\":1764:1788   */\n      tag_340\n        /* \"#utility.yul\":1782:1787   */\n      dup2\n        /* \"#utility.yul\":1764:1788   */\n      tag_250\n      jump\t// in\n    tag_340:\n        /* \"#utility.yul\":1759:1762   */\n      dup3\n        /* \"#utility.yul\":1752:1789   */\n      mstore\n        /* \"#utility.yul\":1677:1795   */\n      pop\n      pop\n      jump\t// out\n        /* \"#utility.yul\":1801:2023   */\n    tag_19:\n        /* \"#utility.yul\":1894:1898   */\n      0x00\n        /* \"#utility.yul\":1932:1934   */\n      0x20\n        /* \"#utility.yul\":1921:1930   */\n      dup3\n        /* \"#utility.yul\":1917:1935   */\n      add\n        /* \"#utility.yul\":1909:1935   */\n      swap1\n      pop\n        /* \"#utility.yul\":1945:2016   */\n      tag_342\n        /* \"#utility.yul\":2013:2014   */\n      0x00\n        /* \"#utility.yul\":2002:2011   */\n      dup4\n        /* \"#utility.yul\":1998:2015   */\n      add\n        /* \"#utility.yul\":1989:1995   */\n      dup5\n        /* \"#utility.yul\":1945:2016   */\n      tag_253\n      jump\t// in\n    tag_342:\n        /* \"#utility.yul\":1801:2023   */\n      swap3\n      swap2\n      pop\n      pop\n      jump\t// out\n        /* \"#utility.yul\":2029:2178   */\n    tag_254:\n        /* \"#utility.yul\":2065:2072   */\n      0x00\n        /* \"#utility.yul\":2105:2171   */\n      0xffffffff00000000000000000000000000000000000000000000000000000000\n        /* \"#utility.yul\":2098:2103   */\n      dup3\n        /* \"#utility.yul\":2094:2172   */\n      and\n        /* \"#utility.yul\":2083:2172   */\n      swap1\n      pop\n        /* \"#utility.yul\":2029:2178   */\n      swap2\n      swap1\n      pop\n      jump\t// out\n        /* \"#utility.yul\":2184:2304   */\n    tag_255:\n        /* \"#utility.yul\":2256:2279   */\n      tag_345\n        /* \"#utility.yul\":2273:2278   */\n      dup2\n        /* \"#utility.yul\":2256:2279   */\n      tag_254\n      jump\t// in\n    tag_345:\n        /* \"#utility.yul\":2249:2254   */\n      dup2\n        /* \"#utility.yul\":2246:2280   */\n      eq\n        /* \"#utility.yul\":2236:2298   */\n      tag_346\n      jumpi\n        /* \"#utility.yul\":2294:2295   */\n      0x00\n        /* \"#utility.yul\":2291:2292   */\n      dup1\n        /* \"#utility.yul\":2284:2296   */\n      revert\n        /* \"#utility.yul\":2236:2298   */\n    tag_346:\n        /* \"#utility.yul\":2184:2304   */\n      pop\n      jump\t// out\n        /* \"#utility.yul\":2310:2447   */\n    tag_256:\n        /* \"#utility.yul\":2355:2360   */\n      0x00\n        /* \"#utility.yul\":2393:2399   */\n      dup2\n        /* \"#utility.yul\":2380:2400   */\n      calldataload\n        /* \"#utility.yul\":2371:2400   */\n      swap1\n      pop\n        /* \"#utility.yul\":2409:2441   */\n      tag_348\n        /* \"#utility.yul\":2435:2440   */\n      dup2\n        /* \"#utility.yul\":2409:2441   */\n      tag_255\n      jump\t// in\n    tag_348:\n        /* \"#utility.yul\":2310:2447   */\n      swap3\n      swap2\n      pop\n      pop\n      jump\t// out\n        /* \"#utility.yul\":2453:2780   */\n    tag_22:\n        /* \"#utility.yul\":2511:2517   */\n      0x00\n        /* \"#utility.yul\":2560:2562   */\n      0x20\n        /* \"#utility.yul\":2548:2557   */\n      dup3\n        /* \"#utility.yul\":2539:2546   */\n      dup5\n        /* \"#utility.yul\":2535:2558   */\n      sub\n        /* \"#utility.yul\":2531:2563   */\n      slt\n        /* \"#utility.yul\":2528:2647   */\n      iszero\n      tag_350\n      jumpi\n        /* \"#utility.yul\":2566:2645   */\n      tag_351\n      tag_244\n      jump\t// in\n    tag_351:\n        /* \"#utility.yul\":2528:2647   */\n    tag_350:\n        /* \"#utility.yul\":2686:2687   */\n      0x00\n        /* \"#utility.yul\":2711:2763   */\n      tag_352\n        /* \"#utility.yul\":2755:2762   */\n      dup5\n        /* \"#utility.yul\":2746:2752   */\n      dup3\n        /* \"#utility.yul\":2735:2744   */\n      dup6\n        /* \"#utility.yul\":2731:2753   */\n      add\n        /* \"#utility.yul\":2711:2763   */\n      tag_256\n      jump\t// in\n    tag_352:\n        /* \"#utility.yul\":2701:2763   */\n      swap2\n      pop\n        /* \"#utility.yul\":2657:2773   */\n      pop\n        /* \"#utility.yul\":2453:2780   */\n      swap3\n      swap2\n      pop\n      pop\n      jump\t// out\n        /* \"#utility.yul\":2786:2876   */\n    tag_257:\n        /* \"#utility.yul\":2820:2827   */\n      0x00\n        /* \"#utility.yul\":2863:2868   */\n      dup2\n        /* \"#utility.yul\":2856:2869   */\n      iszero\n        /* \"#utility.yul\":2849:2870   */\n      iszero\n        /* \"#utility.yul\":2838:2870   */\n      swap1\n      pop\n        /* \"#utility.yul\":2786:2876   */\n      swap2\n      swap1\n      pop\n      jump\t// out\n        /* \"#utility.yul\":2882:2991   */\n    tag_258:\n        /* \"#utility.yul\":2963:2984   */\n      tag_355\n        /* \"#utility.yul\":2978:2983   */\n      dup2\n        /* \"#utility.yul\":2963:2984   */\n      tag_257\n      jump\t// in\n    tag_355:\n        /* \"#utility.yul\":2958:2961   */\n      dup3\n        /* \"#utility.yul\":2951:2985   */\n      mstore\n        /* \"#utility.yul\":2882:2991   */\n      pop\n      pop\n      jump\t// out\n        /* \"#utility.yul\":2997:3207   */\n    tag_25:\n        /* \"#utility.yul\":3084:3088   */\n      0x00\n        /* \"#utility.yul\":3122:3124   */\n      0x20\n        /* \"#utility.yul\":3111:3120   */\n      dup3\n        /* \"#utility.yul\":3107:3125   */\n      add\n        /* \"#utility.yul\":3099:3125   */\n      swap1\n      pop\n        /* \"#utility.yul\":3135:3200   */\n      tag_357\n        /* \"#utility.yul\":3197:3198   */\n      0x00\n        /* \"#utility.yul\":3186:3195   */\n      dup4\n        /* \"#utility.yul\":3182:3199   */\n      add\n        /* \"#utility.yul\":3173:3179   */\n      dup5\n        /* \"#utility.yul\":3135:3200   */\n      tag_258\n      jump\t// in\n    tag_357:\n        /* \"#utility.yul\":2997:3207   */\n      swap3\n      swap2\n      pop\n      pop\n      jump\t// out\n        /* \"#utility.yul\":3213:3330   */\n    tag_259:\n        /* \"#utility.yul\":3322:3323   */\n      0x00\n        /* \"#utility.yul\":3319:3320   */\n      dup1\n        /* \"#utility.yul\":3312:3324   */\n      revert\n        /* \"#utility.yul\":3336:3453   */\n    tag_260:\n        /* \"#utility.yul\":3445:3446   */\n      0x00\n        /* \"#utility.yul\":3442:3443   */\n      dup1\n        /* \"#utility.yul\":3435:3447   */\n      revert\n        /* \"#utility.yul\":3459:3561   */\n    tag_261:\n        /* \"#utility.yul\":3500:3506   */\n      0x00\n        /* \"#utility.yul\":3551:3553   */\n      0x1f\n        /* \"#utility.yul\":3547:3554   */\n      not\n        /* \"#utility.yul\":3542:3544   */\n      0x1f\n        /* \"#utility.yul\":3535:3540   */\n      dup4\n        /* \"#utility.yul\":3531:3545   */\n      add\n        /* \"#utility.yul\":3527:3555   */\n      and\n        /* \"#utility.yul\":3517:3555   */\n      swap1\n      pop\n        /* \"#utility.yul\":3459:3561   */\n      swap2\n      swap1\n      pop\n      jump\t// out\n        /* \"#utility.yul\":3567:3747   */\n    tag_100:\n        /* \"#utility.yul\":3615:3692   */\n      0x4e487b7100000000000000000000000000000000000000000000000000000000\n        /* \"#utility.yul\":3612:3613   */\n      0x00\n        /* \"#utility.yul\":3605:3693   */\n      mstore\n        /* \"#utility.yul\":3712:3716   */\n      0x41\n        /* \"#utility.yul\":3709:3710   */\n      0x04\n        /* \"#utility.yul\":3702:3717   */\n      mstore\n        /* \"#utility.yul\":3736:3740   */\n      0x24\n        /* \"#utility.yul\":3733:3734   */\n      0x00\n        /* \"#utility.yul\":3726:3741   */\n      revert\n        /* \"#utility.yul\":3753:4034   */\n    tag_262:\n        /* \"#utility.yul\":3836:3863   */\n      tag_363\n        /* \"#utility.yul\":3858:3862   */\n      dup3\n        /* \"#utility.yul\":3836:3863   */\n      tag_261\n      jump\t// in\n    tag_363:\n        /* \"#utility.yul\":3828:3834   */\n      dup2\n        /* \"#utility.yul\":3824:3864   */\n      add\n        /* \"#utility.yul\":3966:3972   */\n      dup2\n        /* \"#utility.yul\":3954:3964   */\n      dup2\n        /* \"#utility.yul\":3951:3973   */\n      lt\n        /* \"#utility.yul\":3930:3948   */\n      0xffffffffffffffff\n        /* \"#utility.yul\":3918:3928   */\n      dup3\n        /* \"#utility.yul\":3915:3949   */\n      gt\n        /* \"#utility.yul\":3912:3974   */\n      or\n        /* \"#utility.yul\":3909:3997   */\n      iszero\n      tag_364\n      jumpi\n        /* \"#utility.yul\":3977:3995   */\n      tag_365\n      tag_100\n      jump\t// in\n    tag_365:\n        /* \"#utility.yul\":3909:3997   */\n    tag_364:\n        /* \"#utility.yul\":4017:4027   */\n      dup1\n        /* \"#utility.yul\":4013:4015   */\n      0x40\n        /* \"#utility.yul\":4006:4028   */\n      mstore\n        /* \"#utility.yul\":3796:4034   */\n      pop\n        /* \"#utility.yul\":3753:4034   */\n      pop\n      pop\n      jump\t// out\n        /* \"#utility.yul\":4040:4169   */\n    tag_263:\n        /* \"#utility.yul\":4074:4080   */\n      0x00\n        /* \"#utility.yul\":4101:4121   */\n      tag_367\n      tag_243\n      jump\t// in\n    tag_367:\n        /* \"#utility.yul\":4091:4121   */\n      swap1\n      pop\n        /* \"#utility.yul\":4130:4163   */\n      tag_368\n        /* \"#utility.yul\":4158:4162   */\n      dup3\n        /* \"#utility.yul\":4150:4156   */\n      dup3\n        /* \"#utility.yul\":4130:4163   */\n      tag_262\n      jump\t// in\n    tag_368:\n        /* \"#utility.yul\":4040:4169   */\n      swap2\n      swap1\n      pop\n      jump\t// out\n        /* \"#utility.yul\":4175:4483   */\n    tag_264:\n        /* \"#utility.yul\":4237:4241   */\n      0x00\n        /* \"#utility.yul\":4327:4345   */\n      0xffffffffffffffff\n        /* \"#utility.yul\":4319:4325   */\n      dup3\n        /* \"#utility.yul\":4316:4346   */\n      gt\n        /* \"#utility.yul\":4313:4369   */\n      iszero\n      tag_370\n      jumpi\n        /* \"#utility.yul\":4349:4367   */\n      tag_371\n      tag_100\n      jump\t// in\n    tag_371:\n        /* \"#utility.yul\":4313:4369   */\n    tag_370:\n        /* \"#utility.yul\":4387:4416   */\n      tag_372\n        /* \"#utility.yul\":4409:4415   */\n      dup3\n        /* \"#utility.yul\":4387:4416   */\n      tag_261\n      jump\t// in\n    tag_372:\n        /* \"#utility.yul\":4379:4416   */\n      swap1\n      pop\n        /* \"#utility.yul\":4471:4475   */\n      0x20\n        /* \"#utility.yul\":4465:4469   */\n      dup2\n        /* \"#utility.yul\":4461:4476   */\n      add\n        /* \"#utility.yul\":4453:4476   */\n      swap1\n      pop\n        /* \"#utility.yul\":4175:4483   */\n      swap2\n      swap1\n      pop\n      jump\t// out\n        /* \"#utility.yul\":4489:4635   */\n    tag_265:\n        /* \"#utility.yul\":4586:4592   */\n      dup3\n        /* \"#utility.yul\":4581:4584   */\n      dup2\n        /* \"#utility.yul\":4576:4579   */\n      dup4\n        /* \"#utility.yul\":4563:4593   */\n      calldatacopy\n        /* \"#utility.yul\":4627:4628   */\n      0x00\n        /* \"#utility.yul\":4618:4624   */\n      dup4\n        /* \"#utility.yul\":4613:4616   */\n      dup4\n        /* \"#utility.yul\":4609:4625   */\n      add\n        /* \"#utility.yul\":4602:4629   */\n      mstore\n        /* \"#utility.yul\":4489:4635   */\n      pop\n      pop\n      pop\n      jump\t// out\n        /* \"#utility.yul\":4641:5066   */\n    tag_266:\n        /* \"#utility.yul\":4719:4724   */\n      0x00\n        /* \"#utility.yul\":4744:4810   */\n      tag_375\n        /* \"#utility.yul\":4760:4809   */\n      tag_376\n        /* \"#utility.yul\":4802:4808   */\n      dup5\n        /* \"#utility.yul\":4760:4809   */\n      tag_264\n      jump\t// in\n    tag_376:\n        /* \"#utility.yul\":4744:4810   */\n      tag_263\n      jump\t// in\n    tag_375:\n        /* \"#utility.yul\":4735:4810   */\n      swap1\n      pop\n        /* \"#utility.yul\":4833:4839   */\n      dup3\n        /* \"#utility.yul\":4826:4831   */\n      dup2\n        /* \"#utility.yul\":4819:4840   */\n      mstore\n        /* \"#utility.yul\":4871:4875   */\n      0x20\n        /* \"#utility.yul\":4864:4869   */\n      dup2\n        /* \"#utility.yul\":4860:4876   */\n      add\n        /* \"#utility.yul\":4909:4912   */\n      dup5\n        /* \"#utility.yul\":4900:4906   */\n      dup5\n        /* \"#utility.yul\":4895:4898   */\n      dup5\n        /* \"#utility.yul\":4891:4907   */\n      add\n        /* \"#utility.yul\":4888:4913   */\n      gt\n        /* \"#utility.yul\":4885:4997   */\n      iszero\n      tag_377\n      jumpi\n        /* \"#utility.yul\":4916:4995   */\n      tag_378\n      tag_260\n      jump\t// in\n    tag_378:\n        /* \"#utility.yul\":4885:4997   */\n    tag_377:\n        /* \"#utility.yul\":5006:5060   */\n      tag_379\n        /* \"#utility.yul\":5053:5059   */\n      dup5\n        /* \"#utility.yul\":5048:5051   */\n      dup3\n        /* \"#utility.yul\":5043:5046   */\n      dup6\n        /* \"#utility.yul\":5006:5060   */\n      tag_265\n      jump\t// in\n    tag_379:\n        /* \"#utility.yul\":4725:5066   */\n      pop\n        /* \"#utility.yul\":4641:5066   */\n      swap4\n      swap3\n      pop\n      pop\n      pop\n      jump\t// out\n        /* \"#utility.yul\":5086:5426   */\n    tag_267:\n        /* \"#utility.yul\":5142:5147   */\n      0x00\n        /* \"#utility.yul\":5191:5194   */\n      dup3\n        /* \"#utility.yul\":5184:5188   */\n      0x1f\n        /* \"#utility.yul\":5176:5182   */\n      dup4\n        /* \"#utility.yul\":5172:5189   */\n      add\n        /* \"#utility.yul\":5168:5195   */\n      slt\n        /* \"#utility.yul\":5158:5280   */\n      tag_381\n      jumpi\n        /* \"#utility.yul\":5199:5278   */\n      tag_382\n      tag_259\n      jump\t// in\n    tag_382:\n        /* \"#utility.yul\":5158:5280   */\n    tag_381:\n        /* \"#utility.yul\":5316:5322   */\n      dup2\n        /* \"#utility.yul\":5303:5323   */\n      calldataload\n        /* \"#utility.yul\":5341:5420   */\n      tag_383\n        /* \"#utility.yul\":5416:5419   */\n      dup5\n        /* \"#utility.yul\":5408:5414   */\n      dup3\n        /* \"#utility.yul\":5401:5405   */\n      0x20\n        /* \"#utility.yul\":5393:5399   */\n      dup7\n        /* \"#utility.yul\":5389:5406   */\n      add\n        /* \"#utility.yul\":5341:5420   */\n      tag_266\n      jump\t// in\n    tag_383:\n        /* \"#utility.yul\":5332:5420   */\n      swap2\n      pop\n        /* \"#utility.yul\":5148:5426   */\n      pop\n        /* \"#utility.yul\":5086:5426   */\n      swap3\n      swap2\n      pop\n      pop\n      jump\t// out\n        /* \"#utility.yul\":5432:6086   */\n    tag_28:\n        /* \"#utility.yul\":5510:5516   */\n      0x00\n        /* \"#utility.yul\":5518:5524   */\n      dup1\n        /* \"#utility.yul\":5567:5569   */\n      0x40\n        /* \"#utility.yul\":5555:5564   */\n      dup4\n        /* \"#utility.yul\":5546:5553   */\n      dup6\n        /* \"#utility.yul\":5542:5565   */\n      sub\n        /* \"#utility.yul\":5538:5570   */\n      slt\n        /* \"#utility.yul\":5535:5654   */\n      iszero\n      tag_385\n      jumpi\n        /* \"#utility.yul\":5573:5652   */\n      tag_386\n      tag_244\n      jump\t// in\n    tag_386:\n        /* \"#utility.yul\":5535:5654   */\n    tag_385:\n        /* \"#utility.yul\":5693:5694   */\n      0x00\n        /* \"#utility.yul\":5718:5771   */\n      tag_387\n        /* \"#utility.yul\":5763:5770   */\n      dup6\n        /* \"#utility.yul\":5754:5760   */\n      dup3\n        /* \"#utility.yul\":5743:5752   */\n      dup7\n        /* \"#utility.yul\":5739:5761   */\n      add\n        /* \"#utility.yul\":5718:5771   */\n      tag_249\n      jump\t// in\n    tag_387:\n        /* \"#utility.yul\":5708:5771   */\n      swap3\n      pop\n        /* \"#utility.yul\":5664:5781   */\n      pop\n        /* \"#utility.yul\":5848:5850   */\n      0x20\n        /* \"#utility.yul\":5837:5846   */\n      dup4\n        /* \"#utility.yul\":5833:5851   */\n      add\n        /* \"#utility.yul\":5820:5852   */\n      calldataload\n        /* \"#utility.yul\":5879:5897   */\n      0xffffffffffffffff\n        /* \"#utility.yul\":5871:5877   */\n      dup2\n        /* \"#utility.yul\":5868:5898   */\n      gt\n        /* \"#utility.yul\":5865:5982   */\n      iszero\n      tag_388\n      jumpi\n        /* \"#utility.yul\":5901:5980   */\n      tag_389\n      tag_245\n      jump\t// in\n    tag_389:\n        /* \"#utility.yul\":5865:5982   */\n    tag_388:\n        /* \"#utility.yul\":6006:6069   */\n      tag_390\n        /* \"#utility.yul\":6061:6068   */\n      dup6\n        /* \"#utility.yul\":6052:6058   */\n      dup3\n        /* \"#utility.yul\":6041:6050   */\n      dup7\n        /* \"#utility.yul\":6037:6059   */\n      add\n        /* \"#utility.yul\":6006:6069   */\n      tag_267\n      jump\t// in\n    tag_390:\n        /* \"#utility.yul\":5996:6069   */\n      swap2\n      pop\n        /* \"#utility.yul\":5791:6079   */\n      pop\n        /* \"#utility.yul\":5432:6086   */\n      swap3\n      pop\n      swap3\n      swap1\n      pop\n      jump\t// out\n        /* \"#utility.yul\":6092:6421   */\n    tag_33:\n        /* \"#utility.yul\":6151:6157   */\n      0x00\n        /* \"#utility.yul\":6200:6202   */\n      0x20\n        /* \"#utility.yul\":6188:6197   */\n      dup3\n        /* \"#utility.yul\":6179:6186   */\n      dup5\n        /* \"#utility.yul\":6175:6198   */\n      sub\n        /* \"#utility.yul\":6171:6203   */\n      slt\n        /* \"#utility.yul\":6168:6287   */\n      iszero\n      tag_392\n      jumpi\n        /* \"#utility.yul\":6206:6285   */\n      tag_393\n      tag_244\n      jump\t// in\n    tag_393:\n        /* \"#utility.yul\":6168:6287   */\n    tag_392:\n        /* \"#utility.yul\":6326:6327   */\n      0x00\n        /* \"#utility.yul\":6351:6404   */\n      tag_394\n        /* \"#utility.yul\":6396:6403   */\n      dup5\n        /* \"#utility.yul\":6387:6393   */\n      dup3\n        /* \"#utility.yul\":6376:6385   */\n      dup6\n        /* \"#utility.yul\":6372:6394   */\n      add\n        /* \"#utility.yul\":6351:6404   */\n      tag_252\n      jump\t// in\n    tag_394:\n        /* \"#utility.yul\":6341:6404   */\n      swap2\n      pop\n        /* \"#utility.yul\":6297:6414   */\n      pop\n        /* \"#utility.yul\":6092:6421   */\n      swap3\n      swap2\n      pop\n      pop\n      jump\t// out\n        /* \"#utility.yul\":6427:6526   */\n    tag_268:\n        /* \"#utility.yul\":6479:6485   */\n      0x00\n        /* \"#utility.yul\":6513:6518   */\n      dup2\n        /* \"#utility.yul\":6507:6519   */\n      mload\n        /* \"#utility.yul\":6497:6519   */\n      swap1\n      pop\n        /* \"#utility.yul\":6427:6526   */\n      swap2\n      swap1\n      pop\n      jump\t// out\n        /* \"#utility.yul\":6532:6701   */\n    tag_269:\n        /* \"#utility.yul\":6616:6627   */\n      0x00\n        /* \"#utility.yul\":6650:6656   */\n      dup3\n        /* \"#utility.yul\":6645:6648   */\n      dup3\n        /* \"#utility.yul\":6638:6657   */\n      mstore\n        /* \"#utility.yul\":6690:6694   */\n      0x20\n        /* \"#utility.yul\":6685:6688   */\n      dup3\n        /* \"#utility.yul\":6681:6695   */\n      add\n        /* \"#utility.yul\":6666:6695   */\n      swap1\n      pop\n        /* \"#utility.yul\":6532:6701   */\n      swap3\n      swap2\n      pop\n      pop\n      jump\t// out\n        /* \"#utility.yul\":6707:6953   */\n    tag_270:\n        /* \"#utility.yul\":6788:6789   */\n      0x00\n        /* \"#utility.yul\":6798:6911   */\n    tag_398:\n        /* \"#utility.yul\":6812:6818   */\n      dup4\n        /* \"#utility.yul\":6809:6810   */\n      dup2\n        /* \"#utility.yul\":6806:6819   */\n      lt\n        /* \"#utility.yul\":6798:6911   */\n      iszero\n      tag_400\n      jumpi\n        /* \"#utility.yul\":6897:6898   */\n      dup1\n        /* \"#utility.yul\":6892:6895   */\n      dup3\n        /* \"#utility.yul\":6888:6899   */\n      add\n        /* \"#utility.yul\":6882:6900   */\n      mload\n        /* \"#utility.yul\":6878:6879   */\n      dup2\n        /* \"#utility.yul\":6873:6876   */\n      dup5\n        /* \"#utility.yul\":6869:6880   */\n      add\n        /* \"#utility.yul\":6862:6901   */\n      mstore\n        /* \"#utility.yul\":6834:6836   */\n      0x20\n        /* \"#utility.yul\":6831:6832   */\n      dup2\n        /* \"#utility.yul\":6827:6837   */\n      add\n        /* \"#utility.yul\":6822:6837   */\n      swap1\n      pop\n        /* \"#utility.yul\":6798:6911   */\n      jump(tag_398)\n    tag_400:\n        /* \"#utility.yul\":6945:6946   */\n      0x00\n        /* \"#utility.yul\":6936:6942   */\n      dup5\n        /* \"#utility.yul\":6931:6934   */\n      dup5\n        /* \"#utility.yul\":6927:6943   */\n      add\n        /* \"#utility.yul\":6920:6947   */\n      mstore\n        /* \"#utility.yul\":6769:6953   */\n      pop\n        /* \"#utility.yul\":6707:6953   */\n      pop\n      pop\n      pop\n      jump\t// out\n        /* \"#utility.yul\":6959:7336   */\n    tag_271:\n        /* \"#utility.yul\":7047:7050   */\n      0x00\n        /* \"#utility.yul\":7075:7114   */\n      tag_402\n        /* \"#utility.yul\":7108:7113   */\n      dup3\n        /* \"#utility.yul\":7075:7114   */\n      tag_268\n      jump\t// in\n    tag_402:\n        /* \"#utility.yul\":7130:7201   */\n      tag_403\n        /* \"#utility.yul\":7194:7200   */\n      dup2\n        /* \"#utility.yul\":7189:7192   */\n      dup6\n        /* \"#utility.yul\":7130:7201   */\n      tag_269\n      jump\t// in\n    tag_403:\n        /* \"#utility.yul\":7123:7201   */\n      swap4\n      pop\n        /* \"#utility.yul\":7210:7275   */\n      tag_404\n        /* \"#utility.yul\":7268:7274   */\n      dup2\n        /* \"#utility.yul\":7263:7266   */\n      dup6\n        /* \"#utility.yul\":7256:7260   */\n      0x20\n        /* \"#utility.yul\":7249:7254   */\n      dup7\n        /* \"#utility.yul\":7245:7261   */\n      add\n        /* \"#utility.yul\":7210:7275   */\n      tag_270\n      jump\t// in\n    tag_404:\n        /* \"#utility.yul\":7300:7329   */\n      tag_405\n        /* \"#utility.yul\":7322:7328   */\n      dup2\n        /* \"#utility.yul\":7300:7329   */\n      tag_261\n      jump\t// in\n    tag_405:\n        /* \"#utility.yul\":7295:7298   */\n      dup5\n        /* \"#utility.yul\":7291:7330   */\n      add\n        /* \"#utility.yul\":7284:7330   */\n      swap2\n      pop\n        /* \"#utility.yul\":7051:7336   */\n      pop\n        /* \"#utility.yul\":6959:7336   */\n      swap3\n      swap2\n      pop\n      pop\n      jump\t// out\n        /* \"#utility.yul\":7342:7655   */\n    tag_36:\n        /* \"#utility.yul\":7455:7459   */\n      0x00\n        /* \"#utility.yul\":7493:7495   */\n      0x20\n        /* \"#utility.yul\":7482:7491   */\n      dup3\n        /* \"#utility.yul\":7478:7496   */\n      add\n        /* \"#utility.yul\":7470:7496   */\n      swap1\n      pop\n        /* \"#utility.yul\":7542:7551   */\n      dup2\n        /* \"#utility.yul\":7536:7540   */\n      dup2\n        /* \"#utility.yul\":7532:7552   */\n      sub\n        /* \"#utility.yul\":7528:7529   */\n      0x00\n        /* \"#utility.yul\":7517:7526   */\n      dup4\n        /* \"#utility.yul\":7513:7530   */\n      add\n        /* \"#utility.yul\":7506:7553   */\n      mstore\n        /* \"#utility.yul\":7570:7648   */\n      tag_407\n        /* \"#utility.yul\":7643:7647   */\n      dup2\n        /* \"#utility.yul\":7634:7640   */\n      dup5\n        /* \"#utility.yul\":7570:7648   */\n      tag_271\n      jump\t// in\n    tag_407:\n        /* \"#utility.yul\":7562:7648   */\n      swap1\n      pop\n        /* \"#utility.yul\":7342:7655   */\n      swap3\n      swap2\n      pop\n      pop\n      jump\t// out\n        /* \"#utility.yul\":7661:7972   */\n    tag_272:\n        /* \"#utility.yul\":7738:7742   */\n      0x00\n        /* \"#utility.yul\":7828:7846   */\n      0xffffffffffffffff\n        /* \"#utility.yul\":7820:7826   */\n      dup3\n        /* \"#utility.yul\":7817:7847   */\n      gt\n        /* \"#utility.yul\":7814:7870   */\n      iszero\n      tag_409\n      jumpi\n        /* \"#utility.yul\":7850:7868   */\n      tag_410\n      tag_100\n      jump\t// in\n    tag_410:\n        /* \"#utility.yul\":7814:7870   */\n    tag_409:\n        /* \"#utility.yul\":7900:7904   */\n      0x20\n        /* \"#utility.yul\":7892:7898   */\n      dup3\n        /* \"#utility.yul\":7888:7905   */\n      mul\n        /* \"#utility.yul\":7880:7905   */\n      swap1\n      pop\n        /* \"#utility.yul\":7960:7964   */\n      0x20\n        /* \"#utility.yul\":7954:7958   */\n      dup2\n        /* \"#utility.yul\":7950:7965   */\n      add\n        /* \"#utility.yul\":7942:7965   */\n      swap1\n      pop\n        /* \"#utility.yul\":7661:7972   */\n      swap2\n      swap1\n      pop\n      jump\t// out\n        /* \"#utility.yul\":7978:8095   */\n    tag_273:\n        /* \"#utility.yul\":8087:8088   */\n      0x00\n        /* \"#utility.yul\":8084:8085   */\n      dup1\n        /* \"#utility.yul\":8077:8089   */\n      revert\n        /* \"#utility.yul\":8118:8828   */\n    tag_274:\n        /* \"#utility.yul\":8214:8219   */\n      0x00\n        /* \"#utility.yul\":8239:8320   */\n      tag_413\n        /* \"#utility.yul\":8255:8319   */\n      tag_414\n        /* \"#utility.yul\":8312:8318   */\n      dup5\n        /* \"#utility.yul\":8255:8319   */\n      tag_272\n      jump\t// in\n    tag_414:\n        /* \"#utility.yul\":8239:8320   */\n      tag_263\n      jump\t// in\n    tag_413:\n        /* \"#utility.yul\":8230:8320   */\n      swap1\n      pop\n        /* \"#utility.yul\":8340:8345   */\n      dup1\n        /* \"#utility.yul\":8369:8375   */\n      dup4\n        /* \"#utility.yul\":8362:8367   */\n      dup3\n        /* \"#utility.yul\":8355:8376   */\n      mstore\n        /* \"#utility.yul\":8403:8407   */\n      0x20\n        /* \"#utility.yul\":8396:8401   */\n      dup3\n        /* \"#utility.yul\":8392:8408   */\n      add\n        /* \"#utility.yul\":8385:8408   */\n      swap1\n      pop\n        /* \"#utility.yul\":8456:8460   */\n      0x20\n        /* \"#utility.yul\":8448:8454   */\n      dup5\n        /* \"#utility.yul\":8444:8461   */\n      mul\n        /* \"#utility.yul\":8436:8442   */\n      dup4\n        /* \"#utility.yul\":8432:8462   */\n      add\n        /* \"#utility.yul\":8485:8488   */\n      dup6\n        /* \"#utility.yul\":8477:8483   */\n      dup2\n        /* \"#utility.yul\":8474:8489   */\n      gt\n        /* \"#utility.yul\":8471:8593   */\n      iszero\n      tag_415\n      jumpi\n        /* \"#utility.yul\":8504:8583   */\n      tag_416\n      tag_273\n      jump\t// in\n    tag_416:\n        /* \"#utility.yul\":8471:8593   */\n    tag_415:\n        /* \"#utility.yul\":8619:8625   */\n      dup4\n        /* \"#utility.yul\":8602:8822   */\n    tag_417:\n        /* \"#utility.yul\":8636:8642   */\n      dup2\n        /* \"#utility.yul\":8631:8634   */\n      dup2\n        /* \"#utility.yul\":8628:8643   */\n      lt\n        /* \"#utility.yul\":8602:8822   */\n      iszero\n      tag_419\n      jumpi\n        /* \"#utility.yul\":8711:8714   */\n      dup1\n        /* \"#utility.yul\":8740:8777   */\n      tag_420\n        /* \"#utility.yul\":8773:8776   */\n      dup9\n        /* \"#utility.yul\":8761:8771   */\n      dup3\n        /* \"#utility.yul\":8740:8777   */\n      tag_252\n      jump\t// in\n    tag_420:\n        /* \"#utility.yul\":8735:8738   */\n      dup5\n        /* \"#utility.yul\":8728:8778   */\n      mstore\n        /* \"#utility.yul\":8807:8811   */\n      0x20\n        /* \"#utility.yul\":8802:8805   */\n      dup5\n        /* \"#utility.yul\":8798:8812   */\n      add\n        /* \"#utility.yul\":8791:8812   */\n      swap4\n      pop\n        /* \"#utility.yul\":8678:8822   */\n      pop\n        /* \"#utility.yul\":8662:8666   */\n      0x20\n        /* \"#utility.yul\":8657:8660   */\n      dup2\n        /* \"#utility.yul\":8653:8667   */\n      add\n        /* \"#utility.yul\":8646:8667   */\n      swap1\n      pop\n        /* \"#utility.yul\":8602:8822   */\n      jump(tag_417)\n    tag_419:\n        /* \"#utility.yul\":8606:8627   */\n      pop\n        /* \"#utility.yul\":8220:8828   */\n      pop\n      pop\n        /* \"#utility.yul\":8118:8828   */\n      swap4\n      swap3\n      pop\n      pop\n      pop\n      jump\t// out\n        /* \"#utility.yul\":8851:9221   */\n    tag_275:\n        /* \"#utility.yul\":8922:8927   */\n      0x00\n        /* \"#utility.yul\":8971:8974   */\n      dup3\n        /* \"#utility.yul\":8964:8968   */\n      0x1f\n        /* \"#utility.yul\":8956:8962   */\n      dup4\n        /* \"#utility.yul\":8952:8969   */\n      add\n        /* \"#utility.yul\":8948:8975   */\n      slt\n        /* \"#utility.yul\":8938:9060   */\n      tag_422\n      jumpi\n        /* \"#utility.yul\":8979:9058   */\n      tag_423\n      tag_259\n      jump\t// in\n    tag_423:\n        /* \"#utility.yul\":8938:9060   */\n    tag_422:\n        /* \"#utility.yul\":9096:9102   */\n      dup2\n        /* \"#utility.yul\":9083:9103   */\n      calldataload\n        /* \"#utility.yul\":9121:9215   */\n      tag_424\n        /* \"#utility.yul\":9211:9214   */\n      dup5\n        /* \"#utility.yul\":9203:9209   */\n      dup3\n        /* \"#utility.yul\":9196:9200   */\n      0x20\n        /* \"#utility.yul\":9188:9194   */\n      dup7\n        /* \"#utility.yul\":9184:9201   */\n      add\n        /* \"#utility.yul\":9121:9215   */\n      tag_274\n      jump\t// in\n    tag_424:\n        /* \"#utility.yul\":9112:9215   */\n      swap2\n      pop\n        /* \"#utility.yul\":8928:9221   */\n      pop\n        /* \"#utility.yul\":8851:9221   */\n      swap3\n      swap2\n      pop\n      pop\n      jump\t// out\n        /* \"#utility.yul\":9227:9534   */\n    tag_276:\n        /* \"#utility.yul\":9288:9292   */\n      0x00\n        /* \"#utility.yul\":9378:9396   */\n      0xffffffffffffffff\n        /* \"#utility.yul\":9370:9376   */\n      dup3\n        /* \"#utility.yul\":9367:9397   */\n      gt\n        /* \"#utility.yul\":9364:9420   */\n      iszero\n      tag_426\n      jumpi\n        /* \"#utility.yul\":9400:9418   */\n      tag_427\n      tag_100\n      jump\t// in\n    tag_427:\n        /* \"#utility.yul\":9364:9420   */\n    tag_426:\n        /* \"#utility.yul\":9438:9467   */\n      tag_428\n        /* \"#utility.yul\":9460:9466   */\n      dup3\n        /* \"#utility.yul\":9438:9467   */\n      tag_261\n      jump\t// in\n    tag_428:\n        /* \"#utility.yul\":9430:9467   */\n      swap1\n      pop\n        /* \"#utility.yul\":9522:9526   */\n      0x20\n        /* \"#utility.yul\":9516:9520   */\n      dup2\n        /* \"#utility.yul\":9512:9527   */\n      add\n        /* \"#utility.yul\":9504:9527   */\n      swap1\n      pop\n        /* \"#utility.yul\":9227:9534   */\n      swap2\n      swap1\n      pop\n      jump\t// out\n        /* \"#utility.yul\":9540:9963   */\n    tag_277:\n        /* \"#utility.yul\":9617:9622   */\n      0x00\n        /* \"#utility.yul\":9642:9707   */\n      tag_430\n        /* \"#utility.yul\":9658:9706   */\n      tag_431\n        /* \"#utility.yul\":9699:9705   */\n      dup5\n        /* \"#utility.yul\":9658:9706   */\n      tag_276\n      jump\t// in\n    tag_431:\n        /* \"#utility.yul\":9642:9707   */\n      tag_263\n      jump\t// in\n    tag_430:\n        /* \"#utility.yul\":9633:9707   */\n      swap1\n      pop\n        /* \"#utility.yul\":9730:9736   */\n      dup3\n        /* \"#utility.yul\":9723:9728   */\n      dup2\n        /* \"#utility.yul\":9716:9737   */\n      mstore\n        /* \"#utility.yul\":9768:9772   */\n      0x20\n        /* \"#utility.yul\":9761:9766   */\n      dup2\n        /* \"#utility.yul\":9757:9773   */\n      add\n        /* \"#utility.yul\":9806:9809   */\n      dup5\n        /* \"#utility.yul\":9797:9803   */\n      dup5\n        /* \"#utility.yul\":9792:9795   */\n      dup5\n        /* \"#utility.yul\":9788:9804   */\n      add\n        /* \"#utility.yul\":9785:9810   */\n      gt\n        /* \"#utility.yul\":9782:9894   */\n      iszero\n      tag_432\n      jumpi\n        /* \"#utility.yul\":9813:9892   */\n      tag_433\n      tag_260\n      jump\t// in\n    tag_433:\n        /* \"#utility.yul\":9782:9894   */\n    tag_432:\n        /* \"#utility.yul\":9903:9957   */\n      tag_434\n        /* \"#utility.yul\":9950:9956   */\n      dup5\n        /* \"#utility.yul\":9945:9948   */\n      dup3\n        /* \"#utility.yul\":9940:9943   */\n      dup6\n        /* \"#utility.yul\":9903:9957   */\n      tag_265\n      jump\t// in\n    tag_434:\n        /* \"#utility.yul\":9623:9963   */\n      pop\n        /* \"#utility.yul\":9540:9963   */\n      swap4\n      swap3\n      pop\n      pop\n      pop\n      jump\t// out\n        /* \"#utility.yul\":9982:10320   */\n    tag_278:\n        /* \"#utility.yul\":10037:10042   */\n      0x00\n        /* \"#utility.yul\":10086:10089   */\n      dup3\n        /* \"#utility.yul\":10079:10083   */\n      0x1f\n        /* \"#utility.yul\":10071:10077   */\n      dup4\n        /* \"#utility.yul\":10067:10084   */\n      add\n        /* \"#utility.yul\":10063:10090   */\n      slt\n        /* \"#utility.yul\":10053:10175   */\n      tag_436\n      jumpi\n        /* \"#utility.yul\":10094:10173   */\n      tag_437\n      tag_259\n      jump\t// in\n    tag_437:\n        /* \"#utility.yul\":10053:10175   */\n    tag_436:\n        /* \"#utility.yul\":10211:10217   */\n      dup2\n        /* \"#utility.yul\":10198:10218   */\n      calldataload\n        /* \"#utility.yul\":10236:10314   */\n      tag_438\n        /* \"#utility.yul\":10310:10313   */\n      dup5\n        /* \"#utility.yul\":10302:10308   */\n      dup3\n        /* \"#utility.yul\":10295:10299   */\n      0x20\n        /* \"#utility.yul\":10287:10293   */\n      dup7\n        /* \"#utility.yul\":10283:10300   */\n      add\n        /* \"#utility.yul\":10236:10314   */\n      tag_277\n      jump\t// in\n    tag_438:\n        /* \"#utility.yul\":10227:10314   */\n      swap2\n      pop\n        /* \"#utility.yul\":10043:10320   */\n      pop\n        /* \"#utility.yul\":9982:10320   */\n      swap3\n      swap2\n      pop\n      pop\n      jump\t// out\n        /* \"#utility.yul\":10326:11835   */\n    tag_39:\n        /* \"#utility.yul\":10480:10486   */\n      0x00\n        /* \"#utility.yul\":10488:10494   */\n      dup1\n        /* \"#utility.yul\":10496:10502   */\n      0x00\n        /* \"#utility.yul\":10504:10510   */\n      dup1\n        /* \"#utility.yul\":10512:10518   */\n      0x00\n        /* \"#utility.yul\":10561:10564   */\n      0xa0\n        /* \"#utility.yul\":10549:10558   */\n      dup7\n        /* \"#utility.yul\":10540:10547   */\n      dup9\n        /* \"#utility.yul\":10536:10559   */\n      sub\n        /* \"#utility.yul\":10532:10565   */\n      slt\n        /* \"#utility.yul\":10529:10649   */\n      iszero\n      tag_440\n      jumpi\n        /* \"#utility.yul\":10568:10647   */\n      tag_441\n      tag_244\n      jump\t// in\n    tag_441:\n        /* \"#utility.yul\":10529:10649   */\n    tag_440:\n        /* \"#utility.yul\":10688:10689   */\n      0x00\n        /* \"#utility.yul\":10713:10766   */\n      tag_442\n        /* \"#utility.yul\":10758:10765   */\n      dup9\n        /* \"#utility.yul\":10749:10755   */\n      dup3\n        /* \"#utility.yul\":10738:10747   */\n      dup10\n        /* \"#utility.yul\":10734:10756   */\n      add\n        /* \"#utility.yul\":10713:10766   */\n      tag_249\n      jump\t// in\n    tag_442:\n        /* \"#utility.yul\":10703:10766   */\n      swap6\n      pop\n        /* \"#utility.yul\":10659:10776   */\n      pop\n        /* \"#utility.yul\":10815:10817   */\n      0x20\n        /* \"#utility.yul\":10841:10894   */\n      tag_443\n        /* \"#utility.yul\":10886:10893   */\n      dup9\n        /* \"#utility.yul\":10877:10883   */\n      dup3\n        /* \"#utility.yul\":10866:10875   */\n      dup10\n        /* \"#utility.yul\":10862:10884   */\n      add\n        /* \"#utility.yul\":10841:10894   */\n      tag_249\n      jump\t// in\n    tag_443:\n        /* \"#utility.yul\":10831:10894   */\n      swap5\n      pop\n        /* \"#utility.yul\":10786:10904   */\n      pop\n        /* \"#utility.yul\":10971:10973   */\n      0x40\n        /* \"#utility.yul\":10960:10969   */\n      dup7\n        /* \"#utility.yul\":10956:10974   */\n      add\n        /* \"#utility.yul\":10943:10975   */\n      calldataload\n        /* \"#utility.yul\":11002:11020   */\n      0xffffffffffffffff\n        /* \"#utility.yul\":10994:11000   */\n      dup2\n        /* \"#utility.yul\":10991:11021   */\n      gt\n        /* \"#utility.yul\":10988:11105   */\n      iszero\n      tag_444\n      jumpi\n        /* \"#utility.yul\":11024:11103   */\n      tag_445\n      tag_245\n      jump\t// in\n    tag_445:\n        /* \"#utility.yul\":10988:11105   */\n    tag_444:\n        /* \"#utility.yul\":11129:11207   */\n      tag_446\n        /* \"#utility.yul\":11199:11206   */\n      dup9\n        /* \"#utility.yul\":11190:11196   */\n      dup3\n        /* \"#utility.yul\":11179:11188   */\n      dup10\n        /* \"#utility.yul\":11175:11197   */\n      add\n        /* \"#utility.yul\":11129:11207   */\n      tag_275\n      jump\t// in\n    tag_446:\n        /* \"#utility.yul\":11119:11207   */\n      swap4\n      pop\n        /* \"#utility.yul\":10914:11217   */\n      pop\n        /* \"#utility.yul\":11284:11286   */\n      0x60\n        /* \"#utility.yul\":11273:11282   */\n      dup7\n        /* \"#utility.yul\":11269:11287   */\n      add\n        /* \"#utility.yul\":11256:11288   */\n      calldataload\n        /* \"#utility.yul\":11315:11333   */\n      0xffffffffffffffff\n        /* \"#utility.yul\":11307:11313   */\n      dup2\n        /* \"#utility.yul\":11304:11334   */\n      gt\n        /* \"#utility.yul\":11301:11418   */\n      iszero\n      tag_447\n      jumpi\n        /* \"#utility.yul\":11337:11416   */\n      tag_448\n      tag_245\n      jump\t// in\n    tag_448:\n        /* \"#utility.yul\":11301:11418   */\n    tag_447:\n        /* \"#utility.yul\":11442:11520   */\n      tag_449\n        /* \"#utility.yul\":11512:11519   */\n      dup9\n        /* \"#utility.yul\":11503:11509   */\n      dup3\n        /* \"#utility.yul\":11492:11501   */\n      dup10\n        /* \"#utility.yul\":11488:11510   */\n      add\n        /* \"#utility.yul\":11442:11520   */\n      tag_275\n      jump\t// in\n    tag_449:\n        /* \"#utility.yul\":11432:11520   */\n      swap3\n      pop\n        /* \"#utility.yul\":11227:11530   */\n      pop\n        /* \"#utility.yul\":11597:11600   */\n      0x80\n        /* \"#utility.yul\":11586:11595   */\n      dup7\n        /* \"#utility.yul\":11582:11601   */\n      add\n        /* \"#utility.yul\":11569:11602   */\n      calldataload\n        /* \"#utility.yul\":11629:11647   */\n      0xffffffffffffffff\n        /* \"#utility.yul\":11621:11627   */\n      dup2\n        /* \"#utility.yul\":11618:11648   */\n      gt\n        /* \"#utility.yul\":11615:11732   */\n      iszero\n      tag_450\n      jumpi\n        /* \"#utility.yul\":11651:11730   */\n      tag_451\n      tag_245\n      jump\t// in\n    tag_451:\n        /* \"#utility.yul\":11615:11732   */\n    tag_450:\n        /* \"#utility.yul\":11756:11818   */\n      tag_452\n        /* \"#utility.yul\":11810:11817   */\n      dup9\n        /* \"#utility.yul\":11801:11807   */\n      dup3\n        /* \"#utility.yul\":11790:11799   */\n      dup10\n        /* \"#utility.yul\":11786:11808   */\n      add\n        /* \"#utility.yul\":11756:11818   */\n      tag_278\n      jump\t// in\n    tag_452:\n        /* \"#utility.yul\":11746:11818   */\n      swap2\n      pop\n        /* \"#utility.yul\":11540:11828   */\n      pop\n        /* \"#utility.yul\":10326:11835   */\n      swap3\n      swap6\n      pop\n      swap3\n      swap6\n      swap1\n      swap4\n      pop\n      jump\t// out\n        /* \"#utility.yul\":11841:12152   */\n    tag_279:\n        /* \"#utility.yul\":11918:11922   */\n      0x00\n        /* \"#utility.yul\":12008:12026   */\n      0xffffffffffffffff\n        /* \"#utility.yul\":12000:12006   */\n      dup3\n        /* \"#utility.yul\":11997:12027   */\n      gt\n        /* \"#utility.yul\":11994:12050   */\n      iszero\n      tag_454\n      jumpi\n        /* \"#utility.yul\":12030:12048   */\n      tag_455\n      tag_100\n      jump\t// in\n    tag_455:\n        /* \"#utility.yul\":11994:12050   */\n    tag_454:\n        /* \"#utility.yul\":12080:12084   */\n      0x20\n        /* \"#utility.yul\":12072:12078   */\n      dup3\n        /* \"#utility.yul\":12068:12085   */\n      mul\n        /* \"#utility.yul\":12060:12085   */\n      swap1\n      pop\n        /* \"#utility.yul\":12140:12144   */\n      0x20\n        /* \"#utility.yul\":12134:12138   */\n      dup2\n        /* \"#utility.yul\":12130:12145   */\n      add\n        /* \"#utility.yul\":12122:12145   */\n      swap1\n      pop\n        /* \"#utility.yul\":11841:12152   */\n      swap2\n      swap1\n      pop\n      jump\t// out\n        /* \"#utility.yul\":12175:12885   */\n    tag_280:\n        /* \"#utility.yul\":12271:12276   */\n      0x00\n        /* \"#utility.yul\":12296:12377   */\n      tag_457\n        /* \"#utility.yul\":12312:12376   */\n      tag_458\n        /* \"#utility.yul\":12369:12375   */\n      dup5\n        /* \"#utility.yul\":12312:12376   */\n      tag_279\n      jump\t// in\n    tag_458:\n        /* \"#utility.yul\":12296:12377   */\n      tag_263\n      jump\t// in\n    tag_457:\n        /* \"#utility.yul\":12287:12377   */\n      swap1\n      pop\n        /* \"#utility.yul\":12397:12402   */\n      dup1\n        /* \"#utility.yul\":12426:12432   */\n      dup4\n        /* \"#utility.yul\":12419:12424   */\n      dup3\n        /* \"#utility.yul\":12412:12433   */\n      mstore\n        /* \"#utility.yul\":12460:12464   */\n      0x20\n        /* \"#utility.yul\":12453:12458   */\n      dup3\n        /* \"#utility.yul\":12449:12465   */\n      add\n        /* \"#utility.yul\":12442:12465   */\n      swap1\n      pop\n        /* \"#utility.yul\":12513:12517   */\n      0x20\n        /* \"#utility.yul\":12505:12511   */\n      dup5\n        /* \"#utility.yul\":12501:12518   */\n      mul\n        /* \"#utility.yul\":12493:12499   */\n      dup4\n        /* \"#utility.yul\":12489:12519   */\n      add\n        /* \"#utility.yul\":12542:12545   */\n      dup6\n        /* \"#utility.yul\":12534:12540   */\n      dup2\n        /* \"#utility.yul\":12531:12546   */\n      gt\n        /* \"#utility.yul\":12528:12650   */\n      iszero\n      tag_459\n      jumpi\n        /* \"#utility.yul\":12561:12640   */\n      tag_460\n      tag_273\n      jump\t// in\n    tag_460:\n        /* \"#utility.yul\":12528:12650   */\n    tag_459:\n        /* \"#utility.yul\":12676:12682   */\n      dup4\n        /* \"#utility.yul\":12659:12879   */\n    tag_461:\n        /* \"#utility.yul\":12693:12699   */\n      dup2\n        /* \"#utility.yul\":12688:12691   */\n      dup2\n        /* \"#utility.yul\":12685:12700   */\n      lt\n        /* \"#utility.yul\":12659:12879   */\n      iszero\n      tag_463\n      jumpi\n        /* \"#utility.yul\":12768:12771   */\n      dup1\n        /* \"#utility.yul\":12797:12834   */\n      tag_464\n        /* \"#utility.yul\":12830:12833   */\n      dup9\n        /* \"#utility.yul\":12818:12828   */\n      dup3\n        /* \"#utility.yul\":12797:12834   */\n      tag_249\n      jump\t// in\n    tag_464:\n        /* \"#utility.yul\":12792:12795   */\n      dup5\n        /* \"#utility.yul\":12785:12835   */\n      mstore\n        /* \"#utility.yul\":12864:12868   */\n      0x20\n        /* \"#utility.yul\":12859:12862   */\n      dup5\n        /* \"#utility.yul\":12855:12869   */\n      add\n        /* \"#utility.yul\":12848:12869   */\n      swap4\n      pop\n        /* \"#utility.yul\":12735:12879   */\n      pop\n        /* \"#utility.yul\":12719:12723   */\n      0x20\n        /* \"#utility.yul\":12714:12717   */\n      dup2\n        /* \"#utility.yul\":12710:12724   */\n      add\n        /* \"#utility.yul\":12703:12724   */\n      swap1\n      pop\n        /* \"#utility.yul\":12659:12879   */\n      jump(tag_461)\n    tag_463:\n        /* \"#utility.yul\":12663:12684   */\n      pop\n        /* \"#utility.yul\":12277:12885   */\n      pop\n      pop\n        /* \"#utility.yul\":12175:12885   */\n      swap4\n      swap3\n      pop\n      pop\n      pop\n      jump\t// out\n        /* \"#utility.yul\":12908:13278   */\n    tag_281:\n        /* \"#utility.yul\":12979:12984   */\n      0x00\n        /* \"#utility.yul\":13028:13031   */\n      dup3\n        /* \"#utility.yul\":13021:13025   */\n      0x1f\n        /* \"#utility.yul\":13013:13019   */\n      dup4\n        /* \"#utility.yul\":13009:13026   */\n      add\n        /* \"#utility.yul\":13005:13032   */\n      slt\n        /* \"#utility.yul\":12995:13117   */\n      tag_466\n      jumpi\n        /* \"#utility.yul\":13036:13115   */\n      tag_467\n      tag_259\n      jump\t// in\n    tag_467:\n        /* \"#utility.yul\":12995:13117   */\n    tag_466:\n        /* \"#utility.yul\":13153:13159   */\n      dup2\n        /* \"#utility.yul\":13140:13160   */\n      calldataload\n        /* \"#utility.yul\":13178:13272   */\n      tag_468\n        /* \"#utility.yul\":13268:13271   */\n      dup5\n        /* \"#utility.yul\":13260:13266   */\n      dup3\n        /* \"#utility.yul\":13253:13257   */\n      0x20\n        /* \"#utility.yul\":13245:13251   */\n      dup7\n        /* \"#utility.yul\":13241:13258   */\n      add\n        /* \"#utility.yul\":13178:13272   */\n      tag_280\n      jump\t// in\n    tag_468:\n        /* \"#utility.yul\":13169:13272   */\n      swap2\n      pop\n        /* \"#utility.yul\":12985:13278   */\n      pop\n        /* \"#utility.yul\":12908:13278   */\n      swap3\n      swap2\n      pop\n      pop\n      jump\t// out\n        /* \"#utility.yul\":13284:14178   */\n    tag_43:\n        /* \"#utility.yul\":13402:13408   */\n      0x00\n        /* \"#utility.yul\":13410:13416   */\n      dup1\n        /* \"#utility.yul\":13459:13461   */\n      0x40\n        /* \"#utility.yul\":13447:13456   */\n      dup4\n        /* \"#utility.yul\":13438:13445   */\n      dup6\n        /* \"#utility.yul\":13434:13457   */\n      sub\n        /* \"#utility.yul\":13430:13462   */\n      slt\n        /* \"#utility.yul\":13427:13546   */\n      iszero\n      tag_470\n      jumpi\n        /* \"#utility.yul\":13465:13544   */\n      tag_471\n      tag_244\n      jump\t// in\n    tag_471:\n        /* \"#utility.yul\":13427:13546   */\n    tag_470:\n        /* \"#utility.yul\":13613:13614   */\n      0x00\n        /* \"#utility.yul\":13602:13611   */\n      dup4\n        /* \"#utility.yul\":13598:13615   */\n      add\n        /* \"#utility.yul\":13585:13616   */\n      calldataload\n        /* \"#utility.yul\":13643:13661   */\n      0xffffffffffffffff\n        /* \"#utility.yul\":13635:13641   */\n      dup2\n        /* \"#utility.yul\":13632:13662   */\n      gt\n        /* \"#utility.yul\":13629:13746   */\n      iszero\n      tag_472\n      jumpi\n        /* \"#utility.yul\":13665:13744   */\n      tag_473\n      tag_245\n      jump\t// in\n    tag_473:\n        /* \"#utility.yul\":13629:13746   */\n    tag_472:\n        /* \"#utility.yul\":13770:13848   */\n      tag_474\n        /* \"#utility.yul\":13840:13847   */\n      dup6\n        /* \"#utility.yul\":13831:13837   */\n      dup3\n        /* \"#utility.yul\":13820:13829   */\n      dup7\n        /* \"#utility.yul\":13816:13838   */\n      add\n        /* \"#utility.yul\":13770:13848   */\n      tag_281\n      jump\t// in\n    tag_474:\n        /* \"#utility.yul\":13760:13848   */\n      swap3\n      pop\n        /* \"#utility.yul\":13556:13858   */\n      pop\n        /* \"#utility.yul\":13925:13927   */\n      0x20\n        /* \"#utility.yul\":13914:13923   */\n      dup4\n        /* \"#utility.yul\":13910:13928   */\n      add\n        /* \"#utility.yul\":13897:13929   */\n      calldataload\n        /* \"#utility.yul\":13956:13974   */\n      0xffffffffffffffff\n        /* \"#utility.yul\":13948:13954   */\n      dup2\n        /* \"#utility.yul\":13945:13975   */\n      gt\n        /* \"#utility.yul\":13942:14059   */\n      iszero\n      tag_475\n      jumpi\n        /* \"#utility.yul\":13978:14057   */\n      tag_476\n      tag_245\n      jump\t// in\n    tag_476:\n        /* \"#utility.yul\":13942:14059   */\n    tag_475:\n        /* \"#utility.yul\":14083:14161   */\n      tag_477\n        /* \"#utility.yul\":14153:14160   */\n      dup6\n        /* \"#utility.yul\":14144:14150   */\n      dup3\n        /* \"#utility.yul\":14133:14142   */\n      dup7\n        /* \"#utility.yul\":14129:14151   */\n      add\n        /* \"#utility.yul\":14083:14161   */\n      tag_275\n      jump\t// in\n    tag_477:\n        /* \"#utility.yul\":14073:14161   */\n      swap2\n      pop\n        /* \"#utility.yul\":13868:14171   */\n      pop\n        /* \"#utility.yul\":13284:14178   */\n      swap3\n      pop\n      swap3\n      swap1\n      pop\n      jump\t// out\n        /* \"#utility.yul\":14184:14298   */\n    tag_282:\n        /* \"#utility.yul\":14251:14257   */\n      0x00\n        /* \"#utility.yul\":14285:14290   */\n      dup2\n        /* \"#utility.yul\":14279:14291   */\n      mload\n        /* \"#utility.yul\":14269:14291   */\n      swap1\n      pop\n        /* \"#utility.yul\":14184:14298   */\n      swap2\n      swap1\n      pop\n      jump\t// out\n        /* \"#utility.yul\":14304:14488   */\n    tag_283:\n        /* \"#utility.yul\":14403:14414   */\n      0x00\n        /* \"#utility.yul\":14437:14443   */\n      dup3\n        /* \"#utility.yul\":14432:14435   */\n      dup3\n        /* \"#utility.yul\":14425:14444   */\n      mstore\n        /* \"#utility.yul\":14477:14481   */\n      0x20\n        /* \"#utility.yul\":14472:14475   */\n      dup3\n        /* \"#utility.yul\":14468:14482   */\n      add\n        /* \"#utility.yul\":14453:14482   */\n      swap1\n      pop\n        /* \"#utility.yul\":14304:14488   */\n      swap3\n      swap2\n      pop\n      pop\n      jump\t// out\n        /* \"#utility.yul\":14494:14626   */\n    tag_284:\n        /* \"#utility.yul\":14561:14565   */\n      0x00\n        /* \"#utility.yul\":14584:14587   */\n      dup2\n        /* \"#utility.yul\":14576:14587   */\n      swap1\n      pop\n        /* \"#utility.yul\":14614:14618   */\n      0x20\n        /* \"#utility.yul\":14609:14612   */\n      dup3\n        /* \"#utility.yul\":14605:14619   */\n      add\n        /* \"#utility.yul\":14597:14619   */\n      swap1\n      pop\n        /* \"#utility.yul\":14494:14626   */\n      swap2\n      swap1\n      pop\n      jump\t// out\n        /* \"#utility.yul\":14632:14740   */\n    tag_285:\n        /* \"#utility.yul\":14709:14733   */\n      tag_482\n        /* \"#utility.yul\":14727:14732   */\n      dup2\n        /* \"#utility.yul\":14709:14733   */\n      tag_250\n      jump\t// in\n    tag_482:\n        /* \"#utility.yul\":14704:14707   */\n      dup3\n        /* \"#utility.yul\":14697:14734   */\n      mstore\n        /* \"#utility.yul\":14632:14740   */\n      pop\n      pop\n      jump\t// out\n        /* \"#utility.yul\":14746:14925   */\n    tag_286:\n        /* \"#utility.yul\":14815:14825   */\n      0x00\n        /* \"#utility.yul\":14836:14882   */\n      tag_484\n        /* \"#utility.yul\":14878:14881   */\n      dup4\n        /* \"#utility.yul\":14870:14876   */\n      dup4\n        /* \"#utility.yul\":14836:14882   */\n      tag_285\n      jump\t// in\n    tag_484:\n        /* \"#utility.yul\":14914:14918   */\n      0x20\n        /* \"#utility.yul\":14909:14912   */\n      dup4\n        /* \"#utility.yul\":14905:14919   */\n      add\n        /* \"#utility.yul\":14891:14919   */\n      swap1\n      pop\n        /* \"#utility.yul\":14746:14925   */\n      swap3\n      swap2\n      pop\n      pop\n      jump\t// out\n        /* \"#utility.yul\":14931:15044   */\n    tag_287:\n        /* \"#utility.yul\":15001:15005   */\n      0x00\n        /* \"#utility.yul\":15033:15037   */\n      0x20\n        /* \"#utility.yul\":15028:15031   */\n      dup3\n        /* \"#utility.yul\":15024:15038   */\n      add\n        /* \"#utility.yul\":15016:15038   */\n      swap1\n      pop\n        /* \"#utility.yul\":14931:15044   */\n      swap2\n      swap1\n      pop\n      jump\t// out\n        /* \"#utility.yul\":15080:15812   */\n    tag_288:\n        /* \"#utility.yul\":15199:15202   */\n      0x00\n        /* \"#utility.yul\":15228:15282   */\n      tag_487\n        /* \"#utility.yul\":15276:15281   */\n      dup3\n        /* \"#utility.yul\":15228:15282   */\n      tag_282\n      jump\t// in\n    tag_487:\n        /* \"#utility.yul\":15298:15384   */\n      tag_488\n        /* \"#utility.yul\":15377:15383   */\n      dup2\n        /* \"#utility.yul\":15372:15375   */\n      dup6\n        /* \"#utility.yul\":15298:15384   */\n      tag_283\n      jump\t// in\n    tag_488:\n        /* \"#utility.yul\":15291:15384   */\n      swap4\n      pop\n        /* \"#utility.yul\":15408:15464   */\n      tag_489\n        /* \"#utility.yul\":15458:15463   */\n      dup4\n        /* \"#utility.yul\":15408:15464   */\n      tag_284\n      jump\t// in\n    tag_489:\n        /* \"#utility.yul\":15487:15494   */\n      dup1\n        /* \"#utility.yul\":15518:15519   */\n      0x00\n        /* \"#utility.yul\":15503:15787   */\n    tag_490:\n        /* \"#utility.yul\":15528:15534   */\n      dup4\n        /* \"#utility.yul\":15525:15526   */\n      dup2\n        /* \"#utility.yul\":15522:15535   */\n      lt\n        /* \"#utility.yul\":15503:15787   */\n      iszero\n      tag_492\n      jumpi\n        /* \"#utility.yul\":15604:15610   */\n      dup2\n        /* \"#utility.yul\":15598:15611   */\n      mload\n        /* \"#utility.yul\":15631:15694   */\n      tag_493\n        /* \"#utility.yul\":15690:15693   */\n      dup9\n        /* \"#utility.yul\":15675:15688   */\n      dup3\n        /* \"#utility.yul\":15631:15694   */\n      tag_286\n      jump\t// in\n    tag_493:\n        /* \"#utility.yul\":15624:15694   */\n      swap8\n      pop\n        /* \"#utility.yul\":15717:15777   */\n      tag_494\n        /* \"#utility.yul\":15770:15776   */\n      dup4\n        /* \"#utility.yul\":15717:15777   */\n      tag_287\n      jump\t// in\n    tag_494:\n        /* \"#utility.yul\":15707:15777   */\n      swap3\n      pop\n        /* \"#utility.yul\":15563:15787   */\n      pop\n        /* \"#utility.yul\":15550:15551   */\n      0x01\n        /* \"#utility.yul\":15547:15548   */\n      dup2\n        /* \"#utility.yul\":15543:15552   */\n      add\n        /* \"#utility.yul\":15538:15552   */\n      swap1\n      pop\n        /* \"#utility.yul\":15503:15787   */\n      jump(tag_490)\n    tag_492:\n        /* \"#utility.yul\":15507:15521   */\n      pop\n        /* \"#utility.yul\":15803:15806   */\n      dup6\n        /* \"#utility.yul\":15796:15806   */\n      swap4\n      pop\n        /* \"#utility.yul\":15204:15812   */\n      pop\n      pop\n      pop\n        /* \"#utility.yul\":15080:15812   */\n      swap3\n      swap2\n      pop\n      pop\n      jump\t// out\n        /* \"#utility.yul\":15818:16191   */\n    tag_46:\n        /* \"#utility.yul\":15961:15965   */\n      0x00\n        /* \"#utility.yul\":15999:16001   */\n      0x20\n        /* \"#utility.yul\":15988:15997   */\n      dup3\n        /* \"#utility.yul\":15984:16002   */\n      add\n        /* \"#utility.yul\":15976:16002   */\n      swap1\n      pop\n        /* \"#utility.yul\":16048:16057   */\n      dup2\n        /* \"#utility.yul\":16042:16046   */\n      dup2\n        /* \"#utility.yul\":16038:16058   */\n      sub\n        /* \"#utility.yul\":16034:16035   */\n      0x00\n        /* \"#utility.yul\":16023:16032   */\n      dup4\n        /* \"#utility.yul\":16019:16036   */\n      add\n        /* \"#utility.yul\":16012:16059   */\n      mstore\n        /* \"#utility.yul\":16076:16184   */\n      tag_496\n        /* \"#utility.yul\":16179:16183   */\n      dup2\n        /* \"#utility.yul\":16170:16176   */\n      dup5\n        /* \"#utility.yul\":16076:16184   */\n      tag_288\n      jump\t// in\n    tag_496:\n        /* \"#utility.yul\":16068:16184   */\n      swap1\n      pop\n        /* \"#utility.yul\":15818:16191   */\n      swap3\n      swap2\n      pop\n      pop\n      jump\t// out\n        /* \"#utility.yul\":16197:16816   */\n    tag_49:\n        /* \"#utility.yul\":16274:16280   */\n      0x00\n        /* \"#utility.yul\":16282:16288   */\n      dup1\n        /* \"#utility.yul\":16290:16296   */\n      0x00\n        /* \"#utility.yul\":16339:16341   */\n      0x60\n        /* \"#utility.yul\":16327:16336   */\n      dup5\n        /* \"#utility.yul\":16318:16325   */\n      dup7\n        /* \"#utility.yul\":16314:16337   */\n      sub\n        /* \"#utility.yul\":16310:16342   */\n      slt\n        /* \"#utility.yul\":16307:16426   */\n      iszero\n      tag_498\n      jumpi\n        /* \"#utility.yul\":16345:16424   */\n      tag_499\n      tag_244\n      jump\t// in\n    tag_499:\n        /* \"#utility.yul\":16307:16426   */\n    tag_498:\n        /* \"#utility.yul\":16465:16466   */\n      0x00\n        /* \"#utility.yul\":16490:16543   */\n      tag_500\n        /* \"#utility.yul\":16535:16542   */\n      dup7\n        /* \"#utility.yul\":16526:16532   */\n      dup3\n        /* \"#utility.yul\":16515:16524   */\n      dup8\n        /* \"#utility.yul\":16511:16533   */\n      add\n        /* \"#utility.yul\":16490:16543   */\n      tag_249\n      jump\t// in\n    tag_500:\n        /* \"#utility.yul\":16480:16543   */\n      swap4\n      pop\n        /* \"#utility.yul\":16436:16553   */\n      pop\n        /* \"#utility.yul\":16592:16594   */\n      0x20\n        /* \"#utility.yul\":16618:16671   */\n      tag_501\n        /* \"#utility.yul\":16663:16670   */\n      dup7\n        /* \"#utility.yul\":16654:16660   */\n      dup3\n        /* \"#utility.yul\":16643:16652   */\n      dup8\n        /* \"#utility.yul\":16639:16661   */\n      add\n        /* \"#utility.yul\":16618:16671   */\n      tag_252\n      jump\t// in\n    tag_501:\n        /* \"#utility.yul\":16608:16671   */\n      swap3\n      pop\n        /* \"#utility.yul\":16563:16681   */\n      pop\n        /* \"#utility.yul\":16720:16722   */\n      0x40\n        /* \"#utility.yul\":16746:16799   */\n      tag_502\n        /* \"#utility.yul\":16791:16798   */\n      dup7\n        /* \"#utility.yul\":16782:16788   */\n      dup3\n        /* \"#utility.yul\":16771:16780   */\n      dup8\n        /* \"#utility.yul\":16767:16789   */\n      add\n        /* \"#utility.yul\":16746:16799   */\n      tag_252\n      jump\t// in\n    tag_502:\n        /* \"#utility.yul\":16736:16799   */\n      swap2\n      pop\n        /* \"#utility.yul\":16691:16809   */\n      pop\n        /* \"#utility.yul\":16197:16816   */\n      swap3\n      pop\n      swap3\n      pop\n      swap3\n      jump\t// out\n        /* \"#utility.yul\":16822:16938   */\n    tag_289:\n        /* \"#utility.yul\":16892:16913   */\n      tag_504\n        /* \"#utility.yul\":16907:16912   */\n      dup2\n        /* \"#utility.yul\":16892:16913   */\n      tag_257\n      jump\t// in\n    tag_504:\n        /* \"#utility.yul\":16885:16890   */\n      dup2\n        /* \"#utility.yul\":16882:16914   */\n      eq\n        /* \"#utility.yul\":16872:16932   */\n      tag_505\n      jumpi\n        /* \"#utility.yul\":16928:16929   */\n      0x00\n        /* \"#utility.yul\":16925:16926   */\n      dup1\n        /* \"#utility.yul\":16918:16930   */\n      revert\n        /* \"#utility.yul\":16872:16932   */\n    tag_505:\n        /* \"#utility.yul\":16822:16938   */\n      pop\n      jump\t// out\n        /* \"#utility.yul\":16944:17077   */\n    tag_290:\n        /* \"#utility.yul\":16987:16992   */\n      0x00\n        /* \"#utility.yul\":17025:17031   */\n      dup2\n        /* \"#utility.yul\":17012:17032   */\n      calldataload\n        /* \"#utility.yul\":17003:17032   */\n      swap1\n      pop\n        /* \"#utility.yul\":17041:17071   */\n      tag_507\n        /* \"#utility.yul\":17065:17070   */\n      dup2\n        /* \"#utility.yul\":17041:17071   */\n      tag_289\n      jump\t// in\n    tag_507:\n        /* \"#utility.yul\":16944:17077   */\n      swap3\n      swap2\n      pop\n      pop\n      jump\t// out\n        /* \"#utility.yul\":17083:17551   */\n    tag_53:\n        /* \"#utility.yul\":17148:17154   */\n      0x00\n        /* \"#utility.yul\":17156:17162   */\n      dup1\n        /* \"#utility.yul\":17205:17207   */\n      0x40\n        /* \"#utility.yul\":17193:17202   */\n      dup4\n        /* \"#utility.yul\":17184:17191   */\n      dup6\n        /* \"#utility.yul\":17180:17203   */\n      sub\n        /* \"#utility.yul\":17176:17208   */\n      slt\n        /* \"#utility.yul\":17173:17292   */\n      iszero\n      tag_509\n      jumpi\n        /* \"#utility.yul\":17211:17290   */\n      tag_510\n      tag_244\n      jump\t// in\n    tag_510:\n        /* \"#utility.yul\":17173:17292   */\n    tag_509:\n        /* \"#utility.yul\":17331:17332   */\n      0x00\n        /* \"#utility.yul\":17356:17409   */\n      tag_511\n        /* \"#utility.yul\":17401:17408   */\n      dup6\n        /* \"#utility.yul\":17392:17398   */\n      dup3\n        /* \"#utility.yul\":17381:17390   */\n      dup7\n        /* \"#utility.yul\":17377:17399   */\n      add\n        /* \"#utility.yul\":17356:17409   */\n      tag_249\n      jump\t// in\n    tag_511:\n        /* \"#utility.yul\":17346:17409   */\n      swap3\n      pop\n        /* \"#utility.yul\":17302:17419   */\n      pop\n        /* \"#utility.yul\":17458:17460   */\n      0x20\n        /* \"#utility.yul\":17484:17534   */\n      tag_512\n        /* \"#utility.yul\":17526:17533   */\n      dup6\n        /* \"#utility.yul\":17517:17523   */\n      dup3\n        /* \"#utility.yul\":17506:17515   */\n      dup7\n        /* \"#utility.yul\":17502:17524   */\n      add\n        /* \"#utility.yul\":17484:17534   */\n      tag_290\n      jump\t// in\n    tag_512:\n        /* \"#utility.yul\":17474:17534   */\n      swap2\n      pop\n        /* \"#utility.yul\":17429:17544   */\n      pop\n        /* \"#utility.yul\":17083:17551   */\n      swap3\n      pop\n      swap3\n      swap1\n      pop\n      jump\t// out\n        /* \"#utility.yul\":17557:18031   */\n    tag_57:\n        /* \"#utility.yul\":17625:17631   */\n      0x00\n        /* \"#utility.yul\":17633:17639   */\n      dup1\n        /* \"#utility.yul\":17682:17684   */\n      0x40\n        /* \"#utility.yul\":17670:17679   */\n      dup4\n        /* \"#utility.yul\":17661:17668   */\n      dup6\n        /* \"#utility.yul\":17657:17680   */\n      sub\n        /* \"#utility.yul\":17653:17685   */\n      slt\n        /* \"#utility.yul\":17650:17769   */\n      iszero\n      tag_514\n      jumpi\n        /* \"#utility.yul\":17688:17767   */\n      tag_515\n      tag_244\n      jump\t// in\n    tag_515:\n        /* \"#utility.yul\":17650:17769   */\n    tag_514:\n        /* \"#utility.yul\":17808:17809   */\n      0x00\n        /* \"#utility.yul\":17833:17886   */\n      tag_516\n        /* \"#utility.yul\":17878:17885   */\n      dup6\n        /* \"#utility.yul\":17869:17875   */\n      dup3\n        /* \"#utility.yul\":17858:17867   */\n      dup7\n        /* \"#utility.yul\":17854:17876   */\n      add\n        /* \"#utility.yul\":17833:17886   */\n      tag_249\n      jump\t// in\n    tag_516:\n        /* \"#utility.yul\":17823:17886   */\n      swap3\n      pop\n        /* \"#utility.yul\":17779:17896   */\n      pop\n        /* \"#utility.yul\":17935:17937   */\n      0x20\n        /* \"#utility.yul\":17961:18014   */\n      tag_517\n        /* \"#utility.yul\":18006:18013   */\n      dup6\n        /* \"#utility.yul\":17997:18003   */\n      dup3\n        /* \"#utility.yul\":17986:17995   */\n      dup7\n        /* \"#utility.yul\":17982:18004   */\n      add\n        /* \"#utility.yul\":17961:18014   */\n      tag_249\n      jump\t// in\n    tag_517:\n        /* \"#utility.yul\":17951:18014   */\n      swap2\n      pop\n        /* \"#utility.yul\":17906:18024   */\n      pop\n        /* \"#utility.yul\":17557:18031   */\n      swap3\n      pop\n      swap3\n      swap1\n      pop\n      jump\t// out\n        /* \"#utility.yul\":18037:19126   */\n    tag_62:\n        /* \"#utility.yul\":18141:18147   */\n      0x00\n        /* \"#utility.yul\":18149:18155   */\n      dup1\n        /* \"#utility.yul\":18157:18163   */\n      0x00\n        /* \"#utility.yul\":18165:18171   */\n      dup1\n        /* \"#utility.yul\":18173:18179   */\n      0x00\n        /* \"#utility.yul\":18222:18225   */\n      0xa0\n        /* \"#utility.yul\":18210:18219   */\n      dup7\n        /* \"#utility.yul\":18201:18208   */\n      dup9\n        /* \"#utility.yul\":18197:18220   */\n      sub\n        /* \"#utility.yul\":18193:18226   */\n      slt\n        /* \"#utility.yul\":18190:18310   */\n      iszero\n      tag_519\n      jumpi\n        /* \"#utility.yul\":18229:18308   */\n      tag_520\n      tag_244\n      jump\t// in\n    tag_520:\n        /* \"#utility.yul\":18190:18310   */\n    tag_519:\n        /* \"#utility.yul\":18349:18350   */\n      0x00\n        /* \"#utility.yul\":18374:18427   */\n      tag_521\n        /* \"#utility.yul\":18419:18426   */\n      dup9\n        /* \"#utility.yul\":18410:18416   */\n      dup3\n        /* \"#utility.yul\":18399:18408   */\n      dup10\n        /* \"#utility.yul\":18395:18417   */\n      add\n        /* \"#utility.yul\":18374:18427   */\n      tag_249\n      jump\t// in\n    tag_521:\n        /* \"#utility.yul\":18364:18427   */\n      swap6\n      pop\n        /* \"#utility.yul\":18320:18437   */\n      pop\n        /* \"#utility.yul\":18476:18478   */\n      0x20\n        /* \"#utility.yul\":18502:18555   */\n      tag_522\n        /* \"#utility.yul\":18547:18554   */\n      dup9\n        /* \"#utility.yul\":18538:18544   */\n      dup3\n        /* \"#utility.yul\":18527:18536   */\n      dup10\n        /* \"#utility.yul\":18523:18545   */\n      add\n        /* \"#utility.yul\":18502:18555   */\n      tag_249\n      jump\t// in\n    tag_522:\n        /* \"#utility.yul\":18492:18555   */\n      swap5\n      pop\n        /* \"#utility.yul\":18447:18565   */\n      pop\n        /* \"#utility.yul\":18604:18606   */\n      0x40\n        /* \"#utility.yul\":18630:18683   */\n      tag_523\n        /* \"#utility.yul\":18675:18682   */\n      dup9\n        /* \"#utility.yul\":18666:18672   */\n      dup3\n        /* \"#utility.yul\":18655:18664   */\n      dup10\n        /* \"#utility.yul\":18651:18673   */\n      add\n        /* \"#utility.yul\":18630:18683   */\n      tag_252\n      jump\t// in\n    tag_523:\n        /* \"#utility.yul\":18620:18683   */\n      swap4\n      pop\n        /* \"#utility.yul\":18575:18693   */\n      pop\n        /* \"#utility.yul\":18732:18734   */\n      0x60\n        /* \"#utility.yul\":18758:18811   */\n      tag_524\n        /* \"#utility.yul\":18803:18810   */\n      dup9\n        /* \"#utility.yul\":18794:18800   */\n      dup3\n        /* \"#utility.yul\":18783:18792   */\n      dup10\n        /* \"#utility.yul\":18779:18801   */\n      add\n        /* \"#utility.yul\":18758:18811   */\n      tag_252\n      jump\t// in\n    tag_524:\n        /* \"#utility.yul\":18748:18811   */\n      swap3\n      pop\n        /* \"#utility.yul\":18703:18821   */\n      pop\n        /* \"#utility.yul\":18888:18891   */\n      0x80\n        /* \"#utility.yul\":18877:18886   */\n      dup7\n        /* \"#utility.yul\":18873:18892   */\n      add\n        /* \"#utility.yul\":18860:18893   */\n      calldataload\n        /* \"#utility.yul\":18920:18938   */\n      0xffffffffffffffff\n        /* \"#utility.yul\":18912:18918   */\n      dup2\n        /* \"#utility.yul\":18909:18939   */\n      gt\n        /* \"#utility.yul\":18906:19023   */\n      iszero\n      tag_525\n      jumpi\n        /* \"#utility.yul\":18942:19021   */\n      tag_526\n      tag_245\n      jump\t// in\n    tag_526:\n        /* \"#utility.yul\":18906:19023   */\n    tag_525:\n        /* \"#utility.yul\":19047:19109   */\n      tag_527\n        /* \"#utility.yul\":19101:19108   */\n      dup9\n        /* \"#utility.yul\":19092:19098   */\n      dup3\n        /* \"#utility.yul\":19081:19090   */\n      dup10\n        /* \"#utility.yul\":19077:19099   */\n      add\n        /* \"#utility.yul\":19047:19109   */\n      tag_278\n      jump\t// in\n    tag_527:\n        /* \"#utility.yul\":19037:19109   */\n      swap2\n      pop\n        /* \"#utility.yul\":18831:19119   */\n      pop\n        /* \"#utility.yul\":18037:19126   */\n      swap3\n      swap6\n      pop\n      swap3\n      swap6\n      swap1\n      swap4\n      pop\n      jump\t// out\n        /* \"#utility.yul\":19132:19280   */\n    tag_291:\n        /* \"#utility.yul\":19234:19245   */\n      0x00\n        /* \"#utility.yul\":19271:19274   */\n      dup2\n        /* \"#utility.yul\":19256:19274   */\n      swap1\n      pop\n        /* \"#utility.yul\":19132:19280   */\n      swap3\n      swap2\n      pop\n      pop\n      jump\t// out\n        /* \"#utility.yul\":19286:19676   */\n    tag_292:\n        /* \"#utility.yul\":19392:19395   */\n      0x00\n        /* \"#utility.yul\":19420:19459   */\n      tag_530\n        /* \"#utility.yul\":19453:19458   */\n      dup3\n        /* \"#utility.yul\":19420:19459   */\n      tag_268\n      jump\t// in\n    tag_530:\n        /* \"#utility.yul\":19475:19564   */\n      tag_531\n        /* \"#utility.yul\":19557:19563   */\n      dup2\n        /* \"#utility.yul\":19552:19555   */\n      dup6\n        /* \"#utility.yul\":19475:19564   */\n      tag_291\n      jump\t// in\n    tag_531:\n        /* \"#utility.yul\":19468:19564   */\n      swap4\n      pop\n        /* \"#utility.yul\":19573:19638   */\n      tag_532\n        /* \"#utility.yul\":19631:19637   */\n      dup2\n        /* \"#utility.yul\":19626:19629   */\n      dup6\n        /* \"#utility.yul\":19619:19623   */\n      0x20\n        /* \"#utility.yul\":19612:19617   */\n      dup7\n        /* \"#utility.yul\":19608:19624   */\n      add\n        /* \"#utility.yul\":19573:19638   */\n      tag_270\n      jump\t// in\n    tag_532:\n        /* \"#utility.yul\":19663:19669   */\n      dup1\n        /* \"#utility.yul\":19658:19661   */\n      dup5\n        /* \"#utility.yul\":19654:19670   */\n      add\n        /* \"#utility.yul\":19647:19670   */\n      swap2\n      pop\n        /* \"#utility.yul\":19396:19676   */\n      pop\n        /* \"#utility.yul\":19286:19676   */\n      swap3\n      swap2\n      pop\n      pop\n      jump\t// out\n        /* \"#utility.yul\":19682:19862   */\n    tag_293:\n        /* \"#utility.yul\":19730:19807   */\n      0x4e487b7100000000000000000000000000000000000000000000000000000000\n        /* \"#utility.yul\":19727:19728   */\n      0x00\n        /* \"#utility.yul\":19720:19808   */\n      mstore\n        /* \"#utility.yul\":19827:19831   */\n      0x22\n        /* \"#utility.yul\":19824:19825   */\n      0x04\n        /* \"#utility.yul\":19817:19832   */\n      mstore\n        /* \"#utility.yul\":19851:19855   */\n      0x24\n        /* \"#utility.yul\":19848:19849   */\n      0x00\n        /* \"#utility.yul\":19841:19856   */\n      revert\n        /* \"#utility.yul\":19868:20188   */\n    tag_144:\n        /* \"#utility.yul\":19912:19918   */\n      0x00\n        /* \"#utility.yul\":19949:19950   */\n      0x02\n        /* \"#utility.yul\":19943:19947   */\n      dup3\n        /* \"#utility.yul\":19939:19951   */\n      div\n        /* \"#utility.yul\":19929:19951   */\n      swap1\n      pop\n        /* \"#utility.yul\":19996:19997   */\n      0x01\n        /* \"#utility.yul\":19990:19994   */\n      dup3\n        /* \"#utility.yul\":19986:19998   */\n      and\n        /* \"#utility.yul\":20017:20035   */\n      dup1\n        /* \"#utility.yul\":20007:20088   */\n      tag_535\n      jumpi\n        /* \"#utility.yul\":20073:20077   */\n      0x7f\n        /* \"#utility.yul\":20065:20071   */\n      dup3\n        /* \"#utility.yul\":20061:20078   */\n      and\n        /* \"#utility.yul\":20051:20078   */\n      swap2\n      pop\n        /* \"#utility.yul\":20007:20088   */\n    tag_535:\n        /* \"#utility.yul\":20135:20137   */\n      0x20\n        /* \"#utility.yul\":20127:20133   */\n      dup3\n        /* \"#utility.yul\":20124:20138   */\n      lt\n        /* \"#utility.yul\":20104:20122   */\n      dup2\n        /* \"#utility.yul\":20101:20139   */\n      sub\n        /* \"#utility.yul\":20098:20182   */\n      tag_536\n      jumpi\n        /* \"#utility.yul\":20154:20172   */\n      tag_537\n      tag_293\n      jump\t// in\n    tag_537:\n        /* \"#utility.yul\":20098:20182   */\n    tag_536:\n        /* \"#utility.yul\":19919:20188   */\n      pop\n        /* \"#utility.yul\":19868:20188   */\n      swap2\n      swap1\n      pop\n      jump\t// out\n        /* \"#utility.yul\":20194:20335   */\n    tag_294:\n        /* \"#utility.yul\":20243:20247   */\n      0x00\n        /* \"#utility.yul\":20266:20269   */\n      dup2\n        /* \"#utility.yul\":20258:20269   */\n      swap1\n      pop\n        /* \"#utility.yul\":20289:20292   */\n      dup2\n        /* \"#utility.yul\":20286:20287   */\n      0x00\n        /* \"#utility.yul\":20279:20293   */\n      mstore\n        /* \"#utility.yul\":20323:20327   */\n      0x20\n        /* \"#utility.yul\":20320:20321   */\n      0x00\n        /* \"#utility.yul\":20310:20328   */\n      keccak256\n        /* \"#utility.yul\":20302:20328   */\n      swap1\n      pop\n        /* \"#utility.yul\":20194:20335   */\n      swap2\n      swap1\n      pop\n      jump\t// out\n        /* \"#utility.yul\":20365:21239   */\n    tag_295:\n        /* \"#utility.yul\":20468:20471   */\n      0x00\n        /* \"#utility.yul\":20505:20510   */\n      dup2\n        /* \"#utility.yul\":20499:20511   */\n      sload\n        /* \"#utility.yul\":20534:20570   */\n      tag_540\n        /* \"#utility.yul\":20560:20569   */\n      dup2\n        /* \"#utility.yul\":20534:20570   */\n      tag_144\n      jump\t// in\n    tag_540:\n        /* \"#utility.yul\":20586:20675   */\n      tag_541\n        /* \"#utility.yul\":20668:20674   */\n      dup2\n        /* \"#utility.yul\":20663:20666   */\n      dup7\n        /* \"#utility.yul\":20586:20675   */\n      tag_291\n      jump\t// in\n    tag_541:\n        /* \"#utility.yul\":20579:20675   */\n      swap5\n      pop\n        /* \"#utility.yul\":20706:20707   */\n      0x01\n        /* \"#utility.yul\":20695:20704   */\n      dup3\n        /* \"#utility.yul\":20691:20708   */\n      and\n        /* \"#utility.yul\":20722:20723   */\n      0x00\n        /* \"#utility.yul\":20717:20883   */\n      dup2\n      eq\n      tag_543\n      jumpi\n        /* \"#utility.yul\":20897:20898   */\n      0x01\n        /* \"#utility.yul\":20892:21233   */\n      dup2\n      eq\n      tag_544\n      jumpi\n        /* \"#utility.yul\":20684:21233   */\n      jump(tag_542)\n        /* \"#utility.yul\":20717:20883   */\n    tag_543:\n        /* \"#utility.yul\":20801:20805   */\n      0xff\n        /* \"#utility.yul\":20797:20806   */\n      not\n        /* \"#utility.yul\":20786:20795   */\n      dup4\n        /* \"#utility.yul\":20782:20807   */\n      and\n        /* \"#utility.yul\":20777:20780   */\n      dup7\n        /* \"#utility.yul\":20770:20808   */\n      mstore\n        /* \"#utility.yul\":20863:20869   */\n      dup2\n        /* \"#utility.yul\":20856:20870   */\n      iszero\n        /* \"#utility.yul\":20849:20871   */\n      iszero\n        /* \"#utility.yul\":20841:20847   */\n      dup3\n        /* \"#utility.yul\":20837:20872   */\n      mul\n        /* \"#utility.yul\":20832:20835   */\n      dup7\n        /* \"#utility.yul\":20828:20873   */\n      add\n        /* \"#utility.yul\":20821:20873   */\n      swap4\n      pop\n        /* \"#utility.yul\":20717:20883   */\n      jump(tag_542)\n        /* \"#utility.yul\":20892:21233   */\n    tag_544:\n        /* \"#utility.yul\":20959:20997   */\n      tag_545\n        /* \"#utility.yul\":20991:20996   */\n      dup6\n        /* \"#utility.yul\":20959:20997   */\n      tag_294\n      jump\t// in\n    tag_545:\n        /* \"#utility.yul\":21019:21020   */\n      0x00\n        /* \"#utility.yul\":21033:21187   */\n    tag_546:\n        /* \"#utility.yul\":21047:21053   */\n      dup4\n        /* \"#utility.yul\":21044:21045   */\n      dup2\n        /* \"#utility.yul\":21041:21054   */\n      lt\n        /* \"#utility.yul\":21033:21187   */\n      iszero\n      tag_548\n      jumpi\n        /* \"#utility.yul\":21121:21128   */\n      dup2\n        /* \"#utility.yul\":21115:21129   */\n      sload\n        /* \"#utility.yul\":21111:21112   */\n      dup2\n        /* \"#utility.yul\":21106:21109   */\n      dup10\n        /* \"#utility.yul\":21102:21113   */\n      add\n        /* \"#utility.yul\":21095:21130   */\n      mstore\n        /* \"#utility.yul\":21171:21172   */\n      0x01\n        /* \"#utility.yul\":21162:21169   */\n      dup3\n        /* \"#utility.yul\":21158:21173   */\n      add\n        /* \"#utility.yul\":21147:21173   */\n      swap2\n      pop\n        /* \"#utility.yul\":21069:21073   */\n      0x20\n        /* \"#utility.yul\":21066:21067   */\n      dup2\n        /* \"#utility.yul\":21062:21074   */\n      add\n        /* \"#utility.yul\":21057:21074   */\n      swap1\n      pop\n        /* \"#utility.yul\":21033:21187   */\n      jump(tag_546)\n    tag_548:\n        /* \"#utility.yul\":21216:21222   */\n      dup4\n        /* \"#utility.yul\":21211:21214   */\n      dup9\n        /* \"#utility.yul\":21207:21223   */\n      add\n        /* \"#utility.yul\":21200:21223   */\n      swap6\n      pop\n        /* \"#utility.yul\":20899:21233   */\n      pop\n      pop\n        /* \"#utility.yul\":20684:21233   */\n    tag_542:\n      pop\n        /* \"#utility.yul\":20472:21239   */\n      pop\n      pop\n        /* \"#utility.yul\":20365:21239   */\n      swap3\n      swap2\n      pop\n      pop\n      jump\t// out\n        /* \"#utility.yul\":21245:21674   */\n    tag_83:\n        /* \"#utility.yul\":21422:21425   */\n      0x00\n        /* \"#utility.yul\":21444:21539   */\n      tag_550\n        /* \"#utility.yul\":21535:21538   */\n      dup3\n        /* \"#utility.yul\":21526:21532   */\n      dup6\n        /* \"#utility.yul\":21444:21539   */\n      tag_292\n      jump\t// in\n    tag_550:\n        /* \"#utility.yul\":21437:21539   */\n      swap2\n      pop\n        /* \"#utility.yul\":21556:21648   */\n      tag_551\n        /* \"#utility.yul\":21644:21647   */\n      dup3\n        /* \"#utility.yul\":21635:21641   */\n      dup5\n        /* \"#utility.yul\":21556:21648   */\n      tag_295\n      jump\t// in\n    tag_551:\n        /* \"#utility.yul\":21549:21648   */\n      swap2\n      pop\n        /* \"#utility.yul\":21665:21668   */\n      dup2\n        /* \"#utility.yul\":21658:21668   */\n      swap1\n      pop\n        /* \"#utility.yul\":21245:21674   */\n      swap4\n      swap3\n      pop\n      pop\n      pop\n      jump\t// out\n        /* \"#utility.yul\":21680:21798   */\n    tag_296:\n        /* \"#utility.yul\":21767:21791   */\n      tag_553\n        /* \"#utility.yul\":21785:21790   */\n      dup2\n        /* \"#utility.yul\":21767:21791   */\n      tag_247\n      jump\t// in\n    tag_553:\n        /* \"#utility.yul\":21762:21765   */\n      dup3\n        /* \"#utility.yul\":21755:21792   */\n      mstore\n        /* \"#utility.yul\":21680:21798   */\n      pop\n      pop\n      jump\t// out\n        /* \"#utility.yul\":21804:22136   */\n    tag_91:\n        /* \"#utility.yul\":21925:21929   */\n      0x00\n        /* \"#utility.yul\":21963:21965   */\n      0x40\n        /* \"#utility.yul\":21952:21961   */\n      dup3\n        /* \"#utility.yul\":21948:21966   */\n      add\n        /* \"#utility.yul\":21940:21966   */\n      swap1\n      pop\n        /* \"#utility.yul\":21976:22047   */\n      tag_555\n        /* \"#utility.yul\":22044:22045   */\n      0x00\n        /* \"#utility.yul\":22033:22042   */\n      dup4\n        /* \"#utility.yul\":22029:22046   */\n      add\n        /* \"#utility.yul\":22020:22026   */\n      dup6\n        /* \"#utility.yul\":21976:22047   */\n      tag_296\n      jump\t// in\n    tag_555:\n        /* \"#utility.yul\":22057:22129   */\n      tag_556\n        /* \"#utility.yul\":22125:22127   */\n      0x20\n        /* \"#utility.yul\":22114:22123   */\n      dup4\n        /* \"#utility.yul\":22110:22128   */\n      add\n        /* \"#utility.yul\":22101:22107   */\n      dup5\n        /* \"#utility.yul\":22057:22129   */\n      tag_296\n      jump\t// in\n    tag_556:\n        /* \"#utility.yul\":21804:22136   */\n      swap4\n      swap3\n      pop\n      pop\n      pop\n      jump\t// out\n        /* \"#utility.yul\":22142:22474   */\n    tag_97:\n        /* \"#utility.yul\":22263:22267   */\n      0x00\n        /* \"#utility.yul\":22301:22303   */\n      0x40\n        /* \"#utility.yul\":22290:22299   */\n      dup3\n        /* \"#utility.yul\":22286:22304   */\n      add\n        /* \"#utility.yul\":22278:22304   */\n      swap1\n      pop\n        /* \"#utility.yul\":22314:22385   */\n      tag_558\n        /* \"#utility.yul\":22382:22383   */\n      0x00\n        /* \"#utility.yul\":22371:22380   */\n      dup4\n        /* \"#utility.yul\":22367:22384   */\n      add\n        /* \"#utility.yul\":22358:22364   */\n      dup6\n        /* \"#utility.yul\":22314:22385   */\n      tag_253\n      jump\t// in\n    tag_558:\n        /* \"#utility.yul\":22395:22467   */\n      tag_559\n        /* \"#utility.yul\":22463:22465   */\n      0x20\n        /* \"#utility.yul\":22452:22461   */\n      dup4\n        /* \"#utility.yul\":22448:22466   */\n      add\n        /* \"#utility.yul\":22439:22445   */\n      dup5\n        /* \"#utility.yul\":22395:22467   */\n      tag_253\n      jump\t// in\n    tag_559:\n        /* \"#utility.yul\":22142:22474   */\n      swap4\n      swap3\n      pop\n      pop\n      pop\n      jump\t// out\n        /* \"#utility.yul\":22480:22660   */\n    tag_112:\n        /* \"#utility.yul\":22528:22605   */\n      0x4e487b7100000000000000000000000000000000000000000000000000000000\n        /* \"#utility.yul\":22525:22526   */\n      0x00\n        /* \"#utility.yul\":22518:22606   */\n      mstore\n        /* \"#utility.yul\":22625:22629   */\n      0x32\n        /* \"#utility.yul\":22622:22623   */\n      0x04\n        /* \"#utility.yul\":22615:22630   */\n      mstore\n        /* \"#utility.yul\":22649:22653   */\n      0x24\n        /* \"#utility.yul\":22646:22647   */\n      0x00\n        /* \"#utility.yul\":22639:22654   */\n      revert\n        /* \"#utility.yul\":22666:22888   */\n    tag_134:\n        /* \"#utility.yul\":22759:22763   */\n      0x00\n        /* \"#utility.yul\":22797:22799   */\n      0x20\n        /* \"#utility.yul\":22786:22795   */\n      dup3\n        /* \"#utility.yul\":22782:22800   */\n      add\n        /* \"#utility.yul\":22774:22800   */\n      swap1\n      pop\n        /* \"#utility.yul\":22810:22881   */\n      tag_562\n        /* \"#utility.yul\":22878:22879   */\n      0x00\n        /* \"#utility.yul\":22867:22876   */\n      dup4\n        /* \"#utility.yul\":22863:22880   */\n      add\n        /* \"#utility.yul\":22854:22860   */\n      dup5\n        /* \"#utility.yul\":22810:22881   */\n      tag_296\n      jump\t// in\n    tag_562:\n        /* \"#utility.yul\":22666:22888   */\n      swap3\n      swap2\n      pop\n      pop\n      jump\t// out\n        /* \"#utility.yul\":22894:22987   */\n    tag_297:\n        /* \"#utility.yul\":22931:22937   */\n      0x00\n        /* \"#utility.yul\":22978:22980   */\n      0x20\n        /* \"#utility.yul\":22973:22975   */\n      0x1f\n        /* \"#utility.yul\":22966:22971   */\n      dup4\n        /* \"#utility.yul\":22962:22976   */\n      add\n        /* \"#utility.yul\":22958:22981   */\n      div\n        /* \"#utility.yul\":22948:22981   */\n      swap1\n      pop\n        /* \"#utility.yul\":22894:22987   */\n      swap2\n      swap1\n      pop\n      jump\t// out\n        /* \"#utility.yul\":22993:23100   */\n    tag_298:\n        /* \"#utility.yul\":23037:23045   */\n      0x00\n        /* \"#utility.yul\":23087:23092   */\n      dup3\n        /* \"#utility.yul\":23081:23085   */\n      dup3\n        /* \"#utility.yul\":23077:23093   */\n      shl\n        /* \"#utility.yul\":23056:23093   */\n      swap1\n      pop\n        /* \"#utility.yul\":22993:23100   */\n      swap3\n      swap2\n      pop\n      pop\n      jump\t// out\n        /* \"#utility.yul\":23106:23499   */\n    tag_299:\n        /* \"#utility.yul\":23175:23181   */\n      0x00\n        /* \"#utility.yul\":23225:23226   */\n      0x08\n        /* \"#utility.yul\":23213:23223   */\n      dup4\n        /* \"#utility.yul\":23209:23227   */\n      mul\n        /* \"#utility.yul\":23248:23345   */\n      tag_566\n        /* \"#utility.yul\":23278:23344   */\n      0xffffffffffffffffffffffffffffffffffffffffffffffffffffffffffffffff\n        /* \"#utility.yul\":23267:23276   */\n      dup3\n        /* \"#utility.yul\":23248:23345   */\n      tag_298\n      jump\t// in\n    tag_566:\n        /* \"#utility.yul\":23366:23405   */\n      tag_567\n        /* \"#utility.yul\":23396:23404   */\n      dup7\n        /* \"#utility.yul\":23385:23394   */\n      dup4\n        /* \"#utility.yul\":23366:23405   */\n      tag_298\n      jump\t// in\n    tag_567:\n        /* \"#utility.yul\":23354:23405   */\n      swap6\n      pop\n        /* \"#utility.yul\":23438:23442   */\n      dup1\n        /* \"#utility.yul\":23434:23443   */\n      not\n        /* \"#utility.yul\":23427:23432   */\n      dup5\n        /* \"#utility.yul\":23423:23444   */\n      and\n        /* \"#utility.yul\":23414:23444   */\n      swap4\n      pop\n        /* \"#utility.yul\":23487:23491   */\n      dup1\n        /* \"#utility.yul\":23477:23485   */\n      dup7\n        /* \"#utility.yul\":23473:23492   */\n      and\n        /* \"#utility.yul\":23466:23471   */\n      dup5\n        /* \"#utility.yul\":23463:23493   */\n      or\n        /* \"#utility.yul\":23453:23493   */\n      swap3\n      pop\n        /* \"#utility.yul\":23182:23499   */\n      pop\n      pop\n        /* \"#utility.yul\":23106:23499   */\n      swap4\n      swap3\n      pop\n      pop\n      pop\n      jump\t// out\n        /* \"#utility.yul\":23505:23565   */\n    tag_300:\n        /* \"#utility.yul\":23533:23536   */\n      0x00\n        /* \"#utility.yul\":23554:23559   */\n      dup2\n        /* \"#utility.yul\":23547:23559   */\n      swap1\n      pop\n        /* \"#utility.yul\":23505:23565   */\n      swap2\n      swap1\n      pop\n      jump\t// out\n        /* \"#utility.yul\":23571:23713   */\n    tag_301:\n        /* \"#utility.yul\":23621:23630   */\n      0x00\n        /* \"#utility.yul\":23654:23707   */\n      tag_570\n        /* \"#utility.yul\":23672:23706   */\n      tag_571\n        /* \"#utility.yul\":23681:23705   */\n      tag_572\n        /* \"#utility.yul\":23699:23704   */\n      dup5\n        /* \"#utility.yul\":23681:23705   */\n      tag_250\n      jump\t// in\n    tag_572:\n        /* \"#utility.yul\":23672:23706   */\n      tag_300\n      jump\t// in\n    tag_571:\n        /* \"#utility.yul\":23654:23707   */\n      tag_250\n      jump\t// in\n    tag_570:\n        /* \"#utility.yul\":23641:23707   */\n      swap1\n      pop\n        /* \"#utility.yul\":23571:23713   */\n      swap2\n      swap1\n      pop\n      jump\t// out\n        /* \"#utility.yul\":23719:23794   */\n    tag_302:\n        /* \"#utility.yul\":23762:23765   */\n      0x00\n        /* \"#utility.yul\":23783:23788   */\n      dup2\n        /* \"#utility.yul\":23776:23788   */\n      swap1\n      pop\n        /* \"#utility.yul\":23719:23794   */\n      swap2\n      swap1\n      pop\n      jump\t// out\n        /* \"#utility.yul\":23800:24069   */\n    tag_303:\n        /* \"#utility.yul\":23910:23949   */\n      tag_575\n        /* \"#utility.yul\":23941:23948   */\n      dup4\n        /* \"#utility.yul\":23910:23949   */\n      tag_301\n      jump\t// in\n    tag_575:\n        /* \"#utility.yul\":23971:24062   */\n      tag_576\n        /* \"#utility.yul\":24020:24061   */\n      tag_577\n        /* \"#utility.yul\":24044:24060   */\n      dup3\n        /* \"#utility.yul\":24020:24061   */\n      tag_302\n      jump\t// in\n    tag_577:\n        /* \"#utility.yul\":24012:24018   */\n      dup5\n        /* \"#utility.yul\":24005:24009   */\n      dup5\n        /* \"#utility.yul\":23999:24010   */\n      sload\n        /* \"#utility.yul\":23971:24062   */\n      tag_299\n      jump\t// in\n    tag_576:\n        /* \"#utility.yul\":23965:23969   */\n      dup3\n        /* \"#utility.yul\":23958:24063   */\n      sstore\n        /* \"#utility.yul\":23876:24069   */\n      pop\n        /* \"#utility.yul\":23800:24069   */\n      pop\n      pop\n      pop\n      jump\t// out\n        /* \"#utility.yul\":24075:24148   */\n    tag_304:\n        /* \"#utility.yul\":24120:24123   */\n      0x00\n        /* \"#utility.yul\":24075:24148   */\n      swap1\n      jump\t// out\n        /* \"#utility.yul\":24154:24343   */\n    tag_305:\n        /* \"#utility.yul\":24231:24263   */\n      tag_580\n      tag_304\n      jump\t// in\n    tag_580:\n        /* \"#utility.yul\":24272:24337   */\n      tag_581\n        /* \"#utility.yul\":24330:24336   */\n      dup2\n        /* \"#utility.yul\":24322:24328   */\n      dup5\n        /* \"#utility.yul\":24316:24320   */\n      dup5\n        /* \"#utility.yul\":24272:24337   */\n      tag_303\n      jump\t// in\n    tag_581:\n        /* \"#utility.yul\":24207:24343   */\n      pop\n        /* \"#utility.yul\":24154:24343   */\n      pop\n      pop\n      jump\t// out\n        /* \"#utility.yul\":24349:24535   */\n    tag_306:\n        /* \"#utility.yul\":24409:24529   */\n    tag_583:\n        /* \"#utility.yul\":24426:24429   */\n      dup2\n        /* \"#utility.yul\":24419:24424   */\n      dup2\n        /* \"#utility.yul\":24416:24430   */\n      lt\n        /* \"#utility.yul\":24409:24529   */\n      iszero\n      tag_585\n      jumpi\n        /* \"#utility.yul\":24480:24519   */\n      tag_586\n        /* \"#utility.yul\":24517:24518   */\n      0x00\n        /* \"#utility.yul\":24510:24515   */\n      dup3\n        /* \"#utility.yul\":24480:24519   */\n      tag_305\n      jump\t// in\n    tag_586:\n        /* \"#utility.yul\":24453:24454   */\n      0x01\n        /* \"#utility.yul\":24446:24451   */\n      dup2\n        /* \"#utility.yul\":24442:24455   */\n      add\n        /* \"#utility.yul\":24433:24455   */\n      swap1\n      pop\n        /* \"#utility.yul\":24409:24529   */\n      jump(tag_583)\n    tag_585:\n        /* \"#utility.yul\":24349:24535   */\n      pop\n      pop\n      jump\t// out\n        /* \"#utility.yul\":24541:25084   */\n    tag_307:\n        /* \"#utility.yul\":24642:24644   */\n      0x1f\n        /* \"#utility.yul\":24637:24640   */\n      dup3\n        /* \"#utility.yul\":24634:24645   */\n      gt\n        /* \"#utility.yul\":24631:25077   */\n      iszero\n      tag_588\n      jumpi\n        /* \"#utility.yul\":24676:24714   */\n      tag_589\n        /* \"#utility.yul\":24708:24713   */\n      dup2\n        /* \"#utility.yul\":24676:24714   */\n      tag_294\n      jump\t// in\n    tag_589:\n        /* \"#utility.yul\":24760:24789   */\n      tag_590\n        /* \"#utility.yul\":24778:24788   */\n      dup5\n        /* \"#utility.yul\":24760:24789   */\n      tag_297\n      jump\t// in\n    tag_590:\n        /* \"#utility.yul\":24750:24758   */\n      dup2\n        /* \"#utility.yul\":24746:24790   */\n      add\n        /* \"#utility.yul\":24943:24945   */\n      0x20\n        /* \"#utility.yul\":24931:24941   */\n      dup6\n        /* \"#utility.yul\":24928:24946   */\n      lt\n        /* \"#utility.yul\":24925:24974   */\n      iszero\n      tag_591\n      jumpi\n        /* \"#utility.yul\":24964:24972   */\n      dup2\n        /* \"#utility.yul\":24949:24972   */\n      swap1\n      pop\n        /* \"#utility.yul\":24925:24974   */\n    tag_591:\n        /* \"#utility.yul\":24987:25067   */\n      tag_592\n        /* \"#utility.yul\":25043:25065   */\n      tag_593\n        /* \"#utility.yul\":25061:25064   */\n      dup6\n        /* \"#utility.yul\":25043:25065   */\n      tag_297\n      jump\t// in\n    tag_593:\n        /* \"#utility.yul\":25033:25041   */\n      dup4\n        /* \"#utility.yul\":25029:25066   */\n      add\n        /* \"#utility.yul\":25016:25027   */\n      dup3\n        /* \"#utility.yul\":24987:25067   */\n      tag_306\n      jump\t// in\n    tag_592:\n        /* \"#utility.yul\":24646:25077   */\n      pop\n      pop\n        /* \"#utility.yul\":24631:25077   */\n    tag_588:\n        /* \"#utility.yul\":24541:25084   */\n      pop\n      pop\n      pop\n      jump\t// out\n        /* \"#utility.yul\":25090:25207   */\n    tag_308:\n        /* \"#utility.yul\":25144:25152   */\n      0x00\n        /* \"#utility.yul\":25194:25199   */\n      dup3\n        /* \"#utility.yul\":25188:25192   */\n      dup3\n        /* \"#utility.yul\":25184:25200   */\n      shr\n        /* \"#utility.yul\":25163:25200   */\n      swap1\n      pop\n        /* \"#utility.yul\":25090:25207   */\n      swap3\n      swap2\n      pop\n      pop\n      jump\t// out\n        /* \"#utility.yul\":25213:25382   */\n    tag_309:\n        /* \"#utility.yul\":25257:25263   */\n      0x00\n        /* \"#utility.yul\":25290:25341   */\n      tag_596\n        /* \"#utility.yul\":25338:25339   */\n      0x00\n        /* \"#utility.yul\":25334:25340   */\n      not\n        /* \"#utility.yul\":25326:25331   */\n      dup5\n        /* \"#utility.yul\":25323:25324   */\n      0x08\n        /* \"#utility.yul\":25319:25332   */\n      mul\n        /* \"#utility.yul\":25290:25341   */\n      tag_308\n      jump\t// in\n    tag_596:\n        /* \"#utility.yul\":25286:25342   */\n      not\n        /* \"#utility.yul\":25371:25375   */\n      dup1\n        /* \"#utility.yul\":25365:25369   */\n      dup4\n        /* \"#utility.yul\":25361:25376   */\n      and\n        /* \"#utility.yul\":25351:25376   */\n      swap2\n      pop\n        /* \"#utility.yul\":25264:25382   */\n      pop\n        /* \"#utility.yul\":25213:25382   */\n      swap3\n      swap2\n      pop\n      pop\n      jump\t// out\n        /* \"#utility.yul\":25387:25682   */\n    tag_310:\n        /* \"#utility.yul\":25463:25467   */\n      0x00\n        /* \"#utility.yul\":25609:25638   */\n      tag_598\n        /* \"#utility.yul\":25634:25637   */\n      dup4\n        /* \"#utility.yul\":25628:25632   */\n      dup4\n        /* \"#utility.yul\":25609:25638   */\n      tag_309\n      jump\t// in\n    tag_598:\n        /* \"#utility.yul\":25601:25638   */\n      swap2\n      pop\n        /* \"#utility.yul\":25671:25674   */\n      dup3\n        /* \"#utility.yul\":25668:25669   */\n      0x02\n        /* \"#utility.yul\":25664:25675   */\n      mul\n        /* \"#utility.yul\":25658:25662   */\n      dup3\n        /* \"#utility.yul\":25655:25676   */\n      or\n        /* \"#utility.yul\":25647:25676   */\n      swap1\n      pop\n        /* \"#utility.yul\":25387:25682   */\n      swap3\n      swap2\n      pop\n      pop\n      jump\t// out\n        /* \"#utility.yul\":25687:27082   */\n    tag_141:\n        /* \"#utility.yul\":25804:25841   */\n      tag_600\n        /* \"#utility.yul\":25837:25840   */\n      dup3\n        /* \"#utility.yul\":25804:25841   */\n      tag_268\n      jump\t// in\n    tag_600:\n        /* \"#utility.yul\":25906:25924   */\n      0xffffffffffffffff\n        /* \"#utility.yul\":25898:25904   */\n      dup2\n        /* \"#utility.yul\":25895:25925   */\n      gt\n        /* \"#utility.yul\":25892:25948   */\n      iszero\n      tag_601\n      jumpi\n        /* \"#utility.yul\":25928:25946   */\n      tag_602\n      tag_100\n      jump\t// in\n    tag_602:\n        /* \"#utility.yul\":25892:25948   */\n    tag_601:\n        /* \"#utility.yul\":25972:26010   */\n      tag_603\n        /* \"#utility.yul\":26004:26008   */\n      dup3\n        /* \"#utility.yul\":25998:26009   */\n      sload\n        /* \"#utility.yul\":25972:26010   */\n      tag_144\n      jump\t// in\n    tag_603:\n        /* \"#utility.yul\":26057:26124   */\n      tag_604\n        /* \"#utility.yul\":26117:26123   */\n      dup3\n        /* \"#utility.yul\":26109:26115   */\n      dup3\n        /* \"#utility.yul\":26103:26107   */\n      dup6\n        /* \"#utility.yul\":26057:26124   */\n      tag_307\n      jump\t// in\n    tag_604:\n        /* \"#utility.yul\":26151:26152   */\n      0x00\n        /* \"#utility.yul\":26175:26179   */\n      0x20\n        /* \"#utility.yul\":26162:26179   */\n      swap1\n      pop\n        /* \"#utility.yul\":26207:26209   */\n      0x1f\n        /* \"#utility.yul\":26199:26205   */\n      dup4\n        /* \"#utility.yul\":26196:26210   */\n      gt\n        /* \"#utility.yul\":26224:26225   */\n      0x01\n        /* \"#utility.yul\":26219:26837   */\n      dup2\n      eq\n      tag_606\n      jumpi\n        /* \"#utility.yul\":26881:26882   */\n      0x00\n        /* \"#utility.yul\":26898:26904   */\n      dup5\n        /* \"#utility.yul\":26895:26972   */\n      iszero\n      tag_607\n      jumpi\n        /* \"#utility.yul\":26947:26956   */\n      dup3\n        /* \"#utility.yul\":26942:26945   */\n      dup8\n        /* \"#utility.yul\":26938:26957   */\n      add\n        /* \"#utility.yul\":26932:26958   */\n      mload\n        /* \"#utility.yul\":26923:26958   */\n      swap1\n      pop\n        /* \"#utility.yul\":26895:26972   */\n    tag_607:\n        /* \"#utility.yul\":26998:27065   */\n      tag_608\n        /* \"#utility.yul\":27058:27064   */\n      dup6\n        /* \"#utility.yul\":27051:27056   */\n      dup3\n        /* \"#utility.yul\":26998:27065   */\n      tag_310\n      jump\t// in\n    tag_608:\n        /* \"#utility.yul\":26992:26996   */\n      dup7\n        /* \"#utility.yul\":26985:27066   */\n      sstore\n        /* \"#utility.yul\":26854:27076   */\n      pop\n        /* \"#utility.yul\":26189:27076   */\n      jump(tag_605)\n        /* \"#utility.yul\":26219:26837   */\n    tag_606:\n        /* \"#utility.yul\":26271:26275   */\n      0x1f\n        /* \"#utility.yul\":26267:26276   */\n      not\n        /* \"#utility.yul\":26259:26265   */\n      dup5\n        /* \"#utility.yul\":26255:26277   */\n      and\n        /* \"#utility.yul\":26305:26342   */\n      tag_609\n        /* \"#utility.yul\":26337:26341   */\n      dup7\n        /* \"#utility.yul\":26305:26342   */\n      tag_294\n      jump\t// in\n    tag_609:\n        /* \"#utility.yul\":26364:26365   */\n      0x00\n        /* \"#utility.yul\":26378:26586   */\n    tag_610:\n        /* \"#utility.yul\":26392:26399   */\n      dup3\n        /* \"#utility.yul\":26389:26390   */\n      dup2\n        /* \"#utility.yul\":26386:26400   */\n      lt\n        /* \"#utility.yul\":26378:26586   */\n      iszero\n      tag_612\n      jumpi\n        /* \"#utility.yul\":26471:26480   */\n      dup5\n        /* \"#utility.yul\":26466:26469   */\n      dup10\n        /* \"#utility.yul\":26462:26481   */\n      add\n        /* \"#utility.yul\":26456:26482   */\n      mload\n        /* \"#utility.yul\":26448:26454   */\n      dup3\n        /* \"#utility.yul\":26441:26483   */\n      sstore\n        /* \"#utility.yul\":26522:26523   */\n      0x01\n        /* \"#utility.yul\":26514:26520   */\n      dup3\n        /* \"#utility.yul\":26510:26524   */\n      add\n        /* \"#utility.yul\":26500:26524   */\n      swap2\n      pop\n        /* \"#utility.yul\":26569:26571   */\n      0x20\n        /* \"#utility.yul\":26558:26567   */\n      dup6\n        /* \"#utility.yul\":26554:26572   */\n      add\n        /* \"#utility.yul\":26541:26572   */\n      swap5\n      pop\n        /* \"#utility.yul\":26415:26419   */\n      0x20\n        /* \"#utility.yul\":26412:26413   */\n      dup2\n        /* \"#utility.yul\":26408:26420   */\n      add\n        /* \"#utility.yul\":26403:26420   */\n      swap1\n      pop\n        /* \"#utility.yul\":26378:26586   */\n      jump(tag_610)\n    tag_612:\n        /* \"#utility.yul\":26614:26620   */\n      dup7\n        /* \"#utility.yul\":26605:26612   */\n      dup4\n        /* \"#utility.yul\":26602:26621   */\n      lt\n        /* \"#utility.yul\":26599:26778   */\n      iszero\n      tag_613\n      jumpi\n        /* \"#utility.yul\":26672:26681   */\n      dup5\n        /* \"#utility.yul\":26667:26670   */\n      dup10\n        /* \"#utility.yul\":26663:26682   */\n      add\n        /* \"#utility.yul\":26657:26683   */\n      mload\n        /* \"#utility.yul\":26715:26763   */\n      tag_614\n        /* \"#utility.yul\":26757:26761   */\n      0x1f\n        /* \"#utility.yul\":26749:26755   */\n      dup10\n        /* \"#utility.yul\":26745:26762   */\n      and\n        /* \"#utility.yul\":26734:26743   */\n      dup3\n        /* \"#utility.yul\":26715:26763   */\n      tag_309\n      jump\t// in\n    tag_614:\n        /* \"#utility.yul\":26707:26713   */\n      dup4\n        /* \"#utility.yul\":26700:26764   */\n      sstore\n        /* \"#utility.yul\":26622:26778   */\n      pop\n        /* \"#utility.yul\":26599:26778   */\n    tag_613:\n        /* \"#utility.yul\":26824:26825   */\n      0x01\n        /* \"#utility.yul\":26820:26821   */\n      0x02\n        /* \"#utility.yul\":26812:26818   */\n      dup9\n        /* \"#utility.yul\":26808:26822   */\n      mul\n        /* \"#utility.yul\":26804:26826   */\n      add\n        /* \"#utility.yul\":26798:26802   */\n      dup9\n        /* \"#utility.yul\":26791:26827   */\n      sstore\n        /* \"#utility.yul\":26226:26837   */\n      pop\n      pop\n      pop\n        /* \"#utility.yul\":26189:27076   */\n    tag_605:\n      pop\n        /* \"#utility.yul\":25779:27082   */\n      pop\n      pop\n      pop\n        /* \"#utility.yul\":25687:27082   */\n      pop\n      pop\n      jump\t// out\n        /* \"#utility.yul\":27088:27641   */\n    tag_195:\n        /* \"#utility.yul\":27265:27269   */\n      0x00\n        /* \"#utility.yul\":27303:27306   */\n      0x80\n        /* \"#utility.yul\":27292:27301   */\n      dup3\n        /* \"#utility.yul\":27288:27307   */\n      add\n        /* \"#utility.yul\":27280:27307   */\n      swap1\n      pop\n        /* \"#utility.yul\":27317:27388   */\n      tag_616\n        /* \"#utility.yul\":27385:27386   */\n      0x00\n        /* \"#utility.yul\":27374:27383   */\n      dup4\n        /* \"#utility.yul\":27370:27387   */\n      add\n        /* \"#utility.yul\":27361:27367   */\n      dup8\n        /* \"#utility.yul\":27317:27388   */\n      tag_296\n      jump\t// in\n    tag_616:\n        /* \"#utility.yul\":27398:27470   */\n      tag_617\n        /* \"#utility.yul\":27466:27468   */\n      0x20\n        /* \"#utility.yul\":27455:27464   */\n      dup4\n        /* \"#utility.yul\":27451:27469   */\n      add\n        /* \"#utility.yul\":27442:27448   */\n      dup7\n        /* \"#utility.yul\":27398:27470   */\n      tag_253\n      jump\t// in\n    tag_617:\n        /* \"#utility.yul\":27480:27552   */\n      tag_618\n        /* \"#utility.yul\":27548:27550   */\n      0x40\n        /* \"#utility.yul\":27537:27546   */\n      dup4\n        /* \"#utility.yul\":27533:27551   */\n      add\n        /* \"#utility.yul\":27524:27530   */\n      dup6\n        /* \"#utility.yul\":27480:27552   */\n      tag_253\n      jump\t// in\n    tag_618:\n        /* \"#utility.yul\":27562:27634   */\n      tag_619\n        /* \"#utility.yul\":27630:27632   */\n      0x60\n        /* \"#utility.yul\":27619:27628   */\n      dup4\n        /* \"#utility.yul\":27615:27633   */\n      add\n        /* \"#utility.yul\":27606:27612   */\n      dup5\n        /* \"#utility.yul\":27562:27634   */\n      tag_253\n      jump\t// in\n    tag_619:\n        /* \"#utility.yul\":27088:27641   */\n      swap6\n      swap5\n      pop\n      pop\n      pop\n      pop\n      pop\n      jump\t// out\n        /* \"#utility.yul\":27647:27827   */\n    tag_311:\n        /* \"#utility.yul\":27695:27772   */\n      0x4e487b7100000000000000000000000000000000000000000000000000000000\n        /* \"#utility.yul\":27692:27693   */\n      0x00\n        /* \"#utility.yul\":27685:27773   */\n      mstore\n        /* \"#utility.yul\":27792:27796   */\n      0x11\n        /* \"#utility.yul\":27789:27790   */\n      0x04\n        /* \"#utility.yul\":27782:27797   */\n      mstore\n        /* \"#utility.yul\":27816:27820   */\n      0x24\n        /* \"#utility.yul\":27813:27814   */\n      0x00\n        /* \"#utility.yul\":27806:27821   */\n      revert\n        /* \"#utility.yul\":27833:28024   */\n    tag_198:\n        /* \"#utility.yul\":27873:27876   */\n      0x00\n        /* \"#utility.yul\":27892:27912   */\n      tag_622\n        /* \"#utility.yul\":27910:27911   */\n      dup3\n        /* \"#utility.yul\":27892:27912   */\n      tag_250\n      jump\t// in\n    tag_622:\n        /* \"#utility.yul\":27887:27912   */\n      swap2\n      pop\n        /* \"#utility.yul\":27926:27946   */\n      tag_623\n        /* \"#utility.yul\":27944:27945   */\n      dup4\n        /* \"#utility.yul\":27926:27946   */\n      tag_250\n      jump\t// in\n    tag_623:\n        /* \"#utility.yul\":27921:27946   */\n      swap3\n      pop\n        /* \"#utility.yul\":27969:27970   */\n      dup3\n        /* \"#utility.yul\":27966:27967   */\n      dup3\n        /* \"#utility.yul\":27962:27971   */\n      add\n        /* \"#utility.yul\":27955:27971   */\n      swap1\n      pop\n        /* \"#utility.yul\":27990:27993   */\n      dup1\n        /* \"#utility.yul\":27987:27988   */\n      dup3\n        /* \"#utility.yul\":27984:27994   */\n      gt\n        /* \"#utility.yul\":27981:28017   */\n      iszero\n      tag_624\n      jumpi\n        /* \"#utility.yul\":27997:28015   */\n      tag_625\n      tag_311\n      jump\t// in\n    tag_625:\n        /* \"#utility.yul\":27981:28017   */\n    tag_624:\n        /* \"#utility.yul\":27833:28024   */\n      swap3\n      swap2\n      pop\n      pop\n      jump\t// out\n        /* \"#utility.yul\":28030:28664   */\n    tag_205:\n        /* \"#utility.yul\":28251:28255   */\n      0x00\n        /* \"#utility.yul\":28289:28291   */\n      0x40\n        /* \"#utility.yul\":28278:28287   */\n      dup3\n        /* \"#utility.yul\":28274:28292   */\n      add\n        /* \"#utility.yul\":28266:28292   */\n      swap1\n      pop\n        /* \"#utility.yul\":28338:28347   */\n      dup2\n        /* \"#utility.yul\":28332:28336   */\n      dup2\n        /* \"#utility.yul\":28328:28348   */\n      sub\n        /* \"#utility.yul\":28324:28325   */\n      0x00\n        /* \"#utility.yul\":28313:28322   */\n      dup4\n        /* \"#utility.yul\":28309:28326   */\n      add\n        /* \"#utility.yul\":28302:28349   */\n      mstore\n        /* \"#utility.yul\":28366:28474   */\n      tag_627\n        /* \"#utility.yul\":28469:28473   */\n      dup2\n        /* \"#utility.yul\":28460:28466   */\n      dup6\n        /* \"#utility.yul\":28366:28474   */\n      tag_288\n      jump\t// in\n    tag_627:\n        /* \"#utility.yul\":28358:28474   */\n      swap1\n      pop\n        /* \"#utility.yul\":28521:28530   */\n      dup2\n        /* \"#utility.yul\":28515:28519   */\n      dup2\n        /* \"#utility.yul\":28511:28531   */\n      sub\n        /* \"#utility.yul\":28506:28508   */\n      0x20\n        /* \"#utility.yul\":28495:28504   */\n      dup4\n        /* \"#utility.yul\":28491:28509   */\n      add\n        /* \"#utility.yul\":28484:28532   */\n      mstore\n        /* \"#utility.yul\":28549:28657   */\n      tag_628\n        /* \"#utility.yul\":28652:28656   */\n      dup2\n        /* \"#utility.yul\":28643:28649   */\n      dup5\n        /* \"#utility.yul\":28549:28657   */\n      tag_288\n      jump\t// in\n    tag_628:\n        /* \"#utility.yul\":28541:28657   */\n      swap1\n      pop\n        /* \"#utility.yul\":28030:28664   */\n      swap4\n      swap3\n      pop\n      pop\n      pop\n      jump\t// out\n        /* \"#utility.yul\":28670:28768   */\n    tag_312:\n        /* \"#utility.yul\":28721:28727   */\n      0x00\n        /* \"#utility.yul\":28755:28760   */\n      dup2\n        /* \"#utility.yul\":28749:28761   */\n      mload\n        /* \"#utility.yul\":28739:28761   */\n      swap1\n      pop\n        /* \"#utility.yul\":28670:28768   */\n      swap2\n      swap1\n      pop\n      jump\t// out\n        /* \"#utility.yul\":28774:28942   */\n    tag_313:\n        /* \"#utility.yul\":28857:28868   */\n      0x00\n        /* \"#utility.yul\":28891:28897   */\n      dup3\n        /* \"#utility.yul\":28886:28889   */\n      dup3\n        /* \"#utility.yul\":28879:28898   */\n      mstore\n        /* \"#utility.yul\":28931:28935   */\n      0x20\n        /* \"#utility.yul\":28926:28929   */\n      dup3\n        /* \"#utility.yul\":28922:28936   */\n      add\n        /* \"#utility.yul\":28907:28936   */\n      swap1\n      pop\n        /* \"#utility.yul\":28774:28942   */\n      swap3\n      swap2\n      pop\n      pop\n      jump\t// out\n        /* \"#utility.yul\":28948:29321   */\n    tag_314:\n        /* \"#utility.yul\":29034:29037   */\n      0x00\n        /* \"#utility.yul\":29062:29100   */\n      tag_632\n        /* \"#utility.yul\":29094:29099   */\n      dup3\n        /* \"#utility.yul\":29062:29100   */\n      tag_312\n      jump\t// in\n    tag_632:\n        /* \"#utility.yul\":29116:29186   */\n      tag_633\n        /* \"#utility.yul\":29179:29185   */\n      dup2\n        /* \"#utility.yul\":29174:29177   */\n      dup6\n        /* \"#utility.yul\":29116:29186   */\n      tag_313\n      jump\t// in\n    tag_633:\n        /* \"#utility.yul\":29109:29186   */\n      swap4\n      pop\n        /* \"#utility.yul\":29195:29260   */\n      tag_634\n        /* \"#utility.yul\":29253:29259   */\n      dup2\n        /* \"#utility.yul\":29248:29251   */\n      dup6\n        /* \"#utility.yul\":29241:29245   */\n      0x20\n        /* \"#utility.yul\":29234:29239   */\n      dup7\n        /* \"#utility.yul\":29230:29246   */\n      add\n        /* \"#utility.yul\":29195:29260   */\n      tag_270\n      jump\t// in\n    tag_634:\n        /* \"#utility.yul\":29285:29314   */\n      tag_635\n        /* \"#utility.yul\":29307:29313   */\n      dup2\n        /* \"#utility.yul\":29285:29314   */\n      tag_261\n      jump\t// in\n    tag_635:\n        /* \"#utility.yul\":29280:29283   */\n      dup5\n        /* \"#utility.yul\":29276:29315   */\n      add\n        /* \"#utility.yul\":29269:29315   */\n      swap2\n      pop\n        /* \"#utility.yul\":29038:29321   */\n      pop\n        /* \"#utility.yul\":28948:29321   */\n      swap3\n      swap2\n      pop\n      pop\n      jump\t// out\n        /* \"#utility.yul\":29327:30078   */\n    tag_209:\n        /* \"#utility.yul\":29550:29554   */\n      0x00\n        /* \"#utility.yul\":29588:29591   */\n      0xa0\n        /* \"#utility.yul\":29577:29586   */\n      dup3\n        /* \"#utility.yul\":29573:29592   */\n      add\n        /* \"#utility.yul\":29565:29592   */\n      swap1\n      pop\n        /* \"#utility.yul\":29602:29673   */\n      tag_637\n        /* \"#utility.yul\":29670:29671   */\n      0x00\n        /* \"#utility.yul\":29659:29668   */\n      dup4\n        /* \"#utility.yul\":29655:29672   */\n      add\n        /* \"#utility.yul\":29646:29652   */\n      dup9\n        /* \"#utility.yul\":29602:29673   */\n      tag_296\n      jump\t// in\n    tag_637:\n        /* \"#utility.yul\":29683:29755   */\n      tag_638\n        /* \"#utility.yul\":29751:29753   */\n      0x20\n        /* \"#utility.yul\":29740:29749   */\n      dup4\n        /* \"#utility.yul\":29736:29754   */\n      add\n        /* \"#utility.yul\":29727:29733   */\n      dup8\n        /* \"#utility.yul\":29683:29755   */\n      tag_296\n      jump\t// in\n    tag_638:\n        /* \"#utility.yul\":29765:29837   */\n      tag_639\n        /* \"#utility.yul\":29833:29835   */\n      0x40\n        /* \"#utility.yul\":29822:29831   */\n      dup4\n        /* \"#utility.yul\":29818:29836   */\n      add\n        /* \"#utility.yul\":29809:29815   */\n      dup7\n        /* \"#utility.yul\":29765:29837   */\n      tag_253\n      jump\t// in\n    tag_639:\n        /* \"#utility.yul\":29847:29919   */\n      tag_640\n        /* \"#utility.yul\":29915:29917   */\n      0x60\n        /* \"#utility.yul\":29904:29913   */\n      dup4\n        /* \"#utility.yul\":29900:29918   */\n      add\n        /* \"#utility.yul\":29891:29897   */\n      dup6\n        /* \"#utility.yul\":29847:29919   */\n      tag_253\n      jump\t// in\n    tag_640:\n        /* \"#utility.yul\":29967:29976   */\n      dup2\n        /* \"#utility.yul\":29961:29965   */\n      dup2\n        /* \"#utility.yul\":29957:29977   */\n      sub\n        /* \"#utility.yul\":29951:29954   */\n      0x80\n        /* \"#utility.yul\":29940:29949   */\n      dup4\n        /* \"#utility.yul\":29936:29955   */\n      add\n        /* \"#utility.yul\":29929:29978   */\n      mstore\n        /* \"#utility.yul\":29995:30071   */\n      tag_641\n        /* \"#utility.yul\":30066:30070   */\n      dup2\n        /* \"#utility.yul\":30057:30063   */\n      dup5\n        /* \"#utility.yul\":29995:30071   */\n      tag_314\n      jump\t// in\n    tag_641:\n        /* \"#utility.yul\":29987:30071   */\n      swap1\n      pop\n        /* \"#utility.yul\":29327:30078   */\n      swap7\n      swap6\n      pop\n      pop\n      pop\n      pop\n      pop\n      pop\n      jump\t// out\n        /* \"#utility.yul\":30084:30225   */\n    tag_315:\n        /* \"#utility.yul\":30140:30145   */\n      0x00\n        /* \"#utility.yul\":30171:30177   */\n      dup2\n        /* \"#utility.yul\":30165:30178   */\n      mload\n        /* \"#utility.yul\":30156:30178   */\n      swap1\n      pop\n        /* \"#utility.yul\":30187:30219   */\n      tag_643\n        /* \"#utility.yul\":30213:30218   */\n      dup2\n        /* \"#utility.yul\":30187:30219   */\n      tag_255\n      jump\t// in\n    tag_643:\n        /* \"#utility.yul\":30084:30225   */\n      swap3\n      swap2\n      pop\n      pop\n      jump\t// out\n        /* \"#utility.yul\":30231:30580   */\n    tag_212:\n        /* \"#utility.yul\":30300:30306   */\n      0x00\n        /* \"#utility.yul\":30349:30351   */\n      0x20\n        /* \"#utility.yul\":30337:30346   */\n      dup3\n        /* \"#utility.yul\":30328:30335   */\n      dup5\n        /* \"#utility.yul\":30324:30347   */\n      sub\n        /* \"#utility.yul\":30320:30352   */\n      slt\n        /* \"#utility.yul\":30317:30436   */\n      iszero\n      tag_645\n      jumpi\n        /* \"#utility.yul\":30355:30434   */\n      tag_646\n      tag_244\n      jump\t// in\n    tag_646:\n        /* \"#utility.yul\":30317:30436   */\n    tag_645:\n        /* \"#utility.yul\":30475:30476   */\n      0x00\n        /* \"#utility.yul\":30500:30563   */\n      tag_647\n        /* \"#utility.yul\":30555:30562   */\n      dup5\n        /* \"#utility.yul\":30546:30552   */\n      dup3\n        /* \"#utility.yul\":30535:30544   */\n      dup6\n        /* \"#utility.yul\":30531:30553   */\n      add\n        /* \"#utility.yul\":30500:30563   */\n      tag_315\n      jump\t// in\n    tag_647:\n        /* \"#utility.yul\":30490:30563   */\n      swap2\n      pop\n        /* \"#utility.yul\":30446:30573   */\n      pop\n        /* \"#utility.yul\":30231:30580   */\n      swap3\n      swap2\n      pop\n      pop\n      jump\t// out\n        /* \"#utility.yul\":30586:31639   */\n    tag_228:\n        /* \"#utility.yul\":30909:30913   */\n      0x00\n        /* \"#utility.yul\":30947:30950   */\n      0xa0\n        /* \"#utility.yul\":30936:30945   */\n      dup3\n        /* \"#utility.yul\":30932:30951   */\n      add\n        /* \"#utility.yul\":30924:30951   */\n      swap1\n      pop\n        /* \"#utility.yul\":30961:31032   */\n      tag_649\n        /* \"#utility.yul\":31029:31030   */\n      0x00\n        /* \"#utility.yul\":31018:31027   */\n      dup4\n        /* \"#utility.yul\":31014:31031   */\n      add\n        /* \"#utility.yul\":31005:31011   */\n      dup9\n        /* \"#utility.yul\":30961:31032   */\n      tag_296\n      jump\t// in\n    tag_649:\n        /* \"#utility.yul\":31042:31114   */\n      tag_650\n        /* \"#utility.yul\":31110:31112   */\n      0x20\n        /* \"#utility.yul\":31099:31108   */\n      dup4\n        /* \"#utility.yul\":31095:31113   */\n      add\n        /* \"#utility.yul\":31086:31092   */\n      dup8\n        /* \"#utility.yul\":31042:31114   */\n      tag_296\n      jump\t// in\n    tag_650:\n        /* \"#utility.yul\":31161:31170   */\n      dup2\n        /* \"#utility.yul\":31155:31159   */\n      dup2\n        /* \"#utility.yul\":31151:31171   */\n      sub\n        /* \"#utility.yul\":31146:31148   */\n      0x40\n        /* \"#utility.yul\":31135:31144   */\n      dup4\n        /* \"#utility.yul\":31131:31149   */\n      add\n        /* \"#utility.yul\":31124:31172   */\n      mstore\n        /* \"#utility.yul\":31189:31297   */\n      tag_651\n        /* \"#utility.yul\":31292:31296   */\n      dup2\n        /* \"#utility.yul\":31283:31289   */\n      dup7\n        /* \"#utility.yul\":31189:31297   */\n      tag_288\n      jump\t// in\n    tag_651:\n        /* \"#utility.yul\":31181:31297   */\n      swap1\n      pop\n        /* \"#utility.yul\":31344:31353   */\n      dup2\n        /* \"#utility.yul\":31338:31342   */\n      dup2\n        /* \"#utility.yul\":31334:31354   */\n      sub\n        /* \"#utility.yul\":31329:31331   */\n      0x60\n        /* \"#utility.yul\":31318:31327   */\n      dup4\n        /* \"#utility.yul\":31314:31332   */\n      add\n        /* \"#utility.yul\":31307:31355   */\n      mstore\n        /* \"#utility.yul\":31372:31480   */\n      tag_652\n        /* \"#utility.yul\":31475:31479   */\n      dup2\n        /* \"#utility.yul\":31466:31472   */\n      dup6\n        /* \"#utility.yul\":31372:31480   */\n      tag_288\n      jump\t// in\n    tag_652:\n        /* \"#utility.yul\":31364:31480   */\n      swap1\n      pop\n        /* \"#utility.yul\":31528:31537   */\n      dup2\n        /* \"#utility.yul\":31522:31526   */\n      dup2\n        /* \"#utility.yul\":31518:31538   */\n      sub\n        /* \"#utility.yul\":31512:31515   */\n      0x80\n        /* \"#utility.yul\":31501:31510   */\n      dup4\n        /* \"#utility.yul\":31497:31516   */\n      add\n        /* \"#utility.yul\":31490:31539   */\n      mstore\n        /* \"#utility.yul\":31556:31632   */\n      tag_653\n        /* \"#utility.yul\":31627:31631   */\n      dup2\n        /* \"#utility.yul\":31618:31624   */\n      dup5\n        /* \"#utility.yul\":31556:31632   */\n      tag_314\n      jump\t// in\n    tag_653:\n        /* \"#utility.yul\":31548:31632   */\n      swap1\n      pop\n        /* \"#utility.yul\":30586:31639   */\n      swap7\n      swap6\n      pop\n      pop\n      pop\n      pop\n      pop\n      pop\n      jump\t// out\n\n    auxdata: 0xa264697066735822122017b8a8423b9774f6429be3d8d1a2429f036fcde274bdee8c77bf45d123666c2d64736f6c63430008160033\n}\n",
				"bytecode": {
					"linkReferences": {},
					"object": "608060405234801562000010575f80fd5b506040518060400160405280601e81526020017f68747470733a2f2f697066732e696f2f697066732f7b69647d2e6a736f6e000081525062000058816200005f60201b60201c565b50620003bc565b8060029081620000709190620002d8565b5050565b5f81519050919050565b7f4e487b71000000000000000000000000000000000000000000000000000000005f52604160045260245ffd5b7f4e487b71000000000000000000000000000000000000000000000000000000005f52602260045260245ffd5b5f6002820490506001821680620000f057607f821691505b602082108103620001065762000105620000ab565b5b50919050565b5f819050815f5260205f209050919050565b5f6020601f8301049050919050565b5f82821b905092915050565b5f600883026200016a7fffffffffffffffffffffffffffffffffffffffffffffffffffffffffffffffff826200012d565b6200017686836200012d565b95508019841693508086168417925050509392505050565b5f819050919050565b5f819050919050565b5f620001c0620001ba620001b4846200018e565b62000197565b6200018e565b9050919050565b5f819050919050565b620001db83620001a0565b620001f3620001ea82620001c7565b84845462000139565b825550505050565b5f90565b62000209620001fb565b62000216818484620001d0565b505050565b5b818110156200023d57620002315f82620001ff565b6001810190506200021c565b5050565b601f8211156200028c5762000256816200010c565b62000261846200011e565b8101602085101562000271578190505b6200028962000280856200011e565b8301826200021b565b50505b505050565b5f82821c905092915050565b5f620002ae5f198460080262000291565b1980831691505092915050565b5f620002c883836200029d565b9150826002028217905092915050565b620002e38262000074565b67ffffffffffffffff811115620002ff57620002fe6200007e565b5b6200030b8254620000d8565b6200031882828562000241565b5f60209050601f8311600181146200034e575f841562000339578287015190505b620003458582620002bb565b865550620003b4565b601f1984166200035e866200010c565b5f5b82811015620003875784890151825560018201915060208501945060208101905062000360565b86831015620003a75784890151620003a3601f8916826200029d565b8355505b6001600288020188555050505b505050505050565b6124af80620003ca5f395ff3fe608060405234801561000f575f80fd5b506004361061009b575f3560e01c80634e1273f4116100645780634e1273f41461017b57806358ea82e6146101ab578063a22cb465146101c7578063e985e9c5146101e3578063f242432a146102135761009b565b8062fdd58e1461009f57806301ffc9a7146100cf57806307805a6b146100ff5780630e89341c1461012f5780632eb2c2d61461015f575b5f80fd5b6100b960048036038101906100b491906114d2565b61022f565b6040516100c6919061151f565b60405180910390f35b6100e960048036038101906100e4919061158d565b610284565b6040516100f691906115d2565b60405180910390f35b61011960048036038101906101149190611727565b610365565b604051610126919061151f565b60405180910390f35b61014960048036038101906101449190611781565b6103ac565b6040516101569190611826565b60405180910390f35b610179600480360381019061017491906119a8565b6103ef565b005b61019560048036038101906101909190611b33565b610496565b6040516101a29190611c60565b60405180910390f35b6101c560048036038101906101c09190611c80565b61059d565b005b6101e160048036038101906101dc9190611cfa565b6105bc565b005b6101fd60048036038101906101f89190611d38565b6105d2565b60405161020a91906115d2565b60405180910390f35b61022d60048036038101906102289190611d76565b610660565b005b5f805f8381526020019081526020015f205f8473ffffffffffffffffffffffffffffffffffffffff1673ffffffffffffffffffffffffffffffffffffffff1681526020019081526020015f2054905092915050565b5f7fd9b67a26000000000000000000000000000000000000000000000000000000007bffffffffffffffffffffffffffffffffffffffffffffffffffffffff1916827bffffffffffffffffffffffffffffffffffffffffffffffffffffffff1916148061034e57507f0e89341c000000000000000000000000000000000000000000000000000000007bffffffffffffffffffffffffffffffffffffffffffffffffffffffff1916827bffffffffffffffffffffffffffffffffffffffffffffffffffffffff1916145b8061035e575061035d82610707565b5b9050919050565b5f6103706003610770565b5f61037b6003610784565b90506103988482600160405180602001604052805f815250610790565b6103a28184610825565b8091505092915050565b60606103b782610848565b60045f8481526020019081526020015f206040516020016103d9929190611f32565b6040516020818303038152906040529050919050565b5f6103f86108da565b90508073ffffffffffffffffffffffffffffffffffffffff168673ffffffffffffffffffffffffffffffffffffffff161415801561043d575061043b86826105d2565b155b156104815780866040517fe237d922000000000000000000000000000000000000000000000000000000008152600401610478929190611f64565b60405180910390fd5b61048e86868686866108e1565b505050505050565b606081518351146104e257815183516040517f5b0599910000000000000000000000000000000000000000000000000000000081526004016104d9929190611f8b565b60405180910390fd5b5f835167ffffffffffffffff8111156104fe576104fd611603565b5b60405190808252806020026020018201604052801561052c5781602001602082028036833780820191505090505b5090505f5b84518110156105925761056861055082876109d590919063ffffffff16565b61056383876109e890919063ffffffff16565b61022f565b82828151811061057b5761057a611fb2565b5b602002602001018181525050806001019050610531565b508091505092915050565b6105b783838360405180602001604052805f815250610790565b505050565b6105ce6105c76108da565b83836109fb565b5050565b5f60015f8473ffffffffffffffffffffffffffffffffffffffff1673ffffffffffffffffffffffffffffffffffffffff1681526020019081526020015f205f8373ffffffffffffffffffffffffffffffffffffffff1673ffffffffffffffffffffffffffffffffffffffff1681526020019081526020015f205f9054906101000a900460ff16905092915050565b5f6106696108da565b90508073ffffffffffffffffffffffffffffffffffffffff168673ffffffffffffffffffffffffffffffffffffffff16141580156106ae57506106ac86826105d2565b155b156106f25780866040517fe237d9220000000000000000000000000000000000000000000000000000000081526004016106e9929190611f64565b60405180910390fd5b6106ff8686868686610b64565b505050505050565b5f7f01ffc9a7000000000000000000000000000000000000000000000000000000007bffffffffffffffffffffffffffffffffffffffffffffffffffffffff1916827bffffffffffffffffffffffffffffffffffffffffffffffffffffffff1916149050919050565b6001815f015f828254019250508190555050565b5f815f01549050919050565b5f73ffffffffffffffffffffffffffffffffffffffff168473ffffffffffffffffffffffffffffffffffffffff1603610800575f6040517f57f447ce0000000000000000000000000000000000000000000000000000000081526004016107f79190611fdf565b60405180910390fd5b5f8061080c8585610c6a565b9150915061081d5f87848487610c9a565b505050505050565b8060045f8481526020019081526020015f2090816108439190612183565b505050565b60606002805461085790611e70565b80601f016020809104026020016040519081016040528092919081815260200182805461088390611e70565b80156108ce5780601f106108a5576101008083540402835291602001916108ce565b820191905f5260205f20905b8154815290600101906020018083116108b157829003601f168201915b50505050509050919050565b5f33905090565b5f73ffffffffffffffffffffffffffffffffffffffff168473ffffffffffffffffffffffffffffffffffffffff1603610951575f6040517f57f447ce0000000000000000000000000000000000000000000000000000000081526004016109489190611fdf565b60405180910390fd5b5f73ffffffffffffffffffffffffffffffffffffffff168573ffffffffffffffffffffffffffffffffffffffff16036109c1575f6040517f01a835140000000000000000000000000000000000000000000000000000000081526004016109b89190611fdf565b60405180910390fd5b6109ce8585858585610c9a565b5050505050565b5f60208202602084010151905092915050565b5f60208202602084010151905092915050565b5f73ffffffffffffffffffffffffffffffffffffffff168273ffffffffffffffffffffffffffffffffffffffff1603610a6b575f6040517fced3e100000000000000000000000000000000000000000000000000000000008152600401610a629190611fdf565b60405180910390fd5b8060015f8573ffffffffffffffffffffffffffffffffffffffff1673ffffffffffffffffffffffffffffffffffffffff1681526020019081526020015f205f8473ffffffffffffffffffffffffffffffffffffffff1673ffffffffffffffffffffffffffffffffffffffff1681526020019081526020015f205f6101000a81548160ff0219169083151502179055508173ffffffffffffffffffffffffffffffffffffffff168373ffffffffffffffffffffffffffffffffffffffff167f17307eab39ab6107e8899845ad3d59bd9653f200f220920489ca2b5937696c3183604051610b5791906115d2565b60405180910390a3505050565b5f73ffffffffffffffffffffffffffffffffffffffff168473ffffffffffffffffffffffffffffffffffffffff1603610bd4575f6040517f57f447ce000000000000000000000000000000000000000000000000000000008152600401610bcb9190611fdf565b60405180910390fd5b5f73ffffffffffffffffffffffffffffffffffffffff168573ffffffffffffffffffffffffffffffffffffffff1603610c44575f6040517f01a83514000000000000000000000000000000000000000000000000000000008152600401610c3b9190611fdf565b60405180910390fd5b5f80610c508585610c6a565b91509150610c618787848487610c9a565b50505050505050565b60608060405191506001825283602083015260408201905060018152826020820152604081016040529250929050565b610ca685858585610d46565b5f73ffffffffffffffffffffffffffffffffffffffff168473ffffffffffffffffffffffffffffffffffffffff1614610d3f575f610ce26108da565b90506001845103610d2e575f610d015f866109e890919063ffffffff16565b90505f610d175f866109e890919063ffffffff16565b9050610d278389898585896110d6565b5050610d3d565b610d3c818787878787611285565b5b505b5050505050565b8051825114610d9057815181516040517f5b059991000000000000000000000000000000000000000000000000000000008152600401610d87929190611f8b565b60405180910390fd5b5f610d996108da565b90505f5b8351811015610f95575f610dba82866109e890919063ffffffff16565b90505f610dd083866109e890919063ffffffff16565b90505f73ffffffffffffffffffffffffffffffffffffffff168873ffffffffffffffffffffffffffffffffffffffff1614610ef3575f805f8481526020019081526020015f205f8a73ffffffffffffffffffffffffffffffffffffffff1673ffffffffffffffffffffffffffffffffffffffff1681526020019081526020015f2054905081811015610e9f57888183856040517f03dee4c5000000000000000000000000000000000000000000000000000000008152600401610e969493929190612252565b60405180910390fd5b8181035f808581526020019081526020015f205f8b73ffffffffffffffffffffffffffffffffffffffff1673ffffffffffffffffffffffffffffffffffffffff1681526020019081526020015f2081905550505b5f73ffffffffffffffffffffffffffffffffffffffff168773ffffffffffffffffffffffffffffffffffffffff1614610f8857805f808481526020019081526020015f205f8973ffffffffffffffffffffffffffffffffffffffff1673ffffffffffffffffffffffffffffffffffffffff1681526020019081526020015f205f828254610f8091906122c2565b925050819055505b5050806001019050610d9d565b506001835103611050575f610fb35f856109e890919063ffffffff16565b90505f610fc95f856109e890919063ffffffff16565b90508573ffffffffffffffffffffffffffffffffffffffff168773ffffffffffffffffffffffffffffffffffffffff168473ffffffffffffffffffffffffffffffffffffffff167fc3d58168c5ae7397731d063d5bbf3d657854427343f4c083240f7aacaa2d0f628585604051611041929190611f8b565b60405180910390a450506110cf565b8373ffffffffffffffffffffffffffffffffffffffff168573ffffffffffffffffffffffffffffffffffffffff168273ffffffffffffffffffffffffffffffffffffffff167f4a39dc06d4c0dbc64b70af90fd698a233a518aa5d07e595d983b8c0526c8f7fb86866040516110c69291906122f5565b60405180910390a45b5050505050565b5f8473ffffffffffffffffffffffffffffffffffffffff163b111561127d578373ffffffffffffffffffffffffffffffffffffffff1663f23a6e6187878686866040518663ffffffff1660e01b815260040161113695949392919061237c565b6020604051808303815f875af192505050801561117157506040513d601f19601f8201168201806040525081019061116e91906123e8565b60015b6111f2573d805f811461119f576040519150601f19603f3d011682016040523d82523d5f602084013e6111a4565b606091505b505f8151036111ea57846040517f57f447ce0000000000000000000000000000000000000000000000000000000081526004016111e19190611fdf565b60405180910390fd5b805181602001fd5b63f23a6e6160e01b7bffffffffffffffffffffffffffffffffffffffffffffffffffffffff1916817bffffffffffffffffffffffffffffffffffffffffffffffffffffffff19161461127b57846040517f57f447ce0000000000000000000000000000000000000000000000000000000081526004016112729190611fdf565b60405180910390fd5b505b505050505050565b5f8473ffffffffffffffffffffffffffffffffffffffff163b111561142c578373ffffffffffffffffffffffffffffffffffffffff1663bc197c8187878686866040518663ffffffff1660e01b81526004016112e5959493929190612413565b6020604051808303815f875af192505050801561132057506040513d601f19601f8201168201806040525081019061131d91906123e8565b60015b6113a1573d805f811461134e576040519150601f19603f3d011682016040523d82523d5f602084013e611353565b606091505b505f81510361139957846040517f57f447ce0000000000000000000000000000000000000000000000000000000081526004016113909190611fdf565b60405180910390fd5b805181602001fd5b63bc197c8160e01b7bffffffffffffffffffffffffffffffffffffffffffffffffffffffff1916817bffffffffffffffffffffffffffffffffffffffffffffffffffffffff19161461142a57846040517f57f447ce0000000000000000000000000000000000000000000000000000000081526004016114219190611fdf565b60405180910390fd5b505b505050505050565b5f604051905090565b5f80fd5b5f80fd5b5f73ffffffffffffffffffffffffffffffffffffffff82169050919050565b5f61146e82611445565b9050919050565b61147e81611464565b8114611488575f80fd5b50565b5f8135905061149981611475565b92915050565b5f819050919050565b6114b18161149f565b81146114bb575f80fd5b50565b5f813590506114cc816114a8565b92915050565b5f80604083850312156114e8576114e761143d565b5b5f6114f58582860161148b565b9250506020611506858286016114be565b9150509250929050565b6115198161149f565b82525050565b5f6020820190506115325f830184611510565b92915050565b5f7fffffffff0000000000000000000000000000000000000000000000000000000082169050919050565b61156c81611538565b8114611576575f80fd5b50565b5f8135905061158781611563565b92915050565b5f602082840312156115a2576115a161143d565b5b5f6115af84828501611579565b91505092915050565b5f8115159050919050565b6115cc816115b8565b82525050565b5f6020820190506115e55f8301846115c3565b92915050565b5f80fd5b5f80fd5b5f601f19601f8301169050919050565b7f4e487b71000000000000000000000000000000000000000000000000000000005f52604160045260245ffd5b611639826115f3565b810181811067ffffffffffffffff8211171561165857611657611603565b5b80604052505050565b5f61166a611434565b90506116768282611630565b919050565b5f67ffffffffffffffff82111561169557611694611603565b5b61169e826115f3565b9050602081019050919050565b828183375f83830152505050565b5f6116cb6116c68461167b565b611661565b9050828152602081018484840111156116e7576116e66115ef565b5b6116f28482856116ab565b509392505050565b5f82601f83011261170e5761170d6115eb565b5b813561171e8482602086016116b9565b91505092915050565b5f806040838503121561173d5761173c61143d565b5b5f61174a8582860161148b565b925050602083013567ffffffffffffffff81111561176b5761176a611441565b5b611777858286016116fa565b9150509250929050565b5f602082840312156117965761179561143d565b5b5f6117a3848285016114be565b91505092915050565b5f81519050919050565b5f82825260208201905092915050565b5f5b838110156117e35780820151818401526020810190506117c8565b5f8484015250505050565b5f6117f8826117ac565b61180281856117b6565b93506118128185602086016117c6565b61181b816115f3565b840191505092915050565b5f6020820190508181035f83015261183e81846117ee565b905092915050565b5f67ffffffffffffffff8211156118605761185f611603565b5b602082029050602081019050919050565b5f80fd5b5f61188761188284611846565b611661565b905080838252602082019050602084028301858111156118aa576118a9611871565b5b835b818110156118d357806118bf88826114be565b8452602084019350506020810190506118ac565b5050509392505050565b5f82601f8301126118f1576118f06115eb565b5b8135611901848260208601611875565b91505092915050565b5f67ffffffffffffffff82111561192457611923611603565b5b61192d826115f3565b9050602081019050919050565b5f61194c6119478461190a565b611661565b905082815260208101848484011115611968576119676115ef565b5b6119738482856116ab565b509392505050565b5f82601f83011261198f5761198e6115eb565b5b813561199f84826020860161193a565b91505092915050565b5f805f805f60a086880312156119c1576119c061143d565b5b5f6119ce8882890161148b565b95505060206119df8882890161148b565b945050604086013567ffffffffffffffff811115611a00576119ff611441565b5b611a0c888289016118dd565b935050606086013567ffffffffffffffff811115611a2d57611a2c611441565b5b611a39888289016118dd565b925050608086013567ffffffffffffffff811115611a5a57611a59611441565b5b611a668882890161197b565b9150509295509295909350565b5f67ffffffffffffffff821115611a8d57611a8c611603565b5b602082029050602081019050919050565b5f611ab0611aab84611a73565b611661565b90508083825260208201905060208402830185811115611ad357611ad2611871565b5b835b81811015611afc5780611ae8888261148b565b845260208401935050602081019050611ad5565b5050509392505050565b5f82601f830112611b1a57611b196115eb565b5b8135611b2a848260208601611a9e565b91505092915050565b5f8060408385031215611b4957611b4861143d565b5b5f83013567ffffffffffffffff811115611b6657611b65611441565b5b611b7285828601611b06565b925050602083013567ffffffffffffffff811115611b9357611b92611441565b5b611b9f858286016118dd565b9150509250929050565b5f81519050919050565b5f82825260208201905092915050565b5f819050602082019050919050565b611bdb8161149f565b82525050565b5f611bec8383611bd2565b60208301905092915050565b5f602082019050919050565b5f611c0e82611ba9565b611c188185611bb3565b9350611c2383611bc3565b805f5b83811015611c53578151611c3a8882611be1565b9750611c4583611bf8565b925050600181019050611c26565b5085935050505092915050565b5f6020820190508181035f830152611c788184611c04565b905092915050565b5f805f60608486031215611c9757611c9661143d565b5b5f611ca48682870161148b565b9350506020611cb5868287016114be565b9250506040611cc6868287016114be565b9150509250925092565b611cd9816115b8565b8114611ce3575f80fd5b50565b5f81359050611cf481611cd0565b92915050565b5f8060408385031215611d1057611d0f61143d565b5b5f611d1d8582860161148b565b9250506020611d2e85828601611ce6565b9150509250929050565b5f8060408385031215611d4e57611d4d61143d565b5b5f611d5b8582860161148b565b9250506020611d6c8582860161148b565b9150509250929050565b5f805f805f60a08688031215611d8f57611d8e61143d565b5b5f611d9c8882890161148b565b9550506020611dad8882890161148b565b9450506040611dbe888289016114be565b9350506060611dcf888289016114be565b925050608086013567ffffffffffffffff811115611df057611def611441565b5b611dfc8882890161197b565b9150509295509295909350565b5f81905092915050565b5f611e1d826117ac565b611e278185611e09565b9350611e378185602086016117c6565b80840191505092915050565b7f4e487b71000000000000000000000000000000000000000000000000000000005f52602260045260245ffd5b5f6002820490506001821680611e8757607f821691505b602082108103611e9a57611e99611e43565b5b50919050565b5f819050815f5260205f209050919050565b5f8154611ebe81611e70565b611ec88186611e09565b9450600182165f8114611ee25760018114611ef757611f29565b60ff1983168652811515820286019350611f29565b611f0085611ea0565b5f5b83811015611f2157815481890152600182019150602081019050611f02565b838801955050505b50505092915050565b5f611f3d8285611e13565b9150611f498284611eb2565b91508190509392505050565b611f5e81611464565b82525050565b5f604082019050611f775f830185611f55565b611f846020830184611f55565b9392505050565b5f604082019050611f9e5f830185611510565b611fab6020830184611510565b9392505050565b7f4e487b71000000000000000000000000000000000000000000000000000000005f52603260045260245ffd5b5f602082019050611ff25f830184611f55565b92915050565b5f6020601f8301049050919050565b5f82821b905092915050565b5f600883026120427fffffffffffffffffffffffffffffffffffffffffffffffffffffffffffffffff82612007565b61204c8683612007565b95508019841693508086168417925050509392505050565b5f819050919050565b5f61208761208261207d8461149f565b612064565b61149f565b9050919050565b5f819050919050565b6120a08361206d565b6120b46120ac8261208e565b848454612013565b825550505050565b5f90565b6120c86120bc565b6120d3818484612097565b505050565b5b818110156120f6576120eb5f826120c0565b6001810190506120d9565b5050565b601f82111561213b5761210c81611ea0565b61211584611ff8565b81016020851015612124578190505b61213861213085611ff8565b8301826120d8565b50505b505050565b5f82821c905092915050565b5f61215b5f1984600802612140565b1980831691505092915050565b5f612173838361214c565b9150826002028217905092915050565b61218c826117ac565b67ffffffffffffffff8111156121a5576121a4611603565b5b6121af8254611e70565b6121ba8282856120fa565b5f60209050601f8311600181146121eb575f84156121d9578287015190505b6121e38582612168565b86555061224a565b601f1984166121f986611ea0565b5f5b82811015612220578489015182556001820191506020850194506020810190506121fb565b8683101561223d5784890151612239601f89168261214c565b8355505b6001600288020188555050505b505050505050565b5f6080820190506122655f830187611f55565b6122726020830186611510565b61227f6040830185611510565b61228c6060830184611510565b95945050505050565b7f4e487b71000000000000000000000000000000000000000000000000000000005f52601160045260245ffd5b5f6122cc8261149f565b91506122d78361149f565b92508282019050808211156122ef576122ee612295565b5b92915050565b5f6040820190508181035f83015261230d8185611c04565b905081810360208301526123218184611c04565b90509392505050565b5f81519050919050565b5f82825260208201905092915050565b5f61234e8261232a565b6123588185612334565b93506123688185602086016117c6565b612371816115f3565b840191505092915050565b5f60a08201905061238f5f830188611f55565b61239c6020830187611f55565b6123a96040830186611510565b6123b66060830185611510565b81810360808301526123c88184612344565b90509695505050505050565b5f815190506123e281611563565b92915050565b5f602082840312156123fd576123fc61143d565b5b5f61240a848285016123d4565b91505092915050565b5f60a0820190506124265f830188611f55565b6124336020830187611f55565b81810360408301526124458186611c04565b905081810360608301526124598185611c04565b9050818103608083015261246d8184612344565b9050969550505050505056fea264697066735822122017b8a8423b9774f6429be3d8d1a2429f036fcde274bdee8c77bf45d123666c2d64736f6c63430008160033",
					"opcodes": "PUSH1 0x80 PUSH1 0x40 MSTORE CALLVALUE DUP1 ISZERO PUSH3 0x10 JUMPI PUSH0 DUP1 REVERT JUMPDEST POP PUSH1 0x40 MLOAD DUP1 PUSH1 0x40 ADD PUSH1 0x40 MSTORE DUP1 PUSH1 0x1E DUP2 MSTORE PUSH1 0x20 ADD PUSH32 0x68747470733A2F2F697066732E696F2F697066732F7B69647D2E6A736F6E0000 DUP2 MSTORE POP PUSH3 0x58 DUP2 PUSH3 0x5F PUSH1 0x20 SHL PUSH1 0x20 SHR JUMP JUMPDEST POP PUSH3 0x3BC JUMP JUMPDEST DUP1 PUSH1 0x2 SWAP1 DUP2 PUSH3 0x70 SWAP2 SWAP1 PUSH3 0x2D8 JUMP JUMPDEST POP POP JUMP JUMPDEST PUSH0 DUP2 MLOAD SWAP1 POP SWAP2 SWAP1 POP JUMP JUMPDEST PUSH32 0x4E487B7100000000000000000000000000000000000000000000000000000000 PUSH0 MSTORE PUSH1 0x41 PUSH1 0x4 MSTORE PUSH1 0x24 PUSH0 REVERT JUMPDEST PUSH32 0x4E487B7100000000000000000000000000000000000000000000000000000000 PUSH0 MSTORE PUSH1 0x22 PUSH1 0x4 MSTORE PUSH1 0x24 PUSH0 REVERT JUMPDEST PUSH0 PUSH1 0x2 DUP3 DIV SWAP1 POP PUSH1 0x1 DUP3 AND DUP1 PUSH3 0xF0 JUMPI PUSH1 0x7F DUP3 AND SWAP2 POP JUMPDEST PUSH1 0x20 DUP3 LT DUP2 SUB PUSH3 0x106 JUMPI PUSH3 0x105 PUSH3 0xAB JUMP JUMPDEST JUMPDEST POP SWAP2 SWAP1 POP JUMP JUMPDEST PUSH0 DUP2 SWAP1 POP DUP2 PUSH0 MSTORE PUSH1 0x20 PUSH0 KECCAK256 SWAP1 POP SWAP2 SWAP1 POP JUMP JUMPDEST PUSH0 PUSH1 0x20 PUSH1 0x1F DUP4 ADD DIV SWAP1 POP SWAP2 SWAP1 POP JUMP JUMPDEST PUSH0 DUP3 DUP3 SHL SWAP1 POP SWAP3 SWAP2 POP POP JUMP JUMPDEST PUSH0 PUSH1 0x8 DUP4 MUL PUSH3 0x16A PUSH32 0xFFFFFFFFFFFFFFFFFFFFFFFFFFFFFFFFFFFFFFFFFFFFFFFFFFFFFFFFFFFFFFFF DUP3 PUSH3 0x12D JUMP JUMPDEST PUSH3 0x176 DUP7 DUP4 PUSH3 0x12D JUMP JUMPDEST SWAP6 POP DUP1 NOT DUP5 AND SWAP4 POP DUP1 DUP7 AND DUP5 OR SWAP3 POP POP POP SWAP4 SWAP3 POP POP POP JUMP JUMPDEST PUSH0 DUP2 SWAP1 POP SWAP2 SWAP1 POP JUMP JUMPDEST PUSH0 DUP2 SWAP1 POP SWAP2 SWAP1 POP JUMP JUMPDEST PUSH0 PUSH3 0x1C0 PUSH3 0x1BA PUSH3 0x1B4 DUP5 PUSH3 0x18E JUMP JUMPDEST PUSH3 0x197 JUMP JUMPDEST PUSH3 0x18E JUMP JUMPDEST SWAP1 POP SWAP2 SWAP1 POP JUMP JUMPDEST PUSH0 DUP2 SWAP1 POP SWAP2 SWAP1 POP JUMP JUMPDEST PUSH3 0x1DB DUP4 PUSH3 0x1A0 JUMP JUMPDEST PUSH3 0x1F3 PUSH3 0x1EA DUP3 PUSH3 0x1C7 JUMP JUMPDEST DUP5 DUP5 SLOAD PUSH3 0x139 JUMP JUMPDEST DUP3 SSTORE POP POP POP POP JUMP JUMPDEST PUSH0 SWAP1 JUMP JUMPDEST PUSH3 0x209 PUSH3 0x1FB JUMP JUMPDEST PUSH3 0x216 DUP2 DUP5 DUP5 PUSH3 0x1D0 JUMP JUMPDEST POP POP POP JUMP JUMPDEST JUMPDEST DUP2 DUP2 LT ISZERO PUSH3 0x23D JUMPI PUSH3 0x231 PUSH0 DUP3 PUSH3 0x1FF JUMP JUMPDEST PUSH1 0x1 DUP2 ADD SWAP1 POP PUSH3 0x21C JUMP JUMPDEST POP POP JUMP JUMPDEST PUSH1 0x1F DUP3 GT ISZERO PUSH3 0x28C JUMPI PUSH3 0x256 DUP2 PUSH3 0x10C JUMP JUMPDEST PUSH3 0x261 DUP5 PUSH3 0x11E JUMP JUMPDEST DUP2 ADD PUSH1 0x20 DUP6 LT ISZERO PUSH3 0x271 JUMPI DUP2 SWAP1 POP JUMPDEST PUSH3 0x289 PUSH3 0x280 DUP6 PUSH3 0x11E JUMP JUMPDEST DUP4 ADD DUP3 PUSH3 0x21B JUMP JUMPDEST POP POP JUMPDEST POP POP POP JUMP JUMPDEST PUSH0 DUP3 DUP3 SHR SWAP1 POP SWAP3 SWAP2 POP POP JUMP JUMPDEST PUSH0 PUSH3 0x2AE PUSH0 NOT DUP5 PUSH1 0x8 MUL PUSH3 0x291 JUMP JUMPDEST NOT DUP1 DUP4 AND SWAP2 POP POP SWAP3 SWAP2 POP POP JUMP JUMPDEST PUSH0 PUSH3 0x2C8 DUP4 DUP4 PUSH3 0x29D JUMP JUMPDEST SWAP2 POP DUP3 PUSH1 0x2 MUL DUP3 OR SWAP1 POP SWAP3 SWAP2 POP POP JUMP JUMPDEST PUSH3 0x2E3 DUP3 PUSH3 0x74 JUMP JUMPDEST PUSH8 0xFFFFFFFFFFFFFFFF DUP2 GT ISZERO PUSH3 0x2FF JUMPI PUSH3 0x2FE PUSH3 0x7E JUMP JUMPDEST JUMPDEST PUSH3 0x30B DUP3 SLOAD PUSH3 0xD8 JUMP JUMPDEST PUSH3 0x318 DUP3 DUP3 DUP6 PUSH3 0x241 JUMP JUMPDEST PUSH0 PUSH1 0x20 SWAP1 POP PUSH1 0x1F DUP4 GT PUSH1 0x1 DUP2 EQ PUSH3 0x34E JUMPI PUSH0 DUP5 ISZERO PUSH3 0x339 JUMPI DUP3 DUP8 ADD MLOAD SWAP1 POP JUMPDEST PUSH3 0x345 DUP6 DUP3 PUSH3 0x2BB JUMP JUMPDEST DUP7 SSTORE POP PUSH3 0x3B4 JUMP JUMPDEST PUSH1 0x1F NOT DUP5 AND PUSH3 0x35E DUP7 PUSH3 0x10C JUMP JUMPDEST PUSH0 JUMPDEST DUP3 DUP2 LT ISZERO PUSH3 0x387 JUMPI DUP5 DUP10 ADD MLOAD DUP3 SSTORE PUSH1 0x1 DUP3 ADD SWAP2 POP PUSH1 0x20 DUP6 ADD SWAP5 POP PUSH1 0x20 DUP2 ADD SWAP1 POP PUSH3 0x360 JUMP JUMPDEST DUP7 DUP4 LT ISZERO PUSH3 0x3A7 JUMPI DUP5 DUP10 ADD MLOAD PUSH3 0x3A3 PUSH1 0x1F DUP10 AND DUP3 PUSH3 0x29D JUMP JUMPDEST DUP4 SSTORE POP JUMPDEST PUSH1 0x1 PUSH1 0x2 DUP9 MUL ADD DUP9 SSTORE POP POP POP JUMPDEST POP POP POP POP POP POP JUMP JUMPDEST PUSH2 0x24AF DUP1 PUSH3 0x3CA PUSH0 CODECOPY PUSH0 RETURN INVALID PUSH1 0x80 PUSH1 0x40 MSTORE CALLVALUE DUP1 ISZERO PUSH2 0xF JUMPI PUSH0 DUP1 REVERT JUMPDEST POP PUSH1 0x4 CALLDATASIZE LT PUSH2 0x9B JUMPI PUSH0 CALLDATALOAD PUSH1 0xE0 SHR DUP1 PUSH4 0x4E1273F4 GT PUSH2 0x64 JUMPI DUP1 PUSH4 0x4E1273F4 EQ PUSH2 0x17B JUMPI DUP1 PUSH4 0x58EA82E6 EQ PUSH2 0x1AB JUMPI DUP1 PUSH4 0xA22CB465 EQ PUSH2 0x1C7 JUMPI DUP1 PUSH4 0xE985E9C5 EQ PUSH2 0x1E3 JUMPI DUP1 PUSH4 0xF242432A EQ PUSH2 0x213 JUMPI PUSH2 0x9B JUMP JUMPDEST DUP1 PUSH3 0xFDD58E EQ PUSH2 0x9F JUMPI DUP1 PUSH4 0x1FFC9A7 EQ PUSH2 0xCF JUMPI DUP1 PUSH4 0x7805A6B EQ PUSH2 0xFF JUMPI DUP1 PUSH4 0xE89341C EQ PUSH2 0x12F JUMPI DUP1 PUSH4 0x2EB2C2D6 EQ PUSH2 0x15F JUMPI JUMPDEST PUSH0 DUP1 REVERT JUMPDEST PUSH2 0xB9 PUSH1 0x4 DUP1 CALLDATASIZE SUB DUP2 ADD SWAP1 PUSH2 0xB4 SWAP2 SWAP1 PUSH2 0x14D2 JUMP JUMPDEST PUSH2 0x22F JUMP JUMPDEST PUSH1 0x40 MLOAD PUSH2 0xC6 SWAP2 SWAP1 PUSH2 0x151F JUMP JUMPDEST PUSH1 0x40 MLOAD DUP1 SWAP2 SUB SWAP1 RETURN JUMPDEST PUSH2 0xE9 PUSH1 0x4 DUP1 CALLDATASIZE SUB DUP2 ADD SWAP1 PUSH2 0xE4 SWAP2 SWAP1 PUSH2 0x158D JUMP JUMPDEST PUSH2 0x284 JUMP JUMPDEST PUSH1 0x40 MLOAD PUSH2 0xF6 SWAP2 SWAP1 PUSH2 0x15D2 JUMP JUMPDEST PUSH1 0x40 MLOAD DUP1 SWAP2 SUB SWAP1 RETURN JUMPDEST PUSH2 0x119 PUSH1 0x4 DUP1 CALLDATASIZE SUB DUP2 ADD SWAP1 PUSH2 0x114 SWAP2 SWAP1 PUSH2 0x1727 JUMP JUMPDEST PUSH2 0x365 JUMP JUMPDEST PUSH1 0x40 MLOAD PUSH2 0x126 SWAP2 SWAP1 PUSH2 0x151F JUMP JUMPDEST PUSH1 0x40 MLOAD DUP1 SWAP2 SUB SWAP1 RETURN JUMPDEST PUSH2 0x149 PUSH1 0x4 DUP1 CALLDATASIZE SUB DUP2 ADD SWAP1 PUSH2 0x144 SWAP2 SWAP1 PUSH2 0x1781 JUMP JUMPDEST PUSH2 0x3AC JUMP JUMPDEST PUSH1 0x40 MLOAD PUSH2 0x156 SWAP2 SWAP1 PUSH2 0x1826 JUMP JUMPDEST PUSH1 0x40 MLOAD DUP1 SWAP2 SUB SWAP1 RETURN JUMPDEST PUSH2 0x179 PUSH1 0x4 DUP1 CALLDATASIZE SUB DUP2 ADD SWAP1 PUSH2 0x174 SWAP2 SWAP1 PUSH2 0x19A8 JUMP JUMPDEST PUSH2 0x3EF JUMP JUMPDEST STOP JUMPDEST PUSH2 0x195 PUSH1 0x4 DUP1 CALLDATASIZE SUB DUP2 ADD SWAP1 PUSH2 0x190 SWAP2 SWAP1 PUSH2 0x1B33 JUMP JUMPDEST PUSH2 0x496 JUMP JUMPDEST PUSH1 0x40 MLOAD PUSH2 0x1A2 SWAP2 SWAP1 PUSH2 0x1C60 JUMP JUMPDEST PUSH1 0x40 MLOAD DUP1 SWAP2 SUB SWAP1 RETURN JUMPDEST PUSH2 0x1C5 PUSH1 0x4 DUP1 CALLDATASIZE SUB DUP2 ADD SWAP1 PUSH2 0x1C0 SWAP2 SWAP1 PUSH2 0x1C80 JUMP JUMPDEST PUSH2 0x59D JUMP JUMPDEST STOP JUMPDEST PUSH2 0x1E1 PUSH1 0x4 DUP1 CALLDATASIZE SUB DUP2 ADD SWAP1 PUSH2 0x1DC SWAP2 SWAP1 PUSH2 0x1CFA JUMP JUMPDEST PUSH2 0x5BC JUMP JUMPDEST STOP JUMPDEST PUSH2 0x1FD PUSH1 0x4 DUP1 CALLDATASIZE SUB DUP2 ADD SWAP1 PUSH2 0x1F8 SWAP2 SWAP1 PUSH2 0x1D38 JUMP JUMPDEST PUSH2 0x5D2 JUMP JUMPDEST PUSH1 0x40 MLOAD PUSH2 0x20A SWAP2 SWAP1 PUSH2 0x15D2 JUMP JUMPDEST PUSH1 0x40 MLOAD DUP1 SWAP2 SUB SWAP1 RETURN JUMPDEST PUSH2 0x22D PUSH1 0x4 DUP1 CALLDATASIZE SUB DUP2 ADD SWAP1 PUSH2 0x228 SWAP2 SWAP1 PUSH2 0x1D76 JUMP JUMPDEST PUSH2 0x660 JUMP JUMPDEST STOP JUMPDEST PUSH0 DUP1 PUSH0 DUP4 DUP2 MSTORE PUSH1 0x20 ADD SWAP1 DUP2 MSTORE PUSH1 0x20 ADD PUSH0 KECCAK256 PUSH0 DUP5 PUSH20 0xFFFFFFFFFFFFFFFFFFFFFFFFFFFFFFFFFFFFFFFF AND PUSH20 0xFFFFFFFFFFFFFFFFFFFFFFFFFFFFFFFFFFFFFFFF AND DUP2 MSTORE PUSH1 0x20 ADD SWAP1 DUP2 MSTORE PUSH1 0x20 ADD PUSH0 KECCAK256 SLOAD SWAP1 POP SWAP3 SWAP2 POP POP JUMP JUMPDEST PUSH0 PUSH32 0xD9B67A2600000000000000000000000000000000000000000000000000000000 PUSH28 0xFFFFFFFFFFFFFFFFFFFFFFFFFFFFFFFFFFFFFFFFFFFFFFFFFFFFFFFF NOT AND DUP3 PUSH28 0xFFFFFFFFFFFFFFFFFFFFFFFFFFFFFFFFFFFFFFFFFFFFFFFFFFFFFFFF NOT AND EQ DUP1 PUSH2 0x34E JUMPI POP PUSH32 0xE89341C00000000000000000000000000000000000000000000000000000000 PUSH28 0xFFFFFFFFFFFFFFFFFFFFFFFFFFFFFFFFFFFFFFFFFFFFFFFFFFFFFFFF NOT AND DUP3 PUSH28 0xFFFFFFFFFFFFFFFFFFFFFFFFFFFFFFFFFFFFFFFFFFFFFFFFFFFFFFFF NOT AND EQ JUMPDEST DUP1 PUSH2 0x35E JUMPI POP PUSH2 0x35D DUP3 PUSH2 0x707 JUMP JUMPDEST JUMPDEST SWAP1 POP SWAP2 SWAP1 POP JUMP JUMPDEST PUSH0 PUSH2 0x370 PUSH1 0x3 PUSH2 0x770 JUMP JUMPDEST PUSH0 PUSH2 0x37B PUSH1 0x3 PUSH2 0x784 JUMP JUMPDEST SWAP1 POP PUSH2 0x398 DUP5 DUP3 PUSH1 0x1 PUSH1 0x40 MLOAD DUP1 PUSH1 0x20 ADD PUSH1 0x40 MSTORE DUP1 PUSH0 DUP2 MSTORE POP PUSH2 0x790 JUMP JUMPDEST PUSH2 0x3A2 DUP2 DUP5 PUSH2 0x825 JUMP JUMPDEST DUP1 SWAP2 POP POP SWAP3 SWAP2 POP POP JUMP JUMPDEST PUSH1 0x60 PUSH2 0x3B7 DUP3 PUSH2 0x848 JUMP JUMPDEST PUSH1 0x4 PUSH0 DUP5 DUP2 MSTORE PUSH1 0x20 ADD SWAP1 DUP2 MSTORE PUSH1 0x20 ADD PUSH0 KECCAK256 PUSH1 0x40 MLOAD PUSH1 0x20 ADD PUSH2 0x3D9 SWAP3 SWAP2 SWAP1 PUSH2 0x1F32 JUMP JUMPDEST PUSH1 0x40 MLOAD PUSH1 0x20 DUP2 DUP4 SUB SUB DUP2 MSTORE SWAP1 PUSH1 0x40 MSTORE SWAP1 POP SWAP2 SWAP1 POP JUMP JUMPDEST PUSH0 PUSH2 0x3F8 PUSH2 0x8DA JUMP JUMPDEST SWAP1 POP DUP1 PUSH20 0xFFFFFFFFFFFFFFFFFFFFFFFFFFFFFFFFFFFFFFFF AND DUP7 PUSH20 0xFFFFFFFFFFFFFFFFFFFFFFFFFFFFFFFFFFFFFFFF AND EQ ISZERO DUP1 ISZERO PUSH2 0x43D JUMPI POP PUSH2 0x43B DUP7 DUP3 PUSH2 0x5D2 JUMP JUMPDEST ISZERO JUMPDEST ISZERO PUSH2 0x481 JUMPI DUP1 DUP7 PUSH1 0x40 MLOAD PUSH32 0xE237D92200000000000000000000000000000000000000000000000000000000 DUP2 MSTORE PUSH1 0x4 ADD PUSH2 0x478 SWAP3 SWAP2 SWAP1 PUSH2 0x1F64 JUMP JUMPDEST PUSH1 0x40 MLOAD DUP1 SWAP2 SUB SWAP1 REVERT JUMPDEST PUSH2 0x48E DUP7 DUP7 DUP7 DUP7 DUP7 PUSH2 0x8E1 JUMP JUMPDEST POP POP POP POP POP POP JUMP JUMPDEST PUSH1 0x60 DUP2 MLOAD DUP4 MLOAD EQ PUSH2 0x4E2 JUMPI DUP2 MLOAD DUP4 MLOAD PUSH1 0x40 MLOAD PUSH32 0x5B05999100000000000000000000000000000000000000000000000000000000 DUP2 MSTORE PUSH1 0x4 ADD PUSH2 0x4D9 SWAP3 SWAP2 SWAP1 PUSH2 0x1F8B JUMP JUMPDEST PUSH1 0x40 MLOAD DUP1 SWAP2 SUB SWAP1 REVERT JUMPDEST PUSH0 DUP4 MLOAD PUSH8 0xFFFFFFFFFFFFFFFF DUP2 GT ISZERO PUSH2 0x4FE JUMPI PUSH2 0x4FD PUSH2 0x1603 JUMP JUMPDEST JUMPDEST PUSH1 0x40 MLOAD SWAP1 DUP1 DUP3 MSTORE DUP1 PUSH1 0x20 MUL PUSH1 0x20 ADD DUP3 ADD PUSH1 0x40 MSTORE DUP1 ISZERO PUSH2 0x52C JUMPI DUP2 PUSH1 0x20 ADD PUSH1 0x20 DUP3 MUL DUP1 CALLDATASIZE DUP4 CALLDATACOPY DUP1 DUP3 ADD SWAP2 POP POP SWAP1 POP JUMPDEST POP SWAP1 POP PUSH0 JUMPDEST DUP5 MLOAD DUP2 LT ISZERO PUSH2 0x592 JUMPI PUSH2 0x568 PUSH2 0x550 DUP3 DUP8 PUSH2 0x9D5 SWAP1 SWAP2 SWAP1 PUSH4 0xFFFFFFFF AND JUMP JUMPDEST PUSH2 0x563 DUP4 DUP8 PUSH2 0x9E8 SWAP1 SWAP2 SWAP1 PUSH4 0xFFFFFFFF AND JUMP JUMPDEST PUSH2 0x22F JUMP JUMPDEST DUP3 DUP3 DUP2 MLOAD DUP2 LT PUSH2 0x57B JUMPI PUSH2 0x57A PUSH2 0x1FB2 JUMP JUMPDEST JUMPDEST PUSH1 0x20 MUL PUSH1 0x20 ADD ADD DUP2 DUP2 MSTORE POP POP DUP1 PUSH1 0x1 ADD SWAP1 POP PUSH2 0x531 JUMP JUMPDEST POP DUP1 SWAP2 POP POP SWAP3 SWAP2 POP POP JUMP JUMPDEST PUSH2 0x5B7 DUP4 DUP4 DUP4 PUSH1 0x40 MLOAD DUP1 PUSH1 0x20 ADD PUSH1 0x40 MSTORE DUP1 PUSH0 DUP2 MSTORE POP PUSH2 0x790 JUMP JUMPDEST POP POP POP JUMP JUMPDEST PUSH2 0x5CE PUSH2 0x5C7 PUSH2 0x8DA JUMP JUMPDEST DUP4 DUP4 PUSH2 0x9FB JUMP JUMPDEST POP POP JUMP JUMPDEST PUSH0 PUSH1 0x1 PUSH0 DUP5 PUSH20 0xFFFFFFFFFFFFFFFFFFFFFFFFFFFFFFFFFFFFFFFF AND PUSH20 0xFFFFFFFFFFFFFFFFFFFFFFFFFFFFFFFFFFFFFFFF AND DUP2 MSTORE PUSH1 0x20 ADD SWAP1 DUP2 MSTORE PUSH1 0x20 ADD PUSH0 KECCAK256 PUSH0 DUP4 PUSH20 0xFFFFFFFFFFFFFFFFFFFFFFFFFFFFFFFFFFFFFFFF AND PUSH20 0xFFFFFFFFFFFFFFFFFFFFFFFFFFFFFFFFFFFFFFFF AND DUP2 MSTORE PUSH1 0x20 ADD SWAP1 DUP2 MSTORE PUSH1 0x20 ADD PUSH0 KECCAK256 PUSH0 SWAP1 SLOAD SWAP1 PUSH2 0x100 EXP SWAP1 DIV PUSH1 0xFF AND SWAP1 POP SWAP3 SWAP2 POP POP JUMP JUMPDEST PUSH0 PUSH2 0x669 PUSH2 0x8DA JUMP JUMPDEST SWAP1 POP DUP1 PUSH20 0xFFFFFFFFFFFFFFFFFFFFFFFFFFFFFFFFFFFFFFFF AND DUP7 PUSH20 0xFFFFFFFFFFFFFFFFFFFFFFFFFFFFFFFFFFFFFFFF AND EQ ISZERO DUP1 ISZERO PUSH2 0x6AE JUMPI POP PUSH2 0x6AC DUP7 DUP3 PUSH2 0x5D2 JUMP JUMPDEST ISZERO JUMPDEST ISZERO PUSH2 0x6F2 JUMPI DUP1 DUP7 PUSH1 0x40 MLOAD PUSH32 0xE237D92200000000000000000000000000000000000000000000000000000000 DUP2 MSTORE PUSH1 0x4 ADD PUSH2 0x6E9 SWAP3 SWAP2 SWAP1 PUSH2 0x1F64 JUMP JUMPDEST PUSH1 0x40 MLOAD DUP1 SWAP2 SUB SWAP1 REVERT JUMPDEST PUSH2 0x6FF DUP7 DUP7 DUP7 DUP7 DUP7 PUSH2 0xB64 JUMP JUMPDEST POP POP POP POP POP POP JUMP JUMPDEST PUSH0 PUSH32 0x1FFC9A700000000000000000000000000000000000000000000000000000000 PUSH28 0xFFFFFFFFFFFFFFFFFFFFFFFFFFFFFFFFFFFFFFFFFFFFFFFFFFFFFFFF NOT AND DUP3 PUSH28 0xFFFFFFFFFFFFFFFFFFFFFFFFFFFFFFFFFFFFFFFFFFFFFFFFFFFFFFFF NOT AND EQ SWAP1 POP SWAP2 SWAP1 POP JUMP JUMPDEST PUSH1 0x1 DUP2 PUSH0 ADD PUSH0 DUP3 DUP3 SLOAD ADD SWAP3 POP POP DUP2 SWAP1 SSTORE POP POP JUMP JUMPDEST PUSH0 DUP2 PUSH0 ADD SLOAD SWAP1 POP SWAP2 SWAP1 POP JUMP JUMPDEST PUSH0 PUSH20 0xFFFFFFFFFFFFFFFFFFFFFFFFFFFFFFFFFFFFFFFF AND DUP5 PUSH20 0xFFFFFFFFFFFFFFFFFFFFFFFFFFFFFFFFFFFFFFFF AND SUB PUSH2 0x800 JUMPI PUSH0 PUSH1 0x40 MLOAD PUSH32 0x57F447CE00000000000000000000000000000000000000000000000000000000 DUP2 MSTORE PUSH1 0x4 ADD PUSH2 0x7F7 SWAP2 SWAP1 PUSH2 0x1FDF JUMP JUMPDEST PUSH1 0x40 MLOAD DUP1 SWAP2 SUB SWAP1 REVERT JUMPDEST PUSH0 DUP1 PUSH2 0x80C DUP6 DUP6 PUSH2 0xC6A JUMP JUMPDEST SWAP2 POP SWAP2 POP PUSH2 0x81D PUSH0 DUP8 DUP5 DUP5 DUP8 PUSH2 0xC9A JUMP JUMPDEST POP POP POP POP POP POP JUMP JUMPDEST DUP1 PUSH1 0x4 PUSH0 DUP5 DUP2 MSTORE PUSH1 0x20 ADD SWAP1 DUP2 MSTORE PUSH1 0x20 ADD PUSH0 KECCAK256 SWAP1 DUP2 PUSH2 0x843 SWAP2 SWAP1 PUSH2 0x2183 JUMP JUMPDEST POP POP POP JUMP JUMPDEST PUSH1 0x60 PUSH1 0x2 DUP1 SLOAD PUSH2 0x857 SWAP1 PUSH2 0x1E70 JUMP JUMPDEST DUP1 PUSH1 0x1F ADD PUSH1 0x20 DUP1 SWAP2 DIV MUL PUSH1 0x20 ADD PUSH1 0x40 MLOAD SWAP1 DUP2 ADD PUSH1 0x40 MSTORE DUP1 SWAP3 SWAP2 SWAP1 DUP2 DUP2 MSTORE PUSH1 0x20 ADD DUP3 DUP1 SLOAD PUSH2 0x883 SWAP1 PUSH2 0x1E70 JUMP JUMPDEST DUP1 ISZERO PUSH2 0x8CE JUMPI DUP1 PUSH1 0x1F LT PUSH2 0x8A5 JUMPI PUSH2 0x100 DUP1 DUP4 SLOAD DIV MUL DUP4 MSTORE SWAP2 PUSH1 0x20 ADD SWAP2 PUSH2 0x8CE JUMP JUMPDEST DUP3 ADD SWAP2 SWAP1 PUSH0 MSTORE PUSH1 0x20 PUSH0 KECCAK256 SWAP1 JUMPDEST DUP2 SLOAD DUP2 MSTORE SWAP1 PUSH1 0x1 ADD SWAP1 PUSH1 0x20 ADD DUP1 DUP4 GT PUSH2 0x8B1 JUMPI DUP3 SWAP1 SUB PUSH1 0x1F AND DUP3 ADD SWAP2 JUMPDEST POP POP POP POP POP SWAP1 POP SWAP2 SWAP1 POP JUMP JUMPDEST PUSH0 CALLER SWAP1 POP SWAP1 JUMP JUMPDEST PUSH0 PUSH20 0xFFFFFFFFFFFFFFFFFFFFFFFFFFFFFFFFFFFFFFFF AND DUP5 PUSH20 0xFFFFFFFFFFFFFFFFFFFFFFFFFFFFFFFFFFFFFFFF AND SUB PUSH2 0x951 JUMPI PUSH0 PUSH1 0x40 MLOAD PUSH32 0x57F447CE00000000000000000000000000000000000000000000000000000000 DUP2 MSTORE PUSH1 0x4 ADD PUSH2 0x948 SWAP2 SWAP1 PUSH2 0x1FDF JUMP JUMPDEST PUSH1 0x40 MLOAD DUP1 SWAP2 SUB SWAP1 REVERT JUMPDEST PUSH0 PUSH20 0xFFFFFFFFFFFFFFFFFFFFFFFFFFFFFFFFFFFFFFFF AND DUP6 PUSH20 0xFFFFFFFFFFFFFFFFFFFFFFFFFFFFFFFFFFFFFFFF AND SUB PUSH2 0x9C1 JUMPI PUSH0 PUSH1 0x40 MLOAD PUSH32 0x1A8351400000000000000000000000000000000000000000000000000000000 DUP2 MSTORE PUSH1 0x4 ADD PUSH2 0x9B8 SWAP2 SWAP1 PUSH2 0x1FDF JUMP JUMPDEST PUSH1 0x40 MLOAD DUP1 SWAP2 SUB SWAP1 REVERT JUMPDEST PUSH2 0x9CE DUP6 DUP6 DUP6 DUP6 DUP6 PUSH2 0xC9A JUMP JUMPDEST POP POP POP POP POP JUMP JUMPDEST PUSH0 PUSH1 0x20 DUP3 MUL PUSH1 0x20 DUP5 ADD ADD MLOAD SWAP1 POP SWAP3 SWAP2 POP POP JUMP JUMPDEST PUSH0 PUSH1 0x20 DUP3 MUL PUSH1 0x20 DUP5 ADD ADD MLOAD SWAP1 POP SWAP3 SWAP2 POP POP JUMP JUMPDEST PUSH0 PUSH20 0xFFFFFFFFFFFFFFFFFFFFFFFFFFFFFFFFFFFFFFFF AND DUP3 PUSH20 0xFFFFFFFFFFFFFFFFFFFFFFFFFFFFFFFFFFFFFFFF AND SUB PUSH2 0xA6B JUMPI PUSH0 PUSH1 0x40 MLOAD PUSH32 0xCED3E10000000000000000000000000000000000000000000000000000000000 DUP2 MSTORE PUSH1 0x4 ADD PUSH2 0xA62 SWAP2 SWAP1 PUSH2 0x1FDF JUMP JUMPDEST PUSH1 0x40 MLOAD DUP1 SWAP2 SUB SWAP1 REVERT JUMPDEST DUP1 PUSH1 0x1 PUSH0 DUP6 PUSH20 0xFFFFFFFFFFFFFFFFFFFFFFFFFFFFFFFFFFFFFFFF AND PUSH20 0xFFFFFFFFFFFFFFFFFFFFFFFFFFFFFFFFFFFFFFFF AND DUP2 MSTORE PUSH1 0x20 ADD SWAP1 DUP2 MSTORE PUSH1 0x20 ADD PUSH0 KECCAK256 PUSH0 DUP5 PUSH20 0xFFFFFFFFFFFFFFFFFFFFFFFFFFFFFFFFFFFFFFFF AND PUSH20 0xFFFFFFFFFFFFFFFFFFFFFFFFFFFFFFFFFFFFFFFF AND DUP2 MSTORE PUSH1 0x20 ADD SWAP1 DUP2 MSTORE PUSH1 0x20 ADD PUSH0 KECCAK256 PUSH0 PUSH2 0x100 EXP DUP2 SLOAD DUP2 PUSH1 0xFF MUL NOT AND SWAP1 DUP4 ISZERO ISZERO MUL OR SWAP1 SSTORE POP DUP2 PUSH20 0xFFFFFFFFFFFFFFFFFFFFFFFFFFFFFFFFFFFFFFFF AND DUP4 PUSH20 0xFFFFFFFFFFFFFFFFFFFFFFFFFFFFFFFFFFFFFFFF AND PUSH32 0x17307EAB39AB6107E8899845AD3D59BD9653F200F220920489CA2B5937696C31 DUP4 PUSH1 0x40 MLOAD PUSH2 0xB57 SWAP2 SWAP1 PUSH2 0x15D2 JUMP JUMPDEST PUSH1 0x40 MLOAD DUP1 SWAP2 SUB SWAP1 LOG3 POP POP POP JUMP JUMPDEST PUSH0 PUSH20 0xFFFFFFFFFFFFFFFFFFFFFFFFFFFFFFFFFFFFFFFF AND DUP5 PUSH20 0xFFFFFFFFFFFFFFFFFFFFFFFFFFFFFFFFFFFFFFFF AND SUB PUSH2 0xBD4 JUMPI PUSH0 PUSH1 0x40 MLOAD PUSH32 0x57F447CE00000000000000000000000000000000000000000000000000000000 DUP2 MSTORE PUSH1 0x4 ADD PUSH2 0xBCB SWAP2 SWAP1 PUSH2 0x1FDF JUMP JUMPDEST PUSH1 0x40 MLOAD DUP1 SWAP2 SUB SWAP1 REVERT JUMPDEST PUSH0 PUSH20 0xFFFFFFFFFFFFFFFFFFFFFFFFFFFFFFFFFFFFFFFF AND DUP6 PUSH20 0xFFFFFFFFFFFFFFFFFFFFFFFFFFFFFFFFFFFFFFFF AND SUB PUSH2 0xC44 JUMPI PUSH0 PUSH1 0x40 MLOAD PUSH32 0x1A8351400000000000000000000000000000000000000000000000000000000 DUP2 MSTORE PUSH1 0x4 ADD PUSH2 0xC3B SWAP2 SWAP1 PUSH2 0x1FDF JUMP JUMPDEST PUSH1 0x40 MLOAD DUP1 SWAP2 SUB SWAP1 REVERT JUMPDEST PUSH0 DUP1 PUSH2 0xC50 DUP6 DUP6 PUSH2 0xC6A JUMP JUMPDEST SWAP2 POP SWAP2 POP PUSH2 0xC61 DUP8 DUP8 DUP5 DUP5 DUP8 PUSH2 0xC9A JUMP JUMPDEST POP POP POP POP POP POP POP JUMP JUMPDEST PUSH1 0x60 DUP1 PUSH1 0x40 MLOAD SWAP2 POP PUSH1 0x1 DUP3 MSTORE DUP4 PUSH1 0x20 DUP4 ADD MSTORE PUSH1 0x40 DUP3 ADD SWAP1 POP PUSH1 0x1 DUP2 MSTORE DUP3 PUSH1 0x20 DUP3 ADD MSTORE PUSH1 0x40 DUP2 ADD PUSH1 0x40 MSTORE SWAP3 POP SWAP3 SWAP1 POP JUMP JUMPDEST PUSH2 0xCA6 DUP6 DUP6 DUP6 DUP6 PUSH2 0xD46 JUMP JUMPDEST PUSH0 PUSH20 0xFFFFFFFFFFFFFFFFFFFFFFFFFFFFFFFFFFFFFFFF AND DUP5 PUSH20 0xFFFFFFFFFFFFFFFFFFFFFFFFFFFFFFFFFFFFFFFF AND EQ PUSH2 0xD3F JUMPI PUSH0 PUSH2 0xCE2 PUSH2 0x8DA JUMP JUMPDEST SWAP1 POP PUSH1 0x1 DUP5 MLOAD SUB PUSH2 0xD2E JUMPI PUSH0 PUSH2 0xD01 PUSH0 DUP7 PUSH2 0x9E8 SWAP1 SWAP2 SWAP1 PUSH4 0xFFFFFFFF AND JUMP JUMPDEST SWAP1 POP PUSH0 PUSH2 0xD17 PUSH0 DUP7 PUSH2 0x9E8 SWAP1 SWAP2 SWAP1 PUSH4 0xFFFFFFFF AND JUMP JUMPDEST SWAP1 POP PUSH2 0xD27 DUP4 DUP10 DUP10 DUP6 DUP6 DUP10 PUSH2 0x10D6 JUMP JUMPDEST POP POP PUSH2 0xD3D JUMP JUMPDEST PUSH2 0xD3C DUP2 DUP8 DUP8 DUP8 DUP8 DUP8 PUSH2 0x1285 JUMP JUMPDEST JUMPDEST POP JUMPDEST POP POP POP POP POP JUMP JUMPDEST DUP1 MLOAD DUP3 MLOAD EQ PUSH2 0xD90 JUMPI DUP2 MLOAD DUP2 MLOAD PUSH1 0x40 MLOAD PUSH32 0x5B05999100000000000000000000000000000000000000000000000000000000 DUP2 MSTORE PUSH1 0x4 ADD PUSH2 0xD87 SWAP3 SWAP2 SWAP1 PUSH2 0x1F8B JUMP JUMPDEST PUSH1 0x40 MLOAD DUP1 SWAP2 SUB SWAP1 REVERT JUMPDEST PUSH0 PUSH2 0xD99 PUSH2 0x8DA JUMP JUMPDEST SWAP1 POP PUSH0 JUMPDEST DUP4 MLOAD DUP2 LT ISZERO PUSH2 0xF95 JUMPI PUSH0 PUSH2 0xDBA DUP3 DUP7 PUSH2 0x9E8 SWAP1 SWAP2 SWAP1 PUSH4 0xFFFFFFFF AND JUMP JUMPDEST SWAP1 POP PUSH0 PUSH2 0xDD0 DUP4 DUP7 PUSH2 0x9E8 SWAP1 SWAP2 SWAP1 PUSH4 0xFFFFFFFF AND JUMP JUMPDEST SWAP1 POP PUSH0 PUSH20 0xFFFFFFFFFFFFFFFFFFFFFFFFFFFFFFFFFFFFFFFF AND DUP9 PUSH20 0xFFFFFFFFFFFFFFFFFFFFFFFFFFFFFFFFFFFFFFFF AND EQ PUSH2 0xEF3 JUMPI PUSH0 DUP1 PUSH0 DUP5 DUP2 MSTORE PUSH1 0x20 ADD SWAP1 DUP2 MSTORE PUSH1 0x20 ADD PUSH0 KECCAK256 PUSH0 DUP11 PUSH20 0xFFFFFFFFFFFFFFFFFFFFFFFFFFFFFFFFFFFFFFFF AND PUSH20 0xFFFFFFFFFFFFFFFFFFFFFFFFFFFFFFFFFFFFFFFF AND DUP2 MSTORE PUSH1 0x20 ADD SWAP1 DUP2 MSTORE PUSH1 0x20 ADD PUSH0 KECCAK256 SLOAD SWAP1 POP DUP2 DUP2 LT ISZERO PUSH2 0xE9F JUMPI DUP9 DUP2 DUP4 DUP6 PUSH1 0x40 MLOAD PUSH32 0x3DEE4C500000000000000000000000000000000000000000000000000000000 DUP2 MSTORE PUSH1 0x4 ADD PUSH2 0xE96 SWAP5 SWAP4 SWAP3 SWAP2 SWAP1 PUSH2 0x2252 JUMP JUMPDEST PUSH1 0x40 MLOAD DUP1 SWAP2 SUB SWAP1 REVERT JUMPDEST DUP2 DUP2 SUB PUSH0 DUP1 DUP6 DUP2 MSTORE PUSH1 0x20 ADD SWAP1 DUP2 MSTORE PUSH1 0x20 ADD PUSH0 KECCAK256 PUSH0 DUP12 PUSH20 0xFFFFFFFFFFFFFFFFFFFFFFFFFFFFFFFFFFFFFFFF AND PUSH20 0xFFFFFFFFFFFFFFFFFFFFFFFFFFFFFFFFFFFFFFFF AND DUP2 MSTORE PUSH1 0x20 ADD SWAP1 DUP2 MSTORE PUSH1 0x20 ADD PUSH0 KECCAK256 DUP2 SWAP1 SSTORE POP POP JUMPDEST PUSH0 PUSH20 0xFFFFFFFFFFFFFFFFFFFFFFFFFFFFFFFFFFFFFFFF AND DUP8 PUSH20 0xFFFFFFFFFFFFFFFFFFFFFFFFFFFFFFFFFFFFFFFF AND EQ PUSH2 0xF88 JUMPI DUP1 PUSH0 DUP1 DUP5 DUP2 MSTORE PUSH1 0x20 ADD SWAP1 DUP2 MSTORE PUSH1 0x20 ADD PUSH0 KECCAK256 PUSH0 DUP10 PUSH20 0xFFFFFFFFFFFFFFFFFFFFFFFFFFFFFFFFFFFFFFFF AND PUSH20 0xFFFFFFFFFFFFFFFFFFFFFFFFFFFFFFFFFFFFFFFF AND DUP2 MSTORE PUSH1 0x20 ADD SWAP1 DUP2 MSTORE PUSH1 0x20 ADD PUSH0 KECCAK256 PUSH0 DUP3 DUP3 SLOAD PUSH2 0xF80 SWAP2 SWAP1 PUSH2 0x22C2 JUMP JUMPDEST SWAP3 POP POP DUP2 SWAP1 SSTORE POP JUMPDEST POP POP DUP1 PUSH1 0x1 ADD SWAP1 POP PUSH2 0xD9D JUMP JUMPDEST POP PUSH1 0x1 DUP4 MLOAD SUB PUSH2 0x1050 JUMPI PUSH0 PUSH2 0xFB3 PUSH0 DUP6 PUSH2 0x9E8 SWAP1 SWAP2 SWAP1 PUSH4 0xFFFFFFFF AND JUMP JUMPDEST SWAP1 POP PUSH0 PUSH2 0xFC9 PUSH0 DUP6 PUSH2 0x9E8 SWAP1 SWAP2 SWAP1 PUSH4 0xFFFFFFFF AND JUMP JUMPDEST SWAP1 POP DUP6 PUSH20 0xFFFFFFFFFFFFFFFFFFFFFFFFFFFFFFFFFFFFFFFF AND DUP8 PUSH20 0xFFFFFFFFFFFFFFFFFFFFFFFFFFFFFFFFFFFFFFFF AND DUP5 PUSH20 0xFFFFFFFFFFFFFFFFFFFFFFFFFFFFFFFFFFFFFFFF AND PUSH32 0xC3D58168C5AE7397731D063D5BBF3D657854427343F4C083240F7AACAA2D0F62 DUP6 DUP6 PUSH1 0x40 MLOAD PUSH2 0x1041 SWAP3 SWAP2 SWAP1 PUSH2 0x1F8B JUMP JUMPDEST PUSH1 0x40 MLOAD DUP1 SWAP2 SUB SWAP1 LOG4 POP POP PUSH2 0x10CF JUMP JUMPDEST DUP4 PUSH20 0xFFFFFFFFFFFFFFFFFFFFFFFFFFFFFFFFFFFFFFFF AND DUP6 PUSH20 0xFFFFFFFFFFFFFFFFFFFFFFFFFFFFFFFFFFFFFFFF AND DUP3 PUSH20 0xFFFFFFFFFFFFFFFFFFFFFFFFFFFFFFFFFFFFFFFF AND PUSH32 0x4A39DC06D4C0DBC64B70AF90FD698A233A518AA5D07E595D983B8C0526C8F7FB DUP7 DUP7 PUSH1 0x40 MLOAD PUSH2 0x10C6 SWAP3 SWAP2 SWAP1 PUSH2 0x22F5 JUMP JUMPDEST PUSH1 0x40 MLOAD DUP1 SWAP2 SUB SWAP1 LOG4 JUMPDEST POP POP POP POP POP JUMP JUMPDEST PUSH0 DUP5 PUSH20 0xFFFFFFFFFFFFFFFFFFFFFFFFFFFFFFFFFFFFFFFF AND EXTCODESIZE GT ISZERO PUSH2 0x127D JUMPI DUP4 PUSH20 0xFFFFFFFFFFFFFFFFFFFFFFFFFFFFFFFFFFFFFFFF AND PUSH4 0xF23A6E61 DUP8 DUP8 DUP7 DUP7 DUP7 PUSH1 0x40 MLOAD DUP7 PUSH4 0xFFFFFFFF AND PUSH1 0xE0 SHL DUP2 MSTORE PUSH1 0x4 ADD PUSH2 0x1136 SWAP6 SWAP5 SWAP4 SWAP3 SWAP2 SWAP1 PUSH2 0x237C JUMP JUMPDEST PUSH1 0x20 PUSH1 0x40 MLOAD DUP1 DUP4 SUB DUP2 PUSH0 DUP8 GAS CALL SWAP3 POP POP POP DUP1 ISZERO PUSH2 0x1171 JUMPI POP PUSH1 0x40 MLOAD RETURNDATASIZE PUSH1 0x1F NOT PUSH1 0x1F DUP3 ADD AND DUP3 ADD DUP1 PUSH1 0x40 MSTORE POP DUP2 ADD SWAP1 PUSH2 0x116E SWAP2 SWAP1 PUSH2 0x23E8 JUMP JUMPDEST PUSH1 0x1 JUMPDEST PUSH2 0x11F2 JUMPI RETURNDATASIZE DUP1 PUSH0 DUP2 EQ PUSH2 0x119F JUMPI PUSH1 0x40 MLOAD SWAP2 POP PUSH1 0x1F NOT PUSH1 0x3F RETURNDATASIZE ADD AND DUP3 ADD PUSH1 0x40 MSTORE RETURNDATASIZE DUP3 MSTORE RETURNDATASIZE PUSH0 PUSH1 0x20 DUP5 ADD RETURNDATACOPY PUSH2 0x11A4 JUMP JUMPDEST PUSH1 0x60 SWAP2 POP JUMPDEST POP PUSH0 DUP2 MLOAD SUB PUSH2 0x11EA JUMPI DUP5 PUSH1 0x40 MLOAD PUSH32 0x57F447CE00000000000000000000000000000000000000000000000000000000 DUP2 MSTORE PUSH1 0x4 ADD PUSH2 0x11E1 SWAP2 SWAP1 PUSH2 0x1FDF JUMP JUMPDEST PUSH1 0x40 MLOAD DUP1 SWAP2 SUB SWAP1 REVERT JUMPDEST DUP1 MLOAD DUP2 PUSH1 0x20 ADD REVERT JUMPDEST PUSH4 0xF23A6E61 PUSH1 0xE0 SHL PUSH28 0xFFFFFFFFFFFFFFFFFFFFFFFFFFFFFFFFFFFFFFFFFFFFFFFFFFFFFFFF NOT AND DUP2 PUSH28 0xFFFFFFFFFFFFFFFFFFFFFFFFFFFFFFFFFFFFFFFFFFFFFFFFFFFFFFFF NOT AND EQ PUSH2 0x127B JUMPI DUP5 PUSH1 0x40 MLOAD PUSH32 0x57F447CE00000000000000000000000000000000000000000000000000000000 DUP2 MSTORE PUSH1 0x4 ADD PUSH2 0x1272 SWAP2 SWAP1 PUSH2 0x1FDF JUMP JUMPDEST PUSH1 0x40 MLOAD DUP1 SWAP2 SUB SWAP1 REVERT JUMPDEST POP JUMPDEST POP POP POP POP POP POP JUMP JUMPDEST PUSH0 DUP5 PUSH20 0xFFFFFFFFFFFFFFFFFFFFFFFFFFFFFFFFFFFFFFFF AND EXTCODESIZE GT ISZERO PUSH2 0x142C JUMPI DUP4 PUSH20 0xFFFFFFFFFFFFFFFFFFFFFFFFFFFFFFFFFFFFFFFF AND PUSH4 0xBC197C81 DUP8 DUP8 DUP7 DUP7 DUP7 PUSH1 0x40 MLOAD DUP7 PUSH4 0xFFFFFFFF AND PUSH1 0xE0 SHL DUP2 MSTORE PUSH1 0x4 ADD PUSH2 0x12E5 SWAP6 SWAP5 SWAP4 SWAP3 SWAP2 SWAP1 PUSH2 0x2413 JUMP JUMPDEST PUSH1 0x20 PUSH1 0x40 MLOAD DUP1 DUP4 SUB DUP2 PUSH0 DUP8 GAS CALL SWAP3 POP POP POP DUP1 ISZERO PUSH2 0x1320 JUMPI POP PUSH1 0x40 MLOAD RETURNDATASIZE PUSH1 0x1F NOT PUSH1 0x1F DUP3 ADD AND DUP3 ADD DUP1 PUSH1 0x40 MSTORE POP DUP2 ADD SWAP1 PUSH2 0x131D SWAP2 SWAP1 PUSH2 0x23E8 JUMP JUMPDEST PUSH1 0x1 JUMPDEST PUSH2 0x13A1 JUMPI RETURNDATASIZE DUP1 PUSH0 DUP2 EQ PUSH2 0x134E JUMPI PUSH1 0x40 MLOAD SWAP2 POP PUSH1 0x1F NOT PUSH1 0x3F RETURNDATASIZE ADD AND DUP3 ADD PUSH1 0x40 MSTORE RETURNDATASIZE DUP3 MSTORE RETURNDATASIZE PUSH0 PUSH1 0x20 DUP5 ADD RETURNDATACOPY PUSH2 0x1353 JUMP JUMPDEST PUSH1 0x60 SWAP2 POP JUMPDEST POP PUSH0 DUP2 MLOAD SUB PUSH2 0x1399 JUMPI DUP5 PUSH1 0x40 MLOAD PUSH32 0x57F447CE00000000000000000000000000000000000000000000000000000000 DUP2 MSTORE PUSH1 0x4 ADD PUSH2 0x1390 SWAP2 SWAP1 PUSH2 0x1FDF JUMP JUMPDEST PUSH1 0x40 MLOAD DUP1 SWAP2 SUB SWAP1 REVERT JUMPDEST DUP1 MLOAD DUP2 PUSH1 0x20 ADD REVERT JUMPDEST PUSH4 0xBC197C81 PUSH1 0xE0 SHL PUSH28 0xFFFFFFFFFFFFFFFFFFFFFFFFFFFFFFFFFFFFFFFFFFFFFFFFFFFFFFFF NOT AND DUP2 PUSH28 0xFFFFFFFFFFFFFFFFFFFFFFFFFFFFFFFFFFFFFFFFFFFFFFFFFFFFFFFF NOT AND EQ PUSH2 0x142A JUMPI DUP5 PUSH1 0x40 MLOAD PUSH32 0x57F447CE00000000000000000000000000000000000000000000000000000000 DUP2 MSTORE PUSH1 0x4 ADD PUSH2 0x1421 SWAP2 SWAP1 PUSH2 0x1FDF JUMP JUMPDEST PUSH1 0x40 MLOAD DUP1 SWAP2 SUB SWAP1 REVERT JUMPDEST POP JUMPDEST POP POP POP POP POP POP JUMP JUMPDEST PUSH0 PUSH1 0x40 MLOAD SWAP1 POP SWAP1 JUMP JUMPDEST PUSH0 DUP1 REVERT JUMPDEST PUSH0 DUP1 REVERT JUMPDEST PUSH0 PUSH20 0xFFFFFFFFFFFFFFFFFFFFFFFFFFFFFFFFFFFFFFFF DUP3 AND SWAP1 POP SWAP2 SWAP1 POP JUMP JUMPDEST PUSH0 PUSH2 0x146E DUP3 PUSH2 0x1445 JUMP JUMPDEST SWAP1 POP SWAP2 SWAP1 POP JUMP JUMPDEST PUSH2 0x147E DUP2 PUSH2 0x1464 JUMP JUMPDEST DUP2 EQ PUSH2 0x1488 JUMPI PUSH0 DUP1 REVERT JUMPDEST POP JUMP JUMPDEST PUSH0 DUP2 CALLDATALOAD SWAP1 POP PUSH2 0x1499 DUP2 PUSH2 0x1475 JUMP JUMPDEST SWAP3 SWAP2 POP POP JUMP JUMPDEST PUSH0 DUP2 SWAP1 POP SWAP2 SWAP1 POP JUMP JUMPDEST PUSH2 0x14B1 DUP2 PUSH2 0x149F JUMP JUMPDEST DUP2 EQ PUSH2 0x14BB JUMPI PUSH0 DUP1 REVERT JUMPDEST POP JUMP JUMPDEST PUSH0 DUP2 CALLDATALOAD SWAP1 POP PUSH2 0x14CC DUP2 PUSH2 0x14A8 JUMP JUMPDEST SWAP3 SWAP2 POP POP JUMP JUMPDEST PUSH0 DUP1 PUSH1 0x40 DUP4 DUP6 SUB SLT ISZERO PUSH2 0x14E8 JUMPI PUSH2 0x14E7 PUSH2 0x143D JUMP JUMPDEST JUMPDEST PUSH0 PUSH2 0x14F5 DUP6 DUP3 DUP7 ADD PUSH2 0x148B JUMP JUMPDEST SWAP3 POP POP PUSH1 0x20 PUSH2 0x1506 DUP6 DUP3 DUP7 ADD PUSH2 0x14BE JUMP JUMPDEST SWAP2 POP POP SWAP3 POP SWAP3 SWAP1 POP JUMP JUMPDEST PUSH2 0x1519 DUP2 PUSH2 0x149F JUMP JUMPDEST DUP3 MSTORE POP POP JUMP JUMPDEST PUSH0 PUSH1 0x20 DUP3 ADD SWAP1 POP PUSH2 0x1532 PUSH0 DUP4 ADD DUP5 PUSH2 0x1510 JUMP JUMPDEST SWAP3 SWAP2 POP POP JUMP JUMPDEST PUSH0 PUSH32 0xFFFFFFFF00000000000000000000000000000000000000000000000000000000 DUP3 AND SWAP1 POP SWAP2 SWAP1 POP JUMP JUMPDEST PUSH2 0x156C DUP2 PUSH2 0x1538 JUMP JUMPDEST DUP2 EQ PUSH2 0x1576 JUMPI PUSH0 DUP1 REVERT JUMPDEST POP JUMP JUMPDEST PUSH0 DUP2 CALLDATALOAD SWAP1 POP PUSH2 0x1587 DUP2 PUSH2 0x1563 JUMP JUMPDEST SWAP3 SWAP2 POP POP JUMP JUMPDEST PUSH0 PUSH1 0x20 DUP3 DUP5 SUB SLT ISZERO PUSH2 0x15A2 JUMPI PUSH2 0x15A1 PUSH2 0x143D JUMP JUMPDEST JUMPDEST PUSH0 PUSH2 0x15AF DUP5 DUP3 DUP6 ADD PUSH2 0x1579 JUMP JUMPDEST SWAP2 POP POP SWAP3 SWAP2 POP POP JUMP JUMPDEST PUSH0 DUP2 ISZERO ISZERO SWAP1 POP SWAP2 SWAP1 POP JUMP JUMPDEST PUSH2 0x15CC DUP2 PUSH2 0x15B8 JUMP JUMPDEST DUP3 MSTORE POP POP JUMP JUMPDEST PUSH0 PUSH1 0x20 DUP3 ADD SWAP1 POP PUSH2 0x15E5 PUSH0 DUP4 ADD DUP5 PUSH2 0x15C3 JUMP JUMPDEST SWAP3 SWAP2 POP POP JUMP JUMPDEST PUSH0 DUP1 REVERT JUMPDEST PUSH0 DUP1 REVERT JUMPDEST PUSH0 PUSH1 0x1F NOT PUSH1 0x1F DUP4 ADD AND SWAP1 POP SWAP2 SWAP1 POP JUMP JUMPDEST PUSH32 0x4E487B7100000000000000000000000000000000000000000000000000000000 PUSH0 MSTORE PUSH1 0x41 PUSH1 0x4 MSTORE PUSH1 0x24 PUSH0 REVERT JUMPDEST PUSH2 0x1639 DUP3 PUSH2 0x15F3 JUMP JUMPDEST DUP2 ADD DUP2 DUP2 LT PUSH8 0xFFFFFFFFFFFFFFFF DUP3 GT OR ISZERO PUSH2 0x1658 JUMPI PUSH2 0x1657 PUSH2 0x1603 JUMP JUMPDEST JUMPDEST DUP1 PUSH1 0x40 MSTORE POP POP POP JUMP JUMPDEST PUSH0 PUSH2 0x166A PUSH2 0x1434 JUMP JUMPDEST SWAP1 POP PUSH2 0x1676 DUP3 DUP3 PUSH2 0x1630 JUMP JUMPDEST SWAP2 SWAP1 POP JUMP JUMPDEST PUSH0 PUSH8 0xFFFFFFFFFFFFFFFF DUP3 GT ISZERO PUSH2 0x1695 JUMPI PUSH2 0x1694 PUSH2 0x1603 JUMP JUMPDEST JUMPDEST PUSH2 0x169E DUP3 PUSH2 0x15F3 JUMP JUMPDEST SWAP1 POP PUSH1 0x20 DUP2 ADD SWAP1 POP SWAP2 SWAP1 POP JUMP JUMPDEST DUP3 DUP2 DUP4 CALLDATACOPY PUSH0 DUP4 DUP4 ADD MSTORE POP POP POP JUMP JUMPDEST PUSH0 PUSH2 0x16CB PUSH2 0x16C6 DUP5 PUSH2 0x167B JUMP JUMPDEST PUSH2 0x1661 JUMP JUMPDEST SWAP1 POP DUP3 DUP2 MSTORE PUSH1 0x20 DUP2 ADD DUP5 DUP5 DUP5 ADD GT ISZERO PUSH2 0x16E7 JUMPI PUSH2 0x16E6 PUSH2 0x15EF JUMP JUMPDEST JUMPDEST PUSH2 0x16F2 DUP5 DUP3 DUP6 PUSH2 0x16AB JUMP JUMPDEST POP SWAP4 SWAP3 POP POP POP JUMP JUMPDEST PUSH0 DUP3 PUSH1 0x1F DUP4 ADD SLT PUSH2 0x170E JUMPI PUSH2 0x170D PUSH2 0x15EB JUMP JUMPDEST JUMPDEST DUP2 CALLDATALOAD PUSH2 0x171E DUP5 DUP3 PUSH1 0x20 DUP7 ADD PUSH2 0x16B9 JUMP JUMPDEST SWAP2 POP POP SWAP3 SWAP2 POP POP JUMP JUMPDEST PUSH0 DUP1 PUSH1 0x40 DUP4 DUP6 SUB SLT ISZERO PUSH2 0x173D JUMPI PUSH2 0x173C PUSH2 0x143D JUMP JUMPDEST JUMPDEST PUSH0 PUSH2 0x174A DUP6 DUP3 DUP7 ADD PUSH2 0x148B JUMP JUMPDEST SWAP3 POP POP PUSH1 0x20 DUP4 ADD CALLDATALOAD PUSH8 0xFFFFFFFFFFFFFFFF DUP2 GT ISZERO PUSH2 0x176B JUMPI PUSH2 0x176A PUSH2 0x1441 JUMP JUMPDEST JUMPDEST PUSH2 0x1777 DUP6 DUP3 DUP7 ADD PUSH2 0x16FA JUMP JUMPDEST SWAP2 POP POP SWAP3 POP SWAP3 SWAP1 POP JUMP JUMPDEST PUSH0 PUSH1 0x20 DUP3 DUP5 SUB SLT ISZERO PUSH2 0x1796 JUMPI PUSH2 0x1795 PUSH2 0x143D JUMP JUMPDEST JUMPDEST PUSH0 PUSH2 0x17A3 DUP5 DUP3 DUP6 ADD PUSH2 0x14BE JUMP JUMPDEST SWAP2 POP POP SWAP3 SWAP2 POP POP JUMP JUMPDEST PUSH0 DUP2 MLOAD SWAP1 POP SWAP2 SWAP1 POP JUMP JUMPDEST PUSH0 DUP3 DUP3 MSTORE PUSH1 0x20 DUP3 ADD SWAP1 POP SWAP3 SWAP2 POP POP JUMP JUMPDEST PUSH0 JUMPDEST DUP4 DUP2 LT ISZERO PUSH2 0x17E3 JUMPI DUP1 DUP3 ADD MLOAD DUP2 DUP5 ADD MSTORE PUSH1 0x20 DUP2 ADD SWAP1 POP PUSH2 0x17C8 JUMP JUMPDEST PUSH0 DUP5 DUP5 ADD MSTORE POP POP POP POP JUMP JUMPDEST PUSH0 PUSH2 0x17F8 DUP3 PUSH2 0x17AC JUMP JUMPDEST PUSH2 0x1802 DUP2 DUP6 PUSH2 0x17B6 JUMP JUMPDEST SWAP4 POP PUSH2 0x1812 DUP2 DUP6 PUSH1 0x20 DUP7 ADD PUSH2 0x17C6 JUMP JUMPDEST PUSH2 0x181B DUP2 PUSH2 0x15F3 JUMP JUMPDEST DUP5 ADD SWAP2 POP POP SWAP3 SWAP2 POP POP JUMP JUMPDEST PUSH0 PUSH1 0x20 DUP3 ADD SWAP1 POP DUP2 DUP2 SUB PUSH0 DUP4 ADD MSTORE PUSH2 0x183E DUP2 DUP5 PUSH2 0x17EE JUMP JUMPDEST SWAP1 POP SWAP3 SWAP2 POP POP JUMP JUMPDEST PUSH0 PUSH8 0xFFFFFFFFFFFFFFFF DUP3 GT ISZERO PUSH2 0x1860 JUMPI PUSH2 0x185F PUSH2 0x1603 JUMP JUMPDEST JUMPDEST PUSH1 0x20 DUP3 MUL SWAP1 POP PUSH1 0x20 DUP2 ADD SWAP1 POP SWAP2 SWAP1 POP JUMP JUMPDEST PUSH0 DUP1 REVERT JUMPDEST PUSH0 PUSH2 0x1887 PUSH2 0x1882 DUP5 PUSH2 0x1846 JUMP JUMPDEST PUSH2 0x1661 JUMP JUMPDEST SWAP1 POP DUP1 DUP4 DUP3 MSTORE PUSH1 0x20 DUP3 ADD SWAP1 POP PUSH1 0x20 DUP5 MUL DUP4 ADD DUP6 DUP2 GT ISZERO PUSH2 0x18AA JUMPI PUSH2 0x18A9 PUSH2 0x1871 JUMP JUMPDEST JUMPDEST DUP4 JUMPDEST DUP2 DUP2 LT ISZERO PUSH2 0x18D3 JUMPI DUP1 PUSH2 0x18BF DUP9 DUP3 PUSH2 0x14BE JUMP JUMPDEST DUP5 MSTORE PUSH1 0x20 DUP5 ADD SWAP4 POP POP PUSH1 0x20 DUP2 ADD SWAP1 POP PUSH2 0x18AC JUMP JUMPDEST POP POP POP SWAP4 SWAP3 POP POP POP JUMP JUMPDEST PUSH0 DUP3 PUSH1 0x1F DUP4 ADD SLT PUSH2 0x18F1 JUMPI PUSH2 0x18F0 PUSH2 0x15EB JUMP JUMPDEST JUMPDEST DUP2 CALLDATALOAD PUSH2 0x1901 DUP5 DUP3 PUSH1 0x20 DUP7 ADD PUSH2 0x1875 JUMP JUMPDEST SWAP2 POP POP SWAP3 SWAP2 POP POP JUMP JUMPDEST PUSH0 PUSH8 0xFFFFFFFFFFFFFFFF DUP3 GT ISZERO PUSH2 0x1924 JUMPI PUSH2 0x1923 PUSH2 0x1603 JUMP JUMPDEST JUMPDEST PUSH2 0x192D DUP3 PUSH2 0x15F3 JUMP JUMPDEST SWAP1 POP PUSH1 0x20 DUP2 ADD SWAP1 POP SWAP2 SWAP1 POP JUMP JUMPDEST PUSH0 PUSH2 0x194C PUSH2 0x1947 DUP5 PUSH2 0x190A JUMP JUMPDEST PUSH2 0x1661 JUMP JUMPDEST SWAP1 POP DUP3 DUP2 MSTORE PUSH1 0x20 DUP2 ADD DUP5 DUP5 DUP5 ADD GT ISZERO PUSH2 0x1968 JUMPI PUSH2 0x1967 PUSH2 0x15EF JUMP JUMPDEST JUMPDEST PUSH2 0x1973 DUP5 DUP3 DUP6 PUSH2 0x16AB JUMP JUMPDEST POP SWAP4 SWAP3 POP POP POP JUMP JUMPDEST PUSH0 DUP3 PUSH1 0x1F DUP4 ADD SLT PUSH2 0x198F JUMPI PUSH2 0x198E PUSH2 0x15EB JUMP JUMPDEST JUMPDEST DUP2 CALLDATALOAD PUSH2 0x199F DUP5 DUP3 PUSH1 0x20 DUP7 ADD PUSH2 0x193A JUMP JUMPDEST SWAP2 POP POP SWAP3 SWAP2 POP POP JUMP JUMPDEST PUSH0 DUP1 PUSH0 DUP1 PUSH0 PUSH1 0xA0 DUP7 DUP9 SUB SLT ISZERO PUSH2 0x19C1 JUMPI PUSH2 0x19C0 PUSH2 0x143D JUMP JUMPDEST JUMPDEST PUSH0 PUSH2 0x19CE DUP9 DUP3 DUP10 ADD PUSH2 0x148B JUMP JUMPDEST SWAP6 POP POP PUSH1 0x20 PUSH2 0x19DF DUP9 DUP3 DUP10 ADD PUSH2 0x148B JUMP JUMPDEST SWAP5 POP POP PUSH1 0x40 DUP7 ADD CALLDATALOAD PUSH8 0xFFFFFFFFFFFFFFFF DUP2 GT ISZERO PUSH2 0x1A00 JUMPI PUSH2 0x19FF PUSH2 0x1441 JUMP JUMPDEST JUMPDEST PUSH2 0x1A0C DUP9 DUP3 DUP10 ADD PUSH2 0x18DD JUMP JUMPDEST SWAP4 POP POP PUSH1 0x60 DUP7 ADD CALLDATALOAD PUSH8 0xFFFFFFFFFFFFFFFF DUP2 GT ISZERO PUSH2 0x1A2D JUMPI PUSH2 0x1A2C PUSH2 0x1441 JUMP JUMPDEST JUMPDEST PUSH2 0x1A39 DUP9 DUP3 DUP10 ADD PUSH2 0x18DD JUMP JUMPDEST SWAP3 POP POP PUSH1 0x80 DUP7 ADD CALLDATALOAD PUSH8 0xFFFFFFFFFFFFFFFF DUP2 GT ISZERO PUSH2 0x1A5A JUMPI PUSH2 0x1A59 PUSH2 0x1441 JUMP JUMPDEST JUMPDEST PUSH2 0x1A66 DUP9 DUP3 DUP10 ADD PUSH2 0x197B JUMP JUMPDEST SWAP2 POP POP SWAP3 SWAP6 POP SWAP3 SWAP6 SWAP1 SWAP4 POP JUMP JUMPDEST PUSH0 PUSH8 0xFFFFFFFFFFFFFFFF DUP3 GT ISZERO PUSH2 0x1A8D JUMPI PUSH2 0x1A8C PUSH2 0x1603 JUMP JUMPDEST JUMPDEST PUSH1 0x20 DUP3 MUL SWAP1 POP PUSH1 0x20 DUP2 ADD SWAP1 POP SWAP2 SWAP1 POP JUMP JUMPDEST PUSH0 PUSH2 0x1AB0 PUSH2 0x1AAB DUP5 PUSH2 0x1A73 JUMP JUMPDEST PUSH2 0x1661 JUMP JUMPDEST SWAP1 POP DUP1 DUP4 DUP3 MSTORE PUSH1 0x20 DUP3 ADD SWAP1 POP PUSH1 0x20 DUP5 MUL DUP4 ADD DUP6 DUP2 GT ISZERO PUSH2 0x1AD3 JUMPI PUSH2 0x1AD2 PUSH2 0x1871 JUMP JUMPDEST JUMPDEST DUP4 JUMPDEST DUP2 DUP2 LT ISZERO PUSH2 0x1AFC JUMPI DUP1 PUSH2 0x1AE8 DUP9 DUP3 PUSH2 0x148B JUMP JUMPDEST DUP5 MSTORE PUSH1 0x20 DUP5 ADD SWAP4 POP POP PUSH1 0x20 DUP2 ADD SWAP1 POP PUSH2 0x1AD5 JUMP JUMPDEST POP POP POP SWAP4 SWAP3 POP POP POP JUMP JUMPDEST PUSH0 DUP3 PUSH1 0x1F DUP4 ADD SLT PUSH2 0x1B1A JUMPI PUSH2 0x1B19 PUSH2 0x15EB JUMP JUMPDEST JUMPDEST DUP2 CALLDATALOAD PUSH2 0x1B2A DUP5 DUP3 PUSH1 0x20 DUP7 ADD PUSH2 0x1A9E JUMP JUMPDEST SWAP2 POP POP SWAP3 SWAP2 POP POP JUMP JUMPDEST PUSH0 DUP1 PUSH1 0x40 DUP4 DUP6 SUB SLT ISZERO PUSH2 0x1B49 JUMPI PUSH2 0x1B48 PUSH2 0x143D JUMP JUMPDEST JUMPDEST PUSH0 DUP4 ADD CALLDATALOAD PUSH8 0xFFFFFFFFFFFFFFFF DUP2 GT ISZERO PUSH2 0x1B66 JUMPI PUSH2 0x1B65 PUSH2 0x1441 JUMP JUMPDEST JUMPDEST PUSH2 0x1B72 DUP6 DUP3 DUP7 ADD PUSH2 0x1B06 JUMP JUMPDEST SWAP3 POP POP PUSH1 0x20 DUP4 ADD CALLDATALOAD PUSH8 0xFFFFFFFFFFFFFFFF DUP2 GT ISZERO PUSH2 0x1B93 JUMPI PUSH2 0x1B92 PUSH2 0x1441 JUMP JUMPDEST JUMPDEST PUSH2 0x1B9F DUP6 DUP3 DUP7 ADD PUSH2 0x18DD JUMP JUMPDEST SWAP2 POP POP SWAP3 POP SWAP3 SWAP1 POP JUMP JUMPDEST PUSH0 DUP2 MLOAD SWAP1 POP SWAP2 SWAP1 POP JUMP JUMPDEST PUSH0 DUP3 DUP3 MSTORE PUSH1 0x20 DUP3 ADD SWAP1 POP SWAP3 SWAP2 POP POP JUMP JUMPDEST PUSH0 DUP2 SWAP1 POP PUSH1 0x20 DUP3 ADD SWAP1 POP SWAP2 SWAP1 POP JUMP JUMPDEST PUSH2 0x1BDB DUP2 PUSH2 0x149F JUMP JUMPDEST DUP3 MSTORE POP POP JUMP JUMPDEST PUSH0 PUSH2 0x1BEC DUP4 DUP4 PUSH2 0x1BD2 JUMP JUMPDEST PUSH1 0x20 DUP4 ADD SWAP1 POP SWAP3 SWAP2 POP POP JUMP JUMPDEST PUSH0 PUSH1 0x20 DUP3 ADD SWAP1 POP SWAP2 SWAP1 POP JUMP JUMPDEST PUSH0 PUSH2 0x1C0E DUP3 PUSH2 0x1BA9 JUMP JUMPDEST PUSH2 0x1C18 DUP2 DUP6 PUSH2 0x1BB3 JUMP JUMPDEST SWAP4 POP PUSH2 0x1C23 DUP4 PUSH2 0x1BC3 JUMP JUMPDEST DUP1 PUSH0 JUMPDEST DUP4 DUP2 LT ISZERO PUSH2 0x1C53 JUMPI DUP2 MLOAD PUSH2 0x1C3A DUP9 DUP3 PUSH2 0x1BE1 JUMP JUMPDEST SWAP8 POP PUSH2 0x1C45 DUP4 PUSH2 0x1BF8 JUMP JUMPDEST SWAP3 POP POP PUSH1 0x1 DUP2 ADD SWAP1 POP PUSH2 0x1C26 JUMP JUMPDEST POP DUP6 SWAP4 POP POP POP POP SWAP3 SWAP2 POP POP JUMP JUMPDEST PUSH0 PUSH1 0x20 DUP3 ADD SWAP1 POP DUP2 DUP2 SUB PUSH0 DUP4 ADD MSTORE PUSH2 0x1C78 DUP2 DUP5 PUSH2 0x1C04 JUMP JUMPDEST SWAP1 POP SWAP3 SWAP2 POP POP JUMP JUMPDEST PUSH0 DUP1 PUSH0 PUSH1 0x60 DUP5 DUP7 SUB SLT ISZERO PUSH2 0x1C97 JUMPI PUSH2 0x1C96 PUSH2 0x143D JUMP JUMPDEST JUMPDEST PUSH0 PUSH2 0x1CA4 DUP7 DUP3 DUP8 ADD PUSH2 0x148B JUMP JUMPDEST SWAP4 POP POP PUSH1 0x20 PUSH2 0x1CB5 DUP7 DUP3 DUP8 ADD PUSH2 0x14BE JUMP JUMPDEST SWAP3 POP POP PUSH1 0x40 PUSH2 0x1CC6 DUP7 DUP3 DUP8 ADD PUSH2 0x14BE JUMP JUMPDEST SWAP2 POP POP SWAP3 POP SWAP3 POP SWAP3 JUMP JUMPDEST PUSH2 0x1CD9 DUP2 PUSH2 0x15B8 JUMP JUMPDEST DUP2 EQ PUSH2 0x1CE3 JUMPI PUSH0 DUP1 REVERT JUMPDEST POP JUMP JUMPDEST PUSH0 DUP2 CALLDATALOAD SWAP1 POP PUSH2 0x1CF4 DUP2 PUSH2 0x1CD0 JUMP JUMPDEST SWAP3 SWAP2 POP POP JUMP JUMPDEST PUSH0 DUP1 PUSH1 0x40 DUP4 DUP6 SUB SLT ISZERO PUSH2 0x1D10 JUMPI PUSH2 0x1D0F PUSH2 0x143D JUMP JUMPDEST JUMPDEST PUSH0 PUSH2 0x1D1D DUP6 DUP3 DUP7 ADD PUSH2 0x148B JUMP JUMPDEST SWAP3 POP POP PUSH1 0x20 PUSH2 0x1D2E DUP6 DUP3 DUP7 ADD PUSH2 0x1CE6 JUMP JUMPDEST SWAP2 POP POP SWAP3 POP SWAP3 SWAP1 POP JUMP JUMPDEST PUSH0 DUP1 PUSH1 0x40 DUP4 DUP6 SUB SLT ISZERO PUSH2 0x1D4E JUMPI PUSH2 0x1D4D PUSH2 0x143D JUMP JUMPDEST JUMPDEST PUSH0 PUSH2 0x1D5B DUP6 DUP3 DUP7 ADD PUSH2 0x148B JUMP JUMPDEST SWAP3 POP POP PUSH1 0x20 PUSH2 0x1D6C DUP6 DUP3 DUP7 ADD PUSH2 0x148B JUMP JUMPDEST SWAP2 POP POP SWAP3 POP SWAP3 SWAP1 POP JUMP JUMPDEST PUSH0 DUP1 PUSH0 DUP1 PUSH0 PUSH1 0xA0 DUP7 DUP9 SUB SLT ISZERO PUSH2 0x1D8F JUMPI PUSH2 0x1D8E PUSH2 0x143D JUMP JUMPDEST JUMPDEST PUSH0 PUSH2 0x1D9C DUP9 DUP3 DUP10 ADD PUSH2 0x148B JUMP JUMPDEST SWAP6 POP POP PUSH1 0x20 PUSH2 0x1DAD DUP9 DUP3 DUP10 ADD PUSH2 0x148B JUMP JUMPDEST SWAP5 POP POP PUSH1 0x40 PUSH2 0x1DBE DUP9 DUP3 DUP10 ADD PUSH2 0x14BE JUMP JUMPDEST SWAP4 POP POP PUSH1 0x60 PUSH2 0x1DCF DUP9 DUP3 DUP10 ADD PUSH2 0x14BE JUMP JUMPDEST SWAP3 POP POP PUSH1 0x80 DUP7 ADD CALLDATALOAD PUSH8 0xFFFFFFFFFFFFFFFF DUP2 GT ISZERO PUSH2 0x1DF0 JUMPI PUSH2 0x1DEF PUSH2 0x1441 JUMP JUMPDEST JUMPDEST PUSH2 0x1DFC DUP9 DUP3 DUP10 ADD PUSH2 0x197B JUMP JUMPDEST SWAP2 POP POP SWAP3 SWAP6 POP SWAP3 SWAP6 SWAP1 SWAP4 POP JUMP JUMPDEST PUSH0 DUP2 SWAP1 POP SWAP3 SWAP2 POP POP JUMP JUMPDEST PUSH0 PUSH2 0x1E1D DUP3 PUSH2 0x17AC JUMP JUMPDEST PUSH2 0x1E27 DUP2 DUP6 PUSH2 0x1E09 JUMP JUMPDEST SWAP4 POP PUSH2 0x1E37 DUP2 DUP6 PUSH1 0x20 DUP7 ADD PUSH2 0x17C6 JUMP JUMPDEST DUP1 DUP5 ADD SWAP2 POP POP SWAP3 SWAP2 POP POP JUMP JUMPDEST PUSH32 0x4E487B7100000000000000000000000000000000000000000000000000000000 PUSH0 MSTORE PUSH1 0x22 PUSH1 0x4 MSTORE PUSH1 0x24 PUSH0 REVERT JUMPDEST PUSH0 PUSH1 0x2 DUP3 DIV SWAP1 POP PUSH1 0x1 DUP3 AND DUP1 PUSH2 0x1E87 JUMPI PUSH1 0x7F DUP3 AND SWAP2 POP JUMPDEST PUSH1 0x20 DUP3 LT DUP2 SUB PUSH2 0x1E9A JUMPI PUSH2 0x1E99 PUSH2 0x1E43 JUMP JUMPDEST JUMPDEST POP SWAP2 SWAP1 POP JUMP JUMPDEST PUSH0 DUP2 SWAP1 POP DUP2 PUSH0 MSTORE PUSH1 0x20 PUSH0 KECCAK256 SWAP1 POP SWAP2 SWAP1 POP JUMP JUMPDEST PUSH0 DUP2 SLOAD PUSH2 0x1EBE DUP2 PUSH2 0x1E70 JUMP JUMPDEST PUSH2 0x1EC8 DUP2 DUP7 PUSH2 0x1E09 JUMP JUMPDEST SWAP5 POP PUSH1 0x1 DUP3 AND PUSH0 DUP2 EQ PUSH2 0x1EE2 JUMPI PUSH1 0x1 DUP2 EQ PUSH2 0x1EF7 JUMPI PUSH2 0x1F29 JUMP JUMPDEST PUSH1 0xFF NOT DUP4 AND DUP7 MSTORE DUP2 ISZERO ISZERO DUP3 MUL DUP7 ADD SWAP4 POP PUSH2 0x1F29 JUMP JUMPDEST PUSH2 0x1F00 DUP6 PUSH2 0x1EA0 JUMP JUMPDEST PUSH0 JUMPDEST DUP4 DUP2 LT ISZERO PUSH2 0x1F21 JUMPI DUP2 SLOAD DUP2 DUP10 ADD MSTORE PUSH1 0x1 DUP3 ADD SWAP2 POP PUSH1 0x20 DUP2 ADD SWAP1 POP PUSH2 0x1F02 JUMP JUMPDEST DUP4 DUP9 ADD SWAP6 POP POP POP JUMPDEST POP POP POP SWAP3 SWAP2 POP POP JUMP JUMPDEST PUSH0 PUSH2 0x1F3D DUP3 DUP6 PUSH2 0x1E13 JUMP JUMPDEST SWAP2 POP PUSH2 0x1F49 DUP3 DUP5 PUSH2 0x1EB2 JUMP JUMPDEST SWAP2 POP DUP2 SWAP1 POP SWAP4 SWAP3 POP POP POP JUMP JUMPDEST PUSH2 0x1F5E DUP2 PUSH2 0x1464 JUMP JUMPDEST DUP3 MSTORE POP POP JUMP JUMPDEST PUSH0 PUSH1 0x40 DUP3 ADD SWAP1 POP PUSH2 0x1F77 PUSH0 DUP4 ADD DUP6 PUSH2 0x1F55 JUMP JUMPDEST PUSH2 0x1F84 PUSH1 0x20 DUP4 ADD DUP5 PUSH2 0x1F55 JUMP JUMPDEST SWAP4 SWAP3 POP POP POP JUMP JUMPDEST PUSH0 PUSH1 0x40 DUP3 ADD SWAP1 POP PUSH2 0x1F9E PUSH0 DUP4 ADD DUP6 PUSH2 0x1510 JUMP JUMPDEST PUSH2 0x1FAB PUSH1 0x20 DUP4 ADD DUP5 PUSH2 0x1510 JUMP JUMPDEST SWAP4 SWAP3 POP POP POP JUMP JUMPDEST PUSH32 0x4E487B7100000000000000000000000000000000000000000000000000000000 PUSH0 MSTORE PUSH1 0x32 PUSH1 0x4 MSTORE PUSH1 0x24 PUSH0 REVERT JUMPDEST PUSH0 PUSH1 0x20 DUP3 ADD SWAP1 POP PUSH2 0x1FF2 PUSH0 DUP4 ADD DUP5 PUSH2 0x1F55 JUMP JUMPDEST SWAP3 SWAP2 POP POP JUMP JUMPDEST PUSH0 PUSH1 0x20 PUSH1 0x1F DUP4 ADD DIV SWAP1 POP SWAP2 SWAP1 POP JUMP JUMPDEST PUSH0 DUP3 DUP3 SHL SWAP1 POP SWAP3 SWAP2 POP POP JUMP JUMPDEST PUSH0 PUSH1 0x8 DUP4 MUL PUSH2 0x2042 PUSH32 0xFFFFFFFFFFFFFFFFFFFFFFFFFFFFFFFFFFFFFFFFFFFFFFFFFFFFFFFFFFFFFFFF DUP3 PUSH2 0x2007 JUMP JUMPDEST PUSH2 0x204C DUP7 DUP4 PUSH2 0x2007 JUMP JUMPDEST SWAP6 POP DUP1 NOT DUP5 AND SWAP4 POP DUP1 DUP7 AND DUP5 OR SWAP3 POP POP POP SWAP4 SWAP3 POP POP POP JUMP JUMPDEST PUSH0 DUP2 SWAP1 POP SWAP2 SWAP1 POP JUMP JUMPDEST PUSH0 PUSH2 0x2087 PUSH2 0x2082 PUSH2 0x207D DUP5 PUSH2 0x149F JUMP JUMPDEST PUSH2 0x2064 JUMP JUMPDEST PUSH2 0x149F JUMP JUMPDEST SWAP1 POP SWAP2 SWAP1 POP JUMP JUMPDEST PUSH0 DUP2 SWAP1 POP SWAP2 SWAP1 POP JUMP JUMPDEST PUSH2 0x20A0 DUP4 PUSH2 0x206D JUMP JUMPDEST PUSH2 0x20B4 PUSH2 0x20AC DUP3 PUSH2 0x208E JUMP JUMPDEST DUP5 DUP5 SLOAD PUSH2 0x2013 JUMP JUMPDEST DUP3 SSTORE POP POP POP POP JUMP JUMPDEST PUSH0 SWAP1 JUMP JUMPDEST PUSH2 0x20C8 PUSH2 0x20BC JUMP JUMPDEST PUSH2 0x20D3 DUP2 DUP5 DUP5 PUSH2 0x2097 JUMP JUMPDEST POP POP POP JUMP JUMPDEST JUMPDEST DUP2 DUP2 LT ISZERO PUSH2 0x20F6 JUMPI PUSH2 0x20EB PUSH0 DUP3 PUSH2 0x20C0 JUMP JUMPDEST PUSH1 0x1 DUP2 ADD SWAP1 POP PUSH2 0x20D9 JUMP JUMPDEST POP POP JUMP JUMPDEST PUSH1 0x1F DUP3 GT ISZERO PUSH2 0x213B JUMPI PUSH2 0x210C DUP2 PUSH2 0x1EA0 JUMP JUMPDEST PUSH2 0x2115 DUP5 PUSH2 0x1FF8 JUMP JUMPDEST DUP2 ADD PUSH1 0x20 DUP6 LT ISZERO PUSH2 0x2124 JUMPI DUP2 SWAP1 POP JUMPDEST PUSH2 0x2138 PUSH2 0x2130 DUP6 PUSH2 0x1FF8 JUMP JUMPDEST DUP4 ADD DUP3 PUSH2 0x20D8 JUMP JUMPDEST POP POP JUMPDEST POP POP POP JUMP JUMPDEST PUSH0 DUP3 DUP3 SHR SWAP1 POP SWAP3 SWAP2 POP POP JUMP JUMPDEST PUSH0 PUSH2 0x215B PUSH0 NOT DUP5 PUSH1 0x8 MUL PUSH2 0x2140 JUMP JUMPDEST NOT DUP1 DUP4 AND SWAP2 POP POP SWAP3 SWAP2 POP POP JUMP JUMPDEST PUSH0 PUSH2 0x2173 DUP4 DUP4 PUSH2 0x214C JUMP JUMPDEST SWAP2 POP DUP3 PUSH1 0x2 MUL DUP3 OR SWAP1 POP SWAP3 SWAP2 POP POP JUMP JUMPDEST PUSH2 0x218C DUP3 PUSH2 0x17AC JUMP JUMPDEST PUSH8 0xFFFFFFFFFFFFFFFF DUP2 GT ISZERO PUSH2 0x21A5 JUMPI PUSH2 0x21A4 PUSH2 0x1603 JUMP JUMPDEST JUMPDEST PUSH2 0x21AF DUP3 SLOAD PUSH2 0x1E70 JUMP JUMPDEST PUSH2 0x21BA DUP3 DUP3 DUP6 PUSH2 0x20FA JUMP JUMPDEST PUSH0 PUSH1 0x20 SWAP1 POP PUSH1 0x1F DUP4 GT PUSH1 0x1 DUP2 EQ PUSH2 0x21EB JUMPI PUSH0 DUP5 ISZERO PUSH2 0x21D9 JUMPI DUP3 DUP8 ADD MLOAD SWAP1 POP JUMPDEST PUSH2 0x21E3 DUP6 DUP3 PUSH2 0x2168 JUMP JUMPDEST DUP7 SSTORE POP PUSH2 0x224A JUMP JUMPDEST PUSH1 0x1F NOT DUP5 AND PUSH2 0x21F9 DUP7 PUSH2 0x1EA0 JUMP JUMPDEST PUSH0 JUMPDEST DUP3 DUP2 LT ISZERO PUSH2 0x2220 JUMPI DUP5 DUP10 ADD MLOAD DUP3 SSTORE PUSH1 0x1 DUP3 ADD SWAP2 POP PUSH1 0x20 DUP6 ADD SWAP5 POP PUSH1 0x20 DUP2 ADD SWAP1 POP PUSH2 0x21FB JUMP JUMPDEST DUP7 DUP4 LT ISZERO PUSH2 0x223D JUMPI DUP5 DUP10 ADD MLOAD PUSH2 0x2239 PUSH1 0x1F DUP10 AND DUP3 PUSH2 0x214C JUMP JUMPDEST DUP4 SSTORE POP JUMPDEST PUSH1 0x1 PUSH1 0x2 DUP9 MUL ADD DUP9 SSTORE POP POP POP JUMPDEST POP POP POP POP POP POP JUMP JUMPDEST PUSH0 PUSH1 0x80 DUP3 ADD SWAP1 POP PUSH2 0x2265 PUSH0 DUP4 ADD DUP8 PUSH2 0x1F55 JUMP JUMPDEST PUSH2 0x2272 PUSH1 0x20 DUP4 ADD DUP7 PUSH2 0x1510 JUMP JUMPDEST PUSH2 0x227F PUSH1 0x40 DUP4 ADD DUP6 PUSH2 0x1510 JUMP JUMPDEST PUSH2 0x228C PUSH1 0x60 DUP4 ADD DUP5 PUSH2 0x1510 JUMP JUMPDEST SWAP6 SWAP5 POP POP POP POP POP JUMP JUMPDEST PUSH32 0x4E487B7100000000000000000000000000000000000000000000000000000000 PUSH0 MSTORE PUSH1 0x11 PUSH1 0x4 MSTORE PUSH1 0x24 PUSH0 REVERT JUMPDEST PUSH0 PUSH2 0x22CC DUP3 PUSH2 0x149F JUMP JUMPDEST SWAP2 POP PUSH2 0x22D7 DUP4 PUSH2 0x149F JUMP JUMPDEST SWAP3 POP DUP3 DUP3 ADD SWAP1 POP DUP1 DUP3 GT ISZERO PUSH2 0x22EF JUMPI PUSH2 0x22EE PUSH2 0x2295 JUMP JUMPDEST JUMPDEST SWAP3 SWAP2 POP POP JUMP JUMPDEST PUSH0 PUSH1 0x40 DUP3 ADD SWAP1 POP DUP2 DUP2 SUB PUSH0 DUP4 ADD MSTORE PUSH2 0x230D DUP2 DUP6 PUSH2 0x1C04 JUMP JUMPDEST SWAP1 POP DUP2 DUP2 SUB PUSH1 0x20 DUP4 ADD MSTORE PUSH2 0x2321 DUP2 DUP5 PUSH2 0x1C04 JUMP JUMPDEST SWAP1 POP SWAP4 SWAP3 POP POP POP JUMP JUMPDEST PUSH0 DUP2 MLOAD SWAP1 POP SWAP2 SWAP1 POP JUMP JUMPDEST PUSH0 DUP3 DUP3 MSTORE PUSH1 0x20 DUP3 ADD SWAP1 POP SWAP3 SWAP2 POP POP JUMP JUMPDEST PUSH0 PUSH2 0x234E DUP3 PUSH2 0x232A JUMP JUMPDEST PUSH2 0x2358 DUP2 DUP6 PUSH2 0x2334 JUMP JUMPDEST SWAP4 POP PUSH2 0x2368 DUP2 DUP6 PUSH1 0x20 DUP7 ADD PUSH2 0x17C6 JUMP JUMPDEST PUSH2 0x2371 DUP2 PUSH2 0x15F3 JUMP JUMPDEST DUP5 ADD SWAP2 POP POP SWAP3 SWAP2 POP POP JUMP JUMPDEST PUSH0 PUSH1 0xA0 DUP3 ADD SWAP1 POP PUSH2 0x238F PUSH0 DUP4 ADD DUP9 PUSH2 0x1F55 JUMP JUMPDEST PUSH2 0x239C PUSH1 0x20 DUP4 ADD DUP8 PUSH2 0x1F55 JUMP JUMPDEST PUSH2 0x23A9 PUSH1 0x40 DUP4 ADD DUP7 PUSH2 0x1510 JUMP JUMPDEST PUSH2 0x23B6 PUSH1 0x60 DUP4 ADD DUP6 PUSH2 0x1510 JUMP JUMPDEST DUP2 DUP2 SUB PUSH1 0x80 DUP4 ADD MSTORE PUSH2 0x23C8 DUP2 DUP5 PUSH2 0x2344 JUMP JUMPDEST SWAP1 POP SWAP7 SWAP6 POP POP POP POP POP POP JUMP JUMPDEST PUSH0 DUP2 MLOAD SWAP1 POP PUSH2 0x23E2 DUP2 PUSH2 0x1563 JUMP JUMPDEST SWAP3 SWAP2 POP POP JUMP JUMPDEST PUSH0 PUSH1 0x20 DUP3 DUP5 SUB SLT ISZERO PUSH2 0x23FD JUMPI PUSH2 0x23FC PUSH2 0x143D JUMP JUMPDEST JUMPDEST PUSH0 PUSH2 0x240A DUP5 DUP3 DUP6 ADD PUSH2 0x23D4 JUMP JUMPDEST SWAP2 POP POP SWAP3 SWAP2 POP POP JUMP JUMPDEST PUSH0 PUSH1 0xA0 DUP3 ADD SWAP1 POP PUSH2 0x2426 PUSH0 DUP4 ADD DUP9 PUSH2 0x1F55 JUMP JUMPDEST PUSH2 0x2433 PUSH1 0x20 DUP4 ADD DUP8 PUSH2 0x1F55 JUMP JUMPDEST DUP2 DUP2 SUB PUSH1 0x40 DUP4 ADD MSTORE PUSH2 0x2445 DUP2 DUP7 PUSH2 0x1C04 JUMP JUMPDEST SWAP1 POP DUP2 DUP2 SUB PUSH1 0x60 DUP4 ADD MSTORE PUSH2 0x2459 DUP2 DUP6 PUSH2 0x1C04 JUMP JUMPDEST SWAP1 POP DUP2 DUP2 SUB PUSH1 0x80 DUP4 ADD MSTORE PUSH2 0x246D DUP2 DUP5 PUSH2 0x2344 JUMP JUMPDEST SWAP1 POP SWAP7 SWAP6 POP POP POP POP POP POP JUMP INVALID LOG2 PUSH5 0x6970667358 0x22 SLT KECCAK256 OR 0xB8 0xA8 TIMESTAMP EXTCODESIZE SWAP8 PUSH21 0xF6429BE3D8D1A2429F036FCDE274BDEE8C77BF45D1 0x23 PUSH7 0x6C2D64736F6C63 NUMBER STOP ADDMOD AND STOP CALLER "
				},
				"gasEstimates": {
					"creation": {
						"codeDepositCost": "1878200",
						"executionCost": "infinite",
						"totalCost": "infinite"
					},
					"external": {
						"balanceOf(address,uint256)": "infinite",
						"balanceOfBatch(address[],uint256[])": "infinite",
						"isApprovedForAll(address,address)": "infinite",
						"mintFungible(address,uint256,uint256)": "infinite",
						"mintNonFungible(address,string)": "infinite",
						"safeBatchTransferFrom(address,address,uint256[],uint256[],bytes)": "infinite",
						"safeTransferFrom(address,address,uint256,uint256,bytes)": "infinite",
						"setApprovalForAll(address,bool)": "infinite",
						"supportsInterface(bytes4)": "786",
						"uri(uint256)": "infinite"
					},
					"internal": {
						"_setTokenURI(uint256,string memory)": "infinite"
					}
				},
				"methodIdentifiers": {
					"balanceOf(address,uint256)": "00fdd58e",
					"balanceOfBatch(address[],uint256[])": "4e1273f4",
					"isApprovedForAll(address,address)": "e985e9c5",
					"mintFungible(address,uint256,uint256)": "58ea82e6",
					"mintNonFungible(address,string)": "07805a6b",
					"safeBatchTransferFrom(address,address,uint256[],uint256[],bytes)": "2eb2c2d6",
					"safeTransferFrom(address,address,uint256,uint256,bytes)": "f242432a",
					"setApprovalForAll(address,bool)": "a22cb465",
					"supportsInterface(bytes4)": "01ffc9a7",
					"uri(uint256)": "0e89341c"
				}
			},
			"storageLayout": {
				"storage": [
					{
						"astId": 178,
						"contract": "contracts/task2.sol:MyERC1155",
						"label": "_balances",
						"offset": 0,
						"slot": "0",
						"type": "t_mapping(t_uint256,t_mapping(t_address,t_uint256))"
					},
					{
						"astId": 184,
						"contract": "contracts/task2.sol:MyERC1155",
						"label": "_operatorApprovals",
						"offset": 0,
						"slot": "1",
						"type": "t_mapping(t_address,t_mapping(t_address,t_bool))"
					},
					{
						"astId": 186,
						"contract": "contracts/task2.sol:MyERC1155",
						"label": "_uri",
						"offset": 0,
						"slot": "2",
						"type": "t_string_storage"
					},
					{
						"astId": 2868,
						"contract": "contracts/task2.sol:MyERC1155",
						"label": "_nonFungibleTokenIds",
						"offset": 0,
						"slot": "3",
						"type": "t_struct(Counter)1587_storage"
					},
					{
						"astId": 2872,
						"contract": "contracts/task2.sol:MyERC1155",
						"label": "_tokenURIs",
						"offset": 0,
						"slot": "4",
						"type": "t_mapping(t_uint256,t_string_storage)"
					}
				],
				"types": {
					"t_address": {
						"encoding": "inplace",
						"label": "address",
						"numberOfBytes": "20"
					},
					"t_bool": {
						"encoding": "inplace",
						"label": "bool",
						"numberOfBytes": "1"
					},
					"t_mapping(t_address,t_bool)": {
						"encoding": "mapping",
						"key": "t_address",
						"label": "mapping(address => bool)",
						"numberOfBytes": "32",
						"value": "t_bool"
					},
					"t_mapping(t_address,t_mapping(t_address,t_bool))": {
						"encoding": "mapping",
						"key": "t_address",
						"label": "mapping(address => mapping(address => bool))",
						"numberOfBytes": "32",
						"value": "t_mapping(t_address,t_bool)"
					},
					"t_mapping(t_address,t_uint256)": {
						"encoding": "mapping",
						"key": "t_address",
						"label": "mapping(address => uint256)",
						"numberOfBytes": "32",
						"value": "t_uint256"
					},
					"t_mapping(t_uint256,t_mapping(t_address,t_uint256))": {
						"encoding": "mapping",
						"key": "t_uint256",
						"label": "mapping(uint256 => mapping(address => uint256))",
						"numberOfBytes": "32",
						"value": "t_mapping(t_address,t_uint256)"
					},
					"t_mapping(t_uint256,t_string_storage)": {
						"encoding": "mapping",
						"key": "t_uint256",
						"label": "mapping(uint256 => string)",
						"numberOfBytes": "32",
						"value": "t_string_storage"
					},
					"t_string_storage": {
						"encoding": "bytes",
						"label": "string",
						"numberOfBytes": "32"
					},
					"t_struct(Counter)1587_storage": {
						"encoding": "inplace",
						"label": "struct Counters.Counter",
						"members": [
							{
								"astId": 1586,
								"contract": "contracts/task2.sol:MyERC1155",
								"label": "_value",
								"offset": 0,
								"slot": "0",
								"type": "t_uint256"
							}
						],
						"numberOfBytes": "32"
					},
					"t_uint256": {
						"encoding": "inplace",
						"label": "uint256",
						"numberOfBytes": "32"
					}
				}
			},
			"userdoc": {
				"kind": "user",
				"methods": {},
				"version": 1
			}
		}
	}
}